{
	"contracts/Dividend_SC06_Secire.sol": {
		"DividendDistributor": {
			"abi": [
				{
					"inputs": [],
					"stateMutability": "nonpayable",
					"type": "constructor"
				},
				{
					"inputs": [
						{
							"internalType": "address",
							"name": "recipient",
							"type": "address"
						},
						{
							"internalType": "uint256",
							"name": "amount",
							"type": "uint256"
						}
					],
					"name": "AddRecipient",
					"outputs": [],
					"stateMutability": "nonpayable",
					"type": "function"
				},
				{
					"inputs": [],
					"name": "DepositFunds",
					"outputs": [],
					"stateMutability": "payable",
					"type": "function"
				},
				{
					"inputs": [
						{
							"internalType": "uint256",
							"name": "batchSize",
							"type": "uint256"
						}
					],
					"name": "DistributeDividends",
					"outputs": [],
					"stateMutability": "nonpayable",
					"type": "function"
				},
				{
					"inputs": [],
					"name": "GetRecipients",
					"outputs": [
						{
							"internalType": "address[]",
							"name": "",
							"type": "address[]"
						}
					],
					"stateMutability": "view",
					"type": "function"
				},
				{
					"inputs": [],
					"name": "ResetProcessedIndex",
					"outputs": [],
					"stateMutability": "nonpayable",
					"type": "function"
				},
				{
					"inputs": [
						{
							"internalType": "uint256",
							"name": "batchSize",
							"type": "uint256"
						}
					],
					"name": "RetryFailedPayments",
					"outputs": [],
					"stateMutability": "nonpayable",
					"type": "function"
				},
				{
					"inputs": [],
					"name": "admin",
					"outputs": [
						{
							"internalType": "address",
							"name": "",
							"type": "address"
						}
					],
					"stateMutability": "view",
					"type": "function"
				},
				{
					"inputs": [
						{
							"internalType": "address",
							"name": "",
							"type": "address"
						}
					],
					"name": "dividends",
					"outputs": [
						{
							"internalType": "uint256",
							"name": "",
							"type": "uint256"
						}
					],
					"stateMutability": "view",
					"type": "function"
				},
				{
					"inputs": [
						{
							"internalType": "address",
							"name": "",
							"type": "address"
						}
					],
					"name": "failedRecipients",
					"outputs": [
						{
							"internalType": "bool",
							"name": "",
							"type": "bool"
						}
					],
					"stateMutability": "view",
					"type": "function"
				},
				{
					"inputs": [],
					"name": "processedIndex",
					"outputs": [
						{
							"internalType": "uint256",
							"name": "",
							"type": "uint256"
						}
					],
					"stateMutability": "view",
					"type": "function"
				},
				{
					"inputs": [
						{
							"internalType": "uint256",
							"name": "",
							"type": "uint256"
						}
					],
					"name": "recipients",
					"outputs": [
						{
							"internalType": "address",
							"name": "",
							"type": "address"
						}
					],
					"stateMutability": "view",
					"type": "function"
				}
			],
			"devdoc": {
				"kind": "dev",
				"methods": {},
				"version": 1
			},
			"evm": {
				"assembly": "    /* \"contracts/Dividend_SC06_Secire.sol\":60:2593  contract DividendDistributor {... */\n  mstore(0x40, 0x80)\n    /* \"contracts/Dividend_SC06_Secire.sol\":370:421  constructor() {... */\n  callvalue\n  dup1\n  iszero\n  tag_1\n  jumpi\n  revert(0x00, 0x00)\ntag_1:\n  pop\n    /* \"contracts/Dividend_SC06_Secire.sol\":403:413  msg.sender */\n  caller\n    /* \"contracts/Dividend_SC06_Secire.sol\":395:400  admin */\n  0x00\n  0x00\n    /* \"contracts/Dividend_SC06_Secire.sol\":395:413  admin = msg.sender */\n  0x0100\n  exp\n  dup2\n  sload\n  dup2\n  0xffffffffffffffffffffffffffffffffffffffff\n  mul\n  not\n  and\n  swap1\n  dup4\n  0xffffffffffffffffffffffffffffffffffffffff\n  and\n  mul\n  or\n  swap1\n  sstore\n  pop\n    /* \"contracts/Dividend_SC06_Secire.sol\":60:2593  contract DividendDistributor {... */\n  dataSize(sub_0)\n  dup1\n  dataOffset(sub_0)\n  0x00\n  codecopy\n  0x00\n  return\nstop\n\nsub_0: assembly {\n        /* \"contracts/Dividend_SC06_Secire.sol\":60:2593  contract DividendDistributor {... */\n      mstore(0x40, 0x80)\n      jumpi(tag_1, lt(calldatasize, 0x04))\n      shr(0xe0, calldataload(0x00))\n      dup1\n      0x68306e43\n      gt\n      tag_13\n      jumpi\n      dup1\n      0x68306e43\n      eq\n      tag_7\n      jumpi\n      dup1\n      0x75b4306b\n      eq\n      tag_8\n      jumpi\n      dup1\n      0xa32df10c\n      eq\n      tag_9\n      jumpi\n      dup1\n      0xd1bc76a1\n      eq\n      tag_10\n      jumpi\n      dup1\n      0xf851a440\n      eq\n      tag_11\n      jumpi\n      dup1\n      0xfdda918e\n      eq\n      tag_12\n      jumpi\n      jump(tag_1)\n    tag_13:\n      dup1\n      0x065d8d3d\n      eq\n      tag_2\n      jumpi\n      dup1\n      0x1af8b015\n      eq\n      tag_3\n      jumpi\n      dup1\n      0x1e1f1072\n      eq\n      tag_4\n      jumpi\n      dup1\n      0x4ecd73e2\n      eq\n      tag_5\n      jumpi\n      dup1\n      0x4fbcd6d5\n      eq\n      tag_6\n      jumpi\n    tag_1:\n      revert(0x00, 0x00)\n        /* \"contracts/Dividend_SC06_Secire.sol\":1641:2294  function RetryFailedPayments(uint256 batchSize) public onlyAdmin {... */\n    tag_2:\n      callvalue\n      dup1\n      iszero\n      tag_14\n      jumpi\n      revert(0x00, 0x00)\n    tag_14:\n      pop\n      tag_15\n      0x04\n      dup1\n      calldatasize\n      sub\n      dup2\n      add\n      swap1\n      tag_16\n      swap2\n      swap1\n      tag_17\n      jump\t// in\n    tag_16:\n      tag_18\n      jump\t// in\n    tag_15:\n      stop\n        /* \"contracts/Dividend_SC06_Secire.sol\":2302:2423  function ResetProcessedIndex() public onlyAdmin {... */\n    tag_3:\n      callvalue\n      dup1\n      iszero\n      tag_19\n      jumpi\n      revert(0x00, 0x00)\n    tag_19:\n      pop\n      tag_20\n      tag_21\n      jump\t// in\n    tag_20:\n      stop\n        /* \"contracts/Dividend_SC06_Secire.sol\":556:788  function AddRecipient(address recipient, uint256 amount) public onlyAdmin {... */\n    tag_4:\n      callvalue\n      dup1\n      iszero\n      tag_22\n      jumpi\n      revert(0x00, 0x00)\n    tag_22:\n      pop\n      tag_23\n      0x04\n      dup1\n      calldatasize\n      sub\n      dup2\n      add\n      swap1\n      tag_24\n      swap2\n      swap1\n      tag_25\n      jump\t// in\n    tag_24:\n      tag_26\n      jump\t// in\n    tag_23:\n      stop\n        /* \"contracts/Dividend_SC06_Secire.sol\":796:1633  function DistributeDividends(uint256 batchSize) public onlyAdmin {... */\n    tag_5:\n      callvalue\n      dup1\n      iszero\n      tag_27\n      jumpi\n      revert(0x00, 0x00)\n    tag_27:\n      pop\n      tag_28\n      0x04\n      dup1\n      calldatasize\n      sub\n      dup2\n      add\n      swap1\n      tag_29\n      swap2\n      swap1\n      tag_17\n      jump\t// in\n    tag_29:\n      tag_30\n      jump\t// in\n    tag_28:\n      stop\n        /* \"contracts/Dividend_SC06_Secire.sol\":2431:2482  function DepositFunds() public payable onlyAdmin {} */\n    tag_6:\n      tag_31\n      tag_32\n      jump\t// in\n    tag_31:\n      stop\n        /* \"contracts/Dividend_SC06_Secire.sol\":157:201  mapping(address => uint256) public dividends */\n    tag_7:\n      callvalue\n      dup1\n      iszero\n      tag_33\n      jumpi\n      revert(0x00, 0x00)\n    tag_33:\n      pop\n      tag_34\n      0x04\n      dup1\n      calldatasize\n      sub\n      dup2\n      add\n      swap1\n      tag_35\n      swap2\n      swap1\n      tag_36\n      jump\t// in\n    tag_35:\n      tag_37\n      jump\t// in\n    tag_34:\n      mload(0x40)\n      tag_38\n      swap2\n      swap1\n      tag_39\n      jump\t// in\n    tag_38:\n      mload(0x40)\n      dup1\n      swap2\n      sub\n      swap1\n      return\n        /* \"contracts/Dividend_SC06_Secire.sol\":2490:2590  function GetRecipients() public view returns (address[] memory) {... */\n    tag_8:\n      callvalue\n      dup1\n      iszero\n      tag_40\n      jumpi\n      revert(0x00, 0x00)\n    tag_40:\n      pop\n      tag_41\n      tag_42\n      jump\t// in\n    tag_41:\n      mload(0x40)\n      tag_43\n      swap2\n      swap1\n      tag_44\n      jump\t// in\n    tag_43:\n      mload(0x40)\n      dup1\n      swap2\n      sub\n      swap1\n      return\n        /* \"contracts/Dividend_SC06_Secire.sol\":281:329  mapping(address => bool) public failedRecipients */\n    tag_9:\n      callvalue\n      dup1\n      iszero\n      tag_45\n      jumpi\n      revert(0x00, 0x00)\n    tag_45:\n      pop\n      tag_46\n      0x04\n      dup1\n      calldatasize\n      sub\n      dup2\n      add\n      swap1\n      tag_47\n      swap2\n      swap1\n      tag_36\n      jump\t// in\n    tag_47:\n      tag_48\n      jump\t// in\n    tag_46:\n      mload(0x40)\n      tag_49\n      swap2\n      swap1\n      tag_50\n      jump\t// in\n    tag_49:\n      mload(0x40)\n      dup1\n      swap2\n      sub\n      swap1\n      return\n        /* \"contracts/Dividend_SC06_Secire.sol\":123:150  address[] public recipients */\n    tag_10:\n      callvalue\n      dup1\n      iszero\n      tag_51\n      jumpi\n      revert(0x00, 0x00)\n    tag_51:\n      pop\n      tag_52\n      0x04\n      dup1\n      calldatasize\n      sub\n      dup2\n      add\n      swap1\n      tag_53\n      swap2\n      swap1\n      tag_17\n      jump\t// in\n    tag_53:\n      tag_54\n      jump\t// in\n    tag_52:\n      mload(0x40)\n      tag_55\n      swap2\n      swap1\n      tag_56\n      jump\t// in\n    tag_55:\n      mload(0x40)\n      dup1\n      swap2\n      sub\n      swap1\n      return\n        /* \"contracts/Dividend_SC06_Secire.sol\":96:116  address public admin */\n    tag_11:\n      callvalue\n      dup1\n      iszero\n      tag_57\n      jumpi\n      revert(0x00, 0x00)\n    tag_57:\n      pop\n      tag_58\n      tag_59\n      jump\t// in\n    tag_58:\n      mload(0x40)\n      tag_60\n      swap2\n      swap1\n      tag_56\n      jump\t// in\n    tag_60:\n      mload(0x40)\n      dup1\n      swap2\n      sub\n      swap1\n      return\n        /* \"contracts/Dividend_SC06_Secire.sol\":208:237  uint256 public processedIndex */\n    tag_12:\n      callvalue\n      dup1\n      iszero\n      tag_61\n      jumpi\n      revert(0x00, 0x00)\n    tag_61:\n      pop\n      tag_62\n      tag_63\n      jump\t// in\n    tag_62:\n      mload(0x40)\n      tag_64\n      swap2\n      swap1\n      tag_39\n      jump\t// in\n    tag_64:\n      mload(0x40)\n      dup1\n      swap2\n      sub\n      swap1\n      return\n        /* \"contracts/Dividend_SC06_Secire.sol\":1641:2294  function RetryFailedPayments(uint256 batchSize) public onlyAdmin {... */\n    tag_18:\n        /* \"contracts/Dividend_SC06_Secire.sol\":483:488  admin */\n      0x00\n      0x00\n      swap1\n      sload\n      swap1\n      0x0100\n      exp\n      swap1\n      div\n      0xffffffffffffffffffffffffffffffffffffffff\n      and\n        /* \"contracts/Dividend_SC06_Secire.sol\":469:488  msg.sender == admin */\n      0xffffffffffffffffffffffffffffffffffffffff\n      and\n        /* \"contracts/Dividend_SC06_Secire.sol\":469:479  msg.sender */\n      caller\n        /* \"contracts/Dividend_SC06_Secire.sol\":469:488  msg.sender == admin */\n      0xffffffffffffffffffffffffffffffffffffffff\n      and\n      eq\n        /* \"contracts/Dividend_SC06_Secire.sol\":461:528  require(msg.sender == admin, \"Only admin can perform this action.\") */\n      tag_66\n      jumpi\n      mload(0x40)\n      0x08c379a000000000000000000000000000000000000000000000000000000000\n      dup2\n      mstore\n      0x04\n      add\n      tag_67\n      swap1\n      tag_68\n      jump\t// in\n    tag_67:\n      mload(0x40)\n      dup1\n      swap2\n      sub\n      swap1\n      revert\n    tag_66:\n        /* \"contracts/Dividend_SC06_Secire.sol\":1713:1726  uint256 count */\n      0x00\n        /* \"contracts/Dividend_SC06_Secire.sol\":1729:1730  0 */\n      0x00\n        /* \"contracts/Dividend_SC06_Secire.sol\":1713:1730  uint256 count = 0 */\n      swap1\n      pop\n        /* \"contracts/Dividend_SC06_Secire.sol\":1744:1753  uint256 i */\n      0x00\n        /* \"contracts/Dividend_SC06_Secire.sol\":1756:1757  0 */\n      0x00\n        /* \"contracts/Dividend_SC06_Secire.sol\":1744:1757  uint256 i = 0 */\n      swap1\n      pop\n        /* \"contracts/Dividend_SC06_Secire.sol\":1739:2287  for (uint256 i = 0; i < recipients.length && count < batchSize; i++) {... */\n    tag_70:\n        /* \"contracts/Dividend_SC06_Secire.sol\":1763:1773  recipients */\n      0x01\n        /* \"contracts/Dividend_SC06_Secire.sol\":1763:1780  recipients.length */\n      dup1\n      sload\n      swap1\n      pop\n        /* \"contracts/Dividend_SC06_Secire.sol\":1759:1760  i */\n      dup2\n        /* \"contracts/Dividend_SC06_Secire.sol\":1759:1780  i < recipients.length */\n      lt\n        /* \"contracts/Dividend_SC06_Secire.sol\":1759:1801  i < recipients.length && count < batchSize */\n      dup1\n      iszero\n      tag_73\n      jumpi\n      pop\n        /* \"contracts/Dividend_SC06_Secire.sol\":1792:1801  batchSize */\n      dup3\n        /* \"contracts/Dividend_SC06_Secire.sol\":1784:1789  count */\n      dup3\n        /* \"contracts/Dividend_SC06_Secire.sol\":1784:1801  count < batchSize */\n      lt\n        /* \"contracts/Dividend_SC06_Secire.sol\":1759:1801  i < recipients.length && count < batchSize */\n    tag_73:\n        /* \"contracts/Dividend_SC06_Secire.sol\":1739:2287  for (uint256 i = 0; i < recipients.length && count < batchSize; i++) {... */\n      iszero\n      tag_71\n      jumpi\n        /* \"contracts/Dividend_SC06_Secire.sol\":1819:1836  address recipient */\n      0x00\n        /* \"contracts/Dividend_SC06_Secire.sol\":1839:1849  recipients */\n      0x01\n        /* \"contracts/Dividend_SC06_Secire.sol\":1850:1851  i */\n      dup3\n        /* \"contracts/Dividend_SC06_Secire.sol\":1839:1852  recipients[i] */\n      dup2\n      sload\n      dup2\n      lt\n      tag_74\n      jumpi\n      tag_75\n      tag_76\n      jump\t// in\n    tag_75:\n    tag_74:\n      swap1\n      0x00\n      mstore\n      keccak256(0x00, 0x20)\n      add\n      0x00\n      swap1\n      sload\n      swap1\n      0x0100\n      exp\n      swap1\n      div\n      0xffffffffffffffffffffffffffffffffffffffff\n      and\n        /* \"contracts/Dividend_SC06_Secire.sol\":1819:1852  address recipient = recipients[i] */\n      swap1\n      pop\n        /* \"contracts/Dividend_SC06_Secire.sol\":1869:1885  failedRecipients */\n      0x04\n        /* \"contracts/Dividend_SC06_Secire.sol\":1869:1896  failedRecipients[recipient] */\n      0x00\n        /* \"contracts/Dividend_SC06_Secire.sol\":1886:1895  recipient */\n      dup3\n        /* \"contracts/Dividend_SC06_Secire.sol\":1869:1896  failedRecipients[recipient] */\n      0xffffffffffffffffffffffffffffffffffffffff\n      and\n      0xffffffffffffffffffffffffffffffffffffffff\n      and\n      dup2\n      mstore\n      0x20\n      add\n      swap1\n      dup2\n      mstore\n      0x20\n      add\n      0x00\n      keccak256\n      0x00\n      swap1\n      sload\n      swap1\n      0x0100\n      exp\n      swap1\n      div\n      0xff\n      and\n        /* \"contracts/Dividend_SC06_Secire.sol\":1865:2276  if (failedRecipients[recipient]) {... */\n      iszero\n      tag_78\n      jumpi\n        /* \"contracts/Dividend_SC06_Secire.sol\":1913:1927  uint256 amount */\n      0x00\n        /* \"contracts/Dividend_SC06_Secire.sol\":1930:1939  dividends */\n      0x02\n        /* \"contracts/Dividend_SC06_Secire.sol\":1930:1950  dividends[recipient] */\n      0x00\n        /* \"contracts/Dividend_SC06_Secire.sol\":1940:1949  recipient */\n      dup4\n        /* \"contracts/Dividend_SC06_Secire.sol\":1930:1950  dividends[recipient] */\n      0xffffffffffffffffffffffffffffffffffffffff\n      and\n      0xffffffffffffffffffffffffffffffffffffffff\n      and\n      dup2\n      mstore\n      0x20\n      add\n      swap1\n      dup2\n      mstore\n      0x20\n      add\n      0x00\n      keccak256\n      sload\n        /* \"contracts/Dividend_SC06_Secire.sol\":1913:1950  uint256 amount = dividends[recipient] */\n      swap1\n      pop\n        /* \"contracts/Dividend_SC06_Secire.sol\":1980:1981  0 */\n      0x00\n        /* \"contracts/Dividend_SC06_Secire.sol\":1971:1977  amount */\n      dup2\n        /* \"contracts/Dividend_SC06_Secire.sol\":1971:1981  amount > 0 */\n      gt\n        /* \"contracts/Dividend_SC06_Secire.sol\":1967:2235  if (amount > 0) {... */\n      iszero\n      tag_79\n      jumpi\n        /* \"contracts/Dividend_SC06_Secire.sol\":2003:2015  bool success */\n      0x00\n        /* \"contracts/Dividend_SC06_Secire.sol\":2029:2038  recipient */\n      dup3\n        /* \"contracts/Dividend_SC06_Secire.sol\":2021:2044  payable(recipient).call */\n      0xffffffffffffffffffffffffffffffffffffffff\n      and\n        /* \"contracts/Dividend_SC06_Secire.sol\":2052:2058  amount */\n      dup3\n        /* \"contracts/Dividend_SC06_Secire.sol\":2021:2063  payable(recipient).call{value: amount}(\"\") */\n      mload(0x40)\n      tag_80\n      swap1\n      tag_81\n      jump\t// in\n    tag_80:\n      0x00\n      mload(0x40)\n      dup1\n      dup4\n      sub\n      dup2\n      dup6\n      dup8\n      gas\n      call\n      swap3\n      pop\n      pop\n      pop\n      returndatasize\n      dup1\n      0x00\n      dup2\n      eq\n      tag_84\n      jumpi\n      mload(0x40)\n      swap2\n      pop\n      and(add(returndatasize, 0x3f), not(0x1f))\n      dup3\n      add\n      0x40\n      mstore\n      returndatasize\n      dup3\n      mstore\n      returndatasize\n      0x00\n      0x20\n      dup5\n      add\n      returndatacopy\n      jump(tag_83)\n    tag_84:\n      0x60\n      swap2\n      pop\n    tag_83:\n      pop\n        /* \"contracts/Dividend_SC06_Secire.sol\":2002:2063  (bool success, ) = payable(recipient).call{value: amount}(\"\") */\n      pop\n      swap1\n      pop\n        /* \"contracts/Dividend_SC06_Secire.sol\":2086:2093  success */\n      dup1\n        /* \"contracts/Dividend_SC06_Secire.sol\":2082:2220  if (success) {... */\n      iszero\n      tag_85\n      jumpi\n        /* \"contracts/Dividend_SC06_Secire.sol\":2141:2142  0 */\n      0x00\n        /* \"contracts/Dividend_SC06_Secire.sol\":2118:2127  dividends */\n      0x02\n        /* \"contracts/Dividend_SC06_Secire.sol\":2118:2138  dividends[recipient] */\n      0x00\n        /* \"contracts/Dividend_SC06_Secire.sol\":2128:2137  recipient */\n      dup6\n        /* \"contracts/Dividend_SC06_Secire.sol\":2118:2138  dividends[recipient] */\n      0xffffffffffffffffffffffffffffffffffffffff\n      and\n      0xffffffffffffffffffffffffffffffffffffffff\n      and\n      dup2\n      mstore\n      0x20\n      add\n      swap1\n      dup2\n      mstore\n      0x20\n      add\n      0x00\n      keccak256\n        /* \"contracts/Dividend_SC06_Secire.sol\":2118:2142  dividends[recipient] = 0 */\n      dup2\n      swap1\n      sstore\n      pop\n        /* \"contracts/Dividend_SC06_Secire.sol\":2195:2200  false */\n      0x00\n        /* \"contracts/Dividend_SC06_Secire.sol\":2165:2181  failedRecipients */\n      0x04\n        /* \"contracts/Dividend_SC06_Secire.sol\":2165:2192  failedRecipients[recipient] */\n      0x00\n        /* \"contracts/Dividend_SC06_Secire.sol\":2182:2191  recipient */\n      dup6\n        /* \"contracts/Dividend_SC06_Secire.sol\":2165:2192  failedRecipients[recipient] */\n      0xffffffffffffffffffffffffffffffffffffffff\n      and\n      0xffffffffffffffffffffffffffffffffffffffff\n      and\n      dup2\n      mstore\n      0x20\n      add\n      swap1\n      dup2\n      mstore\n      0x20\n      add\n      0x00\n      keccak256\n      0x00\n        /* \"contracts/Dividend_SC06_Secire.sol\":2165:2200  failedRecipients[recipient] = false */\n      0x0100\n      exp\n      dup2\n      sload\n      dup2\n      0xff\n      mul\n      not\n      and\n      swap1\n      dup4\n      iszero\n      iszero\n      mul\n      or\n      swap1\n      sstore\n      pop\n        /* \"contracts/Dividend_SC06_Secire.sol\":2082:2220  if (success) {... */\n    tag_85:\n        /* \"contracts/Dividend_SC06_Secire.sol\":1983:2235  {... */\n      pop\n        /* \"contracts/Dividend_SC06_Secire.sol\":1967:2235  if (amount > 0) {... */\n    tag_79:\n        /* \"contracts/Dividend_SC06_Secire.sol\":2253:2260  count++ */\n      dup4\n      dup1\n      tag_86\n      swap1\n      tag_87\n      jump\t// in\n    tag_86:\n      swap5\n      pop\n      pop\n        /* \"contracts/Dividend_SC06_Secire.sol\":1898:2276  {... */\n      pop\n        /* \"contracts/Dividend_SC06_Secire.sol\":1865:2276  if (failedRecipients[recipient]) {... */\n    tag_78:\n        /* \"contracts/Dividend_SC06_Secire.sol\":1808:2287  {... */\n      pop\n        /* \"contracts/Dividend_SC06_Secire.sol\":1803:1806  i++ */\n      dup1\n      dup1\n      tag_88\n      swap1\n      tag_87\n      jump\t// in\n    tag_88:\n      swap2\n      pop\n      pop\n        /* \"contracts/Dividend_SC06_Secire.sol\":1739:2287  for (uint256 i = 0; i < recipients.length && count < batchSize; i++) {... */\n      jump(tag_70)\n    tag_71:\n      pop\n        /* \"contracts/Dividend_SC06_Secire.sol\":1706:2294  {... */\n      pop\n        /* \"contracts/Dividend_SC06_Secire.sol\":1641:2294  function RetryFailedPayments(uint256 batchSize) public onlyAdmin {... */\n      pop\n      jump\t// out\n        /* \"contracts/Dividend_SC06_Secire.sol\":2302:2423  function ResetProcessedIndex() public onlyAdmin {... */\n    tag_21:\n        /* \"contracts/Dividend_SC06_Secire.sol\":483:488  admin */\n      0x00\n      0x00\n      swap1\n      sload\n      swap1\n      0x0100\n      exp\n      swap1\n      div\n      0xffffffffffffffffffffffffffffffffffffffff\n      and\n        /* \"contracts/Dividend_SC06_Secire.sol\":469:488  msg.sender == admin */\n      0xffffffffffffffffffffffffffffffffffffffff\n      and\n        /* \"contracts/Dividend_SC06_Secire.sol\":469:479  msg.sender */\n      caller\n        /* \"contracts/Dividend_SC06_Secire.sol\":469:488  msg.sender == admin */\n      0xffffffffffffffffffffffffffffffffffffffff\n      and\n      eq\n        /* \"contracts/Dividend_SC06_Secire.sol\":461:528  require(msg.sender == admin, \"Only admin can perform this action.\") */\n      tag_90\n      jumpi\n      mload(0x40)\n      0x08c379a000000000000000000000000000000000000000000000000000000000\n      dup2\n      mstore\n      0x04\n      add\n      tag_91\n      swap1\n      tag_68\n      jump\t// in\n    tag_91:\n      mload(0x40)\n      dup1\n      swap2\n      sub\n      swap1\n      revert\n    tag_90:\n        /* \"contracts/Dividend_SC06_Secire.sol\":2378:2379  0 */\n      0x00\n        /* \"contracts/Dividend_SC06_Secire.sol\":2361:2375  processedIndex */\n      0x03\n        /* \"contracts/Dividend_SC06_Secire.sol\":2361:2379  processedIndex = 0 */\n      dup2\n      swap1\n      sstore\n      pop\n        /* \"contracts/Dividend_SC06_Secire.sol\":2302:2423  function ResetProcessedIndex() public onlyAdmin {... */\n      jump\t// out\n        /* \"contracts/Dividend_SC06_Secire.sol\":556:788  function AddRecipient(address recipient, uint256 amount) public onlyAdmin {... */\n    tag_26:\n        /* \"contracts/Dividend_SC06_Secire.sol\":483:488  admin */\n      0x00\n      0x00\n      swap1\n      sload\n      swap1\n      0x0100\n      exp\n      swap1\n      div\n      0xffffffffffffffffffffffffffffffffffffffff\n      and\n        /* \"contracts/Dividend_SC06_Secire.sol\":469:488  msg.sender == admin */\n      0xffffffffffffffffffffffffffffffffffffffff\n      and\n        /* \"contracts/Dividend_SC06_Secire.sol\":469:479  msg.sender */\n      caller\n        /* \"contracts/Dividend_SC06_Secire.sol\":469:488  msg.sender == admin */\n      0xffffffffffffffffffffffffffffffffffffffff\n      and\n      eq\n        /* \"contracts/Dividend_SC06_Secire.sol\":461:528  require(msg.sender == admin, \"Only admin can perform this action.\") */\n      tag_94\n      jumpi\n      mload(0x40)\n      0x08c379a000000000000000000000000000000000000000000000000000000000\n      dup2\n      mstore\n      0x04\n      add\n      tag_95\n      swap1\n      tag_68\n      jump\t// in\n    tag_95:\n      mload(0x40)\n      dup1\n      swap2\n      sub\n      swap1\n      revert\n    tag_94:\n        /* \"contracts/Dividend_SC06_Secire.sol\":670:671  0 */\n      0x00\n        /* \"contracts/Dividend_SC06_Secire.sol\":649:672  recipient != address(0) */\n      0xffffffffffffffffffffffffffffffffffffffff\n      and\n        /* \"contracts/Dividend_SC06_Secire.sol\":649:658  recipient */\n      dup3\n        /* \"contracts/Dividend_SC06_Secire.sol\":649:672  recipient != address(0) */\n      0xffffffffffffffffffffffffffffffffffffffff\n      and\n      sub\n        /* \"contracts/Dividend_SC06_Secire.sol\":641:703  require(recipient != address(0), \"Invalid recipient address.\") */\n      tag_97\n      jumpi\n      mload(0x40)\n      0x08c379a000000000000000000000000000000000000000000000000000000000\n      dup2\n      mstore\n      0x04\n      add\n      tag_98\n      swap1\n      tag_99\n      jump\t// in\n    tag_98:\n      mload(0x40)\n      dup1\n      swap2\n      sub\n      swap1\n      revert\n    tag_97:\n        /* \"contracts/Dividend_SC06_Secire.sol\":714:724  recipients */\n      0x01\n        /* \"contracts/Dividend_SC06_Secire.sol\":730:739  recipient */\n      dup3\n        /* \"contracts/Dividend_SC06_Secire.sol\":714:740  recipients.push(recipient) */\n      swap1\n      dup1\n      0x01\n      dup2\n      sload\n      add\n      dup1\n      dup3\n      sstore\n      dup1\n      swap2\n      pop\n      pop\n      0x01\n      swap1\n      sub\n      swap1\n      0x00\n      mstore\n      keccak256(0x00, 0x20)\n      add\n      0x00\n      swap1\n      swap2\n      swap1\n      swap2\n      swap1\n      swap2\n      0x0100\n      exp\n      dup2\n      sload\n      dup2\n      0xffffffffffffffffffffffffffffffffffffffff\n      mul\n      not\n      and\n      swap1\n      dup4\n      0xffffffffffffffffffffffffffffffffffffffff\n      and\n      mul\n      or\n      swap1\n      sstore\n      pop\n        /* \"contracts/Dividend_SC06_Secire.sol\":774:780  amount */\n      dup1\n        /* \"contracts/Dividend_SC06_Secire.sol\":751:760  dividends */\n      0x02\n        /* \"contracts/Dividend_SC06_Secire.sol\":751:771  dividends[recipient] */\n      0x00\n        /* \"contracts/Dividend_SC06_Secire.sol\":761:770  recipient */\n      dup5\n        /* \"contracts/Dividend_SC06_Secire.sol\":751:771  dividends[recipient] */\n      0xffffffffffffffffffffffffffffffffffffffff\n      and\n      0xffffffffffffffffffffffffffffffffffffffff\n      and\n      dup2\n      mstore\n      0x20\n      add\n      swap1\n      dup2\n      mstore\n      0x20\n      add\n      0x00\n      keccak256\n        /* \"contracts/Dividend_SC06_Secire.sol\":751:780  dividends[recipient] = amount */\n      dup2\n      swap1\n      sstore\n      pop\n        /* \"contracts/Dividend_SC06_Secire.sol\":556:788  function AddRecipient(address recipient, uint256 amount) public onlyAdmin {... */\n      pop\n      pop\n      jump\t// out\n        /* \"contracts/Dividend_SC06_Secire.sol\":796:1633  function DistributeDividends(uint256 batchSize) public onlyAdmin {... */\n    tag_30:\n        /* \"contracts/Dividend_SC06_Secire.sol\":483:488  admin */\n      0x00\n      0x00\n      swap1\n      sload\n      swap1\n      0x0100\n      exp\n      swap1\n      div\n      0xffffffffffffffffffffffffffffffffffffffff\n      and\n        /* \"contracts/Dividend_SC06_Secire.sol\":469:488  msg.sender == admin */\n      0xffffffffffffffffffffffffffffffffffffffff\n      and\n        /* \"contracts/Dividend_SC06_Secire.sol\":469:479  msg.sender */\n      caller\n        /* \"contracts/Dividend_SC06_Secire.sol\":469:488  msg.sender == admin */\n      0xffffffffffffffffffffffffffffffffffffffff\n      and\n      eq\n        /* \"contracts/Dividend_SC06_Secire.sol\":461:528  require(msg.sender == admin, \"Only admin can perform this action.\") */\n      tag_102\n      jumpi\n      mload(0x40)\n      0x08c379a000000000000000000000000000000000000000000000000000000000\n      dup2\n      mstore\n      0x04\n      add\n      tag_103\n      swap1\n      tag_68\n      jump\t// in\n    tag_103:\n      mload(0x40)\n      dup1\n      swap2\n      sub\n      swap1\n      revert\n    tag_102:\n        /* \"contracts/Dividend_SC06_Secire.sol\":900:901  0 */\n      0x00\n        /* \"contracts/Dividend_SC06_Secire.sol\":876:897  address(this).balance */\n      selfbalance\n        /* \"contracts/Dividend_SC06_Secire.sol\":876:901  address(this).balance > 0 */\n      gt\n        /* \"contracts/Dividend_SC06_Secire.sol\":868:929  require(address(this).balance > 0, \"No funds to distribute.\") */\n      tag_105\n      jumpi\n      mload(0x40)\n      0x08c379a000000000000000000000000000000000000000000000000000000000\n      dup2\n      mstore\n      0x04\n      add\n      tag_106\n      swap1\n      tag_107\n      jump\t// in\n    tag_106:\n      mload(0x40)\n      dup1\n      swap2\n      sub\n      swap1\n      revert\n    tag_105:\n        /* \"contracts/Dividend_SC06_Secire.sol\":938:949  uint256 end */\n      0x00\n        /* \"contracts/Dividend_SC06_Secire.sol\":969:978  batchSize */\n      dup2\n        /* \"contracts/Dividend_SC06_Secire.sol\":952:966  processedIndex */\n      sload(0x03)\n        /* \"contracts/Dividend_SC06_Secire.sol\":952:978  processedIndex + batchSize */\n      tag_108\n      swap2\n      swap1\n      tag_109\n      jump\t// in\n    tag_108:\n        /* \"contracts/Dividend_SC06_Secire.sol\":938:978  uint256 end = processedIndex + batchSize */\n      swap1\n      pop\n        /* \"contracts/Dividend_SC06_Secire.sol\":995:1005  recipients */\n      0x01\n        /* \"contracts/Dividend_SC06_Secire.sol\":995:1012  recipients.length */\n      dup1\n      sload\n      swap1\n      pop\n        /* \"contracts/Dividend_SC06_Secire.sol\":989:992  end */\n      dup2\n        /* \"contracts/Dividend_SC06_Secire.sol\":989:1012  end > recipients.length */\n      gt\n        /* \"contracts/Dividend_SC06_Secire.sol\":985:1056  if (end > recipients.length) {... */\n      iszero\n      tag_110\n      jumpi\n        /* \"contracts/Dividend_SC06_Secire.sol\":1031:1041  recipients */\n      0x01\n        /* \"contracts/Dividend_SC06_Secire.sol\":1031:1048  recipients.length */\n      dup1\n      sload\n      swap1\n      pop\n        /* \"contracts/Dividend_SC06_Secire.sol\":1025:1048  end = recipients.length */\n      swap1\n      pop\n        /* \"contracts/Dividend_SC06_Secire.sol\":985:1056  if (end > recipients.length) {... */\n    tag_110:\n        /* \"contracts/Dividend_SC06_Secire.sol\":1069:1078  uint256 i */\n      0x00\n        /* \"contracts/Dividend_SC06_Secire.sol\":1081:1095  processedIndex */\n      sload(0x03)\n        /* \"contracts/Dividend_SC06_Secire.sol\":1069:1095  uint256 i = processedIndex */\n      swap1\n      pop\n        /* \"contracts/Dividend_SC06_Secire.sol\":1064:1593  for (uint256 i = processedIndex; i < end; i++) {... */\n    tag_111:\n        /* \"contracts/Dividend_SC06_Secire.sol\":1101:1104  end */\n      dup2\n        /* \"contracts/Dividend_SC06_Secire.sol\":1097:1098  i */\n      dup2\n        /* \"contracts/Dividend_SC06_Secire.sol\":1097:1104  i < end */\n      lt\n        /* \"contracts/Dividend_SC06_Secire.sol\":1064:1593  for (uint256 i = processedIndex; i < end; i++) {... */\n      iszero\n      tag_112\n      jumpi\n        /* \"contracts/Dividend_SC06_Secire.sol\":1122:1139  address recipient */\n      0x00\n        /* \"contracts/Dividend_SC06_Secire.sol\":1142:1152  recipients */\n      0x01\n        /* \"contracts/Dividend_SC06_Secire.sol\":1153:1154  i */\n      dup3\n        /* \"contracts/Dividend_SC06_Secire.sol\":1142:1155  recipients[i] */\n      dup2\n      sload\n      dup2\n      lt\n      tag_114\n      jumpi\n      tag_115\n      tag_76\n      jump\t// in\n    tag_115:\n    tag_114:\n      swap1\n      0x00\n      mstore\n      keccak256(0x00, 0x20)\n      add\n      0x00\n      swap1\n      sload\n      swap1\n      0x0100\n      exp\n      swap1\n      div\n      0xffffffffffffffffffffffffffffffffffffffff\n      and\n        /* \"contracts/Dividend_SC06_Secire.sol\":1122:1155  address recipient = recipients[i] */\n      swap1\n      pop\n        /* \"contracts/Dividend_SC06_Secire.sol\":1166:1180  uint256 amount */\n      0x00\n        /* \"contracts/Dividend_SC06_Secire.sol\":1183:1192  dividends */\n      0x02\n        /* \"contracts/Dividend_SC06_Secire.sol\":1183:1203  dividends[recipient] */\n      0x00\n        /* \"contracts/Dividend_SC06_Secire.sol\":1193:1202  recipient */\n      dup4\n        /* \"contracts/Dividend_SC06_Secire.sol\":1183:1203  dividends[recipient] */\n      0xffffffffffffffffffffffffffffffffffffffff\n      and\n      0xffffffffffffffffffffffffffffffffffffffff\n      and\n      dup2\n      mstore\n      0x20\n      add\n      swap1\n      dup2\n      mstore\n      0x20\n      add\n      0x00\n      keccak256\n      sload\n        /* \"contracts/Dividend_SC06_Secire.sol\":1166:1203  uint256 amount = dividends[recipient] */\n      swap1\n      pop\n        /* \"contracts/Dividend_SC06_Secire.sol\":1229:1230  0 */\n      0x00\n        /* \"contracts/Dividend_SC06_Secire.sol\":1220:1226  amount */\n      dup2\n        /* \"contracts/Dividend_SC06_Secire.sol\":1220:1230  amount > 0 */\n      gt\n        /* \"contracts/Dividend_SC06_Secire.sol\":1216:1586  if (amount > 0) {... */\n      iszero\n      tag_117\n      jumpi\n        /* \"contracts/Dividend_SC06_Secire.sol\":1248:1260  bool success */\n      0x00\n        /* \"contracts/Dividend_SC06_Secire.sol\":1274:1283  recipient */\n      dup3\n        /* \"contracts/Dividend_SC06_Secire.sol\":1266:1289  payable(recipient).call */\n      0xffffffffffffffffffffffffffffffffffffffff\n      and\n        /* \"contracts/Dividend_SC06_Secire.sol\":1297:1303  amount */\n      dup3\n        /* \"contracts/Dividend_SC06_Secire.sol\":1266:1308  payable(recipient).call{value: amount}(\"\") */\n      mload(0x40)\n      tag_118\n      swap1\n      tag_81\n      jump\t// in\n    tag_118:\n      0x00\n      mload(0x40)\n      dup1\n      dup4\n      sub\n      dup2\n      dup6\n      dup8\n      gas\n      call\n      swap3\n      pop\n      pop\n      pop\n      returndatasize\n      dup1\n      0x00\n      dup2\n      eq\n      tag_121\n      jumpi\n      mload(0x40)\n      swap2\n      pop\n      and(add(returndatasize, 0x3f), not(0x1f))\n      dup3\n      add\n      0x40\n      mstore\n      returndatasize\n      dup3\n      mstore\n      returndatasize\n      0x00\n      0x20\n      dup5\n      add\n      returndatacopy\n      jump(tag_120)\n    tag_121:\n      0x60\n      swap2\n      pop\n    tag_120:\n      pop\n        /* \"contracts/Dividend_SC06_Secire.sol\":1247:1308  (bool success, ) = payable(recipient).call{value: amount}(\"\") */\n      pop\n      swap1\n      pop\n        /* \"contracts/Dividend_SC06_Secire.sol\":1327:1334  success */\n      dup1\n        /* \"contracts/Dividend_SC06_Secire.sol\":1323:1575  if (success) {... */\n      iszero\n      tag_122\n      jumpi\n        /* \"contracts/Dividend_SC06_Secire.sol\":1378:1379  0 */\n      0x00\n        /* \"contracts/Dividend_SC06_Secire.sol\":1355:1364  dividends */\n      0x02\n        /* \"contracts/Dividend_SC06_Secire.sol\":1355:1375  dividends[recipient] */\n      0x00\n        /* \"contracts/Dividend_SC06_Secire.sol\":1365:1374  recipient */\n      dup6\n        /* \"contracts/Dividend_SC06_Secire.sol\":1355:1375  dividends[recipient] */\n      0xffffffffffffffffffffffffffffffffffffffff\n      and\n      0xffffffffffffffffffffffffffffffffffffffff\n      and\n      dup2\n      mstore\n      0x20\n      add\n      swap1\n      dup2\n      mstore\n      0x20\n      add\n      0x00\n      keccak256\n        /* \"contracts/Dividend_SC06_Secire.sol\":1355:1379  dividends[recipient] = 0 */\n      dup2\n      swap1\n      sstore\n      pop\n        /* \"contracts/Dividend_SC06_Secire.sol\":1428:1433  false */\n      0x00\n        /* \"contracts/Dividend_SC06_Secire.sol\":1398:1414  failedRecipients */\n      0x04\n        /* \"contracts/Dividend_SC06_Secire.sol\":1398:1425  failedRecipients[recipient] */\n      0x00\n        /* \"contracts/Dividend_SC06_Secire.sol\":1415:1424  recipient */\n      dup6\n        /* \"contracts/Dividend_SC06_Secire.sol\":1398:1425  failedRecipients[recipient] */\n      0xffffffffffffffffffffffffffffffffffffffff\n      and\n      0xffffffffffffffffffffffffffffffffffffffff\n      and\n      dup2\n      mstore\n      0x20\n      add\n      swap1\n      dup2\n      mstore\n      0x20\n      add\n      0x00\n      keccak256\n      0x00\n        /* \"contracts/Dividend_SC06_Secire.sol\":1398:1433  failedRecipients[recipient] = false */\n      0x0100\n      exp\n      dup2\n      sload\n      dup2\n      0xff\n      mul\n      not\n      and\n      swap1\n      dup4\n      iszero\n      iszero\n      mul\n      or\n      swap1\n      sstore\n      pop\n        /* \"contracts/Dividend_SC06_Secire.sol\":1323:1575  if (success) {... */\n      jump(tag_123)\n    tag_122:\n        /* \"contracts/Dividend_SC06_Secire.sol\":1534:1538  true */\n      0x01\n        /* \"contracts/Dividend_SC06_Secire.sol\":1504:1520  failedRecipients */\n      0x04\n        /* \"contracts/Dividend_SC06_Secire.sol\":1504:1531  failedRecipients[recipient] */\n      0x00\n        /* \"contracts/Dividend_SC06_Secire.sol\":1521:1530  recipient */\n      dup6\n        /* \"contracts/Dividend_SC06_Secire.sol\":1504:1531  failedRecipients[recipient] */\n      0xffffffffffffffffffffffffffffffffffffffff\n      and\n      0xffffffffffffffffffffffffffffffffffffffff\n      and\n      dup2\n      mstore\n      0x20\n      add\n      swap1\n      dup2\n      mstore\n      0x20\n      add\n      0x00\n      keccak256\n      0x00\n        /* \"contracts/Dividend_SC06_Secire.sol\":1504:1538  failedRecipients[recipient] = true */\n      0x0100\n      exp\n      dup2\n      sload\n      dup2\n      0xff\n      mul\n      not\n      and\n      swap1\n      dup4\n      iszero\n      iszero\n      mul\n      or\n      swap1\n      sstore\n      pop\n        /* \"contracts/Dividend_SC06_Secire.sol\":1323:1575  if (success) {... */\n    tag_123:\n        /* \"contracts/Dividend_SC06_Secire.sol\":1232:1586  {... */\n      pop\n        /* \"contracts/Dividend_SC06_Secire.sol\":1216:1586  if (amount > 0) {... */\n    tag_117:\n        /* \"contracts/Dividend_SC06_Secire.sol\":1111:1593  {... */\n      pop\n      pop\n        /* \"contracts/Dividend_SC06_Secire.sol\":1106:1109  i++ */\n      dup1\n      dup1\n      0x01\n      add\n      swap2\n      pop\n      pop\n        /* \"contracts/Dividend_SC06_Secire.sol\":1064:1593  for (uint256 i = processedIndex; i < end; i++) {... */\n      jump(tag_111)\n    tag_112:\n      pop\n        /* \"contracts/Dividend_SC06_Secire.sol\":1622:1625  end */\n      dup1\n        /* \"contracts/Dividend_SC06_Secire.sol\":1605:1619  processedIndex */\n      0x03\n        /* \"contracts/Dividend_SC06_Secire.sol\":1605:1625  processedIndex = end */\n      dup2\n      swap1\n      sstore\n      pop\n        /* \"contracts/Dividend_SC06_Secire.sol\":861:1633  {... */\n      pop\n        /* \"contracts/Dividend_SC06_Secire.sol\":796:1633  function DistributeDividends(uint256 batchSize) public onlyAdmin {... */\n      pop\n      jump\t// out\n        /* \"contracts/Dividend_SC06_Secire.sol\":2431:2482  function DepositFunds() public payable onlyAdmin {} */\n    tag_32:\n        /* \"contracts/Dividend_SC06_Secire.sol\":483:488  admin */\n      0x00\n      0x00\n      swap1\n      sload\n      swap1\n      0x0100\n      exp\n      swap1\n      div\n      0xffffffffffffffffffffffffffffffffffffffff\n      and\n        /* \"contracts/Dividend_SC06_Secire.sol\":469:488  msg.sender == admin */\n      0xffffffffffffffffffffffffffffffffffffffff\n      and\n        /* \"contracts/Dividend_SC06_Secire.sol\":469:479  msg.sender */\n      caller\n        /* \"contracts/Dividend_SC06_Secire.sol\":469:488  msg.sender == admin */\n      0xffffffffffffffffffffffffffffffffffffffff\n      and\n      eq\n        /* \"contracts/Dividend_SC06_Secire.sol\":461:528  require(msg.sender == admin, \"Only admin can perform this action.\") */\n      tag_125\n      jumpi\n      mload(0x40)\n      0x08c379a000000000000000000000000000000000000000000000000000000000\n      dup2\n      mstore\n      0x04\n      add\n      tag_126\n      swap1\n      tag_68\n      jump\t// in\n    tag_126:\n      mload(0x40)\n      dup1\n      swap2\n      sub\n      swap1\n      revert\n    tag_125:\n        /* \"contracts/Dividend_SC06_Secire.sol\":2431:2482  function DepositFunds() public payable onlyAdmin {} */\n      jump\t// out\n        /* \"contracts/Dividend_SC06_Secire.sol\":157:201  mapping(address => uint256) public dividends */\n    tag_37:\n      mstore(0x20, 0x02)\n      dup1\n      0x00\n      mstore\n      keccak256(0x00, 0x40)\n      0x00\n      swap2\n      pop\n      swap1\n      pop\n      sload\n      dup2\n      jump\t// out\n        /* \"contracts/Dividend_SC06_Secire.sol\":2490:2590  function GetRecipients() public view returns (address[] memory) {... */\n    tag_42:\n        /* \"contracts/Dividend_SC06_Secire.sol\":2536:2552  address[] memory */\n      0x60\n        /* \"contracts/Dividend_SC06_Secire.sol\":2572:2582  recipients */\n      0x01\n        /* \"contracts/Dividend_SC06_Secire.sol\":2565:2582  return recipients */\n      dup1\n      sload\n      dup1\n      0x20\n      mul\n      0x20\n      add\n      mload(0x40)\n      swap1\n      dup2\n      add\n      0x40\n      mstore\n      dup1\n      swap3\n      swap2\n      swap1\n      dup2\n      dup2\n      mstore\n      0x20\n      add\n      dup3\n      dup1\n      sload\n      dup1\n      iszero\n      tag_129\n      jumpi\n      0x20\n      mul\n      dup3\n      add\n      swap2\n      swap1\n      0x00\n      mstore\n      keccak256(0x00, 0x20)\n      swap1\n    tag_130:\n      dup2\n      0x00\n      swap1\n      sload\n      swap1\n      0x0100\n      exp\n      swap1\n      div\n      0xffffffffffffffffffffffffffffffffffffffff\n      and\n      0xffffffffffffffffffffffffffffffffffffffff\n      and\n      dup2\n      mstore\n      0x20\n      add\n      swap1\n      0x01\n      add\n      swap1\n      dup1\n      dup4\n      gt\n      tag_130\n      jumpi\n    tag_129:\n      pop\n      pop\n      pop\n      pop\n      pop\n      swap1\n      pop\n        /* \"contracts/Dividend_SC06_Secire.sol\":2490:2590  function GetRecipients() public view returns (address[] memory) {... */\n      swap1\n      jump\t// out\n        /* \"contracts/Dividend_SC06_Secire.sol\":281:329  mapping(address => bool) public failedRecipients */\n    tag_48:\n      mstore(0x20, 0x04)\n      dup1\n      0x00\n      mstore\n      keccak256(0x00, 0x40)\n      0x00\n      swap2\n      pop\n      sload\n      swap1\n      0x0100\n      exp\n      swap1\n      div\n      0xff\n      and\n      dup2\n      jump\t// out\n        /* \"contracts/Dividend_SC06_Secire.sol\":123:150  address[] public recipients */\n    tag_54:\n      0x01\n      dup2\n      dup2\n      sload\n      dup2\n      lt\n      tag_131\n      jumpi\n      0x00\n      dup1\n      revert\n    tag_131:\n      swap1\n      0x00\n      mstore\n      keccak256(0x00, 0x20)\n      add\n      0x00\n      swap2\n      pop\n      sload\n      swap1\n      0x0100\n      exp\n      swap1\n      div\n      0xffffffffffffffffffffffffffffffffffffffff\n      and\n      dup2\n      jump\t// out\n        /* \"contracts/Dividend_SC06_Secire.sol\":96:116  address public admin */\n    tag_59:\n      0x00\n      0x00\n      swap1\n      sload\n      swap1\n      0x0100\n      exp\n      swap1\n      div\n      0xffffffffffffffffffffffffffffffffffffffff\n      and\n      dup2\n      jump\t// out\n        /* \"contracts/Dividend_SC06_Secire.sol\":208:237  uint256 public processedIndex */\n    tag_63:\n      sload(0x03)\n      dup2\n      jump\t// out\n        /* \"#utility.yul\":88:205   */\n    tag_134:\n        /* \"#utility.yul\":197:198   */\n      0x00\n        /* \"#utility.yul\":194:195   */\n      0x00\n        /* \"#utility.yul\":187:199   */\n      revert\n        /* \"#utility.yul\":334:411   */\n    tag_136:\n        /* \"#utility.yul\":371:378   */\n      0x00\n        /* \"#utility.yul\":400:405   */\n      dup2\n        /* \"#utility.yul\":389:405   */\n      swap1\n      pop\n        /* \"#utility.yul\":334:411   */\n      swap2\n      swap1\n      pop\n      jump\t// out\n        /* \"#utility.yul\":417:539   */\n    tag_137:\n        /* \"#utility.yul\":490:514   */\n      tag_171\n        /* \"#utility.yul\":508:513   */\n      dup2\n        /* \"#utility.yul\":490:514   */\n      tag_136\n      jump\t// in\n    tag_171:\n        /* \"#utility.yul\":483:488   */\n      dup2\n        /* \"#utility.yul\":480:515   */\n      eq\n        /* \"#utility.yul\":470:533   */\n      tag_172\n      jumpi\n        /* \"#utility.yul\":529:530   */\n      0x00\n        /* \"#utility.yul\":526:527   */\n      0x00\n        /* \"#utility.yul\":519:531   */\n      revert\n        /* \"#utility.yul\":470:533   */\n    tag_172:\n        /* \"#utility.yul\":417:539   */\n      pop\n      jump\t// out\n        /* \"#utility.yul\":545:684   */\n    tag_138:\n        /* \"#utility.yul\":591:596   */\n      0x00\n        /* \"#utility.yul\":629:635   */\n      dup2\n        /* \"#utility.yul\":616:636   */\n      calldataload\n        /* \"#utility.yul\":607:636   */\n      swap1\n      pop\n        /* \"#utility.yul\":645:678   */\n      tag_174\n        /* \"#utility.yul\":672:677   */\n      dup2\n        /* \"#utility.yul\":645:678   */\n      tag_137\n      jump\t// in\n    tag_174:\n        /* \"#utility.yul\":545:684   */\n      swap3\n      swap2\n      pop\n      pop\n      jump\t// out\n        /* \"#utility.yul\":690:1019   */\n    tag_17:\n        /* \"#utility.yul\":749:755   */\n      0x00\n        /* \"#utility.yul\":798:800   */\n      0x20\n        /* \"#utility.yul\":786:795   */\n      dup3\n        /* \"#utility.yul\":777:784   */\n      dup5\n        /* \"#utility.yul\":773:796   */\n      sub\n        /* \"#utility.yul\":769:801   */\n      slt\n        /* \"#utility.yul\":766:885   */\n      iszero\n      tag_176\n      jumpi\n        /* \"#utility.yul\":804:883   */\n      tag_177\n      tag_134\n      jump\t// in\n    tag_177:\n        /* \"#utility.yul\":766:885   */\n    tag_176:\n        /* \"#utility.yul\":924:925   */\n      0x00\n        /* \"#utility.yul\":949:1002   */\n      tag_178\n        /* \"#utility.yul\":994:1001   */\n      dup5\n        /* \"#utility.yul\":985:991   */\n      dup3\n        /* \"#utility.yul\":974:983   */\n      dup6\n        /* \"#utility.yul\":970:992   */\n      add\n        /* \"#utility.yul\":949:1002   */\n      tag_138\n      jump\t// in\n    tag_178:\n        /* \"#utility.yul\":939:1002   */\n      swap2\n      pop\n        /* \"#utility.yul\":895:1012   */\n      pop\n        /* \"#utility.yul\":690:1019   */\n      swap3\n      swap2\n      pop\n      pop\n      jump\t// out\n        /* \"#utility.yul\":1025:1151   */\n    tag_139:\n        /* \"#utility.yul\":1062:1069   */\n      0x00\n        /* \"#utility.yul\":1102:1144   */\n      0xffffffffffffffffffffffffffffffffffffffff\n        /* \"#utility.yul\":1095:1100   */\n      dup3\n        /* \"#utility.yul\":1091:1145   */\n      and\n        /* \"#utility.yul\":1080:1145   */\n      swap1\n      pop\n        /* \"#utility.yul\":1025:1151   */\n      swap2\n      swap1\n      pop\n      jump\t// out\n        /* \"#utility.yul\":1157:1253   */\n    tag_140:\n        /* \"#utility.yul\":1194:1201   */\n      0x00\n        /* \"#utility.yul\":1223:1247   */\n      tag_181\n        /* \"#utility.yul\":1241:1246   */\n      dup3\n        /* \"#utility.yul\":1223:1247   */\n      tag_139\n      jump\t// in\n    tag_181:\n        /* \"#utility.yul\":1212:1247   */\n      swap1\n      pop\n        /* \"#utility.yul\":1157:1253   */\n      swap2\n      swap1\n      pop\n      jump\t// out\n        /* \"#utility.yul\":1259:1381   */\n    tag_141:\n        /* \"#utility.yul\":1332:1356   */\n      tag_183\n        /* \"#utility.yul\":1350:1355   */\n      dup2\n        /* \"#utility.yul\":1332:1356   */\n      tag_140\n      jump\t// in\n    tag_183:\n        /* \"#utility.yul\":1325:1330   */\n      dup2\n        /* \"#utility.yul\":1322:1357   */\n      eq\n        /* \"#utility.yul\":1312:1375   */\n      tag_184\n      jumpi\n        /* \"#utility.yul\":1371:1372   */\n      0x00\n        /* \"#utility.yul\":1368:1369   */\n      0x00\n        /* \"#utility.yul\":1361:1373   */\n      revert\n        /* \"#utility.yul\":1312:1375   */\n    tag_184:\n        /* \"#utility.yul\":1259:1381   */\n      pop\n      jump\t// out\n        /* \"#utility.yul\":1387:1526   */\n    tag_142:\n        /* \"#utility.yul\":1433:1438   */\n      0x00\n        /* \"#utility.yul\":1471:1477   */\n      dup2\n        /* \"#utility.yul\":1458:1478   */\n      calldataload\n        /* \"#utility.yul\":1449:1478   */\n      swap1\n      pop\n        /* \"#utility.yul\":1487:1520   */\n      tag_186\n        /* \"#utility.yul\":1514:1519   */\n      dup2\n        /* \"#utility.yul\":1487:1520   */\n      tag_141\n      jump\t// in\n    tag_186:\n        /* \"#utility.yul\":1387:1526   */\n      swap3\n      swap2\n      pop\n      pop\n      jump\t// out\n        /* \"#utility.yul\":1532:2006   */\n    tag_25:\n        /* \"#utility.yul\":1600:1606   */\n      0x00\n        /* \"#utility.yul\":1608:1614   */\n      0x00\n        /* \"#utility.yul\":1657:1659   */\n      0x40\n        /* \"#utility.yul\":1645:1654   */\n      dup4\n        /* \"#utility.yul\":1636:1643   */\n      dup6\n        /* \"#utility.yul\":1632:1655   */\n      sub\n        /* \"#utility.yul\":1628:1660   */\n      slt\n        /* \"#utility.yul\":1625:1744   */\n      iszero\n      tag_188\n      jumpi\n        /* \"#utility.yul\":1663:1742   */\n      tag_189\n      tag_134\n      jump\t// in\n    tag_189:\n        /* \"#utility.yul\":1625:1744   */\n    tag_188:\n        /* \"#utility.yul\":1783:1784   */\n      0x00\n        /* \"#utility.yul\":1808:1861   */\n      tag_190\n        /* \"#utility.yul\":1853:1860   */\n      dup6\n        /* \"#utility.yul\":1844:1850   */\n      dup3\n        /* \"#utility.yul\":1833:1842   */\n      dup7\n        /* \"#utility.yul\":1829:1851   */\n      add\n        /* \"#utility.yul\":1808:1861   */\n      tag_142\n      jump\t// in\n    tag_190:\n        /* \"#utility.yul\":1798:1861   */\n      swap3\n      pop\n        /* \"#utility.yul\":1754:1871   */\n      pop\n        /* \"#utility.yul\":1910:1912   */\n      0x20\n        /* \"#utility.yul\":1936:1989   */\n      tag_191\n        /* \"#utility.yul\":1981:1988   */\n      dup6\n        /* \"#utility.yul\":1972:1978   */\n      dup3\n        /* \"#utility.yul\":1961:1970   */\n      dup7\n        /* \"#utility.yul\":1957:1979   */\n      add\n        /* \"#utility.yul\":1936:1989   */\n      tag_138\n      jump\t// in\n    tag_191:\n        /* \"#utility.yul\":1926:1989   */\n      swap2\n      pop\n        /* \"#utility.yul\":1881:1999   */\n      pop\n        /* \"#utility.yul\":1532:2006   */\n      swap3\n      pop\n      swap3\n      swap1\n      pop\n      jump\t// out\n        /* \"#utility.yul\":2012:2341   */\n    tag_36:\n        /* \"#utility.yul\":2071:2077   */\n      0x00\n        /* \"#utility.yul\":2120:2122   */\n      0x20\n        /* \"#utility.yul\":2108:2117   */\n      dup3\n        /* \"#utility.yul\":2099:2106   */\n      dup5\n        /* \"#utility.yul\":2095:2118   */\n      sub\n        /* \"#utility.yul\":2091:2123   */\n      slt\n        /* \"#utility.yul\":2088:2207   */\n      iszero\n      tag_193\n      jumpi\n        /* \"#utility.yul\":2126:2205   */\n      tag_194\n      tag_134\n      jump\t// in\n    tag_194:\n        /* \"#utility.yul\":2088:2207   */\n    tag_193:\n        /* \"#utility.yul\":2246:2247   */\n      0x00\n        /* \"#utility.yul\":2271:2324   */\n      tag_195\n        /* \"#utility.yul\":2316:2323   */\n      dup5\n        /* \"#utility.yul\":2307:2313   */\n      dup3\n        /* \"#utility.yul\":2296:2305   */\n      dup6\n        /* \"#utility.yul\":2292:2314   */\n      add\n        /* \"#utility.yul\":2271:2324   */\n      tag_142\n      jump\t// in\n    tag_195:\n        /* \"#utility.yul\":2261:2324   */\n      swap2\n      pop\n        /* \"#utility.yul\":2217:2334   */\n      pop\n        /* \"#utility.yul\":2012:2341   */\n      swap3\n      swap2\n      pop\n      pop\n      jump\t// out\n        /* \"#utility.yul\":2347:2465   */\n    tag_143:\n        /* \"#utility.yul\":2434:2458   */\n      tag_197\n        /* \"#utility.yul\":2452:2457   */\n      dup2\n        /* \"#utility.yul\":2434:2458   */\n      tag_136\n      jump\t// in\n    tag_197:\n        /* \"#utility.yul\":2429:2432   */\n      dup3\n        /* \"#utility.yul\":2422:2459   */\n      mstore\n        /* \"#utility.yul\":2347:2465   */\n      pop\n      pop\n      jump\t// out\n        /* \"#utility.yul\":2471:2693   */\n    tag_39:\n        /* \"#utility.yul\":2564:2568   */\n      0x00\n        /* \"#utility.yul\":2602:2604   */\n      0x20\n        /* \"#utility.yul\":2591:2600   */\n      dup3\n        /* \"#utility.yul\":2587:2605   */\n      add\n        /* \"#utility.yul\":2579:2605   */\n      swap1\n      pop\n        /* \"#utility.yul\":2615:2686   */\n      tag_199\n        /* \"#utility.yul\":2683:2684   */\n      0x00\n        /* \"#utility.yul\":2672:2681   */\n      dup4\n        /* \"#utility.yul\":2668:2685   */\n      add\n        /* \"#utility.yul\":2659:2665   */\n      dup5\n        /* \"#utility.yul\":2615:2686   */\n      tag_143\n      jump\t// in\n    tag_199:\n        /* \"#utility.yul\":2471:2693   */\n      swap3\n      swap2\n      pop\n      pop\n      jump\t// out\n        /* \"#utility.yul\":2699:2813   */\n    tag_144:\n        /* \"#utility.yul\":2766:2772   */\n      0x00\n        /* \"#utility.yul\":2800:2805   */\n      dup2\n        /* \"#utility.yul\":2794:2806   */\n      mload\n        /* \"#utility.yul\":2784:2806   */\n      swap1\n      pop\n        /* \"#utility.yul\":2699:2813   */\n      swap2\n      swap1\n      pop\n      jump\t// out\n        /* \"#utility.yul\":2819:3003   */\n    tag_145:\n        /* \"#utility.yul\":2918:2929   */\n      0x00\n        /* \"#utility.yul\":2952:2958   */\n      dup3\n        /* \"#utility.yul\":2947:2950   */\n      dup3\n        /* \"#utility.yul\":2940:2959   */\n      mstore\n        /* \"#utility.yul\":2992:2996   */\n      0x20\n        /* \"#utility.yul\":2987:2990   */\n      dup3\n        /* \"#utility.yul\":2983:2997   */\n      add\n        /* \"#utility.yul\":2968:2997   */\n      swap1\n      pop\n        /* \"#utility.yul\":2819:3003   */\n      swap3\n      swap2\n      pop\n      pop\n      jump\t// out\n        /* \"#utility.yul\":3009:3141   */\n    tag_146:\n        /* \"#utility.yul\":3076:3080   */\n      0x00\n        /* \"#utility.yul\":3099:3102   */\n      dup2\n        /* \"#utility.yul\":3091:3102   */\n      swap1\n      pop\n        /* \"#utility.yul\":3129:3133   */\n      0x20\n        /* \"#utility.yul\":3124:3127   */\n      dup3\n        /* \"#utility.yul\":3120:3134   */\n      add\n        /* \"#utility.yul\":3112:3134   */\n      swap1\n      pop\n        /* \"#utility.yul\":3009:3141   */\n      swap2\n      swap1\n      pop\n      jump\t// out\n        /* \"#utility.yul\":3147:3255   */\n    tag_147:\n        /* \"#utility.yul\":3224:3248   */\n      tag_204\n        /* \"#utility.yul\":3242:3247   */\n      dup2\n        /* \"#utility.yul\":3224:3248   */\n      tag_140\n      jump\t// in\n    tag_204:\n        /* \"#utility.yul\":3219:3222   */\n      dup3\n        /* \"#utility.yul\":3212:3249   */\n      mstore\n        /* \"#utility.yul\":3147:3255   */\n      pop\n      pop\n      jump\t// out\n        /* \"#utility.yul\":3261:3440   */\n    tag_148:\n        /* \"#utility.yul\":3330:3340   */\n      0x00\n        /* \"#utility.yul\":3351:3397   */\n      tag_206\n        /* \"#utility.yul\":3393:3396   */\n      dup4\n        /* \"#utility.yul\":3385:3391   */\n      dup4\n        /* \"#utility.yul\":3351:3397   */\n      tag_147\n      jump\t// in\n    tag_206:\n        /* \"#utility.yul\":3429:3433   */\n      0x20\n        /* \"#utility.yul\":3424:3427   */\n      dup4\n        /* \"#utility.yul\":3420:3434   */\n      add\n        /* \"#utility.yul\":3406:3434   */\n      swap1\n      pop\n        /* \"#utility.yul\":3261:3440   */\n      swap3\n      swap2\n      pop\n      pop\n      jump\t// out\n        /* \"#utility.yul\":3446:3559   */\n    tag_149:\n        /* \"#utility.yul\":3516:3520   */\n      0x00\n        /* \"#utility.yul\":3548:3552   */\n      0x20\n        /* \"#utility.yul\":3543:3546   */\n      dup3\n        /* \"#utility.yul\":3539:3553   */\n      add\n        /* \"#utility.yul\":3531:3553   */\n      swap1\n      pop\n        /* \"#utility.yul\":3446:3559   */\n      swap2\n      swap1\n      pop\n      jump\t// out\n        /* \"#utility.yul\":3595:4327   */\n    tag_150:\n        /* \"#utility.yul\":3714:3717   */\n      0x00\n        /* \"#utility.yul\":3743:3797   */\n      tag_209\n        /* \"#utility.yul\":3791:3796   */\n      dup3\n        /* \"#utility.yul\":3743:3797   */\n      tag_144\n      jump\t// in\n    tag_209:\n        /* \"#utility.yul\":3813:3899   */\n      tag_210\n        /* \"#utility.yul\":3892:3898   */\n      dup2\n        /* \"#utility.yul\":3887:3890   */\n      dup6\n        /* \"#utility.yul\":3813:3899   */\n      tag_145\n      jump\t// in\n    tag_210:\n        /* \"#utility.yul\":3806:3899   */\n      swap4\n      pop\n        /* \"#utility.yul\":3923:3979   */\n      tag_211\n        /* \"#utility.yul\":3973:3978   */\n      dup4\n        /* \"#utility.yul\":3923:3979   */\n      tag_146\n      jump\t// in\n    tag_211:\n        /* \"#utility.yul\":4002:4009   */\n      dup1\n        /* \"#utility.yul\":4033:4034   */\n      0x00\n        /* \"#utility.yul\":4018:4302   */\n    tag_212:\n        /* \"#utility.yul\":4043:4049   */\n      dup4\n        /* \"#utility.yul\":4040:4041   */\n      dup2\n        /* \"#utility.yul\":4037:4050   */\n      lt\n        /* \"#utility.yul\":4018:4302   */\n      iszero\n      tag_214\n      jumpi\n        /* \"#utility.yul\":4119:4125   */\n      dup2\n        /* \"#utility.yul\":4113:4126   */\n      mload\n        /* \"#utility.yul\":4146:4209   */\n      tag_215\n        /* \"#utility.yul\":4205:4208   */\n      dup9\n        /* \"#utility.yul\":4190:4203   */\n      dup3\n        /* \"#utility.yul\":4146:4209   */\n      tag_148\n      jump\t// in\n    tag_215:\n        /* \"#utility.yul\":4139:4209   */\n      swap8\n      pop\n        /* \"#utility.yul\":4232:4292   */\n      tag_216\n        /* \"#utility.yul\":4285:4291   */\n      dup4\n        /* \"#utility.yul\":4232:4292   */\n      tag_149\n      jump\t// in\n    tag_216:\n        /* \"#utility.yul\":4222:4292   */\n      swap3\n      pop\n        /* \"#utility.yul\":4078:4302   */\n      pop\n        /* \"#utility.yul\":4065:4066   */\n      0x01\n        /* \"#utility.yul\":4062:4063   */\n      dup2\n        /* \"#utility.yul\":4058:4067   */\n      add\n        /* \"#utility.yul\":4053:4067   */\n      swap1\n      pop\n        /* \"#utility.yul\":4018:4302   */\n      jump(tag_212)\n    tag_214:\n        /* \"#utility.yul\":4022:4036   */\n      pop\n        /* \"#utility.yul\":4318:4321   */\n      dup6\n        /* \"#utility.yul\":4311:4321   */\n      swap4\n      pop\n        /* \"#utility.yul\":3719:4327   */\n      pop\n      pop\n      pop\n        /* \"#utility.yul\":3595:4327   */\n      swap3\n      swap2\n      pop\n      pop\n      jump\t// out\n        /* \"#utility.yul\":4333:4706   */\n    tag_44:\n        /* \"#utility.yul\":4476:4480   */\n      0x00\n        /* \"#utility.yul\":4514:4516   */\n      0x20\n        /* \"#utility.yul\":4503:4512   */\n      dup3\n        /* \"#utility.yul\":4499:4517   */\n      add\n        /* \"#utility.yul\":4491:4517   */\n      swap1\n      pop\n        /* \"#utility.yul\":4563:4572   */\n      dup2\n        /* \"#utility.yul\":4557:4561   */\n      dup2\n        /* \"#utility.yul\":4553:4573   */\n      sub\n        /* \"#utility.yul\":4549:4550   */\n      0x00\n        /* \"#utility.yul\":4538:4547   */\n      dup4\n        /* \"#utility.yul\":4534:4551   */\n      add\n        /* \"#utility.yul\":4527:4574   */\n      mstore\n        /* \"#utility.yul\":4591:4699   */\n      tag_218\n        /* \"#utility.yul\":4694:4698   */\n      dup2\n        /* \"#utility.yul\":4685:4691   */\n      dup5\n        /* \"#utility.yul\":4591:4699   */\n      tag_150\n      jump\t// in\n    tag_218:\n        /* \"#utility.yul\":4583:4699   */\n      swap1\n      pop\n        /* \"#utility.yul\":4333:4706   */\n      swap3\n      swap2\n      pop\n      pop\n      jump\t// out\n        /* \"#utility.yul\":4712:4802   */\n    tag_151:\n        /* \"#utility.yul\":4746:4753   */\n      0x00\n        /* \"#utility.yul\":4789:4794   */\n      dup2\n        /* \"#utility.yul\":4782:4795   */\n      iszero\n        /* \"#utility.yul\":4775:4796   */\n      iszero\n        /* \"#utility.yul\":4764:4796   */\n      swap1\n      pop\n        /* \"#utility.yul\":4712:4802   */\n      swap2\n      swap1\n      pop\n      jump\t// out\n        /* \"#utility.yul\":4808:4917   */\n    tag_152:\n        /* \"#utility.yul\":4889:4910   */\n      tag_221\n        /* \"#utility.yul\":4904:4909   */\n      dup2\n        /* \"#utility.yul\":4889:4910   */\n      tag_151\n      jump\t// in\n    tag_221:\n        /* \"#utility.yul\":4884:4887   */\n      dup3\n        /* \"#utility.yul\":4877:4911   */\n      mstore\n        /* \"#utility.yul\":4808:4917   */\n      pop\n      pop\n      jump\t// out\n        /* \"#utility.yul\":4923:5133   */\n    tag_50:\n        /* \"#utility.yul\":5010:5014   */\n      0x00\n        /* \"#utility.yul\":5048:5050   */\n      0x20\n        /* \"#utility.yul\":5037:5046   */\n      dup3\n        /* \"#utility.yul\":5033:5051   */\n      add\n        /* \"#utility.yul\":5025:5051   */\n      swap1\n      pop\n        /* \"#utility.yul\":5061:5126   */\n      tag_223\n        /* \"#utility.yul\":5123:5124   */\n      0x00\n        /* \"#utility.yul\":5112:5121   */\n      dup4\n        /* \"#utility.yul\":5108:5125   */\n      add\n        /* \"#utility.yul\":5099:5105   */\n      dup5\n        /* \"#utility.yul\":5061:5126   */\n      tag_152\n      jump\t// in\n    tag_223:\n        /* \"#utility.yul\":4923:5133   */\n      swap3\n      swap2\n      pop\n      pop\n      jump\t// out\n        /* \"#utility.yul\":5139:5257   */\n    tag_153:\n        /* \"#utility.yul\":5226:5250   */\n      tag_225\n        /* \"#utility.yul\":5244:5249   */\n      dup2\n        /* \"#utility.yul\":5226:5250   */\n      tag_140\n      jump\t// in\n    tag_225:\n        /* \"#utility.yul\":5221:5224   */\n      dup3\n        /* \"#utility.yul\":5214:5251   */\n      mstore\n        /* \"#utility.yul\":5139:5257   */\n      pop\n      pop\n      jump\t// out\n        /* \"#utility.yul\":5263:5485   */\n    tag_56:\n        /* \"#utility.yul\":5356:5360   */\n      0x00\n        /* \"#utility.yul\":5394:5396   */\n      0x20\n        /* \"#utility.yul\":5383:5392   */\n      dup3\n        /* \"#utility.yul\":5379:5397   */\n      add\n        /* \"#utility.yul\":5371:5397   */\n      swap1\n      pop\n        /* \"#utility.yul\":5407:5478   */\n      tag_227\n        /* \"#utility.yul\":5475:5476   */\n      0x00\n        /* \"#utility.yul\":5464:5473   */\n      dup4\n        /* \"#utility.yul\":5460:5477   */\n      add\n        /* \"#utility.yul\":5451:5457   */\n      dup5\n        /* \"#utility.yul\":5407:5478   */\n      tag_153\n      jump\t// in\n    tag_227:\n        /* \"#utility.yul\":5263:5485   */\n      swap3\n      swap2\n      pop\n      pop\n      jump\t// out\n        /* \"#utility.yul\":5491:5660   */\n    tag_154:\n        /* \"#utility.yul\":5575:5586   */\n      0x00\n        /* \"#utility.yul\":5609:5615   */\n      dup3\n        /* \"#utility.yul\":5604:5607   */\n      dup3\n        /* \"#utility.yul\":5597:5616   */\n      mstore\n        /* \"#utility.yul\":5649:5653   */\n      0x20\n        /* \"#utility.yul\":5644:5647   */\n      dup3\n        /* \"#utility.yul\":5640:5654   */\n      add\n        /* \"#utility.yul\":5625:5654   */\n      swap1\n      pop\n        /* \"#utility.yul\":5491:5660   */\n      swap3\n      swap2\n      pop\n      pop\n      jump\t// out\n        /* \"#utility.yul\":5666:5888   */\n    tag_155:\n        /* \"#utility.yul\":5806:5840   */\n      0x4f6e6c792061646d696e2063616e20706572666f726d20746869732061637469\n        /* \"#utility.yul\":5802:5803   */\n      0x00\n        /* \"#utility.yul\":5794:5800   */\n      dup3\n        /* \"#utility.yul\":5790:5804   */\n      add\n        /* \"#utility.yul\":5783:5841   */\n      mstore\n        /* \"#utility.yul\":5875:5880   */\n      0x6f6e2e0000000000000000000000000000000000000000000000000000000000\n        /* \"#utility.yul\":5870:5872   */\n      0x20\n        /* \"#utility.yul\":5862:5868   */\n      dup3\n        /* \"#utility.yul\":5858:5873   */\n      add\n        /* \"#utility.yul\":5851:5881   */\n      mstore\n        /* \"#utility.yul\":5666:5888   */\n      pop\n      jump\t// out\n        /* \"#utility.yul\":5894:6260   */\n    tag_156:\n        /* \"#utility.yul\":6036:6039   */\n      0x00\n        /* \"#utility.yul\":6057:6124   */\n      tag_231\n        /* \"#utility.yul\":6121:6123   */\n      0x23\n        /* \"#utility.yul\":6116:6119   */\n      dup4\n        /* \"#utility.yul\":6057:6124   */\n      tag_154\n      jump\t// in\n    tag_231:\n        /* \"#utility.yul\":6050:6124   */\n      swap2\n      pop\n        /* \"#utility.yul\":6133:6226   */\n      tag_232\n        /* \"#utility.yul\":6222:6225   */\n      dup3\n        /* \"#utility.yul\":6133:6226   */\n      tag_155\n      jump\t// in\n    tag_232:\n        /* \"#utility.yul\":6251:6253   */\n      0x40\n        /* \"#utility.yul\":6246:6249   */\n      dup3\n        /* \"#utility.yul\":6242:6254   */\n      add\n        /* \"#utility.yul\":6235:6254   */\n      swap1\n      pop\n        /* \"#utility.yul\":5894:6260   */\n      swap2\n      swap1\n      pop\n      jump\t// out\n        /* \"#utility.yul\":6266:6685   */\n    tag_68:\n        /* \"#utility.yul\":6432:6436   */\n      0x00\n        /* \"#utility.yul\":6470:6472   */\n      0x20\n        /* \"#utility.yul\":6459:6468   */\n      dup3\n        /* \"#utility.yul\":6455:6473   */\n      add\n        /* \"#utility.yul\":6447:6473   */\n      swap1\n      pop\n        /* \"#utility.yul\":6519:6528   */\n      dup2\n        /* \"#utility.yul\":6513:6517   */\n      dup2\n        /* \"#utility.yul\":6509:6529   */\n      sub\n        /* \"#utility.yul\":6505:6506   */\n      0x00\n        /* \"#utility.yul\":6494:6503   */\n      dup4\n        /* \"#utility.yul\":6490:6507   */\n      add\n        /* \"#utility.yul\":6483:6530   */\n      mstore\n        /* \"#utility.yul\":6547:6678   */\n      tag_234\n        /* \"#utility.yul\":6673:6677   */\n      dup2\n        /* \"#utility.yul\":6547:6678   */\n      tag_156\n      jump\t// in\n    tag_234:\n        /* \"#utility.yul\":6539:6678   */\n      swap1\n      pop\n        /* \"#utility.yul\":6266:6685   */\n      swap2\n      swap1\n      pop\n      jump\t// out\n        /* \"#utility.yul\":6691:6871   */\n    tag_76:\n        /* \"#utility.yul\":6739:6816   */\n      0x4e487b7100000000000000000000000000000000000000000000000000000000\n        /* \"#utility.yul\":6736:6737   */\n      0x00\n        /* \"#utility.yul\":6729:6817   */\n      mstore\n        /* \"#utility.yul\":6836:6840   */\n      0x32\n        /* \"#utility.yul\":6833:6834   */\n      0x04\n        /* \"#utility.yul\":6826:6841   */\n      mstore\n        /* \"#utility.yul\":6860:6864   */\n      0x24\n        /* \"#utility.yul\":6857:6858   */\n      0x00\n        /* \"#utility.yul\":6850:6865   */\n      revert\n        /* \"#utility.yul\":6877:7024   */\n    tag_157:\n        /* \"#utility.yul\":6978:6989   */\n      0x00\n        /* \"#utility.yul\":7015:7018   */\n      dup2\n        /* \"#utility.yul\":7000:7018   */\n      swap1\n      pop\n        /* \"#utility.yul\":6877:7024   */\n      swap3\n      swap2\n      pop\n      pop\n      jump\t// out\n        /* \"#utility.yul\":7030:7144   */\n    tag_158:\n      pop\n      jump\t// out\n        /* \"#utility.yul\":7150:7548   */\n    tag_159:\n        /* \"#utility.yul\":7309:7312   */\n      0x00\n        /* \"#utility.yul\":7330:7413   */\n      tag_239\n        /* \"#utility.yul\":7411:7412   */\n      0x00\n        /* \"#utility.yul\":7406:7409   */\n      dup4\n        /* \"#utility.yul\":7330:7413   */\n      tag_157\n      jump\t// in\n    tag_239:\n        /* \"#utility.yul\":7323:7413   */\n      swap2\n      pop\n        /* \"#utility.yul\":7422:7515   */\n      tag_240\n        /* \"#utility.yul\":7511:7514   */\n      dup3\n        /* \"#utility.yul\":7422:7515   */\n      tag_158\n      jump\t// in\n    tag_240:\n        /* \"#utility.yul\":7540:7541   */\n      0x00\n        /* \"#utility.yul\":7535:7538   */\n      dup3\n        /* \"#utility.yul\":7531:7542   */\n      add\n        /* \"#utility.yul\":7524:7542   */\n      swap1\n      pop\n        /* \"#utility.yul\":7150:7548   */\n      swap2\n      swap1\n      pop\n      jump\t// out\n        /* \"#utility.yul\":7554:7933   */\n    tag_81:\n        /* \"#utility.yul\":7738:7741   */\n      0x00\n        /* \"#utility.yul\":7760:7907   */\n      tag_242\n        /* \"#utility.yul\":7903:7906   */\n      dup3\n        /* \"#utility.yul\":7760:7907   */\n      tag_159\n      jump\t// in\n    tag_242:\n        /* \"#utility.yul\":7753:7907   */\n      swap2\n      pop\n        /* \"#utility.yul\":7924:7927   */\n      dup2\n        /* \"#utility.yul\":7917:7927   */\n      swap1\n      pop\n        /* \"#utility.yul\":7554:7933   */\n      swap2\n      swap1\n      pop\n      jump\t// out\n        /* \"#utility.yul\":7939:8119   */\n    tag_160:\n        /* \"#utility.yul\":7987:8064   */\n      0x4e487b7100000000000000000000000000000000000000000000000000000000\n        /* \"#utility.yul\":7984:7985   */\n      0x00\n        /* \"#utility.yul\":7977:8065   */\n      mstore\n        /* \"#utility.yul\":8084:8088   */\n      0x11\n        /* \"#utility.yul\":8081:8082   */\n      0x04\n        /* \"#utility.yul\":8074:8089   */\n      mstore\n        /* \"#utility.yul\":8108:8112   */\n      0x24\n        /* \"#utility.yul\":8105:8106   */\n      0x00\n        /* \"#utility.yul\":8098:8113   */\n      revert\n        /* \"#utility.yul\":8125:8358   */\n    tag_87:\n        /* \"#utility.yul\":8164:8167   */\n      0x00\n        /* \"#utility.yul\":8187:8211   */\n      tag_245\n        /* \"#utility.yul\":8205:8210   */\n      dup3\n        /* \"#utility.yul\":8187:8211   */\n      tag_136\n      jump\t// in\n    tag_245:\n        /* \"#utility.yul\":8178:8211   */\n      swap2\n      pop\n        /* \"#utility.yul\":8233:8299   */\n      0xffffffffffffffffffffffffffffffffffffffffffffffffffffffffffffffff\n        /* \"#utility.yul\":8226:8231   */\n      dup3\n        /* \"#utility.yul\":8223:8300   */\n      sub\n        /* \"#utility.yul\":8220:8323   */\n      tag_246\n      jumpi\n        /* \"#utility.yul\":8303:8321   */\n      tag_247\n      tag_160\n      jump\t// in\n    tag_247:\n        /* \"#utility.yul\":8220:8323   */\n    tag_246:\n        /* \"#utility.yul\":8350:8351   */\n      0x01\n        /* \"#utility.yul\":8343:8348   */\n      dup3\n        /* \"#utility.yul\":8339:8352   */\n      add\n        /* \"#utility.yul\":8332:8352   */\n      swap1\n      pop\n        /* \"#utility.yul\":8125:8358   */\n      swap2\n      swap1\n      pop\n      jump\t// out\n        /* \"#utility.yul\":8364:8540   */\n    tag_161:\n        /* \"#utility.yul\":8504:8532   */\n      0x496e76616c696420726563697069656e7420616464726573732e000000000000\n        /* \"#utility.yul\":8500:8501   */\n      0x00\n        /* \"#utility.yul\":8492:8498   */\n      dup3\n        /* \"#utility.yul\":8488:8502   */\n      add\n        /* \"#utility.yul\":8481:8533   */\n      mstore\n        /* \"#utility.yul\":8364:8540   */\n      pop\n      jump\t// out\n        /* \"#utility.yul\":8546:8912   */\n    tag_162:\n        /* \"#utility.yul\":8688:8691   */\n      0x00\n        /* \"#utility.yul\":8709:8776   */\n      tag_250\n        /* \"#utility.yul\":8773:8775   */\n      0x1a\n        /* \"#utility.yul\":8768:8771   */\n      dup4\n        /* \"#utility.yul\":8709:8776   */\n      tag_154\n      jump\t// in\n    tag_250:\n        /* \"#utility.yul\":8702:8776   */\n      swap2\n      pop\n        /* \"#utility.yul\":8785:8878   */\n      tag_251\n        /* \"#utility.yul\":8874:8877   */\n      dup3\n        /* \"#utility.yul\":8785:8878   */\n      tag_161\n      jump\t// in\n    tag_251:\n        /* \"#utility.yul\":8903:8905   */\n      0x20\n        /* \"#utility.yul\":8898:8901   */\n      dup3\n        /* \"#utility.yul\":8894:8906   */\n      add\n        /* \"#utility.yul\":8887:8906   */\n      swap1\n      pop\n        /* \"#utility.yul\":8546:8912   */\n      swap2\n      swap1\n      pop\n      jump\t// out\n        /* \"#utility.yul\":8918:9337   */\n    tag_99:\n        /* \"#utility.yul\":9084:9088   */\n      0x00\n        /* \"#utility.yul\":9122:9124   */\n      0x20\n        /* \"#utility.yul\":9111:9120   */\n      dup3\n        /* \"#utility.yul\":9107:9125   */\n      add\n        /* \"#utility.yul\":9099:9125   */\n      swap1\n      pop\n        /* \"#utility.yul\":9171:9180   */\n      dup2\n        /* \"#utility.yul\":9165:9169   */\n      dup2\n        /* \"#utility.yul\":9161:9181   */\n      sub\n        /* \"#utility.yul\":9157:9158   */\n      0x00\n        /* \"#utility.yul\":9146:9155   */\n      dup4\n        /* \"#utility.yul\":9142:9159   */\n      add\n        /* \"#utility.yul\":9135:9182   */\n      mstore\n        /* \"#utility.yul\":9199:9330   */\n      tag_253\n        /* \"#utility.yul\":9325:9329   */\n      dup2\n        /* \"#utility.yul\":9199:9330   */\n      tag_162\n      jump\t// in\n    tag_253:\n        /* \"#utility.yul\":9191:9330   */\n      swap1\n      pop\n        /* \"#utility.yul\":8918:9337   */\n      swap2\n      swap1\n      pop\n      jump\t// out\n        /* \"#utility.yul\":9343:9516   */\n    tag_163:\n        /* \"#utility.yul\":9483:9508   */\n      0x4e6f2066756e647320746f20646973747269627574652e000000000000000000\n        /* \"#utility.yul\":9479:9480   */\n      0x00\n        /* \"#utility.yul\":9471:9477   */\n      dup3\n        /* \"#utility.yul\":9467:9481   */\n      add\n        /* \"#utility.yul\":9460:9509   */\n      mstore\n        /* \"#utility.yul\":9343:9516   */\n      pop\n      jump\t// out\n        /* \"#utility.yul\":9522:9888   */\n    tag_164:\n        /* \"#utility.yul\":9664:9667   */\n      0x00\n        /* \"#utility.yul\":9685:9752   */\n      tag_256\n        /* \"#utility.yul\":9749:9751   */\n      0x17\n        /* \"#utility.yul\":9744:9747   */\n      dup4\n        /* \"#utility.yul\":9685:9752   */\n      tag_154\n      jump\t// in\n    tag_256:\n        /* \"#utility.yul\":9678:9752   */\n      swap2\n      pop\n        /* \"#utility.yul\":9761:9854   */\n      tag_257\n        /* \"#utility.yul\":9850:9853   */\n      dup3\n        /* \"#utility.yul\":9761:9854   */\n      tag_163\n      jump\t// in\n    tag_257:\n        /* \"#utility.yul\":9879:9881   */\n      0x20\n        /* \"#utility.yul\":9874:9877   */\n      dup3\n        /* \"#utility.yul\":9870:9882   */\n      add\n        /* \"#utility.yul\":9863:9882   */\n      swap1\n      pop\n        /* \"#utility.yul\":9522:9888   */\n      swap2\n      swap1\n      pop\n      jump\t// out\n        /* \"#utility.yul\":9894:10313   */\n    tag_107:\n        /* \"#utility.yul\":10060:10064   */\n      0x00\n        /* \"#utility.yul\":10098:10100   */\n      0x20\n        /* \"#utility.yul\":10087:10096   */\n      dup3\n        /* \"#utility.yul\":10083:10101   */\n      add\n        /* \"#utility.yul\":10075:10101   */\n      swap1\n      pop\n        /* \"#utility.yul\":10147:10156   */\n      dup2\n        /* \"#utility.yul\":10141:10145   */\n      dup2\n        /* \"#utility.yul\":10137:10157   */\n      sub\n        /* \"#utility.yul\":10133:10134   */\n      0x00\n        /* \"#utility.yul\":10122:10131   */\n      dup4\n        /* \"#utility.yul\":10118:10135   */\n      add\n        /* \"#utility.yul\":10111:10158   */\n      mstore\n        /* \"#utility.yul\":10175:10306   */\n      tag_259\n        /* \"#utility.yul\":10301:10305   */\n      dup2\n        /* \"#utility.yul\":10175:10306   */\n      tag_164\n      jump\t// in\n    tag_259:\n        /* \"#utility.yul\":10167:10306   */\n      swap1\n      pop\n        /* \"#utility.yul\":9894:10313   */\n      swap2\n      swap1\n      pop\n      jump\t// out\n        /* \"#utility.yul\":10319:10510   */\n    tag_109:\n        /* \"#utility.yul\":10359:10362   */\n      0x00\n        /* \"#utility.yul\":10378:10398   */\n      tag_261\n        /* \"#utility.yul\":10396:10397   */\n      dup3\n        /* \"#utility.yul\":10378:10398   */\n      tag_136\n      jump\t// in\n    tag_261:\n        /* \"#utility.yul\":10373:10398   */\n      swap2\n      pop\n        /* \"#utility.yul\":10412:10432   */\n      tag_262\n        /* \"#utility.yul\":10430:10431   */\n      dup4\n        /* \"#utility.yul\":10412:10432   */\n      tag_136\n      jump\t// in\n    tag_262:\n        /* \"#utility.yul\":10407:10432   */\n      swap3\n      pop\n        /* \"#utility.yul\":10455:10456   */\n      dup3\n        /* \"#utility.yul\":10452:10453   */\n      dup3\n        /* \"#utility.yul\":10448:10457   */\n      add\n        /* \"#utility.yul\":10441:10457   */\n      swap1\n      pop\n        /* \"#utility.yul\":10476:10479   */\n      dup1\n        /* \"#utility.yul\":10473:10474   */\n      dup3\n        /* \"#utility.yul\":10470:10480   */\n      gt\n        /* \"#utility.yul\":10467:10503   */\n      iszero\n      tag_263\n      jumpi\n        /* \"#utility.yul\":10483:10501   */\n      tag_264\n      tag_160\n      jump\t// in\n    tag_264:\n        /* \"#utility.yul\":10467:10503   */\n    tag_263:\n        /* \"#utility.yul\":10319:10510   */\n      swap3\n      swap2\n      pop\n      pop\n      jump\t// out\n\n    auxdata: 0xa26469706673582212201eb6eac0e06cb4101c9c62feb5cd19430d9ce588406717bbb403c276c4cded9b64736f6c634300081e0033\n}\n",
				"bytecode": {
					"linkReferences": {},
					"object": "6080604052348015600e575f5ffd5b50335f5f6101000a81548173ffffffffffffffffffffffffffffffffffffffff021916908373ffffffffffffffffffffffffffffffffffffffff16021790555061114c8061005b5f395ff3fe60806040526004361061009b575f3560e01c806368306e431161006357806368306e431461013757806375b4306b14610173578063a32df10c1461019d578063d1bc76a1146101d9578063f851a44014610215578063fdda918e1461023f5761009b565b8063065d8d3d1461009f5780631af8b015146100c75780631e1f1072146100dd5780634ecd73e2146101055780634fbcd6d51461012d575b5f5ffd5b3480156100aa575f5ffd5b506100c560048036038101906100c09190610c4b565b610269565b005b3480156100d2575f5ffd5b506100db61051f565b005b3480156100e8575f5ffd5b5061010360048036038101906100fe9190610cd0565b6105b6565b005b348015610110575f5ffd5b5061012b60048036038101906101269190610c4b565b610758565b005b610135610a62565b005b348015610142575f5ffd5b5061015d60048036038101906101589190610d0e565b610af2565b60405161016a9190610d48565b60405180910390f35b34801561017e575f5ffd5b50610187610b07565b6040516101949190610e18565b60405180910390f35b3480156101a8575f5ffd5b506101c360048036038101906101be9190610d0e565b610b92565b6040516101d09190610e52565b60405180910390f35b3480156101e4575f5ffd5b506101ff60048036038101906101fa9190610c4b565b610baf565b60405161020c9190610e7a565b60405180910390f35b348015610220575f5ffd5b50610229610bea565b6040516102369190610e7a565b60405180910390f35b34801561024a575f5ffd5b50610253610c0e565b6040516102609190610d48565b60405180910390f35b5f5f9054906101000a900473ffffffffffffffffffffffffffffffffffffffff1673ffffffffffffffffffffffffffffffffffffffff163373ffffffffffffffffffffffffffffffffffffffff16146102f7576040517f08c379a00000000000000000000000000000000000000000000000000000000081526004016102ee90610f13565b60405180910390fd5b5f5f90505f5f90505b6001805490508110801561031357508282105b1561051a575f6001828154811061032d5761032c610f31565b5b905f5260205f20015f9054906101000a900473ffffffffffffffffffffffffffffffffffffffff16905060045f8273ffffffffffffffffffffffffffffffffffffffff1673ffffffffffffffffffffffffffffffffffffffff1681526020019081526020015f205f9054906101000a900460ff1615610506575f60025f8373ffffffffffffffffffffffffffffffffffffffff1673ffffffffffffffffffffffffffffffffffffffff1681526020019081526020015f205490505f8111156104f6575f8273ffffffffffffffffffffffffffffffffffffffff168260405161041490610f8b565b5f6040518083038185875af1925050503d805f811461044e576040519150601f19603f3d011682016040523d82523d5f602084013e610453565b606091505b5050905080156104f4575f60025f8573ffffffffffffffffffffffffffffffffffffffff1673ffffffffffffffffffffffffffffffffffffffff1681526020019081526020015f20819055505f60045f8573ffffffffffffffffffffffffffffffffffffffff1673ffffffffffffffffffffffffffffffffffffffff1681526020019081526020015f205f6101000a81548160ff0219169083151502179055505b505b838061050190610fcc565b945050505b50808061051290610fcc565b915050610300565b505050565b5f5f9054906101000a900473ffffffffffffffffffffffffffffffffffffffff1673ffffffffffffffffffffffffffffffffffffffff163373ffffffffffffffffffffffffffffffffffffffff16146105ad576040517f08c379a00000000000000000000000000000000000000000000000000000000081526004016105a490610f13565b60405180910390fd5b5f600381905550565b5f5f9054906101000a900473ffffffffffffffffffffffffffffffffffffffff1673ffffffffffffffffffffffffffffffffffffffff163373ffffffffffffffffffffffffffffffffffffffff1614610644576040517f08c379a000000000000000000000000000000000000000000000000000000000815260040161063b90610f13565b60405180910390fd5b5f73ffffffffffffffffffffffffffffffffffffffff168273ffffffffffffffffffffffffffffffffffffffff16036106b2576040517f08c379a00000000000000000000000000000000000000000000000000000000081526004016106a99061105d565b60405180910390fd5b600182908060018154018082558091505060019003905f5260205f20015f9091909190916101000a81548173ffffffffffffffffffffffffffffffffffffffff021916908373ffffffffffffffffffffffffffffffffffffffff1602179055508060025f8473ffffffffffffffffffffffffffffffffffffffff1673ffffffffffffffffffffffffffffffffffffffff1681526020019081526020015f20819055505050565b5f5f9054906101000a900473ffffffffffffffffffffffffffffffffffffffff1673ffffffffffffffffffffffffffffffffffffffff163373ffffffffffffffffffffffffffffffffffffffff16146107e6576040517f08c379a00000000000000000000000000000000000000000000000000000000081526004016107dd90610f13565b60405180910390fd5b5f4711610828576040517f08c379a000000000000000000000000000000000000000000000000000000000815260040161081f906110c5565b60405180910390fd5b5f8160035461083791906110e3565b905060018054905081111561084f5760018054905090505b5f60035490505b81811015610a56575f6001828154811061087357610872610f31565b5b905f5260205f20015f9054906101000a900473ffffffffffffffffffffffffffffffffffffffff1690505f60025f8373ffffffffffffffffffffffffffffffffffffffff1673ffffffffffffffffffffffffffffffffffffffff1681526020019081526020015f205490505f811115610a47575f8273ffffffffffffffffffffffffffffffffffffffff168260405161090b90610f8b565b5f6040518083038185875af1925050503d805f8114610945576040519150601f19603f3d011682016040523d82523d5f602084013e61094a565b606091505b5050905080156109ef575f60025f8573ffffffffffffffffffffffffffffffffffffffff1673ffffffffffffffffffffffffffffffffffffffff1681526020019081526020015f20819055505f60045f8573ffffffffffffffffffffffffffffffffffffffff1673ffffffffffffffffffffffffffffffffffffffff1681526020019081526020015f205f6101000a81548160ff021916908315150217905550610a45565b600160045f8573ffffffffffffffffffffffffffffffffffffffff1673ffffffffffffffffffffffffffffffffffffffff1681526020019081526020015f205f6101000a81548160ff0219169083151502179055505b505b50508080600101915050610856565b50806003819055505050565b5f5f9054906101000a900473ffffffffffffffffffffffffffffffffffffffff1673ffffffffffffffffffffffffffffffffffffffff163373ffffffffffffffffffffffffffffffffffffffff1614610af0576040517f08c379a0000000000000000000000000000000000000000000000000000000008152600401610ae790610f13565b60405180910390fd5b565b6002602052805f5260405f205f915090505481565b60606001805480602002602001604051908101604052809291908181526020018280548015610b8857602002820191905f5260205f20905b815f9054906101000a900473ffffffffffffffffffffffffffffffffffffffff1673ffffffffffffffffffffffffffffffffffffffff1681526020019060010190808311610b3f575b5050505050905090565b6004602052805f5260405f205f915054906101000a900460ff1681565b60018181548110610bbe575f80fd5b905f5260205f20015f915054906101000a900473ffffffffffffffffffffffffffffffffffffffff1681565b5f5f9054906101000a900473ffffffffffffffffffffffffffffffffffffffff1681565b60035481565b5f5ffd5b5f819050919050565b610c2a81610c18565b8114610c34575f5ffd5b50565b5f81359050610c4581610c21565b92915050565b5f60208284031215610c6057610c5f610c14565b5b5f610c6d84828501610c37565b91505092915050565b5f73ffffffffffffffffffffffffffffffffffffffff82169050919050565b5f610c9f82610c76565b9050919050565b610caf81610c95565b8114610cb9575f5ffd5b50565b5f81359050610cca81610ca6565b92915050565b5f5f60408385031215610ce657610ce5610c14565b5b5f610cf385828601610cbc565b9250506020610d0485828601610c37565b9150509250929050565b5f60208284031215610d2357610d22610c14565b5b5f610d3084828501610cbc565b91505092915050565b610d4281610c18565b82525050565b5f602082019050610d5b5f830184610d39565b92915050565b5f81519050919050565b5f82825260208201905092915050565b5f819050602082019050919050565b610d9381610c95565b82525050565b5f610da48383610d8a565b60208301905092915050565b5f602082019050919050565b5f610dc682610d61565b610dd08185610d6b565b9350610ddb83610d7b565b805f5b83811015610e0b578151610df28882610d99565b9750610dfd83610db0565b925050600181019050610dde565b5085935050505092915050565b5f6020820190508181035f830152610e308184610dbc565b905092915050565b5f8115159050919050565b610e4c81610e38565b82525050565b5f602082019050610e655f830184610e43565b92915050565b610e7481610c95565b82525050565b5f602082019050610e8d5f830184610e6b565b92915050565b5f82825260208201905092915050565b7f4f6e6c792061646d696e2063616e20706572666f726d207468697320616374695f8201527f6f6e2e0000000000000000000000000000000000000000000000000000000000602082015250565b5f610efd602383610e93565b9150610f0882610ea3565b604082019050919050565b5f6020820190508181035f830152610f2a81610ef1565b9050919050565b7f4e487b71000000000000000000000000000000000000000000000000000000005f52603260045260245ffd5b5f81905092915050565b50565b5f610f765f83610f5e565b9150610f8182610f68565b5f82019050919050565b5f610f9582610f6b565b9150819050919050565b7f4e487b71000000000000000000000000000000000000000000000000000000005f52601160045260245ffd5b5f610fd682610c18565b91507fffffffffffffffffffffffffffffffffffffffffffffffffffffffffffffffff820361100857611007610f9f565b5b600182019050919050565b7f496e76616c696420726563697069656e7420616464726573732e0000000000005f82015250565b5f611047601a83610e93565b915061105282611013565b602082019050919050565b5f6020820190508181035f8301526110748161103b565b9050919050565b7f4e6f2066756e647320746f20646973747269627574652e0000000000000000005f82015250565b5f6110af601783610e93565b91506110ba8261107b565b602082019050919050565b5f6020820190508181035f8301526110dc816110a3565b9050919050565b5f6110ed82610c18565b91506110f883610c18565b92508282019050808211156111105761110f610f9f565b5b9291505056fea26469706673582212201eb6eac0e06cb4101c9c62feb5cd19430d9ce588406717bbb403c276c4cded9b64736f6c634300081e0033",
					"opcodes": "PUSH1 0x80 PUSH1 0x40 MSTORE CALLVALUE DUP1 ISZERO PUSH1 0xE JUMPI PUSH0 PUSH0 REVERT JUMPDEST POP CALLER PUSH0 PUSH0 PUSH2 0x100 EXP DUP2 SLOAD DUP2 PUSH20 0xFFFFFFFFFFFFFFFFFFFFFFFFFFFFFFFFFFFFFFFF MUL NOT AND SWAP1 DUP4 PUSH20 0xFFFFFFFFFFFFFFFFFFFFFFFFFFFFFFFFFFFFFFFF AND MUL OR SWAP1 SSTORE POP PUSH2 0x114C DUP1 PUSH2 0x5B PUSH0 CODECOPY PUSH0 RETURN INVALID PUSH1 0x80 PUSH1 0x40 MSTORE PUSH1 0x4 CALLDATASIZE LT PUSH2 0x9B JUMPI PUSH0 CALLDATALOAD PUSH1 0xE0 SHR DUP1 PUSH4 0x68306E43 GT PUSH2 0x63 JUMPI DUP1 PUSH4 0x68306E43 EQ PUSH2 0x137 JUMPI DUP1 PUSH4 0x75B4306B EQ PUSH2 0x173 JUMPI DUP1 PUSH4 0xA32DF10C EQ PUSH2 0x19D JUMPI DUP1 PUSH4 0xD1BC76A1 EQ PUSH2 0x1D9 JUMPI DUP1 PUSH4 0xF851A440 EQ PUSH2 0x215 JUMPI DUP1 PUSH4 0xFDDA918E EQ PUSH2 0x23F JUMPI PUSH2 0x9B JUMP JUMPDEST DUP1 PUSH4 0x65D8D3D EQ PUSH2 0x9F JUMPI DUP1 PUSH4 0x1AF8B015 EQ PUSH2 0xC7 JUMPI DUP1 PUSH4 0x1E1F1072 EQ PUSH2 0xDD JUMPI DUP1 PUSH4 0x4ECD73E2 EQ PUSH2 0x105 JUMPI DUP1 PUSH4 0x4FBCD6D5 EQ PUSH2 0x12D JUMPI JUMPDEST PUSH0 PUSH0 REVERT JUMPDEST CALLVALUE DUP1 ISZERO PUSH2 0xAA JUMPI PUSH0 PUSH0 REVERT JUMPDEST POP PUSH2 0xC5 PUSH1 0x4 DUP1 CALLDATASIZE SUB DUP2 ADD SWAP1 PUSH2 0xC0 SWAP2 SWAP1 PUSH2 0xC4B JUMP JUMPDEST PUSH2 0x269 JUMP JUMPDEST STOP JUMPDEST CALLVALUE DUP1 ISZERO PUSH2 0xD2 JUMPI PUSH0 PUSH0 REVERT JUMPDEST POP PUSH2 0xDB PUSH2 0x51F JUMP JUMPDEST STOP JUMPDEST CALLVALUE DUP1 ISZERO PUSH2 0xE8 JUMPI PUSH0 PUSH0 REVERT JUMPDEST POP PUSH2 0x103 PUSH1 0x4 DUP1 CALLDATASIZE SUB DUP2 ADD SWAP1 PUSH2 0xFE SWAP2 SWAP1 PUSH2 0xCD0 JUMP JUMPDEST PUSH2 0x5B6 JUMP JUMPDEST STOP JUMPDEST CALLVALUE DUP1 ISZERO PUSH2 0x110 JUMPI PUSH0 PUSH0 REVERT JUMPDEST POP PUSH2 0x12B PUSH1 0x4 DUP1 CALLDATASIZE SUB DUP2 ADD SWAP1 PUSH2 0x126 SWAP2 SWAP1 PUSH2 0xC4B JUMP JUMPDEST PUSH2 0x758 JUMP JUMPDEST STOP JUMPDEST PUSH2 0x135 PUSH2 0xA62 JUMP JUMPDEST STOP JUMPDEST CALLVALUE DUP1 ISZERO PUSH2 0x142 JUMPI PUSH0 PUSH0 REVERT JUMPDEST POP PUSH2 0x15D PUSH1 0x4 DUP1 CALLDATASIZE SUB DUP2 ADD SWAP1 PUSH2 0x158 SWAP2 SWAP1 PUSH2 0xD0E JUMP JUMPDEST PUSH2 0xAF2 JUMP JUMPDEST PUSH1 0x40 MLOAD PUSH2 0x16A SWAP2 SWAP1 PUSH2 0xD48 JUMP JUMPDEST PUSH1 0x40 MLOAD DUP1 SWAP2 SUB SWAP1 RETURN JUMPDEST CALLVALUE DUP1 ISZERO PUSH2 0x17E JUMPI PUSH0 PUSH0 REVERT JUMPDEST POP PUSH2 0x187 PUSH2 0xB07 JUMP JUMPDEST PUSH1 0x40 MLOAD PUSH2 0x194 SWAP2 SWAP1 PUSH2 0xE18 JUMP JUMPDEST PUSH1 0x40 MLOAD DUP1 SWAP2 SUB SWAP1 RETURN JUMPDEST CALLVALUE DUP1 ISZERO PUSH2 0x1A8 JUMPI PUSH0 PUSH0 REVERT JUMPDEST POP PUSH2 0x1C3 PUSH1 0x4 DUP1 CALLDATASIZE SUB DUP2 ADD SWAP1 PUSH2 0x1BE SWAP2 SWAP1 PUSH2 0xD0E JUMP JUMPDEST PUSH2 0xB92 JUMP JUMPDEST PUSH1 0x40 MLOAD PUSH2 0x1D0 SWAP2 SWAP1 PUSH2 0xE52 JUMP JUMPDEST PUSH1 0x40 MLOAD DUP1 SWAP2 SUB SWAP1 RETURN JUMPDEST CALLVALUE DUP1 ISZERO PUSH2 0x1E4 JUMPI PUSH0 PUSH0 REVERT JUMPDEST POP PUSH2 0x1FF PUSH1 0x4 DUP1 CALLDATASIZE SUB DUP2 ADD SWAP1 PUSH2 0x1FA SWAP2 SWAP1 PUSH2 0xC4B JUMP JUMPDEST PUSH2 0xBAF JUMP JUMPDEST PUSH1 0x40 MLOAD PUSH2 0x20C SWAP2 SWAP1 PUSH2 0xE7A JUMP JUMPDEST PUSH1 0x40 MLOAD DUP1 SWAP2 SUB SWAP1 RETURN JUMPDEST CALLVALUE DUP1 ISZERO PUSH2 0x220 JUMPI PUSH0 PUSH0 REVERT JUMPDEST POP PUSH2 0x229 PUSH2 0xBEA JUMP JUMPDEST PUSH1 0x40 MLOAD PUSH2 0x236 SWAP2 SWAP1 PUSH2 0xE7A JUMP JUMPDEST PUSH1 0x40 MLOAD DUP1 SWAP2 SUB SWAP1 RETURN JUMPDEST CALLVALUE DUP1 ISZERO PUSH2 0x24A JUMPI PUSH0 PUSH0 REVERT JUMPDEST POP PUSH2 0x253 PUSH2 0xC0E JUMP JUMPDEST PUSH1 0x40 MLOAD PUSH2 0x260 SWAP2 SWAP1 PUSH2 0xD48 JUMP JUMPDEST PUSH1 0x40 MLOAD DUP1 SWAP2 SUB SWAP1 RETURN JUMPDEST PUSH0 PUSH0 SWAP1 SLOAD SWAP1 PUSH2 0x100 EXP SWAP1 DIV PUSH20 0xFFFFFFFFFFFFFFFFFFFFFFFFFFFFFFFFFFFFFFFF AND PUSH20 0xFFFFFFFFFFFFFFFFFFFFFFFFFFFFFFFFFFFFFFFF AND CALLER PUSH20 0xFFFFFFFFFFFFFFFFFFFFFFFFFFFFFFFFFFFFFFFF AND EQ PUSH2 0x2F7 JUMPI PUSH1 0x40 MLOAD PUSH32 0x8C379A000000000000000000000000000000000000000000000000000000000 DUP2 MSTORE PUSH1 0x4 ADD PUSH2 0x2EE SWAP1 PUSH2 0xF13 JUMP JUMPDEST PUSH1 0x40 MLOAD DUP1 SWAP2 SUB SWAP1 REVERT JUMPDEST PUSH0 PUSH0 SWAP1 POP PUSH0 PUSH0 SWAP1 POP JUMPDEST PUSH1 0x1 DUP1 SLOAD SWAP1 POP DUP2 LT DUP1 ISZERO PUSH2 0x313 JUMPI POP DUP3 DUP3 LT JUMPDEST ISZERO PUSH2 0x51A JUMPI PUSH0 PUSH1 0x1 DUP3 DUP2 SLOAD DUP2 LT PUSH2 0x32D JUMPI PUSH2 0x32C PUSH2 0xF31 JUMP JUMPDEST JUMPDEST SWAP1 PUSH0 MSTORE PUSH1 0x20 PUSH0 KECCAK256 ADD PUSH0 SWAP1 SLOAD SWAP1 PUSH2 0x100 EXP SWAP1 DIV PUSH20 0xFFFFFFFFFFFFFFFFFFFFFFFFFFFFFFFFFFFFFFFF AND SWAP1 POP PUSH1 0x4 PUSH0 DUP3 PUSH20 0xFFFFFFFFFFFFFFFFFFFFFFFFFFFFFFFFFFFFFFFF AND PUSH20 0xFFFFFFFFFFFFFFFFFFFFFFFFFFFFFFFFFFFFFFFF AND DUP2 MSTORE PUSH1 0x20 ADD SWAP1 DUP2 MSTORE PUSH1 0x20 ADD PUSH0 KECCAK256 PUSH0 SWAP1 SLOAD SWAP1 PUSH2 0x100 EXP SWAP1 DIV PUSH1 0xFF AND ISZERO PUSH2 0x506 JUMPI PUSH0 PUSH1 0x2 PUSH0 DUP4 PUSH20 0xFFFFFFFFFFFFFFFFFFFFFFFFFFFFFFFFFFFFFFFF AND PUSH20 0xFFFFFFFFFFFFFFFFFFFFFFFFFFFFFFFFFFFFFFFF AND DUP2 MSTORE PUSH1 0x20 ADD SWAP1 DUP2 MSTORE PUSH1 0x20 ADD PUSH0 KECCAK256 SLOAD SWAP1 POP PUSH0 DUP2 GT ISZERO PUSH2 0x4F6 JUMPI PUSH0 DUP3 PUSH20 0xFFFFFFFFFFFFFFFFFFFFFFFFFFFFFFFFFFFFFFFF AND DUP3 PUSH1 0x40 MLOAD PUSH2 0x414 SWAP1 PUSH2 0xF8B JUMP JUMPDEST PUSH0 PUSH1 0x40 MLOAD DUP1 DUP4 SUB DUP2 DUP6 DUP8 GAS CALL SWAP3 POP POP POP RETURNDATASIZE DUP1 PUSH0 DUP2 EQ PUSH2 0x44E JUMPI PUSH1 0x40 MLOAD SWAP2 POP PUSH1 0x1F NOT PUSH1 0x3F RETURNDATASIZE ADD AND DUP3 ADD PUSH1 0x40 MSTORE RETURNDATASIZE DUP3 MSTORE RETURNDATASIZE PUSH0 PUSH1 0x20 DUP5 ADD RETURNDATACOPY PUSH2 0x453 JUMP JUMPDEST PUSH1 0x60 SWAP2 POP JUMPDEST POP POP SWAP1 POP DUP1 ISZERO PUSH2 0x4F4 JUMPI PUSH0 PUSH1 0x2 PUSH0 DUP6 PUSH20 0xFFFFFFFFFFFFFFFFFFFFFFFFFFFFFFFFFFFFFFFF AND PUSH20 0xFFFFFFFFFFFFFFFFFFFFFFFFFFFFFFFFFFFFFFFF AND DUP2 MSTORE PUSH1 0x20 ADD SWAP1 DUP2 MSTORE PUSH1 0x20 ADD PUSH0 KECCAK256 DUP2 SWAP1 SSTORE POP PUSH0 PUSH1 0x4 PUSH0 DUP6 PUSH20 0xFFFFFFFFFFFFFFFFFFFFFFFFFFFFFFFFFFFFFFFF AND PUSH20 0xFFFFFFFFFFFFFFFFFFFFFFFFFFFFFFFFFFFFFFFF AND DUP2 MSTORE PUSH1 0x20 ADD SWAP1 DUP2 MSTORE PUSH1 0x20 ADD PUSH0 KECCAK256 PUSH0 PUSH2 0x100 EXP DUP2 SLOAD DUP2 PUSH1 0xFF MUL NOT AND SWAP1 DUP4 ISZERO ISZERO MUL OR SWAP1 SSTORE POP JUMPDEST POP JUMPDEST DUP4 DUP1 PUSH2 0x501 SWAP1 PUSH2 0xFCC JUMP JUMPDEST SWAP5 POP POP POP JUMPDEST POP DUP1 DUP1 PUSH2 0x512 SWAP1 PUSH2 0xFCC JUMP JUMPDEST SWAP2 POP POP PUSH2 0x300 JUMP JUMPDEST POP POP POP JUMP JUMPDEST PUSH0 PUSH0 SWAP1 SLOAD SWAP1 PUSH2 0x100 EXP SWAP1 DIV PUSH20 0xFFFFFFFFFFFFFFFFFFFFFFFFFFFFFFFFFFFFFFFF AND PUSH20 0xFFFFFFFFFFFFFFFFFFFFFFFFFFFFFFFFFFFFFFFF AND CALLER PUSH20 0xFFFFFFFFFFFFFFFFFFFFFFFFFFFFFFFFFFFFFFFF AND EQ PUSH2 0x5AD JUMPI PUSH1 0x40 MLOAD PUSH32 0x8C379A000000000000000000000000000000000000000000000000000000000 DUP2 MSTORE PUSH1 0x4 ADD PUSH2 0x5A4 SWAP1 PUSH2 0xF13 JUMP JUMPDEST PUSH1 0x40 MLOAD DUP1 SWAP2 SUB SWAP1 REVERT JUMPDEST PUSH0 PUSH1 0x3 DUP2 SWAP1 SSTORE POP JUMP JUMPDEST PUSH0 PUSH0 SWAP1 SLOAD SWAP1 PUSH2 0x100 EXP SWAP1 DIV PUSH20 0xFFFFFFFFFFFFFFFFFFFFFFFFFFFFFFFFFFFFFFFF AND PUSH20 0xFFFFFFFFFFFFFFFFFFFFFFFFFFFFFFFFFFFFFFFF AND CALLER PUSH20 0xFFFFFFFFFFFFFFFFFFFFFFFFFFFFFFFFFFFFFFFF AND EQ PUSH2 0x644 JUMPI PUSH1 0x40 MLOAD PUSH32 0x8C379A000000000000000000000000000000000000000000000000000000000 DUP2 MSTORE PUSH1 0x4 ADD PUSH2 0x63B SWAP1 PUSH2 0xF13 JUMP JUMPDEST PUSH1 0x40 MLOAD DUP1 SWAP2 SUB SWAP1 REVERT JUMPDEST PUSH0 PUSH20 0xFFFFFFFFFFFFFFFFFFFFFFFFFFFFFFFFFFFFFFFF AND DUP3 PUSH20 0xFFFFFFFFFFFFFFFFFFFFFFFFFFFFFFFFFFFFFFFF AND SUB PUSH2 0x6B2 JUMPI PUSH1 0x40 MLOAD PUSH32 0x8C379A000000000000000000000000000000000000000000000000000000000 DUP2 MSTORE PUSH1 0x4 ADD PUSH2 0x6A9 SWAP1 PUSH2 0x105D JUMP JUMPDEST PUSH1 0x40 MLOAD DUP1 SWAP2 SUB SWAP1 REVERT JUMPDEST PUSH1 0x1 DUP3 SWAP1 DUP1 PUSH1 0x1 DUP2 SLOAD ADD DUP1 DUP3 SSTORE DUP1 SWAP2 POP POP PUSH1 0x1 SWAP1 SUB SWAP1 PUSH0 MSTORE PUSH1 0x20 PUSH0 KECCAK256 ADD PUSH0 SWAP1 SWAP2 SWAP1 SWAP2 SWAP1 SWAP2 PUSH2 0x100 EXP DUP2 SLOAD DUP2 PUSH20 0xFFFFFFFFFFFFFFFFFFFFFFFFFFFFFFFFFFFFFFFF MUL NOT AND SWAP1 DUP4 PUSH20 0xFFFFFFFFFFFFFFFFFFFFFFFFFFFFFFFFFFFFFFFF AND MUL OR SWAP1 SSTORE POP DUP1 PUSH1 0x2 PUSH0 DUP5 PUSH20 0xFFFFFFFFFFFFFFFFFFFFFFFFFFFFFFFFFFFFFFFF AND PUSH20 0xFFFFFFFFFFFFFFFFFFFFFFFFFFFFFFFFFFFFFFFF AND DUP2 MSTORE PUSH1 0x20 ADD SWAP1 DUP2 MSTORE PUSH1 0x20 ADD PUSH0 KECCAK256 DUP2 SWAP1 SSTORE POP POP POP JUMP JUMPDEST PUSH0 PUSH0 SWAP1 SLOAD SWAP1 PUSH2 0x100 EXP SWAP1 DIV PUSH20 0xFFFFFFFFFFFFFFFFFFFFFFFFFFFFFFFFFFFFFFFF AND PUSH20 0xFFFFFFFFFFFFFFFFFFFFFFFFFFFFFFFFFFFFFFFF AND CALLER PUSH20 0xFFFFFFFFFFFFFFFFFFFFFFFFFFFFFFFFFFFFFFFF AND EQ PUSH2 0x7E6 JUMPI PUSH1 0x40 MLOAD PUSH32 0x8C379A000000000000000000000000000000000000000000000000000000000 DUP2 MSTORE PUSH1 0x4 ADD PUSH2 0x7DD SWAP1 PUSH2 0xF13 JUMP JUMPDEST PUSH1 0x40 MLOAD DUP1 SWAP2 SUB SWAP1 REVERT JUMPDEST PUSH0 SELFBALANCE GT PUSH2 0x828 JUMPI PUSH1 0x40 MLOAD PUSH32 0x8C379A000000000000000000000000000000000000000000000000000000000 DUP2 MSTORE PUSH1 0x4 ADD PUSH2 0x81F SWAP1 PUSH2 0x10C5 JUMP JUMPDEST PUSH1 0x40 MLOAD DUP1 SWAP2 SUB SWAP1 REVERT JUMPDEST PUSH0 DUP2 PUSH1 0x3 SLOAD PUSH2 0x837 SWAP2 SWAP1 PUSH2 0x10E3 JUMP JUMPDEST SWAP1 POP PUSH1 0x1 DUP1 SLOAD SWAP1 POP DUP2 GT ISZERO PUSH2 0x84F JUMPI PUSH1 0x1 DUP1 SLOAD SWAP1 POP SWAP1 POP JUMPDEST PUSH0 PUSH1 0x3 SLOAD SWAP1 POP JUMPDEST DUP2 DUP2 LT ISZERO PUSH2 0xA56 JUMPI PUSH0 PUSH1 0x1 DUP3 DUP2 SLOAD DUP2 LT PUSH2 0x873 JUMPI PUSH2 0x872 PUSH2 0xF31 JUMP JUMPDEST JUMPDEST SWAP1 PUSH0 MSTORE PUSH1 0x20 PUSH0 KECCAK256 ADD PUSH0 SWAP1 SLOAD SWAP1 PUSH2 0x100 EXP SWAP1 DIV PUSH20 0xFFFFFFFFFFFFFFFFFFFFFFFFFFFFFFFFFFFFFFFF AND SWAP1 POP PUSH0 PUSH1 0x2 PUSH0 DUP4 PUSH20 0xFFFFFFFFFFFFFFFFFFFFFFFFFFFFFFFFFFFFFFFF AND PUSH20 0xFFFFFFFFFFFFFFFFFFFFFFFFFFFFFFFFFFFFFFFF AND DUP2 MSTORE PUSH1 0x20 ADD SWAP1 DUP2 MSTORE PUSH1 0x20 ADD PUSH0 KECCAK256 SLOAD SWAP1 POP PUSH0 DUP2 GT ISZERO PUSH2 0xA47 JUMPI PUSH0 DUP3 PUSH20 0xFFFFFFFFFFFFFFFFFFFFFFFFFFFFFFFFFFFFFFFF AND DUP3 PUSH1 0x40 MLOAD PUSH2 0x90B SWAP1 PUSH2 0xF8B JUMP JUMPDEST PUSH0 PUSH1 0x40 MLOAD DUP1 DUP4 SUB DUP2 DUP6 DUP8 GAS CALL SWAP3 POP POP POP RETURNDATASIZE DUP1 PUSH0 DUP2 EQ PUSH2 0x945 JUMPI PUSH1 0x40 MLOAD SWAP2 POP PUSH1 0x1F NOT PUSH1 0x3F RETURNDATASIZE ADD AND DUP3 ADD PUSH1 0x40 MSTORE RETURNDATASIZE DUP3 MSTORE RETURNDATASIZE PUSH0 PUSH1 0x20 DUP5 ADD RETURNDATACOPY PUSH2 0x94A JUMP JUMPDEST PUSH1 0x60 SWAP2 POP JUMPDEST POP POP SWAP1 POP DUP1 ISZERO PUSH2 0x9EF JUMPI PUSH0 PUSH1 0x2 PUSH0 DUP6 PUSH20 0xFFFFFFFFFFFFFFFFFFFFFFFFFFFFFFFFFFFFFFFF AND PUSH20 0xFFFFFFFFFFFFFFFFFFFFFFFFFFFFFFFFFFFFFFFF AND DUP2 MSTORE PUSH1 0x20 ADD SWAP1 DUP2 MSTORE PUSH1 0x20 ADD PUSH0 KECCAK256 DUP2 SWAP1 SSTORE POP PUSH0 PUSH1 0x4 PUSH0 DUP6 PUSH20 0xFFFFFFFFFFFFFFFFFFFFFFFFFFFFFFFFFFFFFFFF AND PUSH20 0xFFFFFFFFFFFFFFFFFFFFFFFFFFFFFFFFFFFFFFFF AND DUP2 MSTORE PUSH1 0x20 ADD SWAP1 DUP2 MSTORE PUSH1 0x20 ADD PUSH0 KECCAK256 PUSH0 PUSH2 0x100 EXP DUP2 SLOAD DUP2 PUSH1 0xFF MUL NOT AND SWAP1 DUP4 ISZERO ISZERO MUL OR SWAP1 SSTORE POP PUSH2 0xA45 JUMP JUMPDEST PUSH1 0x1 PUSH1 0x4 PUSH0 DUP6 PUSH20 0xFFFFFFFFFFFFFFFFFFFFFFFFFFFFFFFFFFFFFFFF AND PUSH20 0xFFFFFFFFFFFFFFFFFFFFFFFFFFFFFFFFFFFFFFFF AND DUP2 MSTORE PUSH1 0x20 ADD SWAP1 DUP2 MSTORE PUSH1 0x20 ADD PUSH0 KECCAK256 PUSH0 PUSH2 0x100 EXP DUP2 SLOAD DUP2 PUSH1 0xFF MUL NOT AND SWAP1 DUP4 ISZERO ISZERO MUL OR SWAP1 SSTORE POP JUMPDEST POP JUMPDEST POP POP DUP1 DUP1 PUSH1 0x1 ADD SWAP2 POP POP PUSH2 0x856 JUMP JUMPDEST POP DUP1 PUSH1 0x3 DUP2 SWAP1 SSTORE POP POP POP JUMP JUMPDEST PUSH0 PUSH0 SWAP1 SLOAD SWAP1 PUSH2 0x100 EXP SWAP1 DIV PUSH20 0xFFFFFFFFFFFFFFFFFFFFFFFFFFFFFFFFFFFFFFFF AND PUSH20 0xFFFFFFFFFFFFFFFFFFFFFFFFFFFFFFFFFFFFFFFF AND CALLER PUSH20 0xFFFFFFFFFFFFFFFFFFFFFFFFFFFFFFFFFFFFFFFF AND EQ PUSH2 0xAF0 JUMPI PUSH1 0x40 MLOAD PUSH32 0x8C379A000000000000000000000000000000000000000000000000000000000 DUP2 MSTORE PUSH1 0x4 ADD PUSH2 0xAE7 SWAP1 PUSH2 0xF13 JUMP JUMPDEST PUSH1 0x40 MLOAD DUP1 SWAP2 SUB SWAP1 REVERT JUMPDEST JUMP JUMPDEST PUSH1 0x2 PUSH1 0x20 MSTORE DUP1 PUSH0 MSTORE PUSH1 0x40 PUSH0 KECCAK256 PUSH0 SWAP2 POP SWAP1 POP SLOAD DUP2 JUMP JUMPDEST PUSH1 0x60 PUSH1 0x1 DUP1 SLOAD DUP1 PUSH1 0x20 MUL PUSH1 0x20 ADD PUSH1 0x40 MLOAD SWAP1 DUP2 ADD PUSH1 0x40 MSTORE DUP1 SWAP3 SWAP2 SWAP1 DUP2 DUP2 MSTORE PUSH1 0x20 ADD DUP3 DUP1 SLOAD DUP1 ISZERO PUSH2 0xB88 JUMPI PUSH1 0x20 MUL DUP3 ADD SWAP2 SWAP1 PUSH0 MSTORE PUSH1 0x20 PUSH0 KECCAK256 SWAP1 JUMPDEST DUP2 PUSH0 SWAP1 SLOAD SWAP1 PUSH2 0x100 EXP SWAP1 DIV PUSH20 0xFFFFFFFFFFFFFFFFFFFFFFFFFFFFFFFFFFFFFFFF AND PUSH20 0xFFFFFFFFFFFFFFFFFFFFFFFFFFFFFFFFFFFFFFFF AND DUP2 MSTORE PUSH1 0x20 ADD SWAP1 PUSH1 0x1 ADD SWAP1 DUP1 DUP4 GT PUSH2 0xB3F JUMPI JUMPDEST POP POP POP POP POP SWAP1 POP SWAP1 JUMP JUMPDEST PUSH1 0x4 PUSH1 0x20 MSTORE DUP1 PUSH0 MSTORE PUSH1 0x40 PUSH0 KECCAK256 PUSH0 SWAP2 POP SLOAD SWAP1 PUSH2 0x100 EXP SWAP1 DIV PUSH1 0xFF AND DUP2 JUMP JUMPDEST PUSH1 0x1 DUP2 DUP2 SLOAD DUP2 LT PUSH2 0xBBE JUMPI PUSH0 DUP1 REVERT JUMPDEST SWAP1 PUSH0 MSTORE PUSH1 0x20 PUSH0 KECCAK256 ADD PUSH0 SWAP2 POP SLOAD SWAP1 PUSH2 0x100 EXP SWAP1 DIV PUSH20 0xFFFFFFFFFFFFFFFFFFFFFFFFFFFFFFFFFFFFFFFF AND DUP2 JUMP JUMPDEST PUSH0 PUSH0 SWAP1 SLOAD SWAP1 PUSH2 0x100 EXP SWAP1 DIV PUSH20 0xFFFFFFFFFFFFFFFFFFFFFFFFFFFFFFFFFFFFFFFF AND DUP2 JUMP JUMPDEST PUSH1 0x3 SLOAD DUP2 JUMP JUMPDEST PUSH0 PUSH0 REVERT JUMPDEST PUSH0 DUP2 SWAP1 POP SWAP2 SWAP1 POP JUMP JUMPDEST PUSH2 0xC2A DUP2 PUSH2 0xC18 JUMP JUMPDEST DUP2 EQ PUSH2 0xC34 JUMPI PUSH0 PUSH0 REVERT JUMPDEST POP JUMP JUMPDEST PUSH0 DUP2 CALLDATALOAD SWAP1 POP PUSH2 0xC45 DUP2 PUSH2 0xC21 JUMP JUMPDEST SWAP3 SWAP2 POP POP JUMP JUMPDEST PUSH0 PUSH1 0x20 DUP3 DUP5 SUB SLT ISZERO PUSH2 0xC60 JUMPI PUSH2 0xC5F PUSH2 0xC14 JUMP JUMPDEST JUMPDEST PUSH0 PUSH2 0xC6D DUP5 DUP3 DUP6 ADD PUSH2 0xC37 JUMP JUMPDEST SWAP2 POP POP SWAP3 SWAP2 POP POP JUMP JUMPDEST PUSH0 PUSH20 0xFFFFFFFFFFFFFFFFFFFFFFFFFFFFFFFFFFFFFFFF DUP3 AND SWAP1 POP SWAP2 SWAP1 POP JUMP JUMPDEST PUSH0 PUSH2 0xC9F DUP3 PUSH2 0xC76 JUMP JUMPDEST SWAP1 POP SWAP2 SWAP1 POP JUMP JUMPDEST PUSH2 0xCAF DUP2 PUSH2 0xC95 JUMP JUMPDEST DUP2 EQ PUSH2 0xCB9 JUMPI PUSH0 PUSH0 REVERT JUMPDEST POP JUMP JUMPDEST PUSH0 DUP2 CALLDATALOAD SWAP1 POP PUSH2 0xCCA DUP2 PUSH2 0xCA6 JUMP JUMPDEST SWAP3 SWAP2 POP POP JUMP JUMPDEST PUSH0 PUSH0 PUSH1 0x40 DUP4 DUP6 SUB SLT ISZERO PUSH2 0xCE6 JUMPI PUSH2 0xCE5 PUSH2 0xC14 JUMP JUMPDEST JUMPDEST PUSH0 PUSH2 0xCF3 DUP6 DUP3 DUP7 ADD PUSH2 0xCBC JUMP JUMPDEST SWAP3 POP POP PUSH1 0x20 PUSH2 0xD04 DUP6 DUP3 DUP7 ADD PUSH2 0xC37 JUMP JUMPDEST SWAP2 POP POP SWAP3 POP SWAP3 SWAP1 POP JUMP JUMPDEST PUSH0 PUSH1 0x20 DUP3 DUP5 SUB SLT ISZERO PUSH2 0xD23 JUMPI PUSH2 0xD22 PUSH2 0xC14 JUMP JUMPDEST JUMPDEST PUSH0 PUSH2 0xD30 DUP5 DUP3 DUP6 ADD PUSH2 0xCBC JUMP JUMPDEST SWAP2 POP POP SWAP3 SWAP2 POP POP JUMP JUMPDEST PUSH2 0xD42 DUP2 PUSH2 0xC18 JUMP JUMPDEST DUP3 MSTORE POP POP JUMP JUMPDEST PUSH0 PUSH1 0x20 DUP3 ADD SWAP1 POP PUSH2 0xD5B PUSH0 DUP4 ADD DUP5 PUSH2 0xD39 JUMP JUMPDEST SWAP3 SWAP2 POP POP JUMP JUMPDEST PUSH0 DUP2 MLOAD SWAP1 POP SWAP2 SWAP1 POP JUMP JUMPDEST PUSH0 DUP3 DUP3 MSTORE PUSH1 0x20 DUP3 ADD SWAP1 POP SWAP3 SWAP2 POP POP JUMP JUMPDEST PUSH0 DUP2 SWAP1 POP PUSH1 0x20 DUP3 ADD SWAP1 POP SWAP2 SWAP1 POP JUMP JUMPDEST PUSH2 0xD93 DUP2 PUSH2 0xC95 JUMP JUMPDEST DUP3 MSTORE POP POP JUMP JUMPDEST PUSH0 PUSH2 0xDA4 DUP4 DUP4 PUSH2 0xD8A JUMP JUMPDEST PUSH1 0x20 DUP4 ADD SWAP1 POP SWAP3 SWAP2 POP POP JUMP JUMPDEST PUSH0 PUSH1 0x20 DUP3 ADD SWAP1 POP SWAP2 SWAP1 POP JUMP JUMPDEST PUSH0 PUSH2 0xDC6 DUP3 PUSH2 0xD61 JUMP JUMPDEST PUSH2 0xDD0 DUP2 DUP6 PUSH2 0xD6B JUMP JUMPDEST SWAP4 POP PUSH2 0xDDB DUP4 PUSH2 0xD7B JUMP JUMPDEST DUP1 PUSH0 JUMPDEST DUP4 DUP2 LT ISZERO PUSH2 0xE0B JUMPI DUP2 MLOAD PUSH2 0xDF2 DUP9 DUP3 PUSH2 0xD99 JUMP JUMPDEST SWAP8 POP PUSH2 0xDFD DUP4 PUSH2 0xDB0 JUMP JUMPDEST SWAP3 POP POP PUSH1 0x1 DUP2 ADD SWAP1 POP PUSH2 0xDDE JUMP JUMPDEST POP DUP6 SWAP4 POP POP POP POP SWAP3 SWAP2 POP POP JUMP JUMPDEST PUSH0 PUSH1 0x20 DUP3 ADD SWAP1 POP DUP2 DUP2 SUB PUSH0 DUP4 ADD MSTORE PUSH2 0xE30 DUP2 DUP5 PUSH2 0xDBC JUMP JUMPDEST SWAP1 POP SWAP3 SWAP2 POP POP JUMP JUMPDEST PUSH0 DUP2 ISZERO ISZERO SWAP1 POP SWAP2 SWAP1 POP JUMP JUMPDEST PUSH2 0xE4C DUP2 PUSH2 0xE38 JUMP JUMPDEST DUP3 MSTORE POP POP JUMP JUMPDEST PUSH0 PUSH1 0x20 DUP3 ADD SWAP1 POP PUSH2 0xE65 PUSH0 DUP4 ADD DUP5 PUSH2 0xE43 JUMP JUMPDEST SWAP3 SWAP2 POP POP JUMP JUMPDEST PUSH2 0xE74 DUP2 PUSH2 0xC95 JUMP JUMPDEST DUP3 MSTORE POP POP JUMP JUMPDEST PUSH0 PUSH1 0x20 DUP3 ADD SWAP1 POP PUSH2 0xE8D PUSH0 DUP4 ADD DUP5 PUSH2 0xE6B JUMP JUMPDEST SWAP3 SWAP2 POP POP JUMP JUMPDEST PUSH0 DUP3 DUP3 MSTORE PUSH1 0x20 DUP3 ADD SWAP1 POP SWAP3 SWAP2 POP POP JUMP JUMPDEST PUSH32 0x4F6E6C792061646D696E2063616E20706572666F726D20746869732061637469 PUSH0 DUP3 ADD MSTORE PUSH32 0x6F6E2E0000000000000000000000000000000000000000000000000000000000 PUSH1 0x20 DUP3 ADD MSTORE POP JUMP JUMPDEST PUSH0 PUSH2 0xEFD PUSH1 0x23 DUP4 PUSH2 0xE93 JUMP JUMPDEST SWAP2 POP PUSH2 0xF08 DUP3 PUSH2 0xEA3 JUMP JUMPDEST PUSH1 0x40 DUP3 ADD SWAP1 POP SWAP2 SWAP1 POP JUMP JUMPDEST PUSH0 PUSH1 0x20 DUP3 ADD SWAP1 POP DUP2 DUP2 SUB PUSH0 DUP4 ADD MSTORE PUSH2 0xF2A DUP2 PUSH2 0xEF1 JUMP JUMPDEST SWAP1 POP SWAP2 SWAP1 POP JUMP JUMPDEST PUSH32 0x4E487B7100000000000000000000000000000000000000000000000000000000 PUSH0 MSTORE PUSH1 0x32 PUSH1 0x4 MSTORE PUSH1 0x24 PUSH0 REVERT JUMPDEST PUSH0 DUP2 SWAP1 POP SWAP3 SWAP2 POP POP JUMP JUMPDEST POP JUMP JUMPDEST PUSH0 PUSH2 0xF76 PUSH0 DUP4 PUSH2 0xF5E JUMP JUMPDEST SWAP2 POP PUSH2 0xF81 DUP3 PUSH2 0xF68 JUMP JUMPDEST PUSH0 DUP3 ADD SWAP1 POP SWAP2 SWAP1 POP JUMP JUMPDEST PUSH0 PUSH2 0xF95 DUP3 PUSH2 0xF6B JUMP JUMPDEST SWAP2 POP DUP2 SWAP1 POP SWAP2 SWAP1 POP JUMP JUMPDEST PUSH32 0x4E487B7100000000000000000000000000000000000000000000000000000000 PUSH0 MSTORE PUSH1 0x11 PUSH1 0x4 MSTORE PUSH1 0x24 PUSH0 REVERT JUMPDEST PUSH0 PUSH2 0xFD6 DUP3 PUSH2 0xC18 JUMP JUMPDEST SWAP2 POP PUSH32 0xFFFFFFFFFFFFFFFFFFFFFFFFFFFFFFFFFFFFFFFFFFFFFFFFFFFFFFFFFFFFFFFF DUP3 SUB PUSH2 0x1008 JUMPI PUSH2 0x1007 PUSH2 0xF9F JUMP JUMPDEST JUMPDEST PUSH1 0x1 DUP3 ADD SWAP1 POP SWAP2 SWAP1 POP JUMP JUMPDEST PUSH32 0x496E76616C696420726563697069656E7420616464726573732E000000000000 PUSH0 DUP3 ADD MSTORE POP JUMP JUMPDEST PUSH0 PUSH2 0x1047 PUSH1 0x1A DUP4 PUSH2 0xE93 JUMP JUMPDEST SWAP2 POP PUSH2 0x1052 DUP3 PUSH2 0x1013 JUMP JUMPDEST PUSH1 0x20 DUP3 ADD SWAP1 POP SWAP2 SWAP1 POP JUMP JUMPDEST PUSH0 PUSH1 0x20 DUP3 ADD SWAP1 POP DUP2 DUP2 SUB PUSH0 DUP4 ADD MSTORE PUSH2 0x1074 DUP2 PUSH2 0x103B JUMP JUMPDEST SWAP1 POP SWAP2 SWAP1 POP JUMP JUMPDEST PUSH32 0x4E6F2066756E647320746F20646973747269627574652E000000000000000000 PUSH0 DUP3 ADD MSTORE POP JUMP JUMPDEST PUSH0 PUSH2 0x10AF PUSH1 0x17 DUP4 PUSH2 0xE93 JUMP JUMPDEST SWAP2 POP PUSH2 0x10BA DUP3 PUSH2 0x107B JUMP JUMPDEST PUSH1 0x20 DUP3 ADD SWAP1 POP SWAP2 SWAP1 POP JUMP JUMPDEST PUSH0 PUSH1 0x20 DUP3 ADD SWAP1 POP DUP2 DUP2 SUB PUSH0 DUP4 ADD MSTORE PUSH2 0x10DC DUP2 PUSH2 0x10A3 JUMP JUMPDEST SWAP1 POP SWAP2 SWAP1 POP JUMP JUMPDEST PUSH0 PUSH2 0x10ED DUP3 PUSH2 0xC18 JUMP JUMPDEST SWAP2 POP PUSH2 0x10F8 DUP4 PUSH2 0xC18 JUMP JUMPDEST SWAP3 POP DUP3 DUP3 ADD SWAP1 POP DUP1 DUP3 GT ISZERO PUSH2 0x1110 JUMPI PUSH2 0x110F PUSH2 0xF9F JUMP JUMPDEST JUMPDEST SWAP3 SWAP2 POP POP JUMP INVALID LOG2 PUSH5 0x6970667358 0x22 SLT KECCAK256 0x1E 0xB6 0xEA 0xC0 RJUMP 0x6CB4 LT SHR SWAP13 PUSH3 0xFEB5CD NOT NUMBER 0xD SWAP13 JUMPF 0x8840 PUSH8 0x17BBB403C276C4CD 0xED SWAP12 PUSH5 0x736F6C6343 STOP ADDMOD 0x1E STOP CALLER "
				},
				"gasEstimates": {
					"creation": {
						"codeDepositCost": "885600",
						"executionCost": "25184",
						"totalCost": "910784"
					},
					"external": {
						"AddRecipient(address,uint256)": "73644",
						"DepositFunds()": "2678",
						"DistributeDividends(uint256)": "infinite",
						"GetRecipients()": "infinite",
						"ResetProcessedIndex()": "7347",
						"RetryFailedPayments(uint256)": "infinite",
						"admin()": "2595",
						"dividends(address)": "2802",
						"failedRecipients(address)": "2877",
						"processedIndex()": "2535",
						"recipients(uint256)": "5010"
					}
				},
				"methodIdentifiers": {
					"AddRecipient(address,uint256)": "1e1f1072",
					"DepositFunds()": "4fbcd6d5",
					"DistributeDividends(uint256)": "4ecd73e2",
					"GetRecipients()": "75b4306b",
					"ResetProcessedIndex()": "1af8b015",
					"RetryFailedPayments(uint256)": "065d8d3d",
					"admin()": "f851a440",
					"dividends(address)": "68306e43",
					"failedRecipients(address)": "a32df10c",
					"processedIndex()": "fdda918e",
					"recipients(uint256)": "d1bc76a1"
				}
			},
			"storageLayout": {
				"storage": [
					{
						"astId": 3,
						"contract": "contracts/Dividend_SC06_Secire.sol:DividendDistributor",
						"label": "admin",
						"offset": 0,
						"slot": "0",
						"type": "t_address"
					},
					{
						"astId": 6,
						"contract": "contracts/Dividend_SC06_Secire.sol:DividendDistributor",
						"label": "recipients",
						"offset": 0,
						"slot": "1",
						"type": "t_array(t_address)dyn_storage"
					},
					{
						"astId": 10,
						"contract": "contracts/Dividend_SC06_Secire.sol:DividendDistributor",
						"label": "dividends",
						"offset": 0,
						"slot": "2",
						"type": "t_mapping(t_address,t_uint256)"
					},
					{
						"astId": 12,
						"contract": "contracts/Dividend_SC06_Secire.sol:DividendDistributor",
						"label": "processedIndex",
						"offset": 0,
						"slot": "3",
						"type": "t_uint256"
					},
					{
						"astId": 16,
						"contract": "contracts/Dividend_SC06_Secire.sol:DividendDistributor",
						"label": "failedRecipients",
						"offset": 0,
						"slot": "4",
						"type": "t_mapping(t_address,t_bool)"
					}
				],
				"types": {
					"t_address": {
						"encoding": "inplace",
						"label": "address",
						"numberOfBytes": "20"
					},
					"t_array(t_address)dyn_storage": {
						"base": "t_address",
						"encoding": "dynamic_array",
						"label": "address[]",
						"numberOfBytes": "32"
					},
					"t_bool": {
						"encoding": "inplace",
						"label": "bool",
						"numberOfBytes": "1"
					},
					"t_mapping(t_address,t_bool)": {
						"encoding": "mapping",
						"key": "t_address",
						"label": "mapping(address => bool)",
						"numberOfBytes": "32",
						"value": "t_bool"
					},
					"t_mapping(t_address,t_uint256)": {
						"encoding": "mapping",
						"key": "t_address",
						"label": "mapping(address => uint256)",
						"numberOfBytes": "32",
						"value": "t_uint256"
					},
					"t_uint256": {
						"encoding": "inplace",
						"label": "uint256",
						"numberOfBytes": "32"
					}
				}
			},
			"userdoc": {
				"kind": "user",
				"methods": {},
				"version": 1
			}
		}
	}
}