{
	"contracts/LotoGame_SC08_Secure.sol": {
		"LotoGame": {
			"abi": [
				{
					"inputs": [],
					"name": "CheckBalance",
					"outputs": [
						{
							"internalType": "uint256",
							"name": "",
							"type": "uint256"
						}
					],
					"stateMutability": "view",
					"type": "function"
				},
				{
					"inputs": [],
					"name": "EnterLottery",
					"outputs": [],
					"stateMutability": "payable",
					"type": "function"
				},
				{
					"inputs": [],
					"name": "GetPlayers",
					"outputs": [
						{
							"internalType": "address[]",
							"name": "",
							"type": "address[]"
						}
					],
					"stateMutability": "view",
					"type": "function"
				},
				{
					"inputs": [],
					"name": "PickWinner",
					"outputs": [],
					"stateMutability": "nonpayable",
					"type": "function"
				},
				{
					"inputs": [],
					"name": "ResetLotteryWithRefund",
					"outputs": [],
					"stateMutability": "nonpayable",
					"type": "function"
				}
			],
			"devdoc": {
				"kind": "dev",
				"methods": {},
				"version": 1
			},
			"evm": {
				"assembly": "    /* \"contracts/LotoGame_SC08_Secure.sol\":68:1702  contract LotoGame {... */\n  mstore(0x40, 0x80)\n  callvalue\n  dup1\n  iszero\n  tag_1\n  jumpi\n  revert(0x00, 0x00)\ntag_1:\n  pop\n  dataSize(sub_0)\n  dup1\n  dataOffset(sub_0)\n  0x00\n  codecopy\n  0x00\n  return\nstop\n\nsub_0: assembly {\n        /* \"contracts/LotoGame_SC08_Secure.sol\":68:1702  contract LotoGame {... */\n      mstore(0x40, 0x80)\n      jumpi(tag_1, lt(calldatasize, 0x04))\n      shr(0xe0, calldataload(0x00))\n      dup1\n      0x30f4c43d\n      eq\n      tag_2\n      jumpi\n      dup1\n      0x44e73b78\n      eq\n      tag_3\n      jumpi\n      dup1\n      0x6e5485cb\n      eq\n      tag_4\n      jumpi\n      dup1\n      0xb7d2c654\n      eq\n      tag_5\n      jumpi\n      dup1\n      0xeb74ba78\n      eq\n      tag_6\n      jumpi\n    tag_1:\n      revert(0x00, 0x00)\n        /* \"contracts/LotoGame_SC08_Secure.sol\":221:630  function EnterLottery() public payable {... */\n    tag_2:\n      tag_7\n      tag_8\n      jump\t// in\n    tag_7:\n      stop\n        /* \"contracts/LotoGame_SC08_Secure.sol\":1571:1699  function CheckBalance() public view returns (uint256) {... */\n    tag_3:\n      callvalue\n      dup1\n      iszero\n      tag_9\n      jumpi\n      revert(0x00, 0x00)\n    tag_9:\n      pop\n      tag_10\n      tag_11\n      jump\t// in\n    tag_10:\n      mload(0x40)\n      tag_12\n      swap2\n      swap1\n      tag_13\n      jump\t// in\n    tag_12:\n      mload(0x40)\n      dup1\n      swap2\n      sub\n      swap1\n      return\n        /* \"contracts/LotoGame_SC08_Secure.sol\":1469:1563  function GetPlayers() public view returns (address[] memory) {... */\n    tag_4:\n      callvalue\n      dup1\n      iszero\n      tag_14\n      jumpi\n      revert(0x00, 0x00)\n    tag_14:\n      pop\n      tag_15\n      tag_16\n      jump\t// in\n    tag_15:\n      mload(0x40)\n      tag_17\n      swap2\n      swap1\n      tag_18\n      jump\t// in\n    tag_17:\n      mload(0x40)\n      dup1\n      swap2\n      sub\n      swap1\n      return\n        /* \"contracts/LotoGame_SC08_Secure.sol\":638:1072  function PickWinner() public {... */\n    tag_5:\n      callvalue\n      dup1\n      iszero\n      tag_19\n      jumpi\n      revert(0x00, 0x00)\n    tag_19:\n      pop\n      tag_20\n      tag_21\n      jump\t// in\n    tag_20:\n      stop\n        /* \"contracts/LotoGame_SC08_Secure.sol\":1080:1461  function ResetLotteryWithRefund() public {... */\n    tag_6:\n      callvalue\n      dup1\n      iszero\n      tag_22\n      jumpi\n      revert(0x00, 0x00)\n    tag_22:\n      pop\n      tag_23\n      tag_24\n      jump\t// in\n    tag_23:\n      stop\n        /* \"contracts/LotoGame_SC08_Secure.sol\":221:630  function EnterLottery() public payable {... */\n    tag_8:\n        /* \"contracts/LotoGame_SC08_Secure.sol\":291:292  0 */\n      0x00\n        /* \"contracts/LotoGame_SC08_Secure.sol\":279:288  msg.value */\n      callvalue\n        /* \"contracts/LotoGame_SC08_Secure.sol\":279:292  msg.value > 0 */\n      gt\n        /* \"contracts/LotoGame_SC08_Secure.sol\":271:351  require(msg.value > 0, \"In order to play, the value must be greater than zero.\") */\n      tag_26\n      jumpi\n      mload(0x40)\n      0x08c379a000000000000000000000000000000000000000000000000000000000\n      dup2\n      mstore\n      0x04\n      add\n      tag_27\n      swap1\n      tag_28\n      jump\t// in\n    tag_27:\n      mload(0x40)\n      dup1\n      swap2\n      sub\n      swap1\n      revert\n    tag_26:\n        /* \"contracts/LotoGame_SC08_Secure.sol\":371:381  hasEntered */\n      0x01\n        /* \"contracts/LotoGame_SC08_Secure.sol\":371:393  hasEntered[msg.sender] */\n      0x00\n        /* \"contracts/LotoGame_SC08_Secure.sol\":382:392  msg.sender */\n      caller\n        /* \"contracts/LotoGame_SC08_Secure.sol\":371:393  hasEntered[msg.sender] */\n      0xffffffffffffffffffffffffffffffffffffffff\n      and\n      0xffffffffffffffffffffffffffffffffffffffff\n      and\n      dup2\n      mstore\n      0x20\n      add\n      swap1\n      dup2\n      mstore\n      0x20\n      add\n      0x00\n      keccak256\n      0x00\n      swap1\n      sload\n      swap1\n      0x0100\n      exp\n      swap1\n      div\n      0xff\n      and\n        /* \"contracts/LotoGame_SC08_Secure.sol\":370:393  !hasEntered[msg.sender] */\n      iszero\n        /* \"contracts/LotoGame_SC08_Secure.sol\":362:431  require(!hasEntered[msg.sender], \"You can only enter once per game.\") */\n      tag_29\n      jumpi\n      mload(0x40)\n      0x08c379a000000000000000000000000000000000000000000000000000000000\n      dup2\n      mstore\n      0x04\n      add\n      tag_30\n      swap1\n      tag_31\n      jump\t// in\n    tag_30:\n      mload(0x40)\n      dup1\n      swap2\n      sub\n      swap1\n      revert\n    tag_29:\n        /* \"contracts/LotoGame_SC08_Secure.sol\":514:518  true */\n      0x01\n        /* \"contracts/LotoGame_SC08_Secure.sol\":489:499  hasEntered */\n      dup1\n        /* \"contracts/LotoGame_SC08_Secure.sol\":489:511  hasEntered[msg.sender] */\n      0x00\n        /* \"contracts/LotoGame_SC08_Secure.sol\":500:510  msg.sender */\n      caller\n        /* \"contracts/LotoGame_SC08_Secure.sol\":489:511  hasEntered[msg.sender] */\n      0xffffffffffffffffffffffffffffffffffffffff\n      and\n      0xffffffffffffffffffffffffffffffffffffffff\n      and\n      dup2\n      mstore\n      0x20\n      add\n      swap1\n      dup2\n      mstore\n      0x20\n      add\n      0x00\n      keccak256\n      0x00\n        /* \"contracts/LotoGame_SC08_Secure.sol\":489:518  hasEntered[msg.sender] = true */\n      0x0100\n      exp\n      dup2\n      sload\n      dup2\n      0xff\n      mul\n      not\n      and\n      swap1\n      dup4\n      iszero\n      iszero\n      mul\n      or\n      swap1\n      sstore\n      pop\n        /* \"contracts/LotoGame_SC08_Secure.sol\":570:577  players */\n      0x00\n        /* \"contracts/LotoGame_SC08_Secure.sol\":583:593  msg.sender */\n      caller\n        /* \"contracts/LotoGame_SC08_Secure.sol\":570:594  players.push(msg.sender) */\n      swap1\n      dup1\n      0x01\n      dup2\n      sload\n      add\n      dup1\n      dup3\n      sstore\n      dup1\n      swap2\n      pop\n      pop\n      0x01\n      swap1\n      sub\n      swap1\n      0x00\n      mstore\n      keccak256(0x00, 0x20)\n      add\n      0x00\n      swap1\n      swap2\n      swap1\n      swap2\n      swap1\n      swap2\n      0x0100\n      exp\n      dup2\n      sload\n      dup2\n      0xffffffffffffffffffffffffffffffffffffffff\n      mul\n      not\n      and\n      swap1\n      dup4\n      0xffffffffffffffffffffffffffffffffffffffff\n      and\n      mul\n      or\n      swap1\n      sstore\n      pop\n        /* \"contracts/LotoGame_SC08_Secure.sol\":221:630  function EnterLottery() public payable {... */\n      jump\t// out\n        /* \"contracts/LotoGame_SC08_Secure.sol\":1571:1699  function CheckBalance() public view returns (uint256) {... */\n    tag_11:\n        /* \"contracts/LotoGame_SC08_Secure.sol\":1616:1623  uint256 */\n      0x00\n        /* \"contracts/LotoGame_SC08_Secure.sol\":1643:1664  address(this).balance */\n      selfbalance\n        /* \"contracts/LotoGame_SC08_Secure.sol\":1636:1664  return address(this).balance */\n      swap1\n      pop\n        /* \"contracts/LotoGame_SC08_Secure.sol\":1571:1699  function CheckBalance() public view returns (uint256) {... */\n      swap1\n      jump\t// out\n        /* \"contracts/LotoGame_SC08_Secure.sol\":1469:1563  function GetPlayers() public view returns (address[] memory) {... */\n    tag_16:\n        /* \"contracts/LotoGame_SC08_Secure.sol\":1512:1528  address[] memory */\n      0x60\n        /* \"contracts/LotoGame_SC08_Secure.sol\":1548:1555  players */\n      0x00\n        /* \"contracts/LotoGame_SC08_Secure.sol\":1541:1555  return players */\n      dup1\n      sload\n      dup1\n      0x20\n      mul\n      0x20\n      add\n      mload(0x40)\n      swap1\n      dup2\n      add\n      0x40\n      mstore\n      dup1\n      swap3\n      swap2\n      swap1\n      dup2\n      dup2\n      mstore\n      0x20\n      add\n      dup3\n      dup1\n      sload\n      dup1\n      iszero\n      tag_35\n      jumpi\n      0x20\n      mul\n      dup3\n      add\n      swap2\n      swap1\n      0x00\n      mstore\n      keccak256(0x00, 0x20)\n      swap1\n    tag_36:\n      dup2\n      0x00\n      swap1\n      sload\n      swap1\n      0x0100\n      exp\n      swap1\n      div\n      0xffffffffffffffffffffffffffffffffffffffff\n      and\n      0xffffffffffffffffffffffffffffffffffffffff\n      and\n      dup2\n      mstore\n      0x20\n      add\n      swap1\n      0x01\n      add\n      swap1\n      dup1\n      dup4\n      gt\n      tag_36\n      jumpi\n    tag_35:\n      pop\n      pop\n      pop\n      pop\n      pop\n      swap1\n      pop\n        /* \"contracts/LotoGame_SC08_Secure.sol\":1469:1563  function GetPlayers() public view returns (address[] memory) {... */\n      swap1\n      jump\t// out\n        /* \"contracts/LotoGame_SC08_Secure.sol\":638:1072  function PickWinner() public {... */\n    tag_21:\n        /* \"contracts/LotoGame_SC08_Secure.sol\":703:704  0 */\n      0x00\n        /* \"contracts/LotoGame_SC08_Secure.sol\":686:693  players */\n      0x00\n        /* \"contracts/LotoGame_SC08_Secure.sol\":686:700  players.length */\n      dup1\n      sload\n      swap1\n      pop\n        /* \"contracts/LotoGame_SC08_Secure.sol\":686:704  players.length > 0 */\n      gt\n        /* \"contracts/LotoGame_SC08_Secure.sol\":678:745  require(players.length > 0, \"No players have entered the lottery.\") */\n      tag_38\n      jumpi\n      mload(0x40)\n      0x08c379a000000000000000000000000000000000000000000000000000000000\n      dup2\n      mstore\n      0x04\n      add\n      tag_39\n      swap1\n      tag_40\n      jump\t// in\n    tag_39:\n      mload(0x40)\n      dup1\n      swap2\n      sub\n      swap1\n      revert\n    tag_38:\n        /* \"contracts/LotoGame_SC08_Secure.sol\":832:851  uint256 winnerIndex */\n      0x00\n        /* \"contracts/LotoGame_SC08_Secure.sol\":944:951  players */\n      0x00\n        /* \"contracts/LotoGame_SC08_Secure.sol\":944:958  players.length */\n      dup1\n      sload\n      swap1\n      pop\n        /* \"contracts/LotoGame_SC08_Secure.sol\":889:905  block.prevrandao */\n      prevrandao\n        /* \"contracts/LotoGame_SC08_Secure.sol\":907:922  block.timestamp */\n      timestamp\n        /* \"contracts/LotoGame_SC08_Secure.sol\":924:931  players */\n      0x00\n        /* \"contracts/LotoGame_SC08_Secure.sol\":924:938  players.length */\n      dup1\n      sload\n      swap1\n      pop\n        /* \"contracts/LotoGame_SC08_Secure.sol\":872:939  abi.encodePacked(block.prevrandao, block.timestamp, players.length) */\n      add(0x20, mload(0x40))\n      tag_41\n      swap4\n      swap3\n      swap2\n      swap1\n      tag_42\n      jump\t// in\n    tag_41:\n      mload(0x40)\n      0x20\n      dup2\n      dup4\n      sub\n      sub\n      dup2\n      mstore\n      swap1\n      0x40\n      mstore\n        /* \"contracts/LotoGame_SC08_Secure.sol\":862:940  keccak256(abi.encodePacked(block.prevrandao, block.timestamp, players.length)) */\n      dup1\n      mload\n      swap1\n      0x20\n      add\n      keccak256\n        /* \"contracts/LotoGame_SC08_Secure.sol\":854:941  uint256(keccak256(abi.encodePacked(block.prevrandao, block.timestamp, players.length))) */\n      0x00\n      shr\n        /* \"contracts/LotoGame_SC08_Secure.sol\":854:958  uint256(keccak256(abi.encodePacked(block.prevrandao, block.timestamp, players.length))) % players.length */\n      tag_43\n      swap2\n      swap1\n      tag_44\n      jump\t// in\n    tag_43:\n        /* \"contracts/LotoGame_SC08_Secure.sol\":832:958  uint256 winnerIndex = uint256(keccak256(abi.encodePacked(block.prevrandao, block.timestamp, players.length))) % players.length */\n      swap1\n      pop\n        /* \"contracts/LotoGame_SC08_Secure.sol\":969:983  address winner */\n      0x00\n        /* \"contracts/LotoGame_SC08_Secure.sol\":986:993  players */\n      0x00\n        /* \"contracts/LotoGame_SC08_Secure.sol\":994:1005  winnerIndex */\n      dup3\n        /* \"contracts/LotoGame_SC08_Secure.sol\":986:1006  players[winnerIndex] */\n      dup2\n      sload\n      dup2\n      lt\n      tag_45\n      jumpi\n      tag_46\n      tag_47\n      jump\t// in\n    tag_46:\n    tag_45:\n      swap1\n      0x00\n      mstore\n      keccak256(0x00, 0x20)\n      add\n      0x00\n      swap1\n      sload\n      swap1\n      0x0100\n      exp\n      swap1\n      div\n      0xffffffffffffffffffffffffffffffffffffffff\n      and\n        /* \"contracts/LotoGame_SC08_Secure.sol\":969:1006  address winner = players[winnerIndex] */\n      swap1\n      pop\n        /* \"contracts/LotoGame_SC08_Secure.sol\":1025:1031  winner */\n      dup1\n        /* \"contracts/LotoGame_SC08_Secure.sol\":1017:1041  payable(winner).transfer */\n      0xffffffffffffffffffffffffffffffffffffffff\n      and\n        /* \"contracts/LotoGame_SC08_Secure.sol\":1017:1064  payable(winner).transfer(address(this).balance) */\n      0x08fc\n        /* \"contracts/LotoGame_SC08_Secure.sol\":1042:1063  address(this).balance */\n      selfbalance\n        /* \"contracts/LotoGame_SC08_Secure.sol\":1017:1064  payable(winner).transfer(address(this).balance) */\n      swap1\n      dup2\n      iszero\n      mul\n      swap1\n      mload(0x40)\n      0x00\n      mload(0x40)\n      dup1\n      dup4\n      sub\n      dup2\n      dup6\n      dup9\n      dup9\n      call\n      swap4\n      pop\n      pop\n      pop\n      pop\n      iszero\n      dup1\n      iszero\n      tag_50\n      jumpi\n      returndatacopy(0x00, 0x00, returndatasize)\n      revert(0x00, returndatasize)\n    tag_50:\n      pop\n        /* \"contracts/LotoGame_SC08_Secure.sol\":667:1072  {... */\n      pop\n      pop\n        /* \"contracts/LotoGame_SC08_Secure.sol\":638:1072  function PickWinner() public {... */\n      jump\t// out\n        /* \"contracts/LotoGame_SC08_Secure.sol\":1080:1461  function ResetLotteryWithRefund() public {... */\n    tag_24:\n        /* \"contracts/LotoGame_SC08_Secure.sol\":1157:1158  0 */\n      0x00\n        /* \"contracts/LotoGame_SC08_Secure.sol\":1140:1147  players */\n      0x00\n        /* \"contracts/LotoGame_SC08_Secure.sol\":1140:1154  players.length */\n      dup1\n      sload\n      swap1\n      pop\n        /* \"contracts/LotoGame_SC08_Secure.sol\":1140:1158  players.length > 0 */\n      gt\n        /* \"contracts/LotoGame_SC08_Secure.sol\":1132:1194  require(players.length > 0, \"Lottery has already been reset.\") */\n      tag_52\n      jumpi\n      mload(0x40)\n      0x08c379a000000000000000000000000000000000000000000000000000000000\n      dup2\n      mstore\n      0x04\n      add\n      tag_53\n      swap1\n      tag_54\n      jump\t// in\n    tag_53:\n      mload(0x40)\n      dup1\n      swap2\n      sub\n      swap1\n      revert\n    tag_52:\n        /* \"contracts/LotoGame_SC08_Secure.sol\":1271:1280  uint256 i */\n      0x00\n        /* \"contracts/LotoGame_SC08_Secure.sol\":1283:1284  0 */\n      0x00\n        /* \"contracts/LotoGame_SC08_Secure.sol\":1271:1284  uint256 i = 0 */\n      swap1\n      pop\n        /* \"contracts/LotoGame_SC08_Secure.sol\":1266:1401  for (uint256 i = 0; i < players.length; i++) {... */\n    tag_55:\n        /* \"contracts/LotoGame_SC08_Secure.sol\":1290:1297  players */\n      0x00\n        /* \"contracts/LotoGame_SC08_Secure.sol\":1290:1304  players.length */\n      dup1\n      sload\n      swap1\n      pop\n        /* \"contracts/LotoGame_SC08_Secure.sol\":1286:1287  i */\n      dup2\n        /* \"contracts/LotoGame_SC08_Secure.sol\":1286:1304  i < players.length */\n      lt\n        /* \"contracts/LotoGame_SC08_Secure.sol\":1266:1401  for (uint256 i = 0; i < players.length; i++) {... */\n      iszero\n      tag_56\n      jumpi\n        /* \"contracts/LotoGame_SC08_Secure.sol\":1351:1356  false */\n      0x00\n        /* \"contracts/LotoGame_SC08_Secure.sol\":1326:1336  hasEntered */\n      0x01\n        /* \"contracts/LotoGame_SC08_Secure.sol\":1326:1348  hasEntered[players[i]] */\n      0x00\n        /* \"contracts/LotoGame_SC08_Secure.sol\":1337:1344  players */\n      0x00\n        /* \"contracts/LotoGame_SC08_Secure.sol\":1345:1346  i */\n      dup5\n        /* \"contracts/LotoGame_SC08_Secure.sol\":1337:1347  players[i] */\n      dup2\n      sload\n      dup2\n      lt\n      tag_58\n      jumpi\n      tag_59\n      tag_47\n      jump\t// in\n    tag_59:\n    tag_58:\n      swap1\n      0x00\n      mstore\n      keccak256(0x00, 0x20)\n      add\n      0x00\n      swap1\n      sload\n      swap1\n      0x0100\n      exp\n      swap1\n      div\n      0xffffffffffffffffffffffffffffffffffffffff\n      and\n        /* \"contracts/LotoGame_SC08_Secure.sol\":1326:1348  hasEntered[players[i]] */\n      0xffffffffffffffffffffffffffffffffffffffff\n      and\n      0xffffffffffffffffffffffffffffffffffffffff\n      and\n      dup2\n      mstore\n      0x20\n      add\n      swap1\n      dup2\n      mstore\n      0x20\n      add\n      0x00\n      keccak256\n      0x00\n        /* \"contracts/LotoGame_SC08_Secure.sol\":1326:1356  hasEntered[players[i]] = false */\n      0x0100\n      exp\n      dup2\n      sload\n      dup2\n      0xff\n      mul\n      not\n      and\n      swap1\n      dup4\n      iszero\n      iszero\n      mul\n      or\n      swap1\n      sstore\n      pop\n        /* \"contracts/LotoGame_SC08_Secure.sol\":1306:1309  i++ */\n      dup1\n      dup1\n      0x01\n      add\n      swap2\n      pop\n      pop\n        /* \"contracts/LotoGame_SC08_Secure.sol\":1266:1401  for (uint256 i = 0; i < players.length; i++) {... */\n      jump(tag_55)\n    tag_56:\n      pop\n        /* \"contracts/LotoGame_SC08_Secure.sol\":1418:1425  players */\n      0x00\n      0x00\n        /* \"contracts/LotoGame_SC08_Secure.sol\":1411:1425  delete players */\n      tag_61\n      swap2\n      swap1\n      tag_62\n      jump\t// in\n    tag_61:\n        /* \"contracts/LotoGame_SC08_Secure.sol\":1080:1461  function ResetLotteryWithRefund() public {... */\n      jump\t// out\n    tag_62:\n      pop\n      dup1\n      sload\n      0x00\n      dup3\n      sstore\n      swap1\n      0x00\n      mstore\n      keccak256(0x00, 0x20)\n      swap1\n      dup2\n      add\n      swap1\n      tag_64\n      swap2\n      swap1\n      tag_65\n      jump\t// in\n    tag_64:\n      pop\n      jump\t// out\n    tag_65:\n    tag_66:\n      dup1\n      dup3\n      gt\n      iszero\n      tag_67\n      jumpi\n      0x00\n      dup2\n      0x00\n      swap1\n      sstore\n      pop\n      0x01\n      add\n      jump(tag_66)\n    tag_67:\n      pop\n      swap1\n      jump\t// out\n        /* \"#utility.yul\":7:84   */\n    tag_68:\n        /* \"#utility.yul\":44:51   */\n      0x00\n        /* \"#utility.yul\":73:78   */\n      dup2\n        /* \"#utility.yul\":62:78   */\n      swap1\n      pop\n        /* \"#utility.yul\":7:84   */\n      swap2\n      swap1\n      pop\n      jump\t// out\n        /* \"#utility.yul\":90:208   */\n    tag_69:\n        /* \"#utility.yul\":177:201   */\n      tag_94\n        /* \"#utility.yul\":195:200   */\n      dup2\n        /* \"#utility.yul\":177:201   */\n      tag_68\n      jump\t// in\n    tag_94:\n        /* \"#utility.yul\":172:175   */\n      dup3\n        /* \"#utility.yul\":165:202   */\n      mstore\n        /* \"#utility.yul\":90:208   */\n      pop\n      pop\n      jump\t// out\n        /* \"#utility.yul\":214:436   */\n    tag_13:\n        /* \"#utility.yul\":307:311   */\n      0x00\n        /* \"#utility.yul\":345:347   */\n      0x20\n        /* \"#utility.yul\":334:343   */\n      dup3\n        /* \"#utility.yul\":330:348   */\n      add\n        /* \"#utility.yul\":322:348   */\n      swap1\n      pop\n        /* \"#utility.yul\":358:429   */\n      tag_96\n        /* \"#utility.yul\":426:427   */\n      0x00\n        /* \"#utility.yul\":415:424   */\n      dup4\n        /* \"#utility.yul\":411:428   */\n      add\n        /* \"#utility.yul\":402:408   */\n      dup5\n        /* \"#utility.yul\":358:429   */\n      tag_69\n      jump\t// in\n    tag_96:\n        /* \"#utility.yul\":214:436   */\n      swap3\n      swap2\n      pop\n      pop\n      jump\t// out\n        /* \"#utility.yul\":442:556   */\n    tag_70:\n        /* \"#utility.yul\":509:515   */\n      0x00\n        /* \"#utility.yul\":543:548   */\n      dup2\n        /* \"#utility.yul\":537:549   */\n      mload\n        /* \"#utility.yul\":527:549   */\n      swap1\n      pop\n        /* \"#utility.yul\":442:556   */\n      swap2\n      swap1\n      pop\n      jump\t// out\n        /* \"#utility.yul\":562:746   */\n    tag_71:\n        /* \"#utility.yul\":661:672   */\n      0x00\n        /* \"#utility.yul\":695:701   */\n      dup3\n        /* \"#utility.yul\":690:693   */\n      dup3\n        /* \"#utility.yul\":683:702   */\n      mstore\n        /* \"#utility.yul\":735:739   */\n      0x20\n        /* \"#utility.yul\":730:733   */\n      dup3\n        /* \"#utility.yul\":726:740   */\n      add\n        /* \"#utility.yul\":711:740   */\n      swap1\n      pop\n        /* \"#utility.yul\":562:746   */\n      swap3\n      swap2\n      pop\n      pop\n      jump\t// out\n        /* \"#utility.yul\":752:884   */\n    tag_72:\n        /* \"#utility.yul\":819:823   */\n      0x00\n        /* \"#utility.yul\":842:845   */\n      dup2\n        /* \"#utility.yul\":834:845   */\n      swap1\n      pop\n        /* \"#utility.yul\":872:876   */\n      0x20\n        /* \"#utility.yul\":867:870   */\n      dup3\n        /* \"#utility.yul\":863:877   */\n      add\n        /* \"#utility.yul\":855:877   */\n      swap1\n      pop\n        /* \"#utility.yul\":752:884   */\n      swap2\n      swap1\n      pop\n      jump\t// out\n        /* \"#utility.yul\":890:1016   */\n    tag_73:\n        /* \"#utility.yul\":927:934   */\n      0x00\n        /* \"#utility.yul\":967:1009   */\n      0xffffffffffffffffffffffffffffffffffffffff\n        /* \"#utility.yul\":960:965   */\n      dup3\n        /* \"#utility.yul\":956:1010   */\n      and\n        /* \"#utility.yul\":945:1010   */\n      swap1\n      pop\n        /* \"#utility.yul\":890:1016   */\n      swap2\n      swap1\n      pop\n      jump\t// out\n        /* \"#utility.yul\":1022:1118   */\n    tag_74:\n        /* \"#utility.yul\":1059:1066   */\n      0x00\n        /* \"#utility.yul\":1088:1112   */\n      tag_102\n        /* \"#utility.yul\":1106:1111   */\n      dup3\n        /* \"#utility.yul\":1088:1112   */\n      tag_73\n      jump\t// in\n    tag_102:\n        /* \"#utility.yul\":1077:1112   */\n      swap1\n      pop\n        /* \"#utility.yul\":1022:1118   */\n      swap2\n      swap1\n      pop\n      jump\t// out\n        /* \"#utility.yul\":1124:1232   */\n    tag_75:\n        /* \"#utility.yul\":1201:1225   */\n      tag_104\n        /* \"#utility.yul\":1219:1224   */\n      dup2\n        /* \"#utility.yul\":1201:1225   */\n      tag_74\n      jump\t// in\n    tag_104:\n        /* \"#utility.yul\":1196:1199   */\n      dup3\n        /* \"#utility.yul\":1189:1226   */\n      mstore\n        /* \"#utility.yul\":1124:1232   */\n      pop\n      pop\n      jump\t// out\n        /* \"#utility.yul\":1238:1417   */\n    tag_76:\n        /* \"#utility.yul\":1307:1317   */\n      0x00\n        /* \"#utility.yul\":1328:1374   */\n      tag_106\n        /* \"#utility.yul\":1370:1373   */\n      dup4\n        /* \"#utility.yul\":1362:1368   */\n      dup4\n        /* \"#utility.yul\":1328:1374   */\n      tag_75\n      jump\t// in\n    tag_106:\n        /* \"#utility.yul\":1406:1410   */\n      0x20\n        /* \"#utility.yul\":1401:1404   */\n      dup4\n        /* \"#utility.yul\":1397:1411   */\n      add\n        /* \"#utility.yul\":1383:1411   */\n      swap1\n      pop\n        /* \"#utility.yul\":1238:1417   */\n      swap3\n      swap2\n      pop\n      pop\n      jump\t// out\n        /* \"#utility.yul\":1423:1536   */\n    tag_77:\n        /* \"#utility.yul\":1493:1497   */\n      0x00\n        /* \"#utility.yul\":1525:1529   */\n      0x20\n        /* \"#utility.yul\":1520:1523   */\n      dup3\n        /* \"#utility.yul\":1516:1530   */\n      add\n        /* \"#utility.yul\":1508:1530   */\n      swap1\n      pop\n        /* \"#utility.yul\":1423:1536   */\n      swap2\n      swap1\n      pop\n      jump\t// out\n        /* \"#utility.yul\":1572:2304   */\n    tag_78:\n        /* \"#utility.yul\":1691:1694   */\n      0x00\n        /* \"#utility.yul\":1720:1774   */\n      tag_109\n        /* \"#utility.yul\":1768:1773   */\n      dup3\n        /* \"#utility.yul\":1720:1774   */\n      tag_70\n      jump\t// in\n    tag_109:\n        /* \"#utility.yul\":1790:1876   */\n      tag_110\n        /* \"#utility.yul\":1869:1875   */\n      dup2\n        /* \"#utility.yul\":1864:1867   */\n      dup6\n        /* \"#utility.yul\":1790:1876   */\n      tag_71\n      jump\t// in\n    tag_110:\n        /* \"#utility.yul\":1783:1876   */\n      swap4\n      pop\n        /* \"#utility.yul\":1900:1956   */\n      tag_111\n        /* \"#utility.yul\":1950:1955   */\n      dup4\n        /* \"#utility.yul\":1900:1956   */\n      tag_72\n      jump\t// in\n    tag_111:\n        /* \"#utility.yul\":1979:1986   */\n      dup1\n        /* \"#utility.yul\":2010:2011   */\n      0x00\n        /* \"#utility.yul\":1995:2279   */\n    tag_112:\n        /* \"#utility.yul\":2020:2026   */\n      dup4\n        /* \"#utility.yul\":2017:2018   */\n      dup2\n        /* \"#utility.yul\":2014:2027   */\n      lt\n        /* \"#utility.yul\":1995:2279   */\n      iszero\n      tag_114\n      jumpi\n        /* \"#utility.yul\":2096:2102   */\n      dup2\n        /* \"#utility.yul\":2090:2103   */\n      mload\n        /* \"#utility.yul\":2123:2186   */\n      tag_115\n        /* \"#utility.yul\":2182:2185   */\n      dup9\n        /* \"#utility.yul\":2167:2180   */\n      dup3\n        /* \"#utility.yul\":2123:2186   */\n      tag_76\n      jump\t// in\n    tag_115:\n        /* \"#utility.yul\":2116:2186   */\n      swap8\n      pop\n        /* \"#utility.yul\":2209:2269   */\n      tag_116\n        /* \"#utility.yul\":2262:2268   */\n      dup4\n        /* \"#utility.yul\":2209:2269   */\n      tag_77\n      jump\t// in\n    tag_116:\n        /* \"#utility.yul\":2199:2269   */\n      swap3\n      pop\n        /* \"#utility.yul\":2055:2279   */\n      pop\n        /* \"#utility.yul\":2042:2043   */\n      0x01\n        /* \"#utility.yul\":2039:2040   */\n      dup2\n        /* \"#utility.yul\":2035:2044   */\n      add\n        /* \"#utility.yul\":2030:2044   */\n      swap1\n      pop\n        /* \"#utility.yul\":1995:2279   */\n      jump(tag_112)\n    tag_114:\n        /* \"#utility.yul\":1999:2013   */\n      pop\n        /* \"#utility.yul\":2295:2298   */\n      dup6\n        /* \"#utility.yul\":2288:2298   */\n      swap4\n      pop\n        /* \"#utility.yul\":1696:2304   */\n      pop\n      pop\n      pop\n        /* \"#utility.yul\":1572:2304   */\n      swap3\n      swap2\n      pop\n      pop\n      jump\t// out\n        /* \"#utility.yul\":2310:2683   */\n    tag_18:\n        /* \"#utility.yul\":2453:2457   */\n      0x00\n        /* \"#utility.yul\":2491:2493   */\n      0x20\n        /* \"#utility.yul\":2480:2489   */\n      dup3\n        /* \"#utility.yul\":2476:2494   */\n      add\n        /* \"#utility.yul\":2468:2494   */\n      swap1\n      pop\n        /* \"#utility.yul\":2540:2549   */\n      dup2\n        /* \"#utility.yul\":2534:2538   */\n      dup2\n        /* \"#utility.yul\":2530:2550   */\n      sub\n        /* \"#utility.yul\":2526:2527   */\n      0x00\n        /* \"#utility.yul\":2515:2524   */\n      dup4\n        /* \"#utility.yul\":2511:2528   */\n      add\n        /* \"#utility.yul\":2504:2551   */\n      mstore\n        /* \"#utility.yul\":2568:2676   */\n      tag_118\n        /* \"#utility.yul\":2671:2675   */\n      dup2\n        /* \"#utility.yul\":2662:2668   */\n      dup5\n        /* \"#utility.yul\":2568:2676   */\n      tag_78\n      jump\t// in\n    tag_118:\n        /* \"#utility.yul\":2560:2676   */\n      swap1\n      pop\n        /* \"#utility.yul\":2310:2683   */\n      swap3\n      swap2\n      pop\n      pop\n      jump\t// out\n        /* \"#utility.yul\":2689:2858   */\n    tag_79:\n        /* \"#utility.yul\":2773:2784   */\n      0x00\n        /* \"#utility.yul\":2807:2813   */\n      dup3\n        /* \"#utility.yul\":2802:2805   */\n      dup3\n        /* \"#utility.yul\":2795:2814   */\n      mstore\n        /* \"#utility.yul\":2847:2851   */\n      0x20\n        /* \"#utility.yul\":2842:2845   */\n      dup3\n        /* \"#utility.yul\":2838:2852   */\n      add\n        /* \"#utility.yul\":2823:2852   */\n      swap1\n      pop\n        /* \"#utility.yul\":2689:2858   */\n      swap3\n      swap2\n      pop\n      pop\n      jump\t// out\n        /* \"#utility.yul\":2864:3105   */\n    tag_80:\n        /* \"#utility.yul\":3004:3038   */\n      0x496e206f7264657220746f20706c61792c207468652076616c7565206d757374\n        /* \"#utility.yul\":3000:3001   */\n      0x00\n        /* \"#utility.yul\":2992:2998   */\n      dup3\n        /* \"#utility.yul\":2988:3002   */\n      add\n        /* \"#utility.yul\":2981:3039   */\n      mstore\n        /* \"#utility.yul\":3073:3097   */\n      0x2062652067726561746572207468616e207a65726f2e00000000000000000000\n        /* \"#utility.yul\":3068:3070   */\n      0x20\n        /* \"#utility.yul\":3060:3066   */\n      dup3\n        /* \"#utility.yul\":3056:3071   */\n      add\n        /* \"#utility.yul\":3049:3098   */\n      mstore\n        /* \"#utility.yul\":2864:3105   */\n      pop\n      jump\t// out\n        /* \"#utility.yul\":3111:3477   */\n    tag_81:\n        /* \"#utility.yul\":3253:3256   */\n      0x00\n        /* \"#utility.yul\":3274:3341   */\n      tag_122\n        /* \"#utility.yul\":3338:3340   */\n      0x36\n        /* \"#utility.yul\":3333:3336   */\n      dup4\n        /* \"#utility.yul\":3274:3341   */\n      tag_79\n      jump\t// in\n    tag_122:\n        /* \"#utility.yul\":3267:3341   */\n      swap2\n      pop\n        /* \"#utility.yul\":3350:3443   */\n      tag_123\n        /* \"#utility.yul\":3439:3442   */\n      dup3\n        /* \"#utility.yul\":3350:3443   */\n      tag_80\n      jump\t// in\n    tag_123:\n        /* \"#utility.yul\":3468:3470   */\n      0x40\n        /* \"#utility.yul\":3463:3466   */\n      dup3\n        /* \"#utility.yul\":3459:3471   */\n      add\n        /* \"#utility.yul\":3452:3471   */\n      swap1\n      pop\n        /* \"#utility.yul\":3111:3477   */\n      swap2\n      swap1\n      pop\n      jump\t// out\n        /* \"#utility.yul\":3483:3902   */\n    tag_28:\n        /* \"#utility.yul\":3649:3653   */\n      0x00\n        /* \"#utility.yul\":3687:3689   */\n      0x20\n        /* \"#utility.yul\":3676:3685   */\n      dup3\n        /* \"#utility.yul\":3672:3690   */\n      add\n        /* \"#utility.yul\":3664:3690   */\n      swap1\n      pop\n        /* \"#utility.yul\":3736:3745   */\n      dup2\n        /* \"#utility.yul\":3730:3734   */\n      dup2\n        /* \"#utility.yul\":3726:3746   */\n      sub\n        /* \"#utility.yul\":3722:3723   */\n      0x00\n        /* \"#utility.yul\":3711:3720   */\n      dup4\n        /* \"#utility.yul\":3707:3724   */\n      add\n        /* \"#utility.yul\":3700:3747   */\n      mstore\n        /* \"#utility.yul\":3764:3895   */\n      tag_125\n        /* \"#utility.yul\":3890:3894   */\n      dup2\n        /* \"#utility.yul\":3764:3895   */\n      tag_81\n      jump\t// in\n    tag_125:\n        /* \"#utility.yul\":3756:3895   */\n      swap1\n      pop\n        /* \"#utility.yul\":3483:3902   */\n      swap2\n      swap1\n      pop\n      jump\t// out\n        /* \"#utility.yul\":3908:4128   */\n    tag_82:\n        /* \"#utility.yul\":4048:4082   */\n      0x596f752063616e206f6e6c7920656e746572206f6e6365207065722067616d65\n        /* \"#utility.yul\":4044:4045   */\n      0x00\n        /* \"#utility.yul\":4036:4042   */\n      dup3\n        /* \"#utility.yul\":4032:4046   */\n      add\n        /* \"#utility.yul\":4025:4083   */\n      mstore\n        /* \"#utility.yul\":4117:4120   */\n      0x2e00000000000000000000000000000000000000000000000000000000000000\n        /* \"#utility.yul\":4112:4114   */\n      0x20\n        /* \"#utility.yul\":4104:4110   */\n      dup3\n        /* \"#utility.yul\":4100:4115   */\n      add\n        /* \"#utility.yul\":4093:4121   */\n      mstore\n        /* \"#utility.yul\":3908:4128   */\n      pop\n      jump\t// out\n        /* \"#utility.yul\":4134:4500   */\n    tag_83:\n        /* \"#utility.yul\":4276:4279   */\n      0x00\n        /* \"#utility.yul\":4297:4364   */\n      tag_128\n        /* \"#utility.yul\":4361:4363   */\n      0x21\n        /* \"#utility.yul\":4356:4359   */\n      dup4\n        /* \"#utility.yul\":4297:4364   */\n      tag_79\n      jump\t// in\n    tag_128:\n        /* \"#utility.yul\":4290:4364   */\n      swap2\n      pop\n        /* \"#utility.yul\":4373:4466   */\n      tag_129\n        /* \"#utility.yul\":4462:4465   */\n      dup3\n        /* \"#utility.yul\":4373:4466   */\n      tag_82\n      jump\t// in\n    tag_129:\n        /* \"#utility.yul\":4491:4493   */\n      0x40\n        /* \"#utility.yul\":4486:4489   */\n      dup3\n        /* \"#utility.yul\":4482:4494   */\n      add\n        /* \"#utility.yul\":4475:4494   */\n      swap1\n      pop\n        /* \"#utility.yul\":4134:4500   */\n      swap2\n      swap1\n      pop\n      jump\t// out\n        /* \"#utility.yul\":4506:4925   */\n    tag_31:\n        /* \"#utility.yul\":4672:4676   */\n      0x00\n        /* \"#utility.yul\":4710:4712   */\n      0x20\n        /* \"#utility.yul\":4699:4708   */\n      dup3\n        /* \"#utility.yul\":4695:4713   */\n      add\n        /* \"#utility.yul\":4687:4713   */\n      swap1\n      pop\n        /* \"#utility.yul\":4759:4768   */\n      dup2\n        /* \"#utility.yul\":4753:4757   */\n      dup2\n        /* \"#utility.yul\":4749:4769   */\n      sub\n        /* \"#utility.yul\":4745:4746   */\n      0x00\n        /* \"#utility.yul\":4734:4743   */\n      dup4\n        /* \"#utility.yul\":4730:4747   */\n      add\n        /* \"#utility.yul\":4723:4770   */\n      mstore\n        /* \"#utility.yul\":4787:4918   */\n      tag_131\n        /* \"#utility.yul\":4913:4917   */\n      dup2\n        /* \"#utility.yul\":4787:4918   */\n      tag_83\n      jump\t// in\n    tag_131:\n        /* \"#utility.yul\":4779:4918   */\n      swap1\n      pop\n        /* \"#utility.yul\":4506:4925   */\n      swap2\n      swap1\n      pop\n      jump\t// out\n        /* \"#utility.yul\":4931:5154   */\n    tag_84:\n        /* \"#utility.yul\":5071:5105   */\n      0x4e6f20706c6179657273206861766520656e746572656420746865206c6f7474\n        /* \"#utility.yul\":5067:5068   */\n      0x00\n        /* \"#utility.yul\":5059:5065   */\n      dup3\n        /* \"#utility.yul\":5055:5069   */\n      add\n        /* \"#utility.yul\":5048:5106   */\n      mstore\n        /* \"#utility.yul\":5140:5146   */\n      0x6572792e00000000000000000000000000000000000000000000000000000000\n        /* \"#utility.yul\":5135:5137   */\n      0x20\n        /* \"#utility.yul\":5127:5133   */\n      dup3\n        /* \"#utility.yul\":5123:5138   */\n      add\n        /* \"#utility.yul\":5116:5147   */\n      mstore\n        /* \"#utility.yul\":4931:5154   */\n      pop\n      jump\t// out\n        /* \"#utility.yul\":5160:5526   */\n    tag_85:\n        /* \"#utility.yul\":5302:5305   */\n      0x00\n        /* \"#utility.yul\":5323:5390   */\n      tag_134\n        /* \"#utility.yul\":5387:5389   */\n      0x24\n        /* \"#utility.yul\":5382:5385   */\n      dup4\n        /* \"#utility.yul\":5323:5390   */\n      tag_79\n      jump\t// in\n    tag_134:\n        /* \"#utility.yul\":5316:5390   */\n      swap2\n      pop\n        /* \"#utility.yul\":5399:5492   */\n      tag_135\n        /* \"#utility.yul\":5488:5491   */\n      dup3\n        /* \"#utility.yul\":5399:5492   */\n      tag_84\n      jump\t// in\n    tag_135:\n        /* \"#utility.yul\":5517:5519   */\n      0x40\n        /* \"#utility.yul\":5512:5515   */\n      dup3\n        /* \"#utility.yul\":5508:5520   */\n      add\n        /* \"#utility.yul\":5501:5520   */\n      swap1\n      pop\n        /* \"#utility.yul\":5160:5526   */\n      swap2\n      swap1\n      pop\n      jump\t// out\n        /* \"#utility.yul\":5532:5951   */\n    tag_40:\n        /* \"#utility.yul\":5698:5702   */\n      0x00\n        /* \"#utility.yul\":5736:5738   */\n      0x20\n        /* \"#utility.yul\":5725:5734   */\n      dup3\n        /* \"#utility.yul\":5721:5739   */\n      add\n        /* \"#utility.yul\":5713:5739   */\n      swap1\n      pop\n        /* \"#utility.yul\":5785:5794   */\n      dup2\n        /* \"#utility.yul\":5779:5783   */\n      dup2\n        /* \"#utility.yul\":5775:5795   */\n      sub\n        /* \"#utility.yul\":5771:5772   */\n      0x00\n        /* \"#utility.yul\":5760:5769   */\n      dup4\n        /* \"#utility.yul\":5756:5773   */\n      add\n        /* \"#utility.yul\":5749:5796   */\n      mstore\n        /* \"#utility.yul\":5813:5944   */\n      tag_137\n        /* \"#utility.yul\":5939:5943   */\n      dup2\n        /* \"#utility.yul\":5813:5944   */\n      tag_85\n      jump\t// in\n    tag_137:\n        /* \"#utility.yul\":5805:5944   */\n      swap1\n      pop\n        /* \"#utility.yul\":5532:5951   */\n      swap2\n      swap1\n      pop\n      jump\t// out\n        /* \"#utility.yul\":5957:6036   */\n    tag_86:\n        /* \"#utility.yul\":5996:6003   */\n      0x00\n        /* \"#utility.yul\":6025:6030   */\n      dup2\n        /* \"#utility.yul\":6014:6030   */\n      swap1\n      pop\n        /* \"#utility.yul\":5957:6036   */\n      swap2\n      swap1\n      pop\n      jump\t// out\n        /* \"#utility.yul\":6042:6199   */\n    tag_87:\n        /* \"#utility.yul\":6147:6192   */\n      tag_140\n        /* \"#utility.yul\":6167:6191   */\n      tag_141\n        /* \"#utility.yul\":6185:6190   */\n      dup3\n        /* \"#utility.yul\":6167:6191   */\n      tag_68\n      jump\t// in\n    tag_141:\n        /* \"#utility.yul\":6147:6192   */\n      tag_86\n      jump\t// in\n    tag_140:\n        /* \"#utility.yul\":6142:6145   */\n      dup3\n        /* \"#utility.yul\":6135:6193   */\n      mstore\n        /* \"#utility.yul\":6042:6199   */\n      pop\n      pop\n      jump\t// out\n        /* \"#utility.yul\":6205:6743   */\n    tag_42:\n        /* \"#utility.yul\":6373:6376   */\n      0x00\n        /* \"#utility.yul\":6388:6463   */\n      tag_143\n        /* \"#utility.yul\":6459:6462   */\n      dup3\n        /* \"#utility.yul\":6450:6456   */\n      dup7\n        /* \"#utility.yul\":6388:6463   */\n      tag_87\n      jump\t// in\n    tag_143:\n        /* \"#utility.yul\":6488:6490   */\n      0x20\n        /* \"#utility.yul\":6483:6486   */\n      dup3\n        /* \"#utility.yul\":6479:6491   */\n      add\n        /* \"#utility.yul\":6472:6491   */\n      swap2\n      pop\n        /* \"#utility.yul\":6501:6576   */\n      tag_144\n        /* \"#utility.yul\":6572:6575   */\n      dup3\n        /* \"#utility.yul\":6563:6569   */\n      dup6\n        /* \"#utility.yul\":6501:6576   */\n      tag_87\n      jump\t// in\n    tag_144:\n        /* \"#utility.yul\":6601:6603   */\n      0x20\n        /* \"#utility.yul\":6596:6599   */\n      dup3\n        /* \"#utility.yul\":6592:6604   */\n      add\n        /* \"#utility.yul\":6585:6604   */\n      swap2\n      pop\n        /* \"#utility.yul\":6614:6689   */\n      tag_145\n        /* \"#utility.yul\":6685:6688   */\n      dup3\n        /* \"#utility.yul\":6676:6682   */\n      dup5\n        /* \"#utility.yul\":6614:6689   */\n      tag_87\n      jump\t// in\n    tag_145:\n        /* \"#utility.yul\":6714:6716   */\n      0x20\n        /* \"#utility.yul\":6709:6712   */\n      dup3\n        /* \"#utility.yul\":6705:6717   */\n      add\n        /* \"#utility.yul\":6698:6717   */\n      swap2\n      pop\n        /* \"#utility.yul\":6734:6737   */\n      dup2\n        /* \"#utility.yul\":6727:6737   */\n      swap1\n      pop\n        /* \"#utility.yul\":6205:6743   */\n      swap5\n      swap4\n      pop\n      pop\n      pop\n      pop\n      jump\t// out\n        /* \"#utility.yul\":6749:6929   */\n    tag_88:\n        /* \"#utility.yul\":6797:6874   */\n      0x4e487b7100000000000000000000000000000000000000000000000000000000\n        /* \"#utility.yul\":6794:6795   */\n      0x00\n        /* \"#utility.yul\":6787:6875   */\n      mstore\n        /* \"#utility.yul\":6894:6898   */\n      0x12\n        /* \"#utility.yul\":6891:6892   */\n      0x04\n        /* \"#utility.yul\":6884:6899   */\n      mstore\n        /* \"#utility.yul\":6918:6922   */\n      0x24\n        /* \"#utility.yul\":6915:6916   */\n      0x00\n        /* \"#utility.yul\":6908:6923   */\n      revert\n        /* \"#utility.yul\":6935:7111   */\n    tag_44:\n        /* \"#utility.yul\":6967:6968   */\n      0x00\n        /* \"#utility.yul\":6984:7004   */\n      tag_148\n        /* \"#utility.yul\":7002:7003   */\n      dup3\n        /* \"#utility.yul\":6984:7004   */\n      tag_68\n      jump\t// in\n    tag_148:\n        /* \"#utility.yul\":6979:7004   */\n      swap2\n      pop\n        /* \"#utility.yul\":7018:7038   */\n      tag_149\n        /* \"#utility.yul\":7036:7037   */\n      dup4\n        /* \"#utility.yul\":7018:7038   */\n      tag_68\n      jump\t// in\n    tag_149:\n        /* \"#utility.yul\":7013:7038   */\n      swap3\n      pop\n        /* \"#utility.yul\":7057:7058   */\n      dup3\n        /* \"#utility.yul\":7047:7082   */\n      tag_150\n      jumpi\n        /* \"#utility.yul\":7062:7080   */\n      tag_151\n      tag_88\n      jump\t// in\n    tag_151:\n        /* \"#utility.yul\":7047:7082   */\n    tag_150:\n        /* \"#utility.yul\":7103:7104   */\n      dup3\n        /* \"#utility.yul\":7100:7101   */\n      dup3\n        /* \"#utility.yul\":7096:7105   */\n      mod\n        /* \"#utility.yul\":7091:7105   */\n      swap1\n      pop\n        /* \"#utility.yul\":6935:7111   */\n      swap3\n      swap2\n      pop\n      pop\n      jump\t// out\n        /* \"#utility.yul\":7117:7297   */\n    tag_47:\n        /* \"#utility.yul\":7165:7242   */\n      0x4e487b7100000000000000000000000000000000000000000000000000000000\n        /* \"#utility.yul\":7162:7163   */\n      0x00\n        /* \"#utility.yul\":7155:7243   */\n      mstore\n        /* \"#utility.yul\":7262:7266   */\n      0x32\n        /* \"#utility.yul\":7259:7260   */\n      0x04\n        /* \"#utility.yul\":7252:7267   */\n      mstore\n        /* \"#utility.yul\":7286:7290   */\n      0x24\n        /* \"#utility.yul\":7283:7284   */\n      0x00\n        /* \"#utility.yul\":7276:7291   */\n      revert\n        /* \"#utility.yul\":7303:7484   */\n    tag_89:\n        /* \"#utility.yul\":7443:7476   */\n      0x4c6f74746572792068617320616c7265616479206265656e2072657365742e00\n        /* \"#utility.yul\":7439:7440   */\n      0x00\n        /* \"#utility.yul\":7431:7437   */\n      dup3\n        /* \"#utility.yul\":7427:7441   */\n      add\n        /* \"#utility.yul\":7420:7477   */\n      mstore\n        /* \"#utility.yul\":7303:7484   */\n      pop\n      jump\t// out\n        /* \"#utility.yul\":7490:7856   */\n    tag_90:\n        /* \"#utility.yul\":7632:7635   */\n      0x00\n        /* \"#utility.yul\":7653:7720   */\n      tag_155\n        /* \"#utility.yul\":7717:7719   */\n      0x1f\n        /* \"#utility.yul\":7712:7715   */\n      dup4\n        /* \"#utility.yul\":7653:7720   */\n      tag_79\n      jump\t// in\n    tag_155:\n        /* \"#utility.yul\":7646:7720   */\n      swap2\n      pop\n        /* \"#utility.yul\":7729:7822   */\n      tag_156\n        /* \"#utility.yul\":7818:7821   */\n      dup3\n        /* \"#utility.yul\":7729:7822   */\n      tag_89\n      jump\t// in\n    tag_156:\n        /* \"#utility.yul\":7847:7849   */\n      0x20\n        /* \"#utility.yul\":7842:7845   */\n      dup3\n        /* \"#utility.yul\":7838:7850   */\n      add\n        /* \"#utility.yul\":7831:7850   */\n      swap1\n      pop\n        /* \"#utility.yul\":7490:7856   */\n      swap2\n      swap1\n      pop\n      jump\t// out\n        /* \"#utility.yul\":7862:8281   */\n    tag_54:\n        /* \"#utility.yul\":8028:8032   */\n      0x00\n        /* \"#utility.yul\":8066:8068   */\n      0x20\n        /* \"#utility.yul\":8055:8064   */\n      dup3\n        /* \"#utility.yul\":8051:8069   */\n      add\n        /* \"#utility.yul\":8043:8069   */\n      swap1\n      pop\n        /* \"#utility.yul\":8115:8124   */\n      dup2\n        /* \"#utility.yul\":8109:8113   */\n      dup2\n        /* \"#utility.yul\":8105:8125   */\n      sub\n        /* \"#utility.yul\":8101:8102   */\n      0x00\n        /* \"#utility.yul\":8090:8099   */\n      dup4\n        /* \"#utility.yul\":8086:8103   */\n      add\n        /* \"#utility.yul\":8079:8126   */\n      mstore\n        /* \"#utility.yul\":8143:8274   */\n      tag_158\n        /* \"#utility.yul\":8269:8273   */\n      dup2\n        /* \"#utility.yul\":8143:8274   */\n      tag_90\n      jump\t// in\n    tag_158:\n        /* \"#utility.yul\":8135:8274   */\n      swap1\n      pop\n        /* \"#utility.yul\":7862:8281   */\n      swap2\n      swap1\n      pop\n      jump\t// out\n\n    auxdata: 0xa2646970667358221220f2f0b05f7113e1687e23a1f6cf6d7507c0b7e8ca91efca92da7d8a5d06d2067a64736f6c634300081e0033\n}\n",
				"bytecode": {
					"linkReferences": {},
					"object": "6080604052348015600e575f5ffd5b506109a88061001c5f395ff3fe608060405260043610610049575f3560e01c806330f4c43d1461004d57806344e73b78146100575780636e5485cb14610081578063b7d2c654146100ab578063eb74ba78146100c1575b5f5ffd5b6100556100d7565b005b348015610062575f5ffd5b5061006b610258565b604051610078919061054a565b60405180910390f35b34801561008c575f5ffd5b5061009561025f565b6040516100a2919061064a565b60405180910390f35b3480156100b6575f5ffd5b506100bf6102e9565b005b3480156100cc575f5ffd5b506100d56103f8565b005b5f3411610119576040517f08c379a0000000000000000000000000000000000000000000000000000000008152600401610110906106ea565b60405180910390fd5b60015f3373ffffffffffffffffffffffffffffffffffffffff1673ffffffffffffffffffffffffffffffffffffffff1681526020019081526020015f205f9054906101000a900460ff16156101a3576040517f08c379a000000000000000000000000000000000000000000000000000000000815260040161019a90610778565b60405180910390fd5b6001805f3373ffffffffffffffffffffffffffffffffffffffff1673ffffffffffffffffffffffffffffffffffffffff1681526020019081526020015f205f6101000a81548160ff0219169083151502179055505f33908060018154018082558091505060019003905f5260205f20015f9091909190916101000a81548173ffffffffffffffffffffffffffffffffffffffff021916908373ffffffffffffffffffffffffffffffffffffffff160217905550565b5f47905090565b60605f8054806020026020016040519081016040528092919081815260200182805480156102df57602002820191905f5260205f20905b815f9054906101000a900473ffffffffffffffffffffffffffffffffffffffff1673ffffffffffffffffffffffffffffffffffffffff1681526020019060010190808311610296575b5050505050905090565b5f5f805490501161032f576040517f08c379a000000000000000000000000000000000000000000000000000000000815260040161032690610806565b60405180910390fd5b5f5f8054905044425f8054905060405160200161034e93929190610844565b604051602081830303815290604052805190602001205f1c61037091906108ad565b90505f5f8281548110610386576103856108dd565b5b905f5260205f20015f9054906101000a900473ffffffffffffffffffffffffffffffffffffffff1690508073ffffffffffffffffffffffffffffffffffffffff166108fc4790811502906040515f60405180830381858888f193505050501580156103f3573d5f5f3e3d5ffd5b505050565b5f5f805490501161043e576040517f08c379a000000000000000000000000000000000000000000000000000000000815260040161043590610954565b60405180910390fd5b5f5f90505b5f805490508110156104ea575f60015f5f8481548110610466576104656108dd565b5b905f5260205f20015f9054906101000a900473ffffffffffffffffffffffffffffffffffffffff1673ffffffffffffffffffffffffffffffffffffffff1673ffffffffffffffffffffffffffffffffffffffff1681526020019081526020015f205f6101000a81548160ff0219169083151502179055508080600101915050610443565b505f5f6104f791906104f9565b565b5080545f8255905f5260205f20908101906105149190610517565b50565b5b8082111561052e575f815f905550600101610518565b5090565b5f819050919050565b61054481610532565b82525050565b5f60208201905061055d5f83018461053b565b92915050565b5f81519050919050565b5f82825260208201905092915050565b5f819050602082019050919050565b5f73ffffffffffffffffffffffffffffffffffffffff82169050919050565b5f6105b58261058c565b9050919050565b6105c5816105ab565b82525050565b5f6105d683836105bc565b60208301905092915050565b5f602082019050919050565b5f6105f882610563565b610602818561056d565b935061060d8361057d565b805f5b8381101561063d57815161062488826105cb565b975061062f836105e2565b925050600181019050610610565b5085935050505092915050565b5f6020820190508181035f83015261066281846105ee565b905092915050565b5f82825260208201905092915050565b7f496e206f7264657220746f20706c61792c207468652076616c7565206d7573745f8201527f2062652067726561746572207468616e207a65726f2e00000000000000000000602082015250565b5f6106d460368361066a565b91506106df8261067a565b604082019050919050565b5f6020820190508181035f830152610701816106c8565b9050919050565b7f596f752063616e206f6e6c7920656e746572206f6e6365207065722067616d655f8201527f2e00000000000000000000000000000000000000000000000000000000000000602082015250565b5f61076260218361066a565b915061076d82610708565b604082019050919050565b5f6020820190508181035f83015261078f81610756565b9050919050565b7f4e6f20706c6179657273206861766520656e746572656420746865206c6f74745f8201527f6572792e00000000000000000000000000000000000000000000000000000000602082015250565b5f6107f060248361066a565b91506107fb82610796565b604082019050919050565b5f6020820190508181035f83015261081d816107e4565b9050919050565b5f819050919050565b61083e61083982610532565b610824565b82525050565b5f61084f828661082d565b60208201915061085f828561082d565b60208201915061086f828461082d565b602082019150819050949350505050565b7f4e487b71000000000000000000000000000000000000000000000000000000005f52601260045260245ffd5b5f6108b782610532565b91506108c283610532565b9250826108d2576108d1610880565b5b828206905092915050565b7f4e487b71000000000000000000000000000000000000000000000000000000005f52603260045260245ffd5b7f4c6f74746572792068617320616c7265616479206265656e2072657365742e005f82015250565b5f61093e601f8361066a565b91506109498261090a565b602082019050919050565b5f6020820190508181035f83015261096b81610932565b905091905056fea2646970667358221220f2f0b05f7113e1687e23a1f6cf6d7507c0b7e8ca91efca92da7d8a5d06d2067a64736f6c634300081e0033",
					"opcodes": "PUSH1 0x80 PUSH1 0x40 MSTORE CALLVALUE DUP1 ISZERO PUSH1 0xE JUMPI PUSH0 PUSH0 REVERT JUMPDEST POP PUSH2 0x9A8 DUP1 PUSH2 0x1C PUSH0 CODECOPY PUSH0 RETURN INVALID PUSH1 0x80 PUSH1 0x40 MSTORE PUSH1 0x4 CALLDATASIZE LT PUSH2 0x49 JUMPI PUSH0 CALLDATALOAD PUSH1 0xE0 SHR DUP1 PUSH4 0x30F4C43D EQ PUSH2 0x4D JUMPI DUP1 PUSH4 0x44E73B78 EQ PUSH2 0x57 JUMPI DUP1 PUSH4 0x6E5485CB EQ PUSH2 0x81 JUMPI DUP1 PUSH4 0xB7D2C654 EQ PUSH2 0xAB JUMPI DUP1 PUSH4 0xEB74BA78 EQ PUSH2 0xC1 JUMPI JUMPDEST PUSH0 PUSH0 REVERT JUMPDEST PUSH2 0x55 PUSH2 0xD7 JUMP JUMPDEST STOP JUMPDEST CALLVALUE DUP1 ISZERO PUSH2 0x62 JUMPI PUSH0 PUSH0 REVERT JUMPDEST POP PUSH2 0x6B PUSH2 0x258 JUMP JUMPDEST PUSH1 0x40 MLOAD PUSH2 0x78 SWAP2 SWAP1 PUSH2 0x54A JUMP JUMPDEST PUSH1 0x40 MLOAD DUP1 SWAP2 SUB SWAP1 RETURN JUMPDEST CALLVALUE DUP1 ISZERO PUSH2 0x8C JUMPI PUSH0 PUSH0 REVERT JUMPDEST POP PUSH2 0x95 PUSH2 0x25F JUMP JUMPDEST PUSH1 0x40 MLOAD PUSH2 0xA2 SWAP2 SWAP1 PUSH2 0x64A JUMP JUMPDEST PUSH1 0x40 MLOAD DUP1 SWAP2 SUB SWAP1 RETURN JUMPDEST CALLVALUE DUP1 ISZERO PUSH2 0xB6 JUMPI PUSH0 PUSH0 REVERT JUMPDEST POP PUSH2 0xBF PUSH2 0x2E9 JUMP JUMPDEST STOP JUMPDEST CALLVALUE DUP1 ISZERO PUSH2 0xCC JUMPI PUSH0 PUSH0 REVERT JUMPDEST POP PUSH2 0xD5 PUSH2 0x3F8 JUMP JUMPDEST STOP JUMPDEST PUSH0 CALLVALUE GT PUSH2 0x119 JUMPI PUSH1 0x40 MLOAD PUSH32 0x8C379A000000000000000000000000000000000000000000000000000000000 DUP2 MSTORE PUSH1 0x4 ADD PUSH2 0x110 SWAP1 PUSH2 0x6EA JUMP JUMPDEST PUSH1 0x40 MLOAD DUP1 SWAP2 SUB SWAP1 REVERT JUMPDEST PUSH1 0x1 PUSH0 CALLER PUSH20 0xFFFFFFFFFFFFFFFFFFFFFFFFFFFFFFFFFFFFFFFF AND PUSH20 0xFFFFFFFFFFFFFFFFFFFFFFFFFFFFFFFFFFFFFFFF AND DUP2 MSTORE PUSH1 0x20 ADD SWAP1 DUP2 MSTORE PUSH1 0x20 ADD PUSH0 KECCAK256 PUSH0 SWAP1 SLOAD SWAP1 PUSH2 0x100 EXP SWAP1 DIV PUSH1 0xFF AND ISZERO PUSH2 0x1A3 JUMPI PUSH1 0x40 MLOAD PUSH32 0x8C379A000000000000000000000000000000000000000000000000000000000 DUP2 MSTORE PUSH1 0x4 ADD PUSH2 0x19A SWAP1 PUSH2 0x778 JUMP JUMPDEST PUSH1 0x40 MLOAD DUP1 SWAP2 SUB SWAP1 REVERT JUMPDEST PUSH1 0x1 DUP1 PUSH0 CALLER PUSH20 0xFFFFFFFFFFFFFFFFFFFFFFFFFFFFFFFFFFFFFFFF AND PUSH20 0xFFFFFFFFFFFFFFFFFFFFFFFFFFFFFFFFFFFFFFFF AND DUP2 MSTORE PUSH1 0x20 ADD SWAP1 DUP2 MSTORE PUSH1 0x20 ADD PUSH0 KECCAK256 PUSH0 PUSH2 0x100 EXP DUP2 SLOAD DUP2 PUSH1 0xFF MUL NOT AND SWAP1 DUP4 ISZERO ISZERO MUL OR SWAP1 SSTORE POP PUSH0 CALLER SWAP1 DUP1 PUSH1 0x1 DUP2 SLOAD ADD DUP1 DUP3 SSTORE DUP1 SWAP2 POP POP PUSH1 0x1 SWAP1 SUB SWAP1 PUSH0 MSTORE PUSH1 0x20 PUSH0 KECCAK256 ADD PUSH0 SWAP1 SWAP2 SWAP1 SWAP2 SWAP1 SWAP2 PUSH2 0x100 EXP DUP2 SLOAD DUP2 PUSH20 0xFFFFFFFFFFFFFFFFFFFFFFFFFFFFFFFFFFFFFFFF MUL NOT AND SWAP1 DUP4 PUSH20 0xFFFFFFFFFFFFFFFFFFFFFFFFFFFFFFFFFFFFFFFF AND MUL OR SWAP1 SSTORE POP JUMP JUMPDEST PUSH0 SELFBALANCE SWAP1 POP SWAP1 JUMP JUMPDEST PUSH1 0x60 PUSH0 DUP1 SLOAD DUP1 PUSH1 0x20 MUL PUSH1 0x20 ADD PUSH1 0x40 MLOAD SWAP1 DUP2 ADD PUSH1 0x40 MSTORE DUP1 SWAP3 SWAP2 SWAP1 DUP2 DUP2 MSTORE PUSH1 0x20 ADD DUP3 DUP1 SLOAD DUP1 ISZERO PUSH2 0x2DF JUMPI PUSH1 0x20 MUL DUP3 ADD SWAP2 SWAP1 PUSH0 MSTORE PUSH1 0x20 PUSH0 KECCAK256 SWAP1 JUMPDEST DUP2 PUSH0 SWAP1 SLOAD SWAP1 PUSH2 0x100 EXP SWAP1 DIV PUSH20 0xFFFFFFFFFFFFFFFFFFFFFFFFFFFFFFFFFFFFFFFF AND PUSH20 0xFFFFFFFFFFFFFFFFFFFFFFFFFFFFFFFFFFFFFFFF AND DUP2 MSTORE PUSH1 0x20 ADD SWAP1 PUSH1 0x1 ADD SWAP1 DUP1 DUP4 GT PUSH2 0x296 JUMPI JUMPDEST POP POP POP POP POP SWAP1 POP SWAP1 JUMP JUMPDEST PUSH0 PUSH0 DUP1 SLOAD SWAP1 POP GT PUSH2 0x32F JUMPI PUSH1 0x40 MLOAD PUSH32 0x8C379A000000000000000000000000000000000000000000000000000000000 DUP2 MSTORE PUSH1 0x4 ADD PUSH2 0x326 SWAP1 PUSH2 0x806 JUMP JUMPDEST PUSH1 0x40 MLOAD DUP1 SWAP2 SUB SWAP1 REVERT JUMPDEST PUSH0 PUSH0 DUP1 SLOAD SWAP1 POP PREVRANDAO TIMESTAMP PUSH0 DUP1 SLOAD SWAP1 POP PUSH1 0x40 MLOAD PUSH1 0x20 ADD PUSH2 0x34E SWAP4 SWAP3 SWAP2 SWAP1 PUSH2 0x844 JUMP JUMPDEST PUSH1 0x40 MLOAD PUSH1 0x20 DUP2 DUP4 SUB SUB DUP2 MSTORE SWAP1 PUSH1 0x40 MSTORE DUP1 MLOAD SWAP1 PUSH1 0x20 ADD KECCAK256 PUSH0 SHR PUSH2 0x370 SWAP2 SWAP1 PUSH2 0x8AD JUMP JUMPDEST SWAP1 POP PUSH0 PUSH0 DUP3 DUP2 SLOAD DUP2 LT PUSH2 0x386 JUMPI PUSH2 0x385 PUSH2 0x8DD JUMP JUMPDEST JUMPDEST SWAP1 PUSH0 MSTORE PUSH1 0x20 PUSH0 KECCAK256 ADD PUSH0 SWAP1 SLOAD SWAP1 PUSH2 0x100 EXP SWAP1 DIV PUSH20 0xFFFFFFFFFFFFFFFFFFFFFFFFFFFFFFFFFFFFFFFF AND SWAP1 POP DUP1 PUSH20 0xFFFFFFFFFFFFFFFFFFFFFFFFFFFFFFFFFFFFFFFF AND PUSH2 0x8FC SELFBALANCE SWAP1 DUP2 ISZERO MUL SWAP1 PUSH1 0x40 MLOAD PUSH0 PUSH1 0x40 MLOAD DUP1 DUP4 SUB DUP2 DUP6 DUP9 DUP9 CALL SWAP4 POP POP POP POP ISZERO DUP1 ISZERO PUSH2 0x3F3 JUMPI RETURNDATASIZE PUSH0 PUSH0 RETURNDATACOPY RETURNDATASIZE PUSH0 REVERT JUMPDEST POP POP POP JUMP JUMPDEST PUSH0 PUSH0 DUP1 SLOAD SWAP1 POP GT PUSH2 0x43E JUMPI PUSH1 0x40 MLOAD PUSH32 0x8C379A000000000000000000000000000000000000000000000000000000000 DUP2 MSTORE PUSH1 0x4 ADD PUSH2 0x435 SWAP1 PUSH2 0x954 JUMP JUMPDEST PUSH1 0x40 MLOAD DUP1 SWAP2 SUB SWAP1 REVERT JUMPDEST PUSH0 PUSH0 SWAP1 POP JUMPDEST PUSH0 DUP1 SLOAD SWAP1 POP DUP2 LT ISZERO PUSH2 0x4EA JUMPI PUSH0 PUSH1 0x1 PUSH0 PUSH0 DUP5 DUP2 SLOAD DUP2 LT PUSH2 0x466 JUMPI PUSH2 0x465 PUSH2 0x8DD JUMP JUMPDEST JUMPDEST SWAP1 PUSH0 MSTORE PUSH1 0x20 PUSH0 KECCAK256 ADD PUSH0 SWAP1 SLOAD SWAP1 PUSH2 0x100 EXP SWAP1 DIV PUSH20 0xFFFFFFFFFFFFFFFFFFFFFFFFFFFFFFFFFFFFFFFF AND PUSH20 0xFFFFFFFFFFFFFFFFFFFFFFFFFFFFFFFFFFFFFFFF AND PUSH20 0xFFFFFFFFFFFFFFFFFFFFFFFFFFFFFFFFFFFFFFFF AND DUP2 MSTORE PUSH1 0x20 ADD SWAP1 DUP2 MSTORE PUSH1 0x20 ADD PUSH0 KECCAK256 PUSH0 PUSH2 0x100 EXP DUP2 SLOAD DUP2 PUSH1 0xFF MUL NOT AND SWAP1 DUP4 ISZERO ISZERO MUL OR SWAP1 SSTORE POP DUP1 DUP1 PUSH1 0x1 ADD SWAP2 POP POP PUSH2 0x443 JUMP JUMPDEST POP PUSH0 PUSH0 PUSH2 0x4F7 SWAP2 SWAP1 PUSH2 0x4F9 JUMP JUMPDEST JUMP JUMPDEST POP DUP1 SLOAD PUSH0 DUP3 SSTORE SWAP1 PUSH0 MSTORE PUSH1 0x20 PUSH0 KECCAK256 SWAP1 DUP2 ADD SWAP1 PUSH2 0x514 SWAP2 SWAP1 PUSH2 0x517 JUMP JUMPDEST POP JUMP JUMPDEST JUMPDEST DUP1 DUP3 GT ISZERO PUSH2 0x52E JUMPI PUSH0 DUP2 PUSH0 SWAP1 SSTORE POP PUSH1 0x1 ADD PUSH2 0x518 JUMP JUMPDEST POP SWAP1 JUMP JUMPDEST PUSH0 DUP2 SWAP1 POP SWAP2 SWAP1 POP JUMP JUMPDEST PUSH2 0x544 DUP2 PUSH2 0x532 JUMP JUMPDEST DUP3 MSTORE POP POP JUMP JUMPDEST PUSH0 PUSH1 0x20 DUP3 ADD SWAP1 POP PUSH2 0x55D PUSH0 DUP4 ADD DUP5 PUSH2 0x53B JUMP JUMPDEST SWAP3 SWAP2 POP POP JUMP JUMPDEST PUSH0 DUP2 MLOAD SWAP1 POP SWAP2 SWAP1 POP JUMP JUMPDEST PUSH0 DUP3 DUP3 MSTORE PUSH1 0x20 DUP3 ADD SWAP1 POP SWAP3 SWAP2 POP POP JUMP JUMPDEST PUSH0 DUP2 SWAP1 POP PUSH1 0x20 DUP3 ADD SWAP1 POP SWAP2 SWAP1 POP JUMP JUMPDEST PUSH0 PUSH20 0xFFFFFFFFFFFFFFFFFFFFFFFFFFFFFFFFFFFFFFFF DUP3 AND SWAP1 POP SWAP2 SWAP1 POP JUMP JUMPDEST PUSH0 PUSH2 0x5B5 DUP3 PUSH2 0x58C JUMP JUMPDEST SWAP1 POP SWAP2 SWAP1 POP JUMP JUMPDEST PUSH2 0x5C5 DUP2 PUSH2 0x5AB JUMP JUMPDEST DUP3 MSTORE POP POP JUMP JUMPDEST PUSH0 PUSH2 0x5D6 DUP4 DUP4 PUSH2 0x5BC JUMP JUMPDEST PUSH1 0x20 DUP4 ADD SWAP1 POP SWAP3 SWAP2 POP POP JUMP JUMPDEST PUSH0 PUSH1 0x20 DUP3 ADD SWAP1 POP SWAP2 SWAP1 POP JUMP JUMPDEST PUSH0 PUSH2 0x5F8 DUP3 PUSH2 0x563 JUMP JUMPDEST PUSH2 0x602 DUP2 DUP6 PUSH2 0x56D JUMP JUMPDEST SWAP4 POP PUSH2 0x60D DUP4 PUSH2 0x57D JUMP JUMPDEST DUP1 PUSH0 JUMPDEST DUP4 DUP2 LT ISZERO PUSH2 0x63D JUMPI DUP2 MLOAD PUSH2 0x624 DUP9 DUP3 PUSH2 0x5CB JUMP JUMPDEST SWAP8 POP PUSH2 0x62F DUP4 PUSH2 0x5E2 JUMP JUMPDEST SWAP3 POP POP PUSH1 0x1 DUP2 ADD SWAP1 POP PUSH2 0x610 JUMP JUMPDEST POP DUP6 SWAP4 POP POP POP POP SWAP3 SWAP2 POP POP JUMP JUMPDEST PUSH0 PUSH1 0x20 DUP3 ADD SWAP1 POP DUP2 DUP2 SUB PUSH0 DUP4 ADD MSTORE PUSH2 0x662 DUP2 DUP5 PUSH2 0x5EE JUMP JUMPDEST SWAP1 POP SWAP3 SWAP2 POP POP JUMP JUMPDEST PUSH0 DUP3 DUP3 MSTORE PUSH1 0x20 DUP3 ADD SWAP1 POP SWAP3 SWAP2 POP POP JUMP JUMPDEST PUSH32 0x496E206F7264657220746F20706C61792C207468652076616C7565206D757374 PUSH0 DUP3 ADD MSTORE PUSH32 0x2062652067726561746572207468616E207A65726F2E00000000000000000000 PUSH1 0x20 DUP3 ADD MSTORE POP JUMP JUMPDEST PUSH0 PUSH2 0x6D4 PUSH1 0x36 DUP4 PUSH2 0x66A JUMP JUMPDEST SWAP2 POP PUSH2 0x6DF DUP3 PUSH2 0x67A JUMP JUMPDEST PUSH1 0x40 DUP3 ADD SWAP1 POP SWAP2 SWAP1 POP JUMP JUMPDEST PUSH0 PUSH1 0x20 DUP3 ADD SWAP1 POP DUP2 DUP2 SUB PUSH0 DUP4 ADD MSTORE PUSH2 0x701 DUP2 PUSH2 0x6C8 JUMP JUMPDEST SWAP1 POP SWAP2 SWAP1 POP JUMP JUMPDEST PUSH32 0x596F752063616E206F6E6C7920656E746572206F6E6365207065722067616D65 PUSH0 DUP3 ADD MSTORE PUSH32 0x2E00000000000000000000000000000000000000000000000000000000000000 PUSH1 0x20 DUP3 ADD MSTORE POP JUMP JUMPDEST PUSH0 PUSH2 0x762 PUSH1 0x21 DUP4 PUSH2 0x66A JUMP JUMPDEST SWAP2 POP PUSH2 0x76D DUP3 PUSH2 0x708 JUMP JUMPDEST PUSH1 0x40 DUP3 ADD SWAP1 POP SWAP2 SWAP1 POP JUMP JUMPDEST PUSH0 PUSH1 0x20 DUP3 ADD SWAP1 POP DUP2 DUP2 SUB PUSH0 DUP4 ADD MSTORE PUSH2 0x78F DUP2 PUSH2 0x756 JUMP JUMPDEST SWAP1 POP SWAP2 SWAP1 POP JUMP JUMPDEST PUSH32 0x4E6F20706C6179657273206861766520656E746572656420746865206C6F7474 PUSH0 DUP3 ADD MSTORE PUSH32 0x6572792E00000000000000000000000000000000000000000000000000000000 PUSH1 0x20 DUP3 ADD MSTORE POP JUMP JUMPDEST PUSH0 PUSH2 0x7F0 PUSH1 0x24 DUP4 PUSH2 0x66A JUMP JUMPDEST SWAP2 POP PUSH2 0x7FB DUP3 PUSH2 0x796 JUMP JUMPDEST PUSH1 0x40 DUP3 ADD SWAP1 POP SWAP2 SWAP1 POP JUMP JUMPDEST PUSH0 PUSH1 0x20 DUP3 ADD SWAP1 POP DUP2 DUP2 SUB PUSH0 DUP4 ADD MSTORE PUSH2 0x81D DUP2 PUSH2 0x7E4 JUMP JUMPDEST SWAP1 POP SWAP2 SWAP1 POP JUMP JUMPDEST PUSH0 DUP2 SWAP1 POP SWAP2 SWAP1 POP JUMP JUMPDEST PUSH2 0x83E PUSH2 0x839 DUP3 PUSH2 0x532 JUMP JUMPDEST PUSH2 0x824 JUMP JUMPDEST DUP3 MSTORE POP POP JUMP JUMPDEST PUSH0 PUSH2 0x84F DUP3 DUP7 PUSH2 0x82D JUMP JUMPDEST PUSH1 0x20 DUP3 ADD SWAP2 POP PUSH2 0x85F DUP3 DUP6 PUSH2 0x82D JUMP JUMPDEST PUSH1 0x20 DUP3 ADD SWAP2 POP PUSH2 0x86F DUP3 DUP5 PUSH2 0x82D JUMP JUMPDEST PUSH1 0x20 DUP3 ADD SWAP2 POP DUP2 SWAP1 POP SWAP5 SWAP4 POP POP POP POP JUMP JUMPDEST PUSH32 0x4E487B7100000000000000000000000000000000000000000000000000000000 PUSH0 MSTORE PUSH1 0x12 PUSH1 0x4 MSTORE PUSH1 0x24 PUSH0 REVERT JUMPDEST PUSH0 PUSH2 0x8B7 DUP3 PUSH2 0x532 JUMP JUMPDEST SWAP2 POP PUSH2 0x8C2 DUP4 PUSH2 0x532 JUMP JUMPDEST SWAP3 POP DUP3 PUSH2 0x8D2 JUMPI PUSH2 0x8D1 PUSH2 0x880 JUMP JUMPDEST JUMPDEST DUP3 DUP3 MOD SWAP1 POP SWAP3 SWAP2 POP POP JUMP JUMPDEST PUSH32 0x4E487B7100000000000000000000000000000000000000000000000000000000 PUSH0 MSTORE PUSH1 0x32 PUSH1 0x4 MSTORE PUSH1 0x24 PUSH0 REVERT JUMPDEST PUSH32 0x4C6F74746572792068617320616C7265616479206265656E2072657365742E00 PUSH0 DUP3 ADD MSTORE POP JUMP JUMPDEST PUSH0 PUSH2 0x93E PUSH1 0x1F DUP4 PUSH2 0x66A JUMP JUMPDEST SWAP2 POP PUSH2 0x949 DUP3 PUSH2 0x90A JUMP JUMPDEST PUSH1 0x20 DUP3 ADD SWAP1 POP SWAP2 SWAP1 POP JUMP JUMPDEST PUSH0 PUSH1 0x20 DUP3 ADD SWAP1 POP DUP2 DUP2 SUB PUSH0 DUP4 ADD MSTORE PUSH2 0x96B DUP2 PUSH2 0x932 JUMP JUMPDEST SWAP1 POP SWAP2 SWAP1 POP JUMP INVALID LOG2 PUSH5 0x6970667358 0x22 SLT KECCAK256 CALLCODE CREATE 0xB0 PUSH0 PUSH18 0x13E1687E23A1F6CF6D7507C0B7E8CA91EFCA SWAP3 0xDA PUSH30 0x8A5D06D2067A64736F6C634300081E003300000000000000000000000000 "
				},
				"gasEstimates": {
					"creation": {
						"codeDepositCost": "494400",
						"executionCost": "528",
						"totalCost": "494928"
					},
					"external": {
						"CheckBalance()": "334",
						"EnterLottery()": "75287",
						"GetPlayers()": "infinite",
						"PickWinner()": "infinite",
						"ResetLotteryWithRefund()": "infinite"
					}
				},
				"methodIdentifiers": {
					"CheckBalance()": "44e73b78",
					"EnterLottery()": "30f4c43d",
					"GetPlayers()": "6e5485cb",
					"PickWinner()": "b7d2c654",
					"ResetLotteryWithRefund()": "eb74ba78"
				}
			},
			"storageLayout": {
				"storage": [
					{
						"astId": 4,
						"contract": "contracts/LotoGame_SC08_Secure.sol:LotoGame",
						"label": "players",
						"offset": 0,
						"slot": "0",
						"type": "t_array(t_address)dyn_storage"
					},
					{
						"astId": 8,
						"contract": "contracts/LotoGame_SC08_Secure.sol:LotoGame",
						"label": "hasEntered",
						"offset": 0,
						"slot": "1",
						"type": "t_mapping(t_address,t_bool)"
					}
				],
				"types": {
					"t_address": {
						"encoding": "inplace",
						"label": "address",
						"numberOfBytes": "20"
					},
					"t_array(t_address)dyn_storage": {
						"base": "t_address",
						"encoding": "dynamic_array",
						"label": "address[]",
						"numberOfBytes": "32"
					},
					"t_bool": {
						"encoding": "inplace",
						"label": "bool",
						"numberOfBytes": "1"
					},
					"t_mapping(t_address,t_bool)": {
						"encoding": "mapping",
						"key": "t_address",
						"label": "mapping(address => bool)",
						"numberOfBytes": "32",
						"value": "t_bool"
					}
				}
			},
			"userdoc": {
				"kind": "user",
				"methods": {},
				"version": 1
			}
		}
	}
}