{
	"contracts/Auction2_SC05_Secure.sol": {
		"Auction": {
			"abi": [
				{
					"inputs": [
						{
							"internalType": "uint256",
							"name": "biddingTimeInBlocks",
							"type": "uint256"
						},
						{
							"internalType": "uint256",
							"name": "revealTimeInBlocks",
							"type": "uint256"
						}
					],
					"stateMutability": "nonpayable",
					"type": "constructor"
				},
				{
					"inputs": [
						{
							"internalType": "bytes32",
							"name": "bidHash",
							"type": "bytes32"
						}
					],
					"name": "CommitBid",
					"outputs": [],
					"stateMutability": "nonpayable",
					"type": "function"
				},
				{
					"inputs": [],
					"name": "FinalizeAuction",
					"outputs": [],
					"stateMutability": "nonpayable",
					"type": "function"
				},
				{
					"inputs": [
						{
							"internalType": "uint256",
							"name": "amount",
							"type": "uint256"
						},
						{
							"internalType": "string",
							"name": "secret",
							"type": "string"
						}
					],
					"name": "GenerateBidHash",
					"outputs": [
						{
							"internalType": "bytes32",
							"name": "",
							"type": "bytes32"
						}
					],
					"stateMutability": "pure",
					"type": "function"
				},
				{
					"inputs": [
						{
							"internalType": "uint256",
							"name": "amount",
							"type": "uint256"
						},
						{
							"internalType": "string",
							"name": "secret",
							"type": "string"
						}
					],
					"name": "RevealBid",
					"outputs": [],
					"stateMutability": "payable",
					"type": "function"
				},
				{
					"inputs": [],
					"name": "TimeLeftCommit",
					"outputs": [
						{
							"internalType": "uint256",
							"name": "",
							"type": "uint256"
						}
					],
					"stateMutability": "view",
					"type": "function"
				},
				{
					"inputs": [],
					"name": "TimeLeftReveal",
					"outputs": [
						{
							"internalType": "uint256",
							"name": "",
							"type": "uint256"
						}
					],
					"stateMutability": "view",
					"type": "function"
				},
				{
					"inputs": [],
					"name": "auctionEnded",
					"outputs": [
						{
							"internalType": "bool",
							"name": "",
							"type": "bool"
						}
					],
					"stateMutability": "view",
					"type": "function"
				},
				{
					"inputs": [
						{
							"internalType": "address",
							"name": "",
							"type": "address"
						}
					],
					"name": "bidCommits",
					"outputs": [
						{
							"internalType": "bytes32",
							"name": "",
							"type": "bytes32"
						}
					],
					"stateMutability": "view",
					"type": "function"
				},
				{
					"inputs": [
						{
							"internalType": "uint256",
							"name": "",
							"type": "uint256"
						}
					],
					"name": "bidders",
					"outputs": [
						{
							"internalType": "address",
							"name": "",
							"type": "address"
						}
					],
					"stateMutability": "view",
					"type": "function"
				},
				{
					"inputs": [],
					"name": "biddingEnd",
					"outputs": [
						{
							"internalType": "uint256",
							"name": "",
							"type": "uint256"
						}
					],
					"stateMutability": "view",
					"type": "function"
				},
				{
					"inputs": [],
					"name": "highestBid",
					"outputs": [
						{
							"internalType": "uint256",
							"name": "",
							"type": "uint256"
						}
					],
					"stateMutability": "view",
					"type": "function"
				},
				{
					"inputs": [],
					"name": "highestBidder",
					"outputs": [
						{
							"internalType": "address",
							"name": "",
							"type": "address"
						}
					],
					"stateMutability": "view",
					"type": "function"
				},
				{
					"inputs": [],
					"name": "revealEnd",
					"outputs": [
						{
							"internalType": "uint256",
							"name": "",
							"type": "uint256"
						}
					],
					"stateMutability": "view",
					"type": "function"
				},
				{
					"inputs": [
						{
							"internalType": "address",
							"name": "",
							"type": "address"
						}
					],
					"name": "revealedBids",
					"outputs": [
						{
							"internalType": "uint256",
							"name": "",
							"type": "uint256"
						}
					],
					"stateMutability": "view",
					"type": "function"
				},
				{
					"inputs": [],
					"name": "seller",
					"outputs": [
						{
							"internalType": "address payable",
							"name": "",
							"type": "address"
						}
					],
					"stateMutability": "view",
					"type": "function"
				}
			],
			"devdoc": {
				"kind": "dev",
				"methods": {},
				"version": 1
			},
			"evm": {
				"assembly": "    /* \"contracts/Auction2_SC05_Secure.sol\":68:3019  contract Auction {... */\n  mstore(0x40, 0x80)\n    /* \"contracts/Auction2_SC05_Secure.sol\":430:658  constructor(uint256 biddingTimeInBlocks, uint256 revealTimeInBlocks) {... */\n  callvalue\n  dup1\n  iszero\n  tag_1\n  jumpi\n  revert(0x00, 0x00)\ntag_1:\n  pop\n  mload(0x40)\n  sub(codesize, bytecodeSize)\n  dup1\n  bytecodeSize\n  dup4\n  codecopy\n  dup2\n  dup2\n  add\n  0x40\n  mstore\n  dup2\n  add\n  swap1\n  tag_2\n  swap2\n  swap1\n  tag_3\n  jump\t// in\ntag_2:\n    /* \"contracts/Auction2_SC05_Secure.sol\":538:557  biddingTimeInBlocks */\n  dup2\n    /* \"contracts/Auction2_SC05_Secure.sol\":523:535  block.number */\n  number\n    /* \"contracts/Auction2_SC05_Secure.sol\":523:557  block.number + biddingTimeInBlocks */\n  tag_6\n  swap2\n  swap1\n  tag_7\n  jump\t// in\ntag_6:\n    /* \"contracts/Auction2_SC05_Secure.sol\":510:520  biddingEnd */\n  0x02\n    /* \"contracts/Auction2_SC05_Secure.sol\":510:557  biddingEnd = block.number + biddingTimeInBlocks */\n  dup2\n  swap1\n  sstore\n  pop\n    /* \"contracts/Auction2_SC05_Secure.sol\":593:611  revealTimeInBlocks */\n  dup1\n    /* \"contracts/Auction2_SC05_Secure.sol\":580:590  biddingEnd */\n  sload(0x02)\n    /* \"contracts/Auction2_SC05_Secure.sol\":580:611  biddingEnd + revealTimeInBlocks */\n  tag_8\n  swap2\n  swap1\n  tag_7\n  jump\t// in\ntag_8:\n    /* \"contracts/Auction2_SC05_Secure.sol\":568:577  revealEnd */\n  0x03\n    /* \"contracts/Auction2_SC05_Secure.sol\":568:611  revealEnd = biddingEnd + revealTimeInBlocks */\n  dup2\n  swap1\n  sstore\n  pop\n    /* \"contracts/Auction2_SC05_Secure.sol\":639:649  msg.sender */\n  caller\n    /* \"contracts/Auction2_SC05_Secure.sol\":622:628  seller */\n  0x04\n  0x01\n    /* \"contracts/Auction2_SC05_Secure.sol\":622:650  seller = payable(msg.sender) */\n  0x0100\n  exp\n  dup2\n  sload\n  dup2\n  0xffffffffffffffffffffffffffffffffffffffff\n  mul\n  not\n  and\n  swap1\n  dup4\n  0xffffffffffffffffffffffffffffffffffffffff\n  and\n  mul\n  or\n  swap1\n  sstore\n  pop\n    /* \"contracts/Auction2_SC05_Secure.sol\":430:658  constructor(uint256 biddingTimeInBlocks, uint256 revealTimeInBlocks) {... */\n  pop\n  pop\n    /* \"contracts/Auction2_SC05_Secure.sol\":68:3019  contract Auction {... */\n  jump(tag_9)\n    /* \"#utility.yul\":88:205   */\ntag_11:\n    /* \"#utility.yul\":197:198   */\n  0x00\n    /* \"#utility.yul\":194:195   */\n  0x00\n    /* \"#utility.yul\":187:199   */\n  revert\n    /* \"#utility.yul\":334:411   */\ntag_13:\n    /* \"#utility.yul\":371:378   */\n  0x00\n    /* \"#utility.yul\":400:405   */\n  dup2\n    /* \"#utility.yul\":389:405   */\n  swap1\n  pop\n    /* \"#utility.yul\":334:411   */\n  swap2\n  swap1\n  pop\n  jump\t// out\n    /* \"#utility.yul\":417:539   */\ntag_14:\n    /* \"#utility.yul\":490:514   */\n  tag_23\n    /* \"#utility.yul\":508:513   */\n  dup2\n    /* \"#utility.yul\":490:514   */\n  tag_13\n  jump\t// in\ntag_23:\n    /* \"#utility.yul\":483:488   */\n  dup2\n    /* \"#utility.yul\":480:515   */\n  eq\n    /* \"#utility.yul\":470:533   */\n  tag_24\n  jumpi\n    /* \"#utility.yul\":529:530   */\n  0x00\n    /* \"#utility.yul\":526:527   */\n  0x00\n    /* \"#utility.yul\":519:531   */\n  revert\n    /* \"#utility.yul\":470:533   */\ntag_24:\n    /* \"#utility.yul\":417:539   */\n  pop\n  jump\t// out\n    /* \"#utility.yul\":545:688   */\ntag_15:\n    /* \"#utility.yul\":602:607   */\n  0x00\n    /* \"#utility.yul\":633:639   */\n  dup2\n    /* \"#utility.yul\":627:640   */\n  mload\n    /* \"#utility.yul\":618:640   */\n  swap1\n  pop\n    /* \"#utility.yul\":649:682   */\n  tag_26\n    /* \"#utility.yul\":676:681   */\n  dup2\n    /* \"#utility.yul\":649:682   */\n  tag_14\n  jump\t// in\ntag_26:\n    /* \"#utility.yul\":545:688   */\n  swap3\n  swap2\n  pop\n  pop\n  jump\t// out\n    /* \"#utility.yul\":694:1201   */\ntag_3:\n    /* \"#utility.yul\":773:779   */\n  0x00\n    /* \"#utility.yul\":781:787   */\n  0x00\n    /* \"#utility.yul\":830:832   */\n  0x40\n    /* \"#utility.yul\":818:827   */\n  dup4\n    /* \"#utility.yul\":809:816   */\n  dup6\n    /* \"#utility.yul\":805:828   */\n  sub\n    /* \"#utility.yul\":801:833   */\n  slt\n    /* \"#utility.yul\":798:917   */\n  iszero\n  tag_28\n  jumpi\n    /* \"#utility.yul\":836:915   */\n  tag_29\n  tag_11\n  jump\t// in\ntag_29:\n    /* \"#utility.yul\":798:917   */\ntag_28:\n    /* \"#utility.yul\":956:957   */\n  0x00\n    /* \"#utility.yul\":981:1045   */\n  tag_30\n    /* \"#utility.yul\":1037:1044   */\n  dup6\n    /* \"#utility.yul\":1028:1034   */\n  dup3\n    /* \"#utility.yul\":1017:1026   */\n  dup7\n    /* \"#utility.yul\":1013:1035   */\n  add\n    /* \"#utility.yul\":981:1045   */\n  tag_15\n  jump\t// in\ntag_30:\n    /* \"#utility.yul\":971:1045   */\n  swap3\n  pop\n    /* \"#utility.yul\":927:1055   */\n  pop\n    /* \"#utility.yul\":1094:1096   */\n  0x20\n    /* \"#utility.yul\":1120:1184   */\n  tag_31\n    /* \"#utility.yul\":1176:1183   */\n  dup6\n    /* \"#utility.yul\":1167:1173   */\n  dup3\n    /* \"#utility.yul\":1156:1165   */\n  dup7\n    /* \"#utility.yul\":1152:1174   */\n  add\n    /* \"#utility.yul\":1120:1184   */\n  tag_15\n  jump\t// in\ntag_31:\n    /* \"#utility.yul\":1110:1184   */\n  swap2\n  pop\n    /* \"#utility.yul\":1065:1194   */\n  pop\n    /* \"#utility.yul\":694:1201   */\n  swap3\n  pop\n  swap3\n  swap1\n  pop\n  jump\t// out\n    /* \"#utility.yul\":1207:1387   */\ntag_16:\n    /* \"#utility.yul\":1255:1332   */\n  0x4e487b7100000000000000000000000000000000000000000000000000000000\n    /* \"#utility.yul\":1252:1253   */\n  0x00\n    /* \"#utility.yul\":1245:1333   */\n  mstore\n    /* \"#utility.yul\":1352:1356   */\n  0x11\n    /* \"#utility.yul\":1349:1350   */\n  0x04\n    /* \"#utility.yul\":1342:1357   */\n  mstore\n    /* \"#utility.yul\":1376:1380   */\n  0x24\n    /* \"#utility.yul\":1373:1374   */\n  0x00\n    /* \"#utility.yul\":1366:1381   */\n  revert\n    /* \"#utility.yul\":1393:1584   */\ntag_7:\n    /* \"#utility.yul\":1433:1436   */\n  0x00\n    /* \"#utility.yul\":1452:1472   */\n  tag_34\n    /* \"#utility.yul\":1470:1471   */\n  dup3\n    /* \"#utility.yul\":1452:1472   */\n  tag_13\n  jump\t// in\ntag_34:\n    /* \"#utility.yul\":1447:1472   */\n  swap2\n  pop\n    /* \"#utility.yul\":1486:1506   */\n  tag_35\n    /* \"#utility.yul\":1504:1505   */\n  dup4\n    /* \"#utility.yul\":1486:1506   */\n  tag_13\n  jump\t// in\ntag_35:\n    /* \"#utility.yul\":1481:1506   */\n  swap3\n  pop\n    /* \"#utility.yul\":1529:1530   */\n  dup3\n    /* \"#utility.yul\":1526:1527   */\n  dup3\n    /* \"#utility.yul\":1522:1531   */\n  add\n    /* \"#utility.yul\":1515:1531   */\n  swap1\n  pop\n    /* \"#utility.yul\":1550:1553   */\n  dup1\n    /* \"#utility.yul\":1547:1548   */\n  dup3\n    /* \"#utility.yul\":1544:1554   */\n  gt\n    /* \"#utility.yul\":1541:1577   */\n  iszero\n  tag_36\n  jumpi\n    /* \"#utility.yul\":1557:1575   */\n  tag_37\n  tag_16\n  jump\t// in\ntag_37:\n    /* \"#utility.yul\":1541:1577   */\ntag_36:\n    /* \"#utility.yul\":1393:1584   */\n  swap3\n  swap2\n  pop\n  pop\n  jump\t// out\n    /* \"contracts/Auction2_SC05_Secure.sol\":68:3019  contract Auction {... */\ntag_9:\n  dataSize(sub_0)\n  dup1\n  dataOffset(sub_0)\n  0x00\n  codecopy\n  0x00\n  return\nstop\n\nsub_0: assembly {\n        /* \"contracts/Auction2_SC05_Secure.sol\":68:3019  contract Auction {... */\n      mstore(0x40, 0x80)\n      jumpi(tag_1, lt(calldatasize, 0x04))\n      shr(0xe0, calldataload(0x00))\n      dup1\n      0x923fb74c\n      gt\n      tag_17\n      jumpi\n      dup1\n      0xcff29dfd\n      gt\n      tag_18\n      jumpi\n      dup1\n      0xcff29dfd\n      eq\n      tag_13\n      jumpi\n      dup1\n      0xd57bde79\n      eq\n      tag_14\n      jumpi\n      dup1\n      0xd9a80c85\n      eq\n      tag_15\n      jumpi\n      dup1\n      0xe631bedd\n      eq\n      tag_16\n      jumpi\n      jump(tag_1)\n    tag_18:\n      dup1\n      0x923fb74c\n      eq\n      tag_9\n      jumpi\n      dup1\n      0xa6e66477\n      eq\n      tag_10\n      jumpi\n      dup1\n      0xa99aecf9\n      eq\n      tag_11\n      jumpi\n      dup1\n      0xc4727449\n      eq\n      tag_12\n      jumpi\n      jump(tag_1)\n    tag_17:\n      dup1\n      0x305f69dc\n      gt\n      tag_19\n      jumpi\n      dup1\n      0x305f69dc\n      eq\n      tag_5\n      jumpi\n      dup1\n      0x423b217f\n      eq\n      tag_6\n      jumpi\n      dup1\n      0x86433374\n      eq\n      tag_7\n      jumpi\n      dup1\n      0x91f90157\n      eq\n      tag_8\n      jumpi\n      jump(tag_1)\n    tag_19:\n      dup1\n      0x08551a53\n      eq\n      tag_2\n      jumpi\n      dup1\n      0x161b3e70\n      eq\n      tag_3\n      jumpi\n      dup1\n      0x171f08c6\n      eq\n      tag_4\n      jumpi\n    tag_1:\n      revert(0x00, 0x00)\n        /* \"contracts/Auction2_SC05_Secure.sol\":253:282  address payable public seller */\n    tag_2:\n      callvalue\n      dup1\n      iszero\n      tag_20\n      jumpi\n      revert(0x00, 0x00)\n    tag_20:\n      pop\n      tag_21\n      tag_22\n      jump\t// in\n    tag_21:\n      mload(0x40)\n      tag_23\n      swap2\n      swap1\n      tag_24\n      jump\t// in\n    tag_23:\n      mload(0x40)\n      dup1\n      swap2\n      sub\n      swap1\n      return\n        /* \"contracts/Auction2_SC05_Secure.sol\":2826:3016  function TimeLeftReveal() external view returns (uint256) {... */\n    tag_3:\n      callvalue\n      dup1\n      iszero\n      tag_25\n      jumpi\n      revert(0x00, 0x00)\n    tag_25:\n      pop\n      tag_26\n      tag_27\n      jump\t// in\n    tag_26:\n      mload(0x40)\n      tag_28\n      swap2\n      swap1\n      tag_29\n      jump\t// in\n    tag_28:\n      mload(0x40)\n      dup1\n      swap2\n      sub\n      swap1\n      return\n        /* \"contracts/Auction2_SC05_Secure.sol\":968:1238  function CommitBid(bytes32 bidHash) external {... */\n    tag_4:\n      callvalue\n      dup1\n      iszero\n      tag_30\n      jumpi\n      revert(0x00, 0x00)\n    tag_30:\n      pop\n      tag_31\n      0x04\n      dup1\n      calldatasize\n      sub\n      dup2\n      add\n      swap1\n      tag_32\n      swap2\n      swap1\n      tag_33\n      jump\t// in\n    tag_32:\n      tag_34\n      jump\t// in\n    tag_31:\n      stop\n        /* \"contracts/Auction2_SC05_Secure.sol\":2203:2628  function FinalizeAuction() external {... */\n    tag_5:\n      callvalue\n      dup1\n      iszero\n      tag_35\n      jumpi\n      revert(0x00, 0x00)\n    tag_35:\n      pop\n      tag_36\n      tag_37\n      jump\t// in\n    tag_36:\n      stop\n        /* \"contracts/Auction2_SC05_Secure.sol\":159:184  uint256 public biddingEnd */\n    tag_6:\n      callvalue\n      dup1\n      iszero\n      tag_38\n      jumpi\n      revert(0x00, 0x00)\n    tag_38:\n      pop\n      tag_39\n      tag_40\n      jump\t// in\n    tag_39:\n      mload(0x40)\n      tag_41\n      swap2\n      swap1\n      tag_29\n      jump\t// in\n    tag_41:\n      mload(0x40)\n      dup1\n      swap2\n      sub\n      swap1\n      return\n        /* \"contracts/Auction2_SC05_Secure.sol\":222:246  bool public auctionEnded */\n    tag_7:\n      callvalue\n      dup1\n      iszero\n      tag_42\n      jumpi\n      revert(0x00, 0x00)\n    tag_42:\n      pop\n      tag_43\n      tag_44\n      jump\t// in\n    tag_43:\n      mload(0x40)\n      tag_45\n      swap2\n      swap1\n      tag_46\n      jump\t// in\n    tag_45:\n      mload(0x40)\n      dup1\n      swap2\n      sub\n      swap1\n      return\n        /* \"contracts/Auction2_SC05_Secure.sol\":92:120  address public highestBidder */\n    tag_8:\n      callvalue\n      dup1\n      iszero\n      tag_47\n      jumpi\n      revert(0x00, 0x00)\n    tag_47:\n      pop\n      tag_48\n      tag_49\n      jump\t// in\n    tag_48:\n      mload(0x40)\n      tag_50\n      swap2\n      swap1\n      tag_51\n      jump\t// in\n    tag_50:\n      mload(0x40)\n      dup1\n      swap2\n      sub\n      swap1\n      return\n        /* \"contracts/Auction2_SC05_Secure.sol\":1299:2195  function RevealBid(uint256 amount, string memory secret) external payable {... */\n    tag_9:\n      tag_52\n      0x04\n      dup1\n      calldatasize\n      sub\n      dup2\n      add\n      swap1\n      tag_53\n      swap2\n      swap1\n      tag_54\n      jump\t// in\n    tag_53:\n      tag_55\n      jump\t// in\n    tag_52:\n      stop\n        /* \"contracts/Auction2_SC05_Secure.sol\":191:215  uint256 public revealEnd */\n    tag_10:\n      callvalue\n      dup1\n      iszero\n      tag_56\n      jumpi\n      revert(0x00, 0x00)\n    tag_56:\n      pop\n      tag_57\n      tag_58\n      jump\t// in\n    tag_57:\n      mload(0x40)\n      tag_59\n      swap2\n      swap1\n      tag_29\n      jump\t// in\n    tag_59:\n      mload(0x40)\n      dup1\n      swap2\n      sub\n      swap1\n      return\n        /* \"contracts/Auction2_SC05_Secure.sol\":291:336  mapping(address => bytes32) public bidCommits */\n    tag_11:\n      callvalue\n      dup1\n      iszero\n      tag_60\n      jumpi\n      revert(0x00, 0x00)\n    tag_60:\n      pop\n      tag_61\n      0x04\n      dup1\n      calldatasize\n      sub\n      dup2\n      add\n      swap1\n      tag_62\n      swap2\n      swap1\n      tag_63\n      jump\t// in\n    tag_62:\n      tag_64\n      jump\t// in\n    tag_61:\n      mload(0x40)\n      tag_65\n      swap2\n      swap1\n      tag_66\n      jump\t// in\n    tag_65:\n      mload(0x40)\n      dup1\n      swap2\n      sub\n      swap1\n      return\n        /* \"contracts/Auction2_SC05_Secure.sol\":747:909  function GenerateBidHash(uint256 amount, string memory secret) public pure returns (bytes32) {... */\n    tag_12:\n      callvalue\n      dup1\n      iszero\n      tag_67\n      jumpi\n      revert(0x00, 0x00)\n    tag_67:\n      pop\n      tag_68\n      0x04\n      dup1\n      calldatasize\n      sub\n      dup2\n      add\n      swap1\n      tag_69\n      swap2\n      swap1\n      tag_54\n      jump\t// in\n    tag_69:\n      tag_70\n      jump\t// in\n    tag_68:\n      mload(0x40)\n      tag_71\n      swap2\n      swap1\n      tag_66\n      jump\t// in\n    tag_71:\n      mload(0x40)\n      dup1\n      swap2\n      sub\n      swap1\n      return\n        /* \"contracts/Auction2_SC05_Secure.sol\":397:421  address[] public bidders */\n    tag_13:\n      callvalue\n      dup1\n      iszero\n      tag_72\n      jumpi\n      revert(0x00, 0x00)\n    tag_72:\n      pop\n      tag_73\n      0x04\n      dup1\n      calldatasize\n      sub\n      dup2\n      add\n      swap1\n      tag_74\n      swap2\n      swap1\n      tag_75\n      jump\t// in\n    tag_74:\n      tag_76\n      jump\t// in\n    tag_73:\n      mload(0x40)\n      tag_77\n      swap2\n      swap1\n      tag_51\n      jump\t// in\n    tag_77:\n      mload(0x40)\n      dup1\n      swap2\n      sub\n      swap1\n      return\n        /* \"contracts/Auction2_SC05_Secure.sol\":127:152  uint256 public highestBid */\n    tag_14:\n      callvalue\n      dup1\n      iszero\n      tag_78\n      jumpi\n      revert(0x00, 0x00)\n    tag_78:\n      pop\n      tag_79\n      tag_80\n      jump\t// in\n    tag_79:\n      mload(0x40)\n      tag_81\n      swap2\n      swap1\n      tag_29\n      jump\t// in\n    tag_81:\n      mload(0x40)\n      dup1\n      swap2\n      sub\n      swap1\n      return\n        /* \"contracts/Auction2_SC05_Secure.sol\":343:390  mapping(address => uint256) public revealedBids */\n    tag_15:\n      callvalue\n      dup1\n      iszero\n      tag_82\n      jumpi\n      revert(0x00, 0x00)\n    tag_82:\n      pop\n      tag_83\n      0x04\n      dup1\n      calldatasize\n      sub\n      dup2\n      add\n      swap1\n      tag_84\n      swap2\n      swap1\n      tag_63\n      jump\t// in\n    tag_84:\n      tag_85\n      jump\t// in\n    tag_83:\n      mload(0x40)\n      tag_86\n      swap2\n      swap1\n      tag_29\n      jump\t// in\n    tag_86:\n      mload(0x40)\n      dup1\n      swap2\n      sub\n      swap1\n      return\n        /* \"contracts/Auction2_SC05_Secure.sol\":2676:2818  function TimeLeftCommit() external view returns (uint256) {... */\n    tag_16:\n      callvalue\n      dup1\n      iszero\n      tag_87\n      jumpi\n      revert(0x00, 0x00)\n    tag_87:\n      pop\n      tag_88\n      tag_89\n      jump\t// in\n    tag_88:\n      mload(0x40)\n      tag_90\n      swap2\n      swap1\n      tag_29\n      jump\t// in\n    tag_90:\n      mload(0x40)\n      dup1\n      swap2\n      sub\n      swap1\n      return\n        /* \"contracts/Auction2_SC05_Secure.sol\":253:282  address payable public seller */\n    tag_22:\n      0x04\n      0x01\n      swap1\n      sload\n      swap1\n      0x0100\n      exp\n      swap1\n      div\n      0xffffffffffffffffffffffffffffffffffffffff\n      and\n      dup2\n      jump\t// out\n        /* \"contracts/Auction2_SC05_Secure.sol\":2826:3016  function TimeLeftReveal() external view returns (uint256) {... */\n    tag_27:\n        /* \"contracts/Auction2_SC05_Secure.sol\":2875:2882  uint256 */\n      0x00\n        /* \"contracts/Auction2_SC05_Secure.sol\":2914:2924  biddingEnd */\n      sload(0x02)\n        /* \"contracts/Auction2_SC05_Secure.sol\":2899:2911  block.number */\n      number\n        /* \"contracts/Auction2_SC05_Secure.sol\":2899:2924  block.number < biddingEnd */\n      lt\n        /* \"contracts/Auction2_SC05_Secure.sol\":2895:2934  if (block.number < biddingEnd) return 0 */\n      iszero\n      tag_92\n      jumpi\n        /* \"contracts/Auction2_SC05_Secure.sol\":2933:2934  0 */\n      0x00\n        /* \"contracts/Auction2_SC05_Secure.sol\":2926:2934  return 0 */\n      swap1\n      pop\n      jump(tag_91)\n        /* \"contracts/Auction2_SC05_Secure.sol\":2895:2934  if (block.number < biddingEnd) return 0 */\n    tag_92:\n        /* \"contracts/Auction2_SC05_Secure.sol\":2968:2977  revealEnd */\n      sload(0x03)\n        /* \"contracts/Auction2_SC05_Secure.sol\":2952:2964  block.number */\n      number\n        /* \"contracts/Auction2_SC05_Secure.sol\":2952:2977  block.number >= revealEnd */\n      lt\n      iszero\n        /* \"contracts/Auction2_SC05_Secure.sol\":2952:3008  block.number >= revealEnd ? 0 : revealEnd - block.number */\n      tag_93\n      jumpi\n        /* \"contracts/Auction2_SC05_Secure.sol\":2996:3008  block.number */\n      number\n        /* \"contracts/Auction2_SC05_Secure.sol\":2984:2993  revealEnd */\n      sload(0x03)\n        /* \"contracts/Auction2_SC05_Secure.sol\":2984:3008  revealEnd - block.number */\n      tag_94\n      swap2\n      swap1\n      tag_95\n      jump\t// in\n    tag_94:\n        /* \"contracts/Auction2_SC05_Secure.sol\":2952:3008  block.number >= revealEnd ? 0 : revealEnd - block.number */\n      jump(tag_96)\n    tag_93:\n        /* \"contracts/Auction2_SC05_Secure.sol\":2980:2981  0 */\n      0x00\n        /* \"contracts/Auction2_SC05_Secure.sol\":2952:3008  block.number >= revealEnd ? 0 : revealEnd - block.number */\n    tag_96:\n        /* \"contracts/Auction2_SC05_Secure.sol\":2945:3008  return block.number >= revealEnd ? 0 : revealEnd - block.number */\n      swap1\n      pop\n        /* \"contracts/Auction2_SC05_Secure.sol\":2826:3016  function TimeLeftReveal() external view returns (uint256) {... */\n    tag_91:\n      swap1\n      jump\t// out\n        /* \"contracts/Auction2_SC05_Secure.sol\":968:1238  function CommitBid(bytes32 bidHash) external {... */\n    tag_34:\n        /* \"contracts/Auction2_SC05_Secure.sol\":1047:1057  biddingEnd */\n      sload(0x02)\n        /* \"contracts/Auction2_SC05_Secure.sol\":1032:1044  block.number */\n      number\n        /* \"contracts/Auction2_SC05_Secure.sol\":1032:1057  block.number < biddingEnd */\n      lt\n        /* \"contracts/Auction2_SC05_Secure.sol\":1024:1081  require(block.number < biddingEnd, \"Commit phase ended.\") */\n      tag_98\n      jumpi\n      mload(0x40)\n      0x08c379a000000000000000000000000000000000000000000000000000000000\n      dup2\n      mstore\n      0x04\n      add\n      tag_99\n      swap1\n      tag_100\n      jump\t// in\n    tag_99:\n      mload(0x40)\n      dup1\n      swap2\n      sub\n      swap1\n      revert\n    tag_98:\n        /* \"contracts/Auction2_SC05_Secure.sol\":1126:1129  0x0 */\n      0x00\n        /* \"contracts/Auction2_SC05_Secure.sol\":1100:1129  bidCommits[msg.sender] == 0x0 */\n      0x00\n      shl\n        /* \"contracts/Auction2_SC05_Secure.sol\":1100:1110  bidCommits */\n      0x05\n        /* \"contracts/Auction2_SC05_Secure.sol\":1100:1122  bidCommits[msg.sender] */\n      0x00\n        /* \"contracts/Auction2_SC05_Secure.sol\":1111:1121  msg.sender */\n      caller\n        /* \"contracts/Auction2_SC05_Secure.sol\":1100:1122  bidCommits[msg.sender] */\n      0xffffffffffffffffffffffffffffffffffffffff\n      and\n      0xffffffffffffffffffffffffffffffffffffffff\n      and\n      dup2\n      mstore\n      0x20\n      add\n      swap1\n      dup2\n      mstore\n      0x20\n      add\n      0x00\n      keccak256\n      sload\n        /* \"contracts/Auction2_SC05_Secure.sol\":1100:1129  bidCommits[msg.sender] == 0x0 */\n      eq\n        /* \"contracts/Auction2_SC05_Secure.sol\":1092:1152  require(bidCommits[msg.sender] == 0x0, \"Already committed.\") */\n      tag_101\n      jumpi\n      mload(0x40)\n      0x08c379a000000000000000000000000000000000000000000000000000000000\n      dup2\n      mstore\n      0x04\n      add\n      tag_102\n      swap1\n      tag_103\n      jump\t// in\n    tag_102:\n      mload(0x40)\n      dup1\n      swap2\n      sub\n      swap1\n      revert\n    tag_101:\n        /* \"contracts/Auction2_SC05_Secure.sol\":1188:1195  bidHash */\n      dup1\n        /* \"contracts/Auction2_SC05_Secure.sol\":1163:1173  bidCommits */\n      0x05\n        /* \"contracts/Auction2_SC05_Secure.sol\":1163:1185  bidCommits[msg.sender] */\n      0x00\n        /* \"contracts/Auction2_SC05_Secure.sol\":1174:1184  msg.sender */\n      caller\n        /* \"contracts/Auction2_SC05_Secure.sol\":1163:1185  bidCommits[msg.sender] */\n      0xffffffffffffffffffffffffffffffffffffffff\n      and\n      0xffffffffffffffffffffffffffffffffffffffff\n      and\n      dup2\n      mstore\n      0x20\n      add\n      swap1\n      dup2\n      mstore\n      0x20\n      add\n      0x00\n      keccak256\n        /* \"contracts/Auction2_SC05_Secure.sol\":1163:1195  bidCommits[msg.sender] = bidHash */\n      dup2\n      swap1\n      sstore\n      pop\n        /* \"contracts/Auction2_SC05_Secure.sol\":1206:1213  bidders */\n      0x07\n        /* \"contracts/Auction2_SC05_Secure.sol\":1219:1229  msg.sender */\n      caller\n        /* \"contracts/Auction2_SC05_Secure.sol\":1206:1230  bidders.push(msg.sender) */\n      swap1\n      dup1\n      0x01\n      dup2\n      sload\n      add\n      dup1\n      dup3\n      sstore\n      dup1\n      swap2\n      pop\n      pop\n      0x01\n      swap1\n      sub\n      swap1\n      0x00\n      mstore\n      keccak256(0x00, 0x20)\n      add\n      0x00\n      swap1\n      swap2\n      swap1\n      swap2\n      swap1\n      swap2\n      0x0100\n      exp\n      dup2\n      sload\n      dup2\n      0xffffffffffffffffffffffffffffffffffffffff\n      mul\n      not\n      and\n      swap1\n      dup4\n      0xffffffffffffffffffffffffffffffffffffffff\n      and\n      mul\n      or\n      swap1\n      sstore\n      pop\n        /* \"contracts/Auction2_SC05_Secure.sol\":968:1238  function CommitBid(bytes32 bidHash) external {... */\n      pop\n      jump\t// out\n        /* \"contracts/Auction2_SC05_Secure.sol\":2203:2628  function FinalizeAuction() external {... */\n    tag_37:\n        /* \"contracts/Auction2_SC05_Secure.sol\":2274:2283  revealEnd */\n      sload(0x03)\n        /* \"contracts/Auction2_SC05_Secure.sol\":2258:2270  block.number */\n      number\n        /* \"contracts/Auction2_SC05_Secure.sol\":2258:2283  block.number >= revealEnd */\n      lt\n      iszero\n        /* \"contracts/Auction2_SC05_Secure.sol\":2250:2315  require(block.number >= revealEnd, \"Reveal phase not yet ended.\") */\n      tag_106\n      jumpi\n      mload(0x40)\n      0x08c379a000000000000000000000000000000000000000000000000000000000\n      dup2\n      mstore\n      0x04\n      add\n      tag_107\n      swap1\n      tag_108\n      jump\t// in\n    tag_107:\n      mload(0x40)\n      dup1\n      swap2\n      sub\n      swap1\n      revert\n    tag_106:\n        /* \"contracts/Auction2_SC05_Secure.sol\":2335:2347  auctionEnded */\n      0x04\n      0x00\n      swap1\n      sload\n      swap1\n      0x0100\n      exp\n      swap1\n      div\n      0xff\n      and\n        /* \"contracts/Auction2_SC05_Secure.sol\":2334:2347  !auctionEnded */\n      iszero\n        /* \"contracts/Auction2_SC05_Secure.sol\":2326:2378  require(!auctionEnded, \"Auction already finalized.\") */\n      tag_109\n      jumpi\n      mload(0x40)\n      0x08c379a000000000000000000000000000000000000000000000000000000000\n      dup2\n      mstore\n      0x04\n      add\n      tag_110\n      swap1\n      tag_111\n      jump\t// in\n    tag_110:\n      mload(0x40)\n      dup1\n      swap2\n      sub\n      swap1\n      revert\n    tag_109:\n        /* \"contracts/Auction2_SC05_Secure.sol\":2404:2408  true */\n      0x01\n        /* \"contracts/Auction2_SC05_Secure.sol\":2389:2401  auctionEnded */\n      0x04\n      0x00\n        /* \"contracts/Auction2_SC05_Secure.sol\":2389:2408  auctionEnded = true */\n      0x0100\n      exp\n      dup2\n      sload\n      dup2\n      0xff\n      mul\n      not\n      and\n      swap1\n      dup4\n      iszero\n      iszero\n      mul\n      or\n      swap1\n      sstore\n      pop\n        /* \"contracts/Auction2_SC05_Secure.sol\":2531:2532  0 */\n      0x00\n        /* \"contracts/Auction2_SC05_Secure.sol\":2518:2528  highestBid */\n      sload(0x01)\n        /* \"contracts/Auction2_SC05_Secure.sol\":2518:2532  highestBid > 0 */\n      gt\n        /* \"contracts/Auction2_SC05_Secure.sol\":2514:2621  if (highestBid > 0) {... */\n      iszero\n      tag_112\n      jumpi\n        /* \"contracts/Auction2_SC05_Secure.sol\":2549:2555  seller */\n      0x04\n      0x01\n      swap1\n      sload\n      swap1\n      0x0100\n      exp\n      swap1\n      div\n      0xffffffffffffffffffffffffffffffffffffffff\n      and\n        /* \"contracts/Auction2_SC05_Secure.sol\":2549:2564  seller.transfer */\n      0xffffffffffffffffffffffffffffffffffffffff\n      and\n        /* \"contracts/Auction2_SC05_Secure.sol\":2549:2576  seller.transfer(highestBid) */\n      0x08fc\n        /* \"contracts/Auction2_SC05_Secure.sol\":2565:2575  highestBid */\n      sload(0x01)\n        /* \"contracts/Auction2_SC05_Secure.sol\":2549:2576  seller.transfer(highestBid) */\n      swap1\n      dup2\n      iszero\n      mul\n      swap1\n      mload(0x40)\n      0x00\n      mload(0x40)\n      dup1\n      dup4\n      sub\n      dup2\n      dup6\n      dup9\n      dup9\n      call\n      swap4\n      pop\n      pop\n      pop\n      pop\n      iszero\n      dup1\n      iszero\n      tag_114\n      jumpi\n      returndatacopy(0x00, 0x00, returndatasize)\n      revert(0x00, returndatasize)\n    tag_114:\n      pop\n        /* \"contracts/Auction2_SC05_Secure.sol\":2514:2621  if (highestBid > 0) {... */\n    tag_112:\n        /* \"contracts/Auction2_SC05_Secure.sol\":2203:2628  function FinalizeAuction() external {... */\n      jump\t// out\n        /* \"contracts/Auction2_SC05_Secure.sol\":159:184  uint256 public biddingEnd */\n    tag_40:\n      sload(0x02)\n      dup2\n      jump\t// out\n        /* \"contracts/Auction2_SC05_Secure.sol\":222:246  bool public auctionEnded */\n    tag_44:\n      0x04\n      0x00\n      swap1\n      sload\n      swap1\n      0x0100\n      exp\n      swap1\n      div\n      0xff\n      and\n      dup2\n      jump\t// out\n        /* \"contracts/Auction2_SC05_Secure.sol\":92:120  address public highestBidder */\n    tag_49:\n      0x00\n      0x00\n      swap1\n      sload\n      swap1\n      0x0100\n      exp\n      swap1\n      div\n      0xffffffffffffffffffffffffffffffffffffffff\n      and\n      dup2\n      jump\t// out\n        /* \"contracts/Auction2_SC05_Secure.sol\":1299:2195  function RevealBid(uint256 amount, string memory secret) external payable {... */\n    tag_55:\n        /* \"contracts/Auction2_SC05_Secure.sol\":1408:1418  biddingEnd */\n      sload(0x02)\n        /* \"contracts/Auction2_SC05_Secure.sol\":1392:1404  block.number */\n      number\n        /* \"contracts/Auction2_SC05_Secure.sol\":1392:1418  block.number >= biddingEnd */\n      lt\n      iszero\n        /* \"contracts/Auction2_SC05_Secure.sol\":1392:1446  block.number >= biddingEnd && block.number < revealEnd */\n      dup1\n      iszero\n      tag_116\n      jumpi\n      pop\n        /* \"contracts/Auction2_SC05_Secure.sol\":1437:1446  revealEnd */\n      sload(0x03)\n        /* \"contracts/Auction2_SC05_Secure.sol\":1422:1434  block.number */\n      number\n        /* \"contracts/Auction2_SC05_Secure.sol\":1422:1446  block.number < revealEnd */\n      lt\n        /* \"contracts/Auction2_SC05_Secure.sol\":1392:1446  block.number >= biddingEnd && block.number < revealEnd */\n    tag_116:\n        /* \"contracts/Auction2_SC05_Secure.sol\":1384:1471  require(block.number >= biddingEnd && block.number < revealEnd, \"Not in reveal phase.\") */\n      tag_117\n      jumpi\n      mload(0x40)\n      0x08c379a000000000000000000000000000000000000000000000000000000000\n      dup2\n      mstore\n      0x04\n      add\n      tag_118\n      swap1\n      tag_119\n      jump\t// in\n    tag_118:\n      mload(0x40)\n      dup1\n      swap2\n      sub\n      swap1\n      revert\n    tag_117:\n        /* \"contracts/Auction2_SC05_Secure.sol\":1516:1519  0x0 */\n      0x00\n        /* \"contracts/Auction2_SC05_Secure.sol\":1490:1519  bidCommits[msg.sender] != 0x0 */\n      0x00\n      shl\n        /* \"contracts/Auction2_SC05_Secure.sol\":1490:1500  bidCommits */\n      0x05\n        /* \"contracts/Auction2_SC05_Secure.sol\":1490:1512  bidCommits[msg.sender] */\n      0x00\n        /* \"contracts/Auction2_SC05_Secure.sol\":1501:1511  msg.sender */\n      caller\n        /* \"contracts/Auction2_SC05_Secure.sol\":1490:1512  bidCommits[msg.sender] */\n      0xffffffffffffffffffffffffffffffffffffffff\n      and\n      0xffffffffffffffffffffffffffffffffffffffff\n      and\n      dup2\n      mstore\n      0x20\n      add\n      swap1\n      dup2\n      mstore\n      0x20\n      add\n      0x00\n      keccak256\n      sload\n        /* \"contracts/Auction2_SC05_Secure.sol\":1490:1519  bidCommits[msg.sender] != 0x0 */\n      sub\n        /* \"contracts/Auction2_SC05_Secure.sol\":1482:1544  require(bidCommits[msg.sender] != 0x0, \"No commitment found.\") */\n      tag_120\n      jumpi\n      mload(0x40)\n      0x08c379a000000000000000000000000000000000000000000000000000000000\n      dup2\n      mstore\n      0x04\n      add\n      tag_121\n      swap1\n      tag_122\n      jump\t// in\n    tag_121:\n      mload(0x40)\n      dup1\n      swap2\n      sub\n      swap1\n      revert\n    tag_120:\n        /* \"contracts/Auction2_SC05_Secure.sol\":1576:1582  amount */\n      dup2\n        /* \"contracts/Auction2_SC05_Secure.sol\":1563:1572  msg.value */\n      callvalue\n        /* \"contracts/Auction2_SC05_Secure.sol\":1563:1582  msg.value == amount */\n      eq\n        /* \"contracts/Auction2_SC05_Secure.sol\":1555:1611  require(msg.value == amount, \"ETH sent must match bid.\") */\n      tag_123\n      jumpi\n      mload(0x40)\n      0x08c379a000000000000000000000000000000000000000000000000000000000\n      dup2\n      mstore\n      0x04\n      add\n      tag_124\n      swap1\n      tag_125\n      jump\t// in\n    tag_124:\n      mload(0x40)\n      dup1\n      swap2\n      sub\n      swap1\n      revert\n    tag_123:\n        /* \"contracts/Auction2_SC05_Secure.sol\":1677:1687  bidCommits */\n      0x05\n        /* \"contracts/Auction2_SC05_Secure.sol\":1677:1699  bidCommits[msg.sender] */\n      0x00\n        /* \"contracts/Auction2_SC05_Secure.sol\":1688:1698  msg.sender */\n      caller\n        /* \"contracts/Auction2_SC05_Secure.sol\":1677:1699  bidCommits[msg.sender] */\n      0xffffffffffffffffffffffffffffffffffffffff\n      and\n      0xffffffffffffffffffffffffffffffffffffffff\n      and\n      dup2\n      mstore\n      0x20\n      add\n      swap1\n      dup2\n      mstore\n      0x20\n      add\n      0x00\n      keccak256\n      sload\n        /* \"contracts/Auction2_SC05_Secure.sol\":1657:1663  amount */\n      dup3\n        /* \"contracts/Auction2_SC05_Secure.sol\":1665:1671  secret */\n      dup3\n        /* \"contracts/Auction2_SC05_Secure.sol\":1640:1672  abi.encodePacked(amount, secret) */\n      add(0x20, mload(0x40))\n      tag_126\n      swap3\n      swap2\n      swap1\n      tag_127\n      jump\t// in\n    tag_126:\n      mload(0x40)\n      0x20\n      dup2\n      dup4\n      sub\n      sub\n      dup2\n      mstore\n      swap1\n      0x40\n      mstore\n        /* \"contracts/Auction2_SC05_Secure.sol\":1630:1673  keccak256(abi.encodePacked(amount, secret)) */\n      dup1\n      mload\n      swap1\n      0x20\n      add\n      keccak256\n        /* \"contracts/Auction2_SC05_Secure.sol\":1630:1699  keccak256(abi.encodePacked(amount, secret)) == bidCommits[msg.sender] */\n      eq\n        /* \"contracts/Auction2_SC05_Secure.sol\":1622:1718  require(keccak256(abi.encodePacked(amount, secret)) == bidCommits[msg.sender], \"Hash mismatch.\") */\n      tag_128\n      jumpi\n      mload(0x40)\n      0x08c379a000000000000000000000000000000000000000000000000000000000\n      dup2\n      mstore\n      0x04\n      add\n      tag_129\n      swap1\n      tag_130\n      jump\t// in\n    tag_129:\n      mload(0x40)\n      dup1\n      swap2\n      sub\n      swap1\n      revert\n    tag_128:\n        /* \"contracts/Auction2_SC05_Secure.sol\":1758:1764  amount */\n      dup2\n        /* \"contracts/Auction2_SC05_Secure.sol\":1731:1743  revealedBids */\n      0x06\n        /* \"contracts/Auction2_SC05_Secure.sol\":1731:1755  revealedBids[msg.sender] */\n      0x00\n        /* \"contracts/Auction2_SC05_Secure.sol\":1744:1754  msg.sender */\n      caller\n        /* \"contracts/Auction2_SC05_Secure.sol\":1731:1755  revealedBids[msg.sender] */\n      0xffffffffffffffffffffffffffffffffffffffff\n      and\n      0xffffffffffffffffffffffffffffffffffffffff\n      and\n      dup2\n      mstore\n      0x20\n      add\n      swap1\n      dup2\n      mstore\n      0x20\n      add\n      0x00\n      keccak256\n        /* \"contracts/Auction2_SC05_Secure.sol\":1731:1764  revealedBids[msg.sender] = amount */\n      dup2\n      swap1\n      sstore\n      pop\n        /* \"contracts/Auction2_SC05_Secure.sol\":1790:1800  highestBid */\n      sload(0x01)\n        /* \"contracts/Auction2_SC05_Secure.sol\":1781:1787  amount */\n      dup3\n        /* \"contracts/Auction2_SC05_Secure.sol\":1781:1800  amount > highestBid */\n      gt\n        /* \"contracts/Auction2_SC05_Secure.sol\":1777:2188  if (amount > highestBid) {... */\n      iszero\n      tag_131\n      jumpi\n        /* \"contracts/Auction2_SC05_Secure.sol\":1846:1847  0 */\n      0x00\n        /* \"contracts/Auction2_SC05_Secure.sol\":1821:1848  highestBidder != address(0) */\n      0xffffffffffffffffffffffffffffffffffffffff\n      and\n        /* \"contracts/Auction2_SC05_Secure.sol\":1821:1834  highestBidder */\n      0x00\n      0x00\n      swap1\n      sload\n      swap1\n      0x0100\n      exp\n      swap1\n      div\n      0xffffffffffffffffffffffffffffffffffffffff\n      and\n        /* \"contracts/Auction2_SC05_Secure.sol\":1821:1848  highestBidder != address(0) */\n      0xffffffffffffffffffffffffffffffffffffffff\n      and\n      eq\n        /* \"contracts/Auction2_SC05_Secure.sol\":1817:1979  if (highestBidder != address(0)) {... */\n      tag_132\n      jumpi\n        /* \"contracts/Auction2_SC05_Secure.sol\":1928:1941  highestBidder */\n      0x00\n      0x00\n      swap1\n      sload\n      swap1\n      0x0100\n      exp\n      swap1\n      div\n      0xffffffffffffffffffffffffffffffffffffffff\n      and\n        /* \"contracts/Auction2_SC05_Secure.sol\":1920:1951  payable(highestBidder).transfer */\n      0xffffffffffffffffffffffffffffffffffffffff\n      and\n        /* \"contracts/Auction2_SC05_Secure.sol\":1920:1963  payable(highestBidder).transfer(highestBid) */\n      0x08fc\n        /* \"contracts/Auction2_SC05_Secure.sol\":1952:1962  highestBid */\n      sload(0x01)\n        /* \"contracts/Auction2_SC05_Secure.sol\":1920:1963  payable(highestBidder).transfer(highestBid) */\n      swap1\n      dup2\n      iszero\n      mul\n      swap1\n      mload(0x40)\n      0x00\n      mload(0x40)\n      dup1\n      dup4\n      sub\n      dup2\n      dup6\n      dup9\n      dup9\n      call\n      swap4\n      pop\n      pop\n      pop\n      pop\n      iszero\n      dup1\n      iszero\n      tag_134\n      jumpi\n      returndatacopy(0x00, 0x00, returndatasize)\n      revert(0x00, returndatasize)\n    tag_134:\n      pop\n        /* \"contracts/Auction2_SC05_Secure.sol\":1817:1979  if (highestBidder != address(0)) {... */\n    tag_132:\n        /* \"contracts/Auction2_SC05_Secure.sol\":2009:2019  msg.sender */\n      caller\n        /* \"contracts/Auction2_SC05_Secure.sol\":1993:2006  highestBidder */\n      0x00\n      0x00\n        /* \"contracts/Auction2_SC05_Secure.sol\":1993:2019  highestBidder = msg.sender */\n      0x0100\n      exp\n      dup2\n      sload\n      dup2\n      0xffffffffffffffffffffffffffffffffffffffff\n      mul\n      not\n      and\n      swap1\n      dup4\n      0xffffffffffffffffffffffffffffffffffffffff\n      and\n      mul\n      or\n      swap1\n      sstore\n      pop\n        /* \"contracts/Auction2_SC05_Secure.sol\":2047:2053  amount */\n      dup2\n        /* \"contracts/Auction2_SC05_Secure.sol\":2034:2044  highestBid */\n      0x01\n        /* \"contracts/Auction2_SC05_Secure.sol\":2034:2053  highestBid = amount */\n      dup2\n      swap1\n      sstore\n      pop\n        /* \"contracts/Auction2_SC05_Secure.sol\":1777:2188  if (amount > highestBid) {... */\n      jump(tag_135)\n    tag_131:\n        /* \"contracts/Auction2_SC05_Secure.sol\":2148:2158  msg.sender */\n      caller\n        /* \"contracts/Auction2_SC05_Secure.sol\":2140:2168  payable(msg.sender).transfer */\n      0xffffffffffffffffffffffffffffffffffffffff\n      and\n        /* \"contracts/Auction2_SC05_Secure.sol\":2140:2176  payable(msg.sender).transfer(amount) */\n      0x08fc\n        /* \"contracts/Auction2_SC05_Secure.sol\":2169:2175  amount */\n      dup4\n        /* \"contracts/Auction2_SC05_Secure.sol\":2140:2176  payable(msg.sender).transfer(amount) */\n      swap1\n      dup2\n      iszero\n      mul\n      swap1\n      mload(0x40)\n      0x00\n      mload(0x40)\n      dup1\n      dup4\n      sub\n      dup2\n      dup6\n      dup9\n      dup9\n      call\n      swap4\n      pop\n      pop\n      pop\n      pop\n      iszero\n      dup1\n      iszero\n      tag_137\n      jumpi\n      returndatacopy(0x00, 0x00, returndatasize)\n      revert(0x00, returndatasize)\n    tag_137:\n      pop\n        /* \"contracts/Auction2_SC05_Secure.sol\":1777:2188  if (amount > highestBid) {... */\n    tag_135:\n        /* \"contracts/Auction2_SC05_Secure.sol\":1299:2195  function RevealBid(uint256 amount, string memory secret) external payable {... */\n      pop\n      pop\n      jump\t// out\n        /* \"contracts/Auction2_SC05_Secure.sol\":191:215  uint256 public revealEnd */\n    tag_58:\n      sload(0x03)\n      dup2\n      jump\t// out\n        /* \"contracts/Auction2_SC05_Secure.sol\":291:336  mapping(address => bytes32) public bidCommits */\n    tag_64:\n      mstore(0x20, 0x05)\n      dup1\n      0x00\n      mstore\n      keccak256(0x00, 0x40)\n      0x00\n      swap2\n      pop\n      swap1\n      pop\n      sload\n      dup2\n      jump\t// out\n        /* \"contracts/Auction2_SC05_Secure.sol\":747:909  function GenerateBidHash(uint256 amount, string memory secret) public pure returns (bytes32) {... */\n    tag_70:\n        /* \"contracts/Auction2_SC05_Secure.sol\":831:838  bytes32 */\n      0x00\n        /* \"contracts/Auction2_SC05_Secure.sol\":885:891  amount */\n      dup3\n        /* \"contracts/Auction2_SC05_Secure.sol\":893:899  secret */\n      dup3\n        /* \"contracts/Auction2_SC05_Secure.sol\":868:900  abi.encodePacked(amount, secret) */\n      add(0x20, mload(0x40))\n      tag_139\n      swap3\n      swap2\n      swap1\n      tag_127\n      jump\t// in\n    tag_139:\n      mload(0x40)\n      0x20\n      dup2\n      dup4\n      sub\n      sub\n      dup2\n      mstore\n      swap1\n      0x40\n      mstore\n        /* \"contracts/Auction2_SC05_Secure.sol\":858:901  keccak256(abi.encodePacked(amount, secret)) */\n      dup1\n      mload\n      swap1\n      0x20\n      add\n      keccak256\n        /* \"contracts/Auction2_SC05_Secure.sol\":851:901  return keccak256(abi.encodePacked(amount, secret)) */\n      swap1\n      pop\n        /* \"contracts/Auction2_SC05_Secure.sol\":747:909  function GenerateBidHash(uint256 amount, string memory secret) public pure returns (bytes32) {... */\n      swap3\n      swap2\n      pop\n      pop\n      jump\t// out\n        /* \"contracts/Auction2_SC05_Secure.sol\":397:421  address[] public bidders */\n    tag_76:\n      0x07\n      dup2\n      dup2\n      sload\n      dup2\n      lt\n      tag_140\n      jumpi\n      0x00\n      dup1\n      revert\n    tag_140:\n      swap1\n      0x00\n      mstore\n      keccak256(0x00, 0x20)\n      add\n      0x00\n      swap2\n      pop\n      sload\n      swap1\n      0x0100\n      exp\n      swap1\n      div\n      0xffffffffffffffffffffffffffffffffffffffff\n      and\n      dup2\n      jump\t// out\n        /* \"contracts/Auction2_SC05_Secure.sol\":127:152  uint256 public highestBid */\n    tag_80:\n      sload(0x01)\n      dup2\n      jump\t// out\n        /* \"contracts/Auction2_SC05_Secure.sol\":343:390  mapping(address => uint256) public revealedBids */\n    tag_85:\n      mstore(0x20, 0x06)\n      dup1\n      0x00\n      mstore\n      keccak256(0x00, 0x40)\n      0x00\n      swap2\n      pop\n      swap1\n      pop\n      sload\n      dup2\n      jump\t// out\n        /* \"contracts/Auction2_SC05_Secure.sol\":2676:2818  function TimeLeftCommit() external view returns (uint256) {... */\n    tag_89:\n        /* \"contracts/Auction2_SC05_Secure.sol\":2725:2732  uint256 */\n      0x00\n        /* \"contracts/Auction2_SC05_Secure.sol\":2768:2778  biddingEnd */\n      sload(0x02)\n        /* \"contracts/Auction2_SC05_Secure.sol\":2752:2764  block.number */\n      number\n        /* \"contracts/Auction2_SC05_Secure.sol\":2752:2778  block.number >= biddingEnd */\n      lt\n      iszero\n        /* \"contracts/Auction2_SC05_Secure.sol\":2752:2810  block.number >= biddingEnd ? 0 : biddingEnd - block.number */\n      tag_143\n      jumpi\n        /* \"contracts/Auction2_SC05_Secure.sol\":2798:2810  block.number */\n      number\n        /* \"contracts/Auction2_SC05_Secure.sol\":2785:2795  biddingEnd */\n      sload(0x02)\n        /* \"contracts/Auction2_SC05_Secure.sol\":2785:2810  biddingEnd - block.number */\n      tag_144\n      swap2\n      swap1\n      tag_95\n      jump\t// in\n    tag_144:\n        /* \"contracts/Auction2_SC05_Secure.sol\":2752:2810  block.number >= biddingEnd ? 0 : biddingEnd - block.number */\n      jump(tag_145)\n    tag_143:\n        /* \"contracts/Auction2_SC05_Secure.sol\":2781:2782  0 */\n      0x00\n        /* \"contracts/Auction2_SC05_Secure.sol\":2752:2810  block.number >= biddingEnd ? 0 : biddingEnd - block.number */\n    tag_145:\n        /* \"contracts/Auction2_SC05_Secure.sol\":2745:2810  return block.number >= biddingEnd ? 0 : biddingEnd - block.number */\n      swap1\n      pop\n        /* \"contracts/Auction2_SC05_Secure.sol\":2676:2818  function TimeLeftCommit() external view returns (uint256) {... */\n      swap1\n      jump\t// out\n        /* \"#utility.yul\":7:133   */\n    tag_146:\n        /* \"#utility.yul\":44:51   */\n      0x00\n        /* \"#utility.yul\":84:126   */\n      0xffffffffffffffffffffffffffffffffffffffff\n        /* \"#utility.yul\":77:82   */\n      dup3\n        /* \"#utility.yul\":73:127   */\n      and\n        /* \"#utility.yul\":62:127   */\n      swap1\n      pop\n        /* \"#utility.yul\":7:133   */\n      swap2\n      swap1\n      pop\n      jump\t// out\n        /* \"#utility.yul\":139:243   */\n    tag_147:\n        /* \"#utility.yul\":184:191   */\n      0x00\n        /* \"#utility.yul\":213:237   */\n      tag_203\n        /* \"#utility.yul\":231:236   */\n      dup3\n        /* \"#utility.yul\":213:237   */\n      tag_146\n      jump\t// in\n    tag_203:\n        /* \"#utility.yul\":202:237   */\n      swap1\n      pop\n        /* \"#utility.yul\":139:243   */\n      swap2\n      swap1\n      pop\n      jump\t// out\n        /* \"#utility.yul\":249:391   */\n    tag_148:\n        /* \"#utility.yul\":352:384   */\n      tag_205\n        /* \"#utility.yul\":378:383   */\n      dup2\n        /* \"#utility.yul\":352:384   */\n      tag_147\n      jump\t// in\n    tag_205:\n        /* \"#utility.yul\":347:350   */\n      dup3\n        /* \"#utility.yul\":340:385   */\n      mstore\n        /* \"#utility.yul\":249:391   */\n      pop\n      pop\n      jump\t// out\n        /* \"#utility.yul\":397:651   */\n    tag_24:\n        /* \"#utility.yul\":506:510   */\n      0x00\n        /* \"#utility.yul\":544:546   */\n      0x20\n        /* \"#utility.yul\":533:542   */\n      dup3\n        /* \"#utility.yul\":529:547   */\n      add\n        /* \"#utility.yul\":521:547   */\n      swap1\n      pop\n        /* \"#utility.yul\":557:644   */\n      tag_207\n        /* \"#utility.yul\":641:642   */\n      0x00\n        /* \"#utility.yul\":630:639   */\n      dup4\n        /* \"#utility.yul\":626:643   */\n      add\n        /* \"#utility.yul\":617:623   */\n      dup5\n        /* \"#utility.yul\":557:644   */\n      tag_148\n      jump\t// in\n    tag_207:\n        /* \"#utility.yul\":397:651   */\n      swap3\n      swap2\n      pop\n      pop\n      jump\t// out\n        /* \"#utility.yul\":657:734   */\n    tag_149:\n        /* \"#utility.yul\":694:701   */\n      0x00\n        /* \"#utility.yul\":723:728   */\n      dup2\n        /* \"#utility.yul\":712:728   */\n      swap1\n      pop\n        /* \"#utility.yul\":657:734   */\n      swap2\n      swap1\n      pop\n      jump\t// out\n        /* \"#utility.yul\":740:858   */\n    tag_150:\n        /* \"#utility.yul\":827:851   */\n      tag_210\n        /* \"#utility.yul\":845:850   */\n      dup2\n        /* \"#utility.yul\":827:851   */\n      tag_149\n      jump\t// in\n    tag_210:\n        /* \"#utility.yul\":822:825   */\n      dup3\n        /* \"#utility.yul\":815:852   */\n      mstore\n        /* \"#utility.yul\":740:858   */\n      pop\n      pop\n      jump\t// out\n        /* \"#utility.yul\":864:1086   */\n    tag_29:\n        /* \"#utility.yul\":957:961   */\n      0x00\n        /* \"#utility.yul\":995:997   */\n      0x20\n        /* \"#utility.yul\":984:993   */\n      dup3\n        /* \"#utility.yul\":980:998   */\n      add\n        /* \"#utility.yul\":972:998   */\n      swap1\n      pop\n        /* \"#utility.yul\":1008:1079   */\n      tag_212\n        /* \"#utility.yul\":1076:1077   */\n      0x00\n        /* \"#utility.yul\":1065:1074   */\n      dup4\n        /* \"#utility.yul\":1061:1078   */\n      add\n        /* \"#utility.yul\":1052:1058   */\n      dup5\n        /* \"#utility.yul\":1008:1079   */\n      tag_150\n      jump\t// in\n    tag_212:\n        /* \"#utility.yul\":864:1086   */\n      swap3\n      swap2\n      pop\n      pop\n      jump\t// out\n        /* \"#utility.yul\":1092:1167   */\n    tag_151:\n        /* \"#utility.yul\":1125:1131   */\n      0x00\n        /* \"#utility.yul\":1158:1160   */\n      0x40\n        /* \"#utility.yul\":1152:1161   */\n      mload\n        /* \"#utility.yul\":1142:1161   */\n      swap1\n      pop\n        /* \"#utility.yul\":1092:1167   */\n      swap1\n      jump\t// out\n        /* \"#utility.yul\":1173:1290   */\n    tag_152:\n        /* \"#utility.yul\":1282:1283   */\n      0x00\n        /* \"#utility.yul\":1279:1280   */\n      0x00\n        /* \"#utility.yul\":1272:1284   */\n      revert\n        /* \"#utility.yul\":1296:1413   */\n    tag_153:\n        /* \"#utility.yul\":1405:1406   */\n      0x00\n        /* \"#utility.yul\":1402:1403   */\n      0x00\n        /* \"#utility.yul\":1395:1407   */\n      revert\n        /* \"#utility.yul\":1419:1496   */\n    tag_154:\n        /* \"#utility.yul\":1456:1463   */\n      0x00\n        /* \"#utility.yul\":1485:1490   */\n      dup2\n        /* \"#utility.yul\":1474:1490   */\n      swap1\n      pop\n        /* \"#utility.yul\":1419:1496   */\n      swap2\n      swap1\n      pop\n      jump\t// out\n        /* \"#utility.yul\":1502:1624   */\n    tag_155:\n        /* \"#utility.yul\":1575:1599   */\n      tag_218\n        /* \"#utility.yul\":1593:1598   */\n      dup2\n        /* \"#utility.yul\":1575:1599   */\n      tag_154\n      jump\t// in\n    tag_218:\n        /* \"#utility.yul\":1568:1573   */\n      dup2\n        /* \"#utility.yul\":1565:1600   */\n      eq\n        /* \"#utility.yul\":1555:1618   */\n      tag_219\n      jumpi\n        /* \"#utility.yul\":1614:1615   */\n      0x00\n        /* \"#utility.yul\":1611:1612   */\n      0x00\n        /* \"#utility.yul\":1604:1616   */\n      revert\n        /* \"#utility.yul\":1555:1618   */\n    tag_219:\n        /* \"#utility.yul\":1502:1624   */\n      pop\n      jump\t// out\n        /* \"#utility.yul\":1630:1769   */\n    tag_156:\n        /* \"#utility.yul\":1676:1681   */\n      0x00\n        /* \"#utility.yul\":1714:1720   */\n      dup2\n        /* \"#utility.yul\":1701:1721   */\n      calldataload\n        /* \"#utility.yul\":1692:1721   */\n      swap1\n      pop\n        /* \"#utility.yul\":1730:1763   */\n      tag_221\n        /* \"#utility.yul\":1757:1762   */\n      dup2\n        /* \"#utility.yul\":1730:1763   */\n      tag_155\n      jump\t// in\n    tag_221:\n        /* \"#utility.yul\":1630:1769   */\n      swap3\n      swap2\n      pop\n      pop\n      jump\t// out\n        /* \"#utility.yul\":1775:2104   */\n    tag_33:\n        /* \"#utility.yul\":1834:1840   */\n      0x00\n        /* \"#utility.yul\":1883:1885   */\n      0x20\n        /* \"#utility.yul\":1871:1880   */\n      dup3\n        /* \"#utility.yul\":1862:1869   */\n      dup5\n        /* \"#utility.yul\":1858:1881   */\n      sub\n        /* \"#utility.yul\":1854:1886   */\n      slt\n        /* \"#utility.yul\":1851:1970   */\n      iszero\n      tag_223\n      jumpi\n        /* \"#utility.yul\":1889:1968   */\n      tag_224\n      tag_152\n      jump\t// in\n    tag_224:\n        /* \"#utility.yul\":1851:1970   */\n    tag_223:\n        /* \"#utility.yul\":2009:2010   */\n      0x00\n        /* \"#utility.yul\":2034:2087   */\n      tag_225\n        /* \"#utility.yul\":2079:2086   */\n      dup5\n        /* \"#utility.yul\":2070:2076   */\n      dup3\n        /* \"#utility.yul\":2059:2068   */\n      dup6\n        /* \"#utility.yul\":2055:2077   */\n      add\n        /* \"#utility.yul\":2034:2087   */\n      tag_156\n      jump\t// in\n    tag_225:\n        /* \"#utility.yul\":2024:2087   */\n      swap2\n      pop\n        /* \"#utility.yul\":1980:2097   */\n      pop\n        /* \"#utility.yul\":1775:2104   */\n      swap3\n      swap2\n      pop\n      pop\n      jump\t// out\n        /* \"#utility.yul\":2110:2200   */\n    tag_157:\n        /* \"#utility.yul\":2144:2151   */\n      0x00\n        /* \"#utility.yul\":2187:2192   */\n      dup2\n        /* \"#utility.yul\":2180:2193   */\n      iszero\n        /* \"#utility.yul\":2173:2194   */\n      iszero\n        /* \"#utility.yul\":2162:2194   */\n      swap1\n      pop\n        /* \"#utility.yul\":2110:2200   */\n      swap2\n      swap1\n      pop\n      jump\t// out\n        /* \"#utility.yul\":2206:2315   */\n    tag_158:\n        /* \"#utility.yul\":2287:2308   */\n      tag_228\n        /* \"#utility.yul\":2302:2307   */\n      dup2\n        /* \"#utility.yul\":2287:2308   */\n      tag_157\n      jump\t// in\n    tag_228:\n        /* \"#utility.yul\":2282:2285   */\n      dup3\n        /* \"#utility.yul\":2275:2309   */\n      mstore\n        /* \"#utility.yul\":2206:2315   */\n      pop\n      pop\n      jump\t// out\n        /* \"#utility.yul\":2321:2531   */\n    tag_46:\n        /* \"#utility.yul\":2408:2412   */\n      0x00\n        /* \"#utility.yul\":2446:2448   */\n      0x20\n        /* \"#utility.yul\":2435:2444   */\n      dup3\n        /* \"#utility.yul\":2431:2449   */\n      add\n        /* \"#utility.yul\":2423:2449   */\n      swap1\n      pop\n        /* \"#utility.yul\":2459:2524   */\n      tag_230\n        /* \"#utility.yul\":2521:2522   */\n      0x00\n        /* \"#utility.yul\":2510:2519   */\n      dup4\n        /* \"#utility.yul\":2506:2523   */\n      add\n        /* \"#utility.yul\":2497:2503   */\n      dup5\n        /* \"#utility.yul\":2459:2524   */\n      tag_158\n      jump\t// in\n    tag_230:\n        /* \"#utility.yul\":2321:2531   */\n      swap3\n      swap2\n      pop\n      pop\n      jump\t// out\n        /* \"#utility.yul\":2537:2633   */\n    tag_159:\n        /* \"#utility.yul\":2574:2581   */\n      0x00\n        /* \"#utility.yul\":2603:2627   */\n      tag_232\n        /* \"#utility.yul\":2621:2626   */\n      dup3\n        /* \"#utility.yul\":2603:2627   */\n      tag_146\n      jump\t// in\n    tag_232:\n        /* \"#utility.yul\":2592:2627   */\n      swap1\n      pop\n        /* \"#utility.yul\":2537:2633   */\n      swap2\n      swap1\n      pop\n      jump\t// out\n        /* \"#utility.yul\":2639:2757   */\n    tag_160:\n        /* \"#utility.yul\":2726:2750   */\n      tag_234\n        /* \"#utility.yul\":2744:2749   */\n      dup2\n        /* \"#utility.yul\":2726:2750   */\n      tag_159\n      jump\t// in\n    tag_234:\n        /* \"#utility.yul\":2721:2724   */\n      dup3\n        /* \"#utility.yul\":2714:2751   */\n      mstore\n        /* \"#utility.yul\":2639:2757   */\n      pop\n      pop\n      jump\t// out\n        /* \"#utility.yul\":2763:2985   */\n    tag_51:\n        /* \"#utility.yul\":2856:2860   */\n      0x00\n        /* \"#utility.yul\":2894:2896   */\n      0x20\n        /* \"#utility.yul\":2883:2892   */\n      dup3\n        /* \"#utility.yul\":2879:2897   */\n      add\n        /* \"#utility.yul\":2871:2897   */\n      swap1\n      pop\n        /* \"#utility.yul\":2907:2978   */\n      tag_236\n        /* \"#utility.yul\":2975:2976   */\n      0x00\n        /* \"#utility.yul\":2964:2973   */\n      dup4\n        /* \"#utility.yul\":2960:2977   */\n      add\n        /* \"#utility.yul\":2951:2957   */\n      dup5\n        /* \"#utility.yul\":2907:2978   */\n      tag_160\n      jump\t// in\n    tag_236:\n        /* \"#utility.yul\":2763:2985   */\n      swap3\n      swap2\n      pop\n      pop\n      jump\t// out\n        /* \"#utility.yul\":2991:3113   */\n    tag_161:\n        /* \"#utility.yul\":3064:3088   */\n      tag_238\n        /* \"#utility.yul\":3082:3087   */\n      dup2\n        /* \"#utility.yul\":3064:3088   */\n      tag_149\n      jump\t// in\n    tag_238:\n        /* \"#utility.yul\":3057:3062   */\n      dup2\n        /* \"#utility.yul\":3054:3089   */\n      eq\n        /* \"#utility.yul\":3044:3107   */\n      tag_239\n      jumpi\n        /* \"#utility.yul\":3103:3104   */\n      0x00\n        /* \"#utility.yul\":3100:3101   */\n      0x00\n        /* \"#utility.yul\":3093:3105   */\n      revert\n        /* \"#utility.yul\":3044:3107   */\n    tag_239:\n        /* \"#utility.yul\":2991:3113   */\n      pop\n      jump\t// out\n        /* \"#utility.yul\":3119:3258   */\n    tag_162:\n        /* \"#utility.yul\":3165:3170   */\n      0x00\n        /* \"#utility.yul\":3203:3209   */\n      dup2\n        /* \"#utility.yul\":3190:3210   */\n      calldataload\n        /* \"#utility.yul\":3181:3210   */\n      swap1\n      pop\n        /* \"#utility.yul\":3219:3252   */\n      tag_241\n        /* \"#utility.yul\":3246:3251   */\n      dup2\n        /* \"#utility.yul\":3219:3252   */\n      tag_161\n      jump\t// in\n    tag_241:\n        /* \"#utility.yul\":3119:3258   */\n      swap3\n      swap2\n      pop\n      pop\n      jump\t// out\n        /* \"#utility.yul\":3264:3381   */\n    tag_163:\n        /* \"#utility.yul\":3373:3374   */\n      0x00\n        /* \"#utility.yul\":3370:3371   */\n      0x00\n        /* \"#utility.yul\":3363:3375   */\n      revert\n        /* \"#utility.yul\":3387:3504   */\n    tag_164:\n        /* \"#utility.yul\":3496:3497   */\n      0x00\n        /* \"#utility.yul\":3493:3494   */\n      0x00\n        /* \"#utility.yul\":3486:3498   */\n      revert\n        /* \"#utility.yul\":3510:3612   */\n    tag_165:\n        /* \"#utility.yul\":3551:3557   */\n      0x00\n        /* \"#utility.yul\":3602:3604   */\n      0x1f\n        /* \"#utility.yul\":3598:3605   */\n      not\n        /* \"#utility.yul\":3593:3595   */\n      0x1f\n        /* \"#utility.yul\":3586:3591   */\n      dup4\n        /* \"#utility.yul\":3582:3596   */\n      add\n        /* \"#utility.yul\":3578:3606   */\n      and\n        /* \"#utility.yul\":3568:3606   */\n      swap1\n      pop\n        /* \"#utility.yul\":3510:3612   */\n      swap2\n      swap1\n      pop\n      jump\t// out\n        /* \"#utility.yul\":3618:3798   */\n    tag_166:\n        /* \"#utility.yul\":3666:3743   */\n      0x4e487b7100000000000000000000000000000000000000000000000000000000\n        /* \"#utility.yul\":3663:3664   */\n      0x00\n        /* \"#utility.yul\":3656:3744   */\n      mstore\n        /* \"#utility.yul\":3763:3767   */\n      0x41\n        /* \"#utility.yul\":3760:3761   */\n      0x04\n        /* \"#utility.yul\":3753:3768   */\n      mstore\n        /* \"#utility.yul\":3787:3791   */\n      0x24\n        /* \"#utility.yul\":3784:3785   */\n      0x00\n        /* \"#utility.yul\":3777:3792   */\n      revert\n        /* \"#utility.yul\":3804:4085   */\n    tag_167:\n        /* \"#utility.yul\":3887:3914   */\n      tag_247\n        /* \"#utility.yul\":3909:3913   */\n      dup3\n        /* \"#utility.yul\":3887:3914   */\n      tag_165\n      jump\t// in\n    tag_247:\n        /* \"#utility.yul\":3879:3885   */\n      dup2\n        /* \"#utility.yul\":3875:3915   */\n      add\n        /* \"#utility.yul\":4017:4023   */\n      dup2\n        /* \"#utility.yul\":4005:4015   */\n      dup2\n        /* \"#utility.yul\":4002:4024   */\n      lt\n        /* \"#utility.yul\":3981:3999   */\n      0xffffffffffffffff\n        /* \"#utility.yul\":3969:3979   */\n      dup3\n        /* \"#utility.yul\":3966:4000   */\n      gt\n        /* \"#utility.yul\":3963:4025   */\n      or\n        /* \"#utility.yul\":3960:4048   */\n      iszero\n      tag_248\n      jumpi\n        /* \"#utility.yul\":4028:4046   */\n      tag_249\n      tag_166\n      jump\t// in\n    tag_249:\n        /* \"#utility.yul\":3960:4048   */\n    tag_248:\n        /* \"#utility.yul\":4068:4078   */\n      dup1\n        /* \"#utility.yul\":4064:4066   */\n      0x40\n        /* \"#utility.yul\":4057:4079   */\n      mstore\n        /* \"#utility.yul\":3847:4085   */\n      pop\n        /* \"#utility.yul\":3804:4085   */\n      pop\n      pop\n      jump\t// out\n        /* \"#utility.yul\":4091:4220   */\n    tag_168:\n        /* \"#utility.yul\":4125:4131   */\n      0x00\n        /* \"#utility.yul\":4152:4172   */\n      tag_251\n      tag_151\n      jump\t// in\n    tag_251:\n        /* \"#utility.yul\":4142:4172   */\n      swap1\n      pop\n        /* \"#utility.yul\":4181:4214   */\n      tag_252\n        /* \"#utility.yul\":4209:4213   */\n      dup3\n        /* \"#utility.yul\":4201:4207   */\n      dup3\n        /* \"#utility.yul\":4181:4214   */\n      tag_167\n      jump\t// in\n    tag_252:\n        /* \"#utility.yul\":4091:4220   */\n      swap2\n      swap1\n      pop\n      jump\t// out\n        /* \"#utility.yul\":4226:4534   */\n    tag_169:\n        /* \"#utility.yul\":4288:4292   */\n      0x00\n        /* \"#utility.yul\":4378:4396   */\n      0xffffffffffffffff\n        /* \"#utility.yul\":4370:4376   */\n      dup3\n        /* \"#utility.yul\":4367:4397   */\n      gt\n        /* \"#utility.yul\":4364:4420   */\n      iszero\n      tag_254\n      jumpi\n        /* \"#utility.yul\":4400:4418   */\n      tag_255\n      tag_166\n      jump\t// in\n    tag_255:\n        /* \"#utility.yul\":4364:4420   */\n    tag_254:\n        /* \"#utility.yul\":4438:4467   */\n      tag_256\n        /* \"#utility.yul\":4460:4466   */\n      dup3\n        /* \"#utility.yul\":4438:4467   */\n      tag_165\n      jump\t// in\n    tag_256:\n        /* \"#utility.yul\":4430:4467   */\n      swap1\n      pop\n        /* \"#utility.yul\":4522:4526   */\n      0x20\n        /* \"#utility.yul\":4516:4520   */\n      dup2\n        /* \"#utility.yul\":4512:4527   */\n      add\n        /* \"#utility.yul\":4504:4527   */\n      swap1\n      pop\n        /* \"#utility.yul\":4226:4534   */\n      swap2\n      swap1\n      pop\n      jump\t// out\n        /* \"#utility.yul\":4540:4688   */\n    tag_170:\n        /* \"#utility.yul\":4638:4644   */\n      dup3\n        /* \"#utility.yul\":4633:4636   */\n      dup2\n        /* \"#utility.yul\":4628:4631   */\n      dup4\n        /* \"#utility.yul\":4615:4645   */\n      calldatacopy\n        /* \"#utility.yul\":4679:4680   */\n      0x00\n        /* \"#utility.yul\":4670:4676   */\n      dup4\n        /* \"#utility.yul\":4665:4668   */\n      dup4\n        /* \"#utility.yul\":4661:4677   */\n      add\n        /* \"#utility.yul\":4654:4681   */\n      mstore\n        /* \"#utility.yul\":4540:4688   */\n      pop\n      pop\n      pop\n      jump\t// out\n        /* \"#utility.yul\":4694:5119   */\n    tag_171:\n        /* \"#utility.yul\":4772:4777   */\n      0x00\n        /* \"#utility.yul\":4797:4863   */\n      tag_259\n        /* \"#utility.yul\":4813:4862   */\n      tag_260\n        /* \"#utility.yul\":4855:4861   */\n      dup5\n        /* \"#utility.yul\":4813:4862   */\n      tag_169\n      jump\t// in\n    tag_260:\n        /* \"#utility.yul\":4797:4863   */\n      tag_168\n      jump\t// in\n    tag_259:\n        /* \"#utility.yul\":4788:4863   */\n      swap1\n      pop\n        /* \"#utility.yul\":4886:4892   */\n      dup3\n        /* \"#utility.yul\":4879:4884   */\n      dup2\n        /* \"#utility.yul\":4872:4893   */\n      mstore\n        /* \"#utility.yul\":4924:4928   */\n      0x20\n        /* \"#utility.yul\":4917:4922   */\n      dup2\n        /* \"#utility.yul\":4913:4929   */\n      add\n        /* \"#utility.yul\":4962:4965   */\n      dup5\n        /* \"#utility.yul\":4953:4959   */\n      dup5\n        /* \"#utility.yul\":4948:4951   */\n      dup5\n        /* \"#utility.yul\":4944:4960   */\n      add\n        /* \"#utility.yul\":4941:4966   */\n      gt\n        /* \"#utility.yul\":4938:5050   */\n      iszero\n      tag_261\n      jumpi\n        /* \"#utility.yul\":4969:5048   */\n      tag_262\n      tag_164\n      jump\t// in\n    tag_262:\n        /* \"#utility.yul\":4938:5050   */\n    tag_261:\n        /* \"#utility.yul\":5059:5113   */\n      tag_263\n        /* \"#utility.yul\":5106:5112   */\n      dup5\n        /* \"#utility.yul\":5101:5104   */\n      dup3\n        /* \"#utility.yul\":5096:5099   */\n      dup6\n        /* \"#utility.yul\":5059:5113   */\n      tag_170\n      jump\t// in\n    tag_263:\n        /* \"#utility.yul\":4778:5119   */\n      pop\n        /* \"#utility.yul\":4694:5119   */\n      swap4\n      swap3\n      pop\n      pop\n      pop\n      jump\t// out\n        /* \"#utility.yul\":5139:5479   */\n    tag_172:\n        /* \"#utility.yul\":5195:5200   */\n      0x00\n        /* \"#utility.yul\":5244:5247   */\n      dup3\n        /* \"#utility.yul\":5237:5241   */\n      0x1f\n        /* \"#utility.yul\":5229:5235   */\n      dup4\n        /* \"#utility.yul\":5225:5242   */\n      add\n        /* \"#utility.yul\":5221:5248   */\n      slt\n        /* \"#utility.yul\":5211:5333   */\n      tag_265\n      jumpi\n        /* \"#utility.yul\":5252:5331   */\n      tag_266\n      tag_163\n      jump\t// in\n    tag_266:\n        /* \"#utility.yul\":5211:5333   */\n    tag_265:\n        /* \"#utility.yul\":5369:5375   */\n      dup2\n        /* \"#utility.yul\":5356:5376   */\n      calldataload\n        /* \"#utility.yul\":5394:5473   */\n      tag_267\n        /* \"#utility.yul\":5469:5472   */\n      dup5\n        /* \"#utility.yul\":5461:5467   */\n      dup3\n        /* \"#utility.yul\":5454:5458   */\n      0x20\n        /* \"#utility.yul\":5446:5452   */\n      dup7\n        /* \"#utility.yul\":5442:5459   */\n      add\n        /* \"#utility.yul\":5394:5473   */\n      tag_171\n      jump\t// in\n    tag_267:\n        /* \"#utility.yul\":5385:5473   */\n      swap2\n      pop\n        /* \"#utility.yul\":5201:5479   */\n      pop\n        /* \"#utility.yul\":5139:5479   */\n      swap3\n      swap2\n      pop\n      pop\n      jump\t// out\n        /* \"#utility.yul\":5485:6139   */\n    tag_54:\n        /* \"#utility.yul\":5563:5569   */\n      0x00\n        /* \"#utility.yul\":5571:5577   */\n      0x00\n        /* \"#utility.yul\":5620:5622   */\n      0x40\n        /* \"#utility.yul\":5608:5617   */\n      dup4\n        /* \"#utility.yul\":5599:5606   */\n      dup6\n        /* \"#utility.yul\":5595:5618   */\n      sub\n        /* \"#utility.yul\":5591:5623   */\n      slt\n        /* \"#utility.yul\":5588:5707   */\n      iszero\n      tag_269\n      jumpi\n        /* \"#utility.yul\":5626:5705   */\n      tag_270\n      tag_152\n      jump\t// in\n    tag_270:\n        /* \"#utility.yul\":5588:5707   */\n    tag_269:\n        /* \"#utility.yul\":5746:5747   */\n      0x00\n        /* \"#utility.yul\":5771:5824   */\n      tag_271\n        /* \"#utility.yul\":5816:5823   */\n      dup6\n        /* \"#utility.yul\":5807:5813   */\n      dup3\n        /* \"#utility.yul\":5796:5805   */\n      dup7\n        /* \"#utility.yul\":5792:5814   */\n      add\n        /* \"#utility.yul\":5771:5824   */\n      tag_162\n      jump\t// in\n    tag_271:\n        /* \"#utility.yul\":5761:5824   */\n      swap3\n      pop\n        /* \"#utility.yul\":5717:5834   */\n      pop\n        /* \"#utility.yul\":5901:5903   */\n      0x20\n        /* \"#utility.yul\":5890:5899   */\n      dup4\n        /* \"#utility.yul\":5886:5904   */\n      add\n        /* \"#utility.yul\":5873:5905   */\n      calldataload\n        /* \"#utility.yul\":5932:5950   */\n      0xffffffffffffffff\n        /* \"#utility.yul\":5924:5930   */\n      dup2\n        /* \"#utility.yul\":5921:5951   */\n      gt\n        /* \"#utility.yul\":5918:6035   */\n      iszero\n      tag_272\n      jumpi\n        /* \"#utility.yul\":5954:6033   */\n      tag_273\n      tag_153\n      jump\t// in\n    tag_273:\n        /* \"#utility.yul\":5918:6035   */\n    tag_272:\n        /* \"#utility.yul\":6059:6122   */\n      tag_274\n        /* \"#utility.yul\":6114:6121   */\n      dup6\n        /* \"#utility.yul\":6105:6111   */\n      dup3\n        /* \"#utility.yul\":6094:6103   */\n      dup7\n        /* \"#utility.yul\":6090:6112   */\n      add\n        /* \"#utility.yul\":6059:6122   */\n      tag_172\n      jump\t// in\n    tag_274:\n        /* \"#utility.yul\":6049:6122   */\n      swap2\n      pop\n        /* \"#utility.yul\":5844:6132   */\n      pop\n        /* \"#utility.yul\":5485:6139   */\n      swap3\n      pop\n      swap3\n      swap1\n      pop\n      jump\t// out\n        /* \"#utility.yul\":6145:6267   */\n    tag_173:\n        /* \"#utility.yul\":6218:6242   */\n      tag_276\n        /* \"#utility.yul\":6236:6241   */\n      dup2\n        /* \"#utility.yul\":6218:6242   */\n      tag_159\n      jump\t// in\n    tag_276:\n        /* \"#utility.yul\":6211:6216   */\n      dup2\n        /* \"#utility.yul\":6208:6243   */\n      eq\n        /* \"#utility.yul\":6198:6261   */\n      tag_277\n      jumpi\n        /* \"#utility.yul\":6257:6258   */\n      0x00\n        /* \"#utility.yul\":6254:6255   */\n      0x00\n        /* \"#utility.yul\":6247:6259   */\n      revert\n        /* \"#utility.yul\":6198:6261   */\n    tag_277:\n        /* \"#utility.yul\":6145:6267   */\n      pop\n      jump\t// out\n        /* \"#utility.yul\":6273:6412   */\n    tag_174:\n        /* \"#utility.yul\":6319:6324   */\n      0x00\n        /* \"#utility.yul\":6357:6363   */\n      dup2\n        /* \"#utility.yul\":6344:6364   */\n      calldataload\n        /* \"#utility.yul\":6335:6364   */\n      swap1\n      pop\n        /* \"#utility.yul\":6373:6406   */\n      tag_279\n        /* \"#utility.yul\":6400:6405   */\n      dup2\n        /* \"#utility.yul\":6373:6406   */\n      tag_173\n      jump\t// in\n    tag_279:\n        /* \"#utility.yul\":6273:6412   */\n      swap3\n      swap2\n      pop\n      pop\n      jump\t// out\n        /* \"#utility.yul\":6418:6747   */\n    tag_63:\n        /* \"#utility.yul\":6477:6483   */\n      0x00\n        /* \"#utility.yul\":6526:6528   */\n      0x20\n        /* \"#utility.yul\":6514:6523   */\n      dup3\n        /* \"#utility.yul\":6505:6512   */\n      dup5\n        /* \"#utility.yul\":6501:6524   */\n      sub\n        /* \"#utility.yul\":6497:6529   */\n      slt\n        /* \"#utility.yul\":6494:6613   */\n      iszero\n      tag_281\n      jumpi\n        /* \"#utility.yul\":6532:6611   */\n      tag_282\n      tag_152\n      jump\t// in\n    tag_282:\n        /* \"#utility.yul\":6494:6613   */\n    tag_281:\n        /* \"#utility.yul\":6652:6653   */\n      0x00\n        /* \"#utility.yul\":6677:6730   */\n      tag_283\n        /* \"#utility.yul\":6722:6729   */\n      dup5\n        /* \"#utility.yul\":6713:6719   */\n      dup3\n        /* \"#utility.yul\":6702:6711   */\n      dup6\n        /* \"#utility.yul\":6698:6720   */\n      add\n        /* \"#utility.yul\":6677:6730   */\n      tag_174\n      jump\t// in\n    tag_283:\n        /* \"#utility.yul\":6667:6730   */\n      swap2\n      pop\n        /* \"#utility.yul\":6623:6740   */\n      pop\n        /* \"#utility.yul\":6418:6747   */\n      swap3\n      swap2\n      pop\n      pop\n      jump\t// out\n        /* \"#utility.yul\":6753:6871   */\n    tag_175:\n        /* \"#utility.yul\":6840:6864   */\n      tag_285\n        /* \"#utility.yul\":6858:6863   */\n      dup2\n        /* \"#utility.yul\":6840:6864   */\n      tag_154\n      jump\t// in\n    tag_285:\n        /* \"#utility.yul\":6835:6838   */\n      dup3\n        /* \"#utility.yul\":6828:6865   */\n      mstore\n        /* \"#utility.yul\":6753:6871   */\n      pop\n      pop\n      jump\t// out\n        /* \"#utility.yul\":6877:7099   */\n    tag_66:\n        /* \"#utility.yul\":6970:6974   */\n      0x00\n        /* \"#utility.yul\":7008:7010   */\n      0x20\n        /* \"#utility.yul\":6997:7006   */\n      dup3\n        /* \"#utility.yul\":6993:7011   */\n      add\n        /* \"#utility.yul\":6985:7011   */\n      swap1\n      pop\n        /* \"#utility.yul\":7021:7092   */\n      tag_287\n        /* \"#utility.yul\":7089:7090   */\n      0x00\n        /* \"#utility.yul\":7078:7087   */\n      dup4\n        /* \"#utility.yul\":7074:7091   */\n      add\n        /* \"#utility.yul\":7065:7071   */\n      dup5\n        /* \"#utility.yul\":7021:7092   */\n      tag_175\n      jump\t// in\n    tag_287:\n        /* \"#utility.yul\":6877:7099   */\n      swap3\n      swap2\n      pop\n      pop\n      jump\t// out\n        /* \"#utility.yul\":7105:7434   */\n    tag_75:\n        /* \"#utility.yul\":7164:7170   */\n      0x00\n        /* \"#utility.yul\":7213:7215   */\n      0x20\n        /* \"#utility.yul\":7201:7210   */\n      dup3\n        /* \"#utility.yul\":7192:7199   */\n      dup5\n        /* \"#utility.yul\":7188:7211   */\n      sub\n        /* \"#utility.yul\":7184:7216   */\n      slt\n        /* \"#utility.yul\":7181:7300   */\n      iszero\n      tag_289\n      jumpi\n        /* \"#utility.yul\":7219:7298   */\n      tag_290\n      tag_152\n      jump\t// in\n    tag_290:\n        /* \"#utility.yul\":7181:7300   */\n    tag_289:\n        /* \"#utility.yul\":7339:7340   */\n      0x00\n        /* \"#utility.yul\":7364:7417   */\n      tag_291\n        /* \"#utility.yul\":7409:7416   */\n      dup5\n        /* \"#utility.yul\":7400:7406   */\n      dup3\n        /* \"#utility.yul\":7389:7398   */\n      dup6\n        /* \"#utility.yul\":7385:7407   */\n      add\n        /* \"#utility.yul\":7364:7417   */\n      tag_162\n      jump\t// in\n    tag_291:\n        /* \"#utility.yul\":7354:7417   */\n      swap2\n      pop\n        /* \"#utility.yul\":7310:7427   */\n      pop\n        /* \"#utility.yul\":7105:7434   */\n      swap3\n      swap2\n      pop\n      pop\n      jump\t// out\n        /* \"#utility.yul\":7440:7620   */\n    tag_176:\n        /* \"#utility.yul\":7488:7565   */\n      0x4e487b7100000000000000000000000000000000000000000000000000000000\n        /* \"#utility.yul\":7485:7486   */\n      0x00\n        /* \"#utility.yul\":7478:7566   */\n      mstore\n        /* \"#utility.yul\":7585:7589   */\n      0x11\n        /* \"#utility.yul\":7582:7583   */\n      0x04\n        /* \"#utility.yul\":7575:7590   */\n      mstore\n        /* \"#utility.yul\":7609:7613   */\n      0x24\n        /* \"#utility.yul\":7606:7607   */\n      0x00\n        /* \"#utility.yul\":7599:7614   */\n      revert\n        /* \"#utility.yul\":7626:7820   */\n    tag_95:\n        /* \"#utility.yul\":7666:7670   */\n      0x00\n        /* \"#utility.yul\":7686:7706   */\n      tag_294\n        /* \"#utility.yul\":7704:7705   */\n      dup3\n        /* \"#utility.yul\":7686:7706   */\n      tag_149\n      jump\t// in\n    tag_294:\n        /* \"#utility.yul\":7681:7706   */\n      swap2\n      pop\n        /* \"#utility.yul\":7720:7740   */\n      tag_295\n        /* \"#utility.yul\":7738:7739   */\n      dup4\n        /* \"#utility.yul\":7720:7740   */\n      tag_149\n      jump\t// in\n    tag_295:\n        /* \"#utility.yul\":7715:7740   */\n      swap3\n      pop\n        /* \"#utility.yul\":7764:7765   */\n      dup3\n        /* \"#utility.yul\":7761:7762   */\n      dup3\n        /* \"#utility.yul\":7757:7766   */\n      sub\n        /* \"#utility.yul\":7749:7766   */\n      swap1\n      pop\n        /* \"#utility.yul\":7788:7789   */\n      dup2\n        /* \"#utility.yul\":7782:7786   */\n      dup2\n        /* \"#utility.yul\":7779:7790   */\n      gt\n        /* \"#utility.yul\":7776:7813   */\n      iszero\n      tag_296\n      jumpi\n        /* \"#utility.yul\":7793:7811   */\n      tag_297\n      tag_176\n      jump\t// in\n    tag_297:\n        /* \"#utility.yul\":7776:7813   */\n    tag_296:\n        /* \"#utility.yul\":7626:7820   */\n      swap3\n      swap2\n      pop\n      pop\n      jump\t// out\n        /* \"#utility.yul\":7826:7995   */\n    tag_177:\n        /* \"#utility.yul\":7910:7921   */\n      0x00\n        /* \"#utility.yul\":7944:7950   */\n      dup3\n        /* \"#utility.yul\":7939:7942   */\n      dup3\n        /* \"#utility.yul\":7932:7951   */\n      mstore\n        /* \"#utility.yul\":7984:7988   */\n      0x20\n        /* \"#utility.yul\":7979:7982   */\n      dup3\n        /* \"#utility.yul\":7975:7989   */\n      add\n        /* \"#utility.yul\":7960:7989   */\n      swap1\n      pop\n        /* \"#utility.yul\":7826:7995   */\n      swap3\n      swap2\n      pop\n      pop\n      jump\t// out\n        /* \"#utility.yul\":8001:8170   */\n    tag_178:\n        /* \"#utility.yul\":8141:8162   */\n      0x436f6d6d697420706861736520656e6465642e00000000000000000000000000\n        /* \"#utility.yul\":8137:8138   */\n      0x00\n        /* \"#utility.yul\":8129:8135   */\n      dup3\n        /* \"#utility.yul\":8125:8139   */\n      add\n        /* \"#utility.yul\":8118:8163   */\n      mstore\n        /* \"#utility.yul\":8001:8170   */\n      pop\n      jump\t// out\n        /* \"#utility.yul\":8176:8542   */\n    tag_179:\n        /* \"#utility.yul\":8318:8321   */\n      0x00\n        /* \"#utility.yul\":8339:8406   */\n      tag_301\n        /* \"#utility.yul\":8403:8405   */\n      0x13\n        /* \"#utility.yul\":8398:8401   */\n      dup4\n        /* \"#utility.yul\":8339:8406   */\n      tag_177\n      jump\t// in\n    tag_301:\n        /* \"#utility.yul\":8332:8406   */\n      swap2\n      pop\n        /* \"#utility.yul\":8415:8508   */\n      tag_302\n        /* \"#utility.yul\":8504:8507   */\n      dup3\n        /* \"#utility.yul\":8415:8508   */\n      tag_178\n      jump\t// in\n    tag_302:\n        /* \"#utility.yul\":8533:8535   */\n      0x20\n        /* \"#utility.yul\":8528:8531   */\n      dup3\n        /* \"#utility.yul\":8524:8536   */\n      add\n        /* \"#utility.yul\":8517:8536   */\n      swap1\n      pop\n        /* \"#utility.yul\":8176:8542   */\n      swap2\n      swap1\n      pop\n      jump\t// out\n        /* \"#utility.yul\":8548:8967   */\n    tag_100:\n        /* \"#utility.yul\":8714:8718   */\n      0x00\n        /* \"#utility.yul\":8752:8754   */\n      0x20\n        /* \"#utility.yul\":8741:8750   */\n      dup3\n        /* \"#utility.yul\":8737:8755   */\n      add\n        /* \"#utility.yul\":8729:8755   */\n      swap1\n      pop\n        /* \"#utility.yul\":8801:8810   */\n      dup2\n        /* \"#utility.yul\":8795:8799   */\n      dup2\n        /* \"#utility.yul\":8791:8811   */\n      sub\n        /* \"#utility.yul\":8787:8788   */\n      0x00\n        /* \"#utility.yul\":8776:8785   */\n      dup4\n        /* \"#utility.yul\":8772:8789   */\n      add\n        /* \"#utility.yul\":8765:8812   */\n      mstore\n        /* \"#utility.yul\":8829:8960   */\n      tag_304\n        /* \"#utility.yul\":8955:8959   */\n      dup2\n        /* \"#utility.yul\":8829:8960   */\n      tag_179\n      jump\t// in\n    tag_304:\n        /* \"#utility.yul\":8821:8960   */\n      swap1\n      pop\n        /* \"#utility.yul\":8548:8967   */\n      swap2\n      swap1\n      pop\n      jump\t// out\n        /* \"#utility.yul\":8973:9141   */\n    tag_180:\n        /* \"#utility.yul\":9113:9133   */\n      0x416c726561647920636f6d6d69747465642e0000000000000000000000000000\n        /* \"#utility.yul\":9109:9110   */\n      0x00\n        /* \"#utility.yul\":9101:9107   */\n      dup3\n        /* \"#utility.yul\":9097:9111   */\n      add\n        /* \"#utility.yul\":9090:9134   */\n      mstore\n        /* \"#utility.yul\":8973:9141   */\n      pop\n      jump\t// out\n        /* \"#utility.yul\":9147:9513   */\n    tag_181:\n        /* \"#utility.yul\":9289:9292   */\n      0x00\n        /* \"#utility.yul\":9310:9377   */\n      tag_307\n        /* \"#utility.yul\":9374:9376   */\n      0x12\n        /* \"#utility.yul\":9369:9372   */\n      dup4\n        /* \"#utility.yul\":9310:9377   */\n      tag_177\n      jump\t// in\n    tag_307:\n        /* \"#utility.yul\":9303:9377   */\n      swap2\n      pop\n        /* \"#utility.yul\":9386:9479   */\n      tag_308\n        /* \"#utility.yul\":9475:9478   */\n      dup3\n        /* \"#utility.yul\":9386:9479   */\n      tag_180\n      jump\t// in\n    tag_308:\n        /* \"#utility.yul\":9504:9506   */\n      0x20\n        /* \"#utility.yul\":9499:9502   */\n      dup3\n        /* \"#utility.yul\":9495:9507   */\n      add\n        /* \"#utility.yul\":9488:9507   */\n      swap1\n      pop\n        /* \"#utility.yul\":9147:9513   */\n      swap2\n      swap1\n      pop\n      jump\t// out\n        /* \"#utility.yul\":9519:9938   */\n    tag_103:\n        /* \"#utility.yul\":9685:9689   */\n      0x00\n        /* \"#utility.yul\":9723:9725   */\n      0x20\n        /* \"#utility.yul\":9712:9721   */\n      dup3\n        /* \"#utility.yul\":9708:9726   */\n      add\n        /* \"#utility.yul\":9700:9726   */\n      swap1\n      pop\n        /* \"#utility.yul\":9772:9781   */\n      dup2\n        /* \"#utility.yul\":9766:9770   */\n      dup2\n        /* \"#utility.yul\":9762:9782   */\n      sub\n        /* \"#utility.yul\":9758:9759   */\n      0x00\n        /* \"#utility.yul\":9747:9756   */\n      dup4\n        /* \"#utility.yul\":9743:9760   */\n      add\n        /* \"#utility.yul\":9736:9783   */\n      mstore\n        /* \"#utility.yul\":9800:9931   */\n      tag_310\n        /* \"#utility.yul\":9926:9930   */\n      dup2\n        /* \"#utility.yul\":9800:9931   */\n      tag_181\n      jump\t// in\n    tag_310:\n        /* \"#utility.yul\":9792:9931   */\n      swap1\n      pop\n        /* \"#utility.yul\":9519:9938   */\n      swap2\n      swap1\n      pop\n      jump\t// out\n        /* \"#utility.yul\":9944:10121   */\n    tag_182:\n        /* \"#utility.yul\":10084:10113   */\n      0x52657665616c207068617365206e6f742079657420656e6465642e0000000000\n        /* \"#utility.yul\":10080:10081   */\n      0x00\n        /* \"#utility.yul\":10072:10078   */\n      dup3\n        /* \"#utility.yul\":10068:10082   */\n      add\n        /* \"#utility.yul\":10061:10114   */\n      mstore\n        /* \"#utility.yul\":9944:10121   */\n      pop\n      jump\t// out\n        /* \"#utility.yul\":10127:10493   */\n    tag_183:\n        /* \"#utility.yul\":10269:10272   */\n      0x00\n        /* \"#utility.yul\":10290:10357   */\n      tag_313\n        /* \"#utility.yul\":10354:10356   */\n      0x1b\n        /* \"#utility.yul\":10349:10352   */\n      dup4\n        /* \"#utility.yul\":10290:10357   */\n      tag_177\n      jump\t// in\n    tag_313:\n        /* \"#utility.yul\":10283:10357   */\n      swap2\n      pop\n        /* \"#utility.yul\":10366:10459   */\n      tag_314\n        /* \"#utility.yul\":10455:10458   */\n      dup3\n        /* \"#utility.yul\":10366:10459   */\n      tag_182\n      jump\t// in\n    tag_314:\n        /* \"#utility.yul\":10484:10486   */\n      0x20\n        /* \"#utility.yul\":10479:10482   */\n      dup3\n        /* \"#utility.yul\":10475:10487   */\n      add\n        /* \"#utility.yul\":10468:10487   */\n      swap1\n      pop\n        /* \"#utility.yul\":10127:10493   */\n      swap2\n      swap1\n      pop\n      jump\t// out\n        /* \"#utility.yul\":10499:10918   */\n    tag_108:\n        /* \"#utility.yul\":10665:10669   */\n      0x00\n        /* \"#utility.yul\":10703:10705   */\n      0x20\n        /* \"#utility.yul\":10692:10701   */\n      dup3\n        /* \"#utility.yul\":10688:10706   */\n      add\n        /* \"#utility.yul\":10680:10706   */\n      swap1\n      pop\n        /* \"#utility.yul\":10752:10761   */\n      dup2\n        /* \"#utility.yul\":10746:10750   */\n      dup2\n        /* \"#utility.yul\":10742:10762   */\n      sub\n        /* \"#utility.yul\":10738:10739   */\n      0x00\n        /* \"#utility.yul\":10727:10736   */\n      dup4\n        /* \"#utility.yul\":10723:10740   */\n      add\n        /* \"#utility.yul\":10716:10763   */\n      mstore\n        /* \"#utility.yul\":10780:10911   */\n      tag_316\n        /* \"#utility.yul\":10906:10910   */\n      dup2\n        /* \"#utility.yul\":10780:10911   */\n      tag_183\n      jump\t// in\n    tag_316:\n        /* \"#utility.yul\":10772:10911   */\n      swap1\n      pop\n        /* \"#utility.yul\":10499:10918   */\n      swap2\n      swap1\n      pop\n      jump\t// out\n        /* \"#utility.yul\":10924:11100   */\n    tag_184:\n        /* \"#utility.yul\":11064:11092   */\n      0x41756374696f6e20616c72656164792066696e616c697a65642e000000000000\n        /* \"#utility.yul\":11060:11061   */\n      0x00\n        /* \"#utility.yul\":11052:11058   */\n      dup3\n        /* \"#utility.yul\":11048:11062   */\n      add\n        /* \"#utility.yul\":11041:11093   */\n      mstore\n        /* \"#utility.yul\":10924:11100   */\n      pop\n      jump\t// out\n        /* \"#utility.yul\":11106:11472   */\n    tag_185:\n        /* \"#utility.yul\":11248:11251   */\n      0x00\n        /* \"#utility.yul\":11269:11336   */\n      tag_319\n        /* \"#utility.yul\":11333:11335   */\n      0x1a\n        /* \"#utility.yul\":11328:11331   */\n      dup4\n        /* \"#utility.yul\":11269:11336   */\n      tag_177\n      jump\t// in\n    tag_319:\n        /* \"#utility.yul\":11262:11336   */\n      swap2\n      pop\n        /* \"#utility.yul\":11345:11438   */\n      tag_320\n        /* \"#utility.yul\":11434:11437   */\n      dup3\n        /* \"#utility.yul\":11345:11438   */\n      tag_184\n      jump\t// in\n    tag_320:\n        /* \"#utility.yul\":11463:11465   */\n      0x20\n        /* \"#utility.yul\":11458:11461   */\n      dup3\n        /* \"#utility.yul\":11454:11466   */\n      add\n        /* \"#utility.yul\":11447:11466   */\n      swap1\n      pop\n        /* \"#utility.yul\":11106:11472   */\n      swap2\n      swap1\n      pop\n      jump\t// out\n        /* \"#utility.yul\":11478:11897   */\n    tag_111:\n        /* \"#utility.yul\":11644:11648   */\n      0x00\n        /* \"#utility.yul\":11682:11684   */\n      0x20\n        /* \"#utility.yul\":11671:11680   */\n      dup3\n        /* \"#utility.yul\":11667:11685   */\n      add\n        /* \"#utility.yul\":11659:11685   */\n      swap1\n      pop\n        /* \"#utility.yul\":11731:11740   */\n      dup2\n        /* \"#utility.yul\":11725:11729   */\n      dup2\n        /* \"#utility.yul\":11721:11741   */\n      sub\n        /* \"#utility.yul\":11717:11718   */\n      0x00\n        /* \"#utility.yul\":11706:11715   */\n      dup4\n        /* \"#utility.yul\":11702:11719   */\n      add\n        /* \"#utility.yul\":11695:11742   */\n      mstore\n        /* \"#utility.yul\":11759:11890   */\n      tag_322\n        /* \"#utility.yul\":11885:11889   */\n      dup2\n        /* \"#utility.yul\":11759:11890   */\n      tag_185\n      jump\t// in\n    tag_322:\n        /* \"#utility.yul\":11751:11890   */\n      swap1\n      pop\n        /* \"#utility.yul\":11478:11897   */\n      swap2\n      swap1\n      pop\n      jump\t// out\n        /* \"#utility.yul\":11903:12073   */\n    tag_186:\n        /* \"#utility.yul\":12043:12065   */\n      0x4e6f7420696e2072657665616c2070686173652e000000000000000000000000\n        /* \"#utility.yul\":12039:12040   */\n      0x00\n        /* \"#utility.yul\":12031:12037   */\n      dup3\n        /* \"#utility.yul\":12027:12041   */\n      add\n        /* \"#utility.yul\":12020:12066   */\n      mstore\n        /* \"#utility.yul\":11903:12073   */\n      pop\n      jump\t// out\n        /* \"#utility.yul\":12079:12445   */\n    tag_187:\n        /* \"#utility.yul\":12221:12224   */\n      0x00\n        /* \"#utility.yul\":12242:12309   */\n      tag_325\n        /* \"#utility.yul\":12306:12308   */\n      0x14\n        /* \"#utility.yul\":12301:12304   */\n      dup4\n        /* \"#utility.yul\":12242:12309   */\n      tag_177\n      jump\t// in\n    tag_325:\n        /* \"#utility.yul\":12235:12309   */\n      swap2\n      pop\n        /* \"#utility.yul\":12318:12411   */\n      tag_326\n        /* \"#utility.yul\":12407:12410   */\n      dup3\n        /* \"#utility.yul\":12318:12411   */\n      tag_186\n      jump\t// in\n    tag_326:\n        /* \"#utility.yul\":12436:12438   */\n      0x20\n        /* \"#utility.yul\":12431:12434   */\n      dup3\n        /* \"#utility.yul\":12427:12439   */\n      add\n        /* \"#utility.yul\":12420:12439   */\n      swap1\n      pop\n        /* \"#utility.yul\":12079:12445   */\n      swap2\n      swap1\n      pop\n      jump\t// out\n        /* \"#utility.yul\":12451:12870   */\n    tag_119:\n        /* \"#utility.yul\":12617:12621   */\n      0x00\n        /* \"#utility.yul\":12655:12657   */\n      0x20\n        /* \"#utility.yul\":12644:12653   */\n      dup3\n        /* \"#utility.yul\":12640:12658   */\n      add\n        /* \"#utility.yul\":12632:12658   */\n      swap1\n      pop\n        /* \"#utility.yul\":12704:12713   */\n      dup2\n        /* \"#utility.yul\":12698:12702   */\n      dup2\n        /* \"#utility.yul\":12694:12714   */\n      sub\n        /* \"#utility.yul\":12690:12691   */\n      0x00\n        /* \"#utility.yul\":12679:12688   */\n      dup4\n        /* \"#utility.yul\":12675:12692   */\n      add\n        /* \"#utility.yul\":12668:12715   */\n      mstore\n        /* \"#utility.yul\":12732:12863   */\n      tag_328\n        /* \"#utility.yul\":12858:12862   */\n      dup2\n        /* \"#utility.yul\":12732:12863   */\n      tag_187\n      jump\t// in\n    tag_328:\n        /* \"#utility.yul\":12724:12863   */\n      swap1\n      pop\n        /* \"#utility.yul\":12451:12870   */\n      swap2\n      swap1\n      pop\n      jump\t// out\n        /* \"#utility.yul\":12876:13046   */\n    tag_188:\n        /* \"#utility.yul\":13016:13038   */\n      0x4e6f20636f6d6d69746d656e7420666f756e642e000000000000000000000000\n        /* \"#utility.yul\":13012:13013   */\n      0x00\n        /* \"#utility.yul\":13004:13010   */\n      dup3\n        /* \"#utility.yul\":13000:13014   */\n      add\n        /* \"#utility.yul\":12993:13039   */\n      mstore\n        /* \"#utility.yul\":12876:13046   */\n      pop\n      jump\t// out\n        /* \"#utility.yul\":13052:13418   */\n    tag_189:\n        /* \"#utility.yul\":13194:13197   */\n      0x00\n        /* \"#utility.yul\":13215:13282   */\n      tag_331\n        /* \"#utility.yul\":13279:13281   */\n      0x14\n        /* \"#utility.yul\":13274:13277   */\n      dup4\n        /* \"#utility.yul\":13215:13282   */\n      tag_177\n      jump\t// in\n    tag_331:\n        /* \"#utility.yul\":13208:13282   */\n      swap2\n      pop\n        /* \"#utility.yul\":13291:13384   */\n      tag_332\n        /* \"#utility.yul\":13380:13383   */\n      dup3\n        /* \"#utility.yul\":13291:13384   */\n      tag_188\n      jump\t// in\n    tag_332:\n        /* \"#utility.yul\":13409:13411   */\n      0x20\n        /* \"#utility.yul\":13404:13407   */\n      dup3\n        /* \"#utility.yul\":13400:13412   */\n      add\n        /* \"#utility.yul\":13393:13412   */\n      swap1\n      pop\n        /* \"#utility.yul\":13052:13418   */\n      swap2\n      swap1\n      pop\n      jump\t// out\n        /* \"#utility.yul\":13424:13843   */\n    tag_122:\n        /* \"#utility.yul\":13590:13594   */\n      0x00\n        /* \"#utility.yul\":13628:13630   */\n      0x20\n        /* \"#utility.yul\":13617:13626   */\n      dup3\n        /* \"#utility.yul\":13613:13631   */\n      add\n        /* \"#utility.yul\":13605:13631   */\n      swap1\n      pop\n        /* \"#utility.yul\":13677:13686   */\n      dup2\n        /* \"#utility.yul\":13671:13675   */\n      dup2\n        /* \"#utility.yul\":13667:13687   */\n      sub\n        /* \"#utility.yul\":13663:13664   */\n      0x00\n        /* \"#utility.yul\":13652:13661   */\n      dup4\n        /* \"#utility.yul\":13648:13665   */\n      add\n        /* \"#utility.yul\":13641:13688   */\n      mstore\n        /* \"#utility.yul\":13705:13836   */\n      tag_334\n        /* \"#utility.yul\":13831:13835   */\n      dup2\n        /* \"#utility.yul\":13705:13836   */\n      tag_189\n      jump\t// in\n    tag_334:\n        /* \"#utility.yul\":13697:13836   */\n      swap1\n      pop\n        /* \"#utility.yul\":13424:13843   */\n      swap2\n      swap1\n      pop\n      jump\t// out\n        /* \"#utility.yul\":13849:14023   */\n    tag_190:\n        /* \"#utility.yul\":13989:14015   */\n      0x4554482073656e74206d757374206d61746368206269642e0000000000000000\n        /* \"#utility.yul\":13985:13986   */\n      0x00\n        /* \"#utility.yul\":13977:13983   */\n      dup3\n        /* \"#utility.yul\":13973:13987   */\n      add\n        /* \"#utility.yul\":13966:14016   */\n      mstore\n        /* \"#utility.yul\":13849:14023   */\n      pop\n      jump\t// out\n        /* \"#utility.yul\":14029:14395   */\n    tag_191:\n        /* \"#utility.yul\":14171:14174   */\n      0x00\n        /* \"#utility.yul\":14192:14259   */\n      tag_337\n        /* \"#utility.yul\":14256:14258   */\n      0x18\n        /* \"#utility.yul\":14251:14254   */\n      dup4\n        /* \"#utility.yul\":14192:14259   */\n      tag_177\n      jump\t// in\n    tag_337:\n        /* \"#utility.yul\":14185:14259   */\n      swap2\n      pop\n        /* \"#utility.yul\":14268:14361   */\n      tag_338\n        /* \"#utility.yul\":14357:14360   */\n      dup3\n        /* \"#utility.yul\":14268:14361   */\n      tag_190\n      jump\t// in\n    tag_338:\n        /* \"#utility.yul\":14386:14388   */\n      0x20\n        /* \"#utility.yul\":14381:14384   */\n      dup3\n        /* \"#utility.yul\":14377:14389   */\n      add\n        /* \"#utility.yul\":14370:14389   */\n      swap1\n      pop\n        /* \"#utility.yul\":14029:14395   */\n      swap2\n      swap1\n      pop\n      jump\t// out\n        /* \"#utility.yul\":14401:14820   */\n    tag_125:\n        /* \"#utility.yul\":14567:14571   */\n      0x00\n        /* \"#utility.yul\":14605:14607   */\n      0x20\n        /* \"#utility.yul\":14594:14603   */\n      dup3\n        /* \"#utility.yul\":14590:14608   */\n      add\n        /* \"#utility.yul\":14582:14608   */\n      swap1\n      pop\n        /* \"#utility.yul\":14654:14663   */\n      dup2\n        /* \"#utility.yul\":14648:14652   */\n      dup2\n        /* \"#utility.yul\":14644:14664   */\n      sub\n        /* \"#utility.yul\":14640:14641   */\n      0x00\n        /* \"#utility.yul\":14629:14638   */\n      dup4\n        /* \"#utility.yul\":14625:14642   */\n      add\n        /* \"#utility.yul\":14618:14665   */\n      mstore\n        /* \"#utility.yul\":14682:14813   */\n      tag_340\n        /* \"#utility.yul\":14808:14812   */\n      dup2\n        /* \"#utility.yul\":14682:14813   */\n      tag_191\n      jump\t// in\n    tag_340:\n        /* \"#utility.yul\":14674:14813   */\n      swap1\n      pop\n        /* \"#utility.yul\":14401:14820   */\n      swap2\n      swap1\n      pop\n      jump\t// out\n        /* \"#utility.yul\":14826:14905   */\n    tag_192:\n        /* \"#utility.yul\":14865:14872   */\n      0x00\n        /* \"#utility.yul\":14894:14899   */\n      dup2\n        /* \"#utility.yul\":14883:14899   */\n      swap1\n      pop\n        /* \"#utility.yul\":14826:14905   */\n      swap2\n      swap1\n      pop\n      jump\t// out\n        /* \"#utility.yul\":14911:15068   */\n    tag_193:\n        /* \"#utility.yul\":15016:15061   */\n      tag_343\n        /* \"#utility.yul\":15036:15060   */\n      tag_344\n        /* \"#utility.yul\":15054:15059   */\n      dup3\n        /* \"#utility.yul\":15036:15060   */\n      tag_149\n      jump\t// in\n    tag_344:\n        /* \"#utility.yul\":15016:15061   */\n      tag_192\n      jump\t// in\n    tag_343:\n        /* \"#utility.yul\":15011:15014   */\n      dup3\n        /* \"#utility.yul\":15004:15062   */\n      mstore\n        /* \"#utility.yul\":14911:15068   */\n      pop\n      pop\n      jump\t// out\n        /* \"#utility.yul\":15074:15173   */\n    tag_194:\n        /* \"#utility.yul\":15126:15132   */\n      0x00\n        /* \"#utility.yul\":15160:15165   */\n      dup2\n        /* \"#utility.yul\":15154:15166   */\n      mload\n        /* \"#utility.yul\":15144:15166   */\n      swap1\n      pop\n        /* \"#utility.yul\":15074:15173   */\n      swap2\n      swap1\n      pop\n      jump\t// out\n        /* \"#utility.yul\":15179:15327   */\n    tag_195:\n        /* \"#utility.yul\":15281:15292   */\n      0x00\n        /* \"#utility.yul\":15318:15321   */\n      dup2\n        /* \"#utility.yul\":15303:15321   */\n      swap1\n      pop\n        /* \"#utility.yul\":15179:15327   */\n      swap3\n      swap2\n      pop\n      pop\n      jump\t// out\n        /* \"#utility.yul\":15333:15472   */\n    tag_196:\n        /* \"#utility.yul\":15422:15428   */\n      dup3\n        /* \"#utility.yul\":15417:15420   */\n      dup2\n        /* \"#utility.yul\":15412:15415   */\n      dup4\n        /* \"#utility.yul\":15406:15429   */\n      mcopy\n        /* \"#utility.yul\":15463:15464   */\n      0x00\n        /* \"#utility.yul\":15454:15460   */\n      dup4\n        /* \"#utility.yul\":15449:15452   */\n      dup4\n        /* \"#utility.yul\":15445:15461   */\n      add\n        /* \"#utility.yul\":15438:15465   */\n      mstore\n        /* \"#utility.yul\":15333:15472   */\n      pop\n      pop\n      pop\n      jump\t// out\n        /* \"#utility.yul\":15478:15868   */\n    tag_197:\n        /* \"#utility.yul\":15584:15587   */\n      0x00\n        /* \"#utility.yul\":15612:15651   */\n      tag_349\n        /* \"#utility.yul\":15645:15650   */\n      dup3\n        /* \"#utility.yul\":15612:15651   */\n      tag_194\n      jump\t// in\n    tag_349:\n        /* \"#utility.yul\":15667:15756   */\n      tag_350\n        /* \"#utility.yul\":15749:15755   */\n      dup2\n        /* \"#utility.yul\":15744:15747   */\n      dup6\n        /* \"#utility.yul\":15667:15756   */\n      tag_195\n      jump\t// in\n    tag_350:\n        /* \"#utility.yul\":15660:15756   */\n      swap4\n      pop\n        /* \"#utility.yul\":15765:15830   */\n      tag_351\n        /* \"#utility.yul\":15823:15829   */\n      dup2\n        /* \"#utility.yul\":15818:15821   */\n      dup6\n        /* \"#utility.yul\":15811:15815   */\n      0x20\n        /* \"#utility.yul\":15804:15809   */\n      dup7\n        /* \"#utility.yul\":15800:15816   */\n      add\n        /* \"#utility.yul\":15765:15830   */\n      tag_196\n      jump\t// in\n    tag_351:\n        /* \"#utility.yul\":15855:15861   */\n      dup1\n        /* \"#utility.yul\":15850:15853   */\n      dup5\n        /* \"#utility.yul\":15846:15862   */\n      add\n        /* \"#utility.yul\":15839:15862   */\n      swap2\n      pop\n        /* \"#utility.yul\":15588:15868   */\n      pop\n        /* \"#utility.yul\":15478:15868   */\n      swap3\n      swap2\n      pop\n      pop\n      jump\t// out\n        /* \"#utility.yul\":15874:16290   */\n    tag_127:\n        /* \"#utility.yul\":16034:16037   */\n      0x00\n        /* \"#utility.yul\":16049:16124   */\n      tag_353\n        /* \"#utility.yul\":16120:16123   */\n      dup3\n        /* \"#utility.yul\":16111:16117   */\n      dup6\n        /* \"#utility.yul\":16049:16124   */\n      tag_193\n      jump\t// in\n    tag_353:\n        /* \"#utility.yul\":16149:16151   */\n      0x20\n        /* \"#utility.yul\":16144:16147   */\n      dup3\n        /* \"#utility.yul\":16140:16152   */\n      add\n        /* \"#utility.yul\":16133:16152   */\n      swap2\n      pop\n        /* \"#utility.yul\":16169:16264   */\n      tag_354\n        /* \"#utility.yul\":16260:16263   */\n      dup3\n        /* \"#utility.yul\":16251:16257   */\n      dup5\n        /* \"#utility.yul\":16169:16264   */\n      tag_197\n      jump\t// in\n    tag_354:\n        /* \"#utility.yul\":16162:16264   */\n      swap2\n      pop\n        /* \"#utility.yul\":16281:16284   */\n      dup2\n        /* \"#utility.yul\":16274:16284   */\n      swap1\n      pop\n        /* \"#utility.yul\":15874:16290   */\n      swap4\n      swap3\n      pop\n      pop\n      pop\n      jump\t// out\n        /* \"#utility.yul\":16296:16460   */\n    tag_198:\n        /* \"#utility.yul\":16436:16452   */\n      0x48617368206d69736d617463682e000000000000000000000000000000000000\n        /* \"#utility.yul\":16432:16433   */\n      0x00\n        /* \"#utility.yul\":16424:16430   */\n      dup3\n        /* \"#utility.yul\":16420:16434   */\n      add\n        /* \"#utility.yul\":16413:16453   */\n      mstore\n        /* \"#utility.yul\":16296:16460   */\n      pop\n      jump\t// out\n        /* \"#utility.yul\":16466:16832   */\n    tag_199:\n        /* \"#utility.yul\":16608:16611   */\n      0x00\n        /* \"#utility.yul\":16629:16696   */\n      tag_357\n        /* \"#utility.yul\":16693:16695   */\n      0x0e\n        /* \"#utility.yul\":16688:16691   */\n      dup4\n        /* \"#utility.yul\":16629:16696   */\n      tag_177\n      jump\t// in\n    tag_357:\n        /* \"#utility.yul\":16622:16696   */\n      swap2\n      pop\n        /* \"#utility.yul\":16705:16798   */\n      tag_358\n        /* \"#utility.yul\":16794:16797   */\n      dup3\n        /* \"#utility.yul\":16705:16798   */\n      tag_198\n      jump\t// in\n    tag_358:\n        /* \"#utility.yul\":16823:16825   */\n      0x20\n        /* \"#utility.yul\":16818:16821   */\n      dup3\n        /* \"#utility.yul\":16814:16826   */\n      add\n        /* \"#utility.yul\":16807:16826   */\n      swap1\n      pop\n        /* \"#utility.yul\":16466:16832   */\n      swap2\n      swap1\n      pop\n      jump\t// out\n        /* \"#utility.yul\":16838:17257   */\n    tag_130:\n        /* \"#utility.yul\":17004:17008   */\n      0x00\n        /* \"#utility.yul\":17042:17044   */\n      0x20\n        /* \"#utility.yul\":17031:17040   */\n      dup3\n        /* \"#utility.yul\":17027:17045   */\n      add\n        /* \"#utility.yul\":17019:17045   */\n      swap1\n      pop\n        /* \"#utility.yul\":17091:17100   */\n      dup2\n        /* \"#utility.yul\":17085:17089   */\n      dup2\n        /* \"#utility.yul\":17081:17101   */\n      sub\n        /* \"#utility.yul\":17077:17078   */\n      0x00\n        /* \"#utility.yul\":17066:17075   */\n      dup4\n        /* \"#utility.yul\":17062:17079   */\n      add\n        /* \"#utility.yul\":17055:17102   */\n      mstore\n        /* \"#utility.yul\":17119:17250   */\n      tag_360\n        /* \"#utility.yul\":17245:17249   */\n      dup2\n        /* \"#utility.yul\":17119:17250   */\n      tag_199\n      jump\t// in\n    tag_360:\n        /* \"#utility.yul\":17111:17250   */\n      swap1\n      pop\n        /* \"#utility.yul\":16838:17257   */\n      swap2\n      swap1\n      pop\n      jump\t// out\n\n    auxdata: 0xa26469706673582212202e5a10e9265abeed24c19e369e9a20a15d7436d6fec76fdc950f5029448745ff64736f6c634300081e0033\n}\n",
				"bytecode": {
					"linkReferences": {},
					"object": "608060405234801561000f575f5ffd5b50604051611496380380611496833981810160405281019061003191906100d6565b814361003d9190610141565b600281905550806002546100519190610141565b60038190555033600460016101000a81548173ffffffffffffffffffffffffffffffffffffffff021916908373ffffffffffffffffffffffffffffffffffffffff1602179055505050610174565b5f5ffd5b5f819050919050565b6100b5816100a3565b81146100bf575f5ffd5b50565b5f815190506100d0816100ac565b92915050565b5f5f604083850312156100ec576100eb61009f565b5b5f6100f9858286016100c2565b925050602061010a858286016100c2565b9150509250929050565b7f4e487b71000000000000000000000000000000000000000000000000000000005f52601160045260245ffd5b5f61014b826100a3565b9150610156836100a3565b925082820190508082111561016e5761016d610114565b5b92915050565b611315806101815f395ff3fe6080604052600436106100e7575f3560e01c8063923fb74c11610089578063cff29dfd11610058578063cff29dfd146102b9578063d57bde79146102f5578063d9a80c851461031f578063e631bedd1461035b576100e7565b8063923fb74c146101fb578063a6e6647714610217578063a99aecf914610241578063c47274491461027d576100e7565b8063305f69dc116100c5578063305f69dc14610167578063423b217f1461017d57806386433374146101a757806391f90157146101d1576100e7565b806308551a53146100eb578063161b3e7014610115578063171f08c61461013f575b5f5ffd5b3480156100f6575f5ffd5b506100ff610385565b60405161010c9190610b09565b60405180910390f35b348015610120575f5ffd5b506101296103ab565b6040516101369190610b3a565b60405180910390f35b34801561014a575f5ffd5b5061016560048036038101906101609190610b97565b6103e3565b005b348015610172575f5ffd5b5061017b61054d565b005b348015610188575f5ffd5b50610191610670565b60405161019e9190610b3a565b60405180910390f35b3480156101b2575f5ffd5b506101bb610676565b6040516101c89190610bdc565b60405180910390f35b3480156101dc575f5ffd5b506101e5610688565b6040516101f29190610c15565b60405180910390f35b61021560048036038101906102109190610d94565b6106ac565b005b348015610222575f5ffd5b5061022b610a02565b6040516102389190610b3a565b60405180910390f35b34801561024c575f5ffd5b5061026760048036038101906102629190610e18565b610a08565b6040516102749190610e52565b60405180910390f35b348015610288575f5ffd5b506102a3600480360381019061029e9190610d94565b610a1d565b6040516102b09190610e52565b60405180910390f35b3480156102c4575f5ffd5b506102df60048036038101906102da9190610e6b565b610a4f565b6040516102ec9190610c15565b60405180910390f35b348015610300575f5ffd5b50610309610a8a565b6040516103169190610b3a565b60405180910390f35b34801561032a575f5ffd5b5061034560048036038101906103409190610e18565b610a90565b6040516103529190610b3a565b60405180910390f35b348015610366575f5ffd5b5061036f610aa5565b60405161037c9190610b3a565b60405180910390f35b600460019054906101000a900473ffffffffffffffffffffffffffffffffffffffff1681565b5f6002544310156103be575f90506103e0565b6003544310156103db57436003546103d69190610ec3565b6103dd565b5f5b90505b90565b6002544310610427576040517f08c379a000000000000000000000000000000000000000000000000000000000815260040161041e90610f50565b60405180910390fd5b5f5f1b60055f3373ffffffffffffffffffffffffffffffffffffffff1673ffffffffffffffffffffffffffffffffffffffff1681526020019081526020015f2054146104a8576040517f08c379a000000000000000000000000000000000000000000000000000000000815260040161049f90610fb8565b60405180910390fd5b8060055f3373ffffffffffffffffffffffffffffffffffffffff1673ffffffffffffffffffffffffffffffffffffffff1681526020019081526020015f2081905550600733908060018154018082558091505060019003905f5260205f20015f9091909190916101000a81548173ffffffffffffffffffffffffffffffffffffffff021916908373ffffffffffffffffffffffffffffffffffffffff16021790555050565b600354431015610592576040517f08c379a000000000000000000000000000000000000000000000000000000000815260040161058990611020565b60405180910390fd5b60045f9054906101000a900460ff16156105e1576040517f08c379a00000000000000000000000000000000000000000000000000000000081526004016105d890611088565b60405180910390fd5b600160045f6101000a81548160ff0219169083151502179055505f600154111561066e57600460019054906101000a900473ffffffffffffffffffffffffffffffffffffffff1673ffffffffffffffffffffffffffffffffffffffff166108fc60015490811502906040515f60405180830381858888f1935050505015801561066c573d5f5f3e3d5ffd5b505b565b60025481565b60045f9054906101000a900460ff1681565b5f5f9054906101000a900473ffffffffffffffffffffffffffffffffffffffff1681565b60025443101580156106bf575060035443105b6106fe576040517f08c379a00000000000000000000000000000000000000000000000000000000081526004016106f5906110f0565b60405180910390fd5b5f5f1b60055f3373ffffffffffffffffffffffffffffffffffffffff1673ffffffffffffffffffffffffffffffffffffffff1681526020019081526020015f20540361077f576040517f08c379a000000000000000000000000000000000000000000000000000000000815260040161077690611158565b60405180910390fd5b8134146107c1576040517f08c379a00000000000000000000000000000000000000000000000000000000081526004016107b8906111c0565b60405180910390fd5b60055f3373ffffffffffffffffffffffffffffffffffffffff1673ffffffffffffffffffffffffffffffffffffffff1681526020019081526020015f20548282604051602001610812929190611250565b6040516020818303038152906040528051906020012014610868576040517f08c379a000000000000000000000000000000000000000000000000000000000815260040161085f906112c1565b60405180910390fd5b8160065f3373ffffffffffffffffffffffffffffffffffffffff1673ffffffffffffffffffffffffffffffffffffffff1681526020019081526020015f20819055506001548211156109b9575f73ffffffffffffffffffffffffffffffffffffffff165f5f9054906101000a900473ffffffffffffffffffffffffffffffffffffffff1673ffffffffffffffffffffffffffffffffffffffff161461096e575f5f9054906101000a900473ffffffffffffffffffffffffffffffffffffffff1673ffffffffffffffffffffffffffffffffffffffff166108fc60015490811502906040515f60405180830381858888f1935050505015801561096c573d5f5f3e3d5ffd5b505b335f5f6101000a81548173ffffffffffffffffffffffffffffffffffffffff021916908373ffffffffffffffffffffffffffffffffffffffff160217905550816001819055506109fe565b3373ffffffffffffffffffffffffffffffffffffffff166108fc8390811502906040515f60405180830381858888f193505050501580156109fc573d5f5f3e3d5ffd5b505b5050565b60035481565b6005602052805f5260405f205f915090505481565b5f8282604051602001610a31929190611250565b60405160208183030381529060405280519060200120905092915050565b60078181548110610a5e575f80fd5b905f5260205f20015f915054906101000a900473ffffffffffffffffffffffffffffffffffffffff1681565b60015481565b6006602052805f5260405f205f915090505481565b5f600254431015610ac35743600254610abe9190610ec3565b610ac5565b5f5b905090565b5f73ffffffffffffffffffffffffffffffffffffffff82169050919050565b5f610af382610aca565b9050919050565b610b0381610ae9565b82525050565b5f602082019050610b1c5f830184610afa565b92915050565b5f819050919050565b610b3481610b22565b82525050565b5f602082019050610b4d5f830184610b2b565b92915050565b5f604051905090565b5f5ffd5b5f5ffd5b5f819050919050565b610b7681610b64565b8114610b80575f5ffd5b50565b5f81359050610b9181610b6d565b92915050565b5f60208284031215610bac57610bab610b5c565b5b5f610bb984828501610b83565b91505092915050565b5f8115159050919050565b610bd681610bc2565b82525050565b5f602082019050610bef5f830184610bcd565b92915050565b5f610bff82610aca565b9050919050565b610c0f81610bf5565b82525050565b5f602082019050610c285f830184610c06565b92915050565b610c3781610b22565b8114610c41575f5ffd5b50565b5f81359050610c5281610c2e565b92915050565b5f5ffd5b5f5ffd5b5f601f19601f8301169050919050565b7f4e487b71000000000000000000000000000000000000000000000000000000005f52604160045260245ffd5b610ca682610c60565b810181811067ffffffffffffffff82111715610cc557610cc4610c70565b5b80604052505050565b5f610cd7610b53565b9050610ce38282610c9d565b919050565b5f67ffffffffffffffff821115610d0257610d01610c70565b5b610d0b82610c60565b9050602081019050919050565b828183375f83830152505050565b5f610d38610d3384610ce8565b610cce565b905082815260208101848484011115610d5457610d53610c5c565b5b610d5f848285610d18565b509392505050565b5f82601f830112610d7b57610d7a610c58565b5b8135610d8b848260208601610d26565b91505092915050565b5f5f60408385031215610daa57610da9610b5c565b5b5f610db785828601610c44565b925050602083013567ffffffffffffffff811115610dd857610dd7610b60565b5b610de485828601610d67565b9150509250929050565b610df781610bf5565b8114610e01575f5ffd5b50565b5f81359050610e1281610dee565b92915050565b5f60208284031215610e2d57610e2c610b5c565b5b5f610e3a84828501610e04565b91505092915050565b610e4c81610b64565b82525050565b5f602082019050610e655f830184610e43565b92915050565b5f60208284031215610e8057610e7f610b5c565b5b5f610e8d84828501610c44565b91505092915050565b7f4e487b71000000000000000000000000000000000000000000000000000000005f52601160045260245ffd5b5f610ecd82610b22565b9150610ed883610b22565b9250828203905081811115610ef057610eef610e96565b5b92915050565b5f82825260208201905092915050565b7f436f6d6d697420706861736520656e6465642e000000000000000000000000005f82015250565b5f610f3a601383610ef6565b9150610f4582610f06565b602082019050919050565b5f6020820190508181035f830152610f6781610f2e565b9050919050565b7f416c726561647920636f6d6d69747465642e00000000000000000000000000005f82015250565b5f610fa2601283610ef6565b9150610fad82610f6e565b602082019050919050565b5f6020820190508181035f830152610fcf81610f96565b9050919050565b7f52657665616c207068617365206e6f742079657420656e6465642e00000000005f82015250565b5f61100a601b83610ef6565b915061101582610fd6565b602082019050919050565b5f6020820190508181035f83015261103781610ffe565b9050919050565b7f41756374696f6e20616c72656164792066696e616c697a65642e0000000000005f82015250565b5f611072601a83610ef6565b915061107d8261103e565b602082019050919050565b5f6020820190508181035f83015261109f81611066565b9050919050565b7f4e6f7420696e2072657665616c2070686173652e0000000000000000000000005f82015250565b5f6110da601483610ef6565b91506110e5826110a6565b602082019050919050565b5f6020820190508181035f830152611107816110ce565b9050919050565b7f4e6f20636f6d6d69746d656e7420666f756e642e0000000000000000000000005f82015250565b5f611142601483610ef6565b915061114d8261110e565b602082019050919050565b5f6020820190508181035f83015261116f81611136565b9050919050565b7f4554482073656e74206d757374206d61746368206269642e00000000000000005f82015250565b5f6111aa601883610ef6565b91506111b582611176565b602082019050919050565b5f6020820190508181035f8301526111d78161119e565b9050919050565b5f819050919050565b6111f86111f382610b22565b6111de565b82525050565b5f81519050919050565b5f81905092915050565b8281835e5f83830152505050565b5f61122a826111fe565b6112348185611208565b9350611244818560208601611212565b80840191505092915050565b5f61125b82856111e7565b60208201915061126b8284611220565b91508190509392505050565b7f48617368206d69736d617463682e0000000000000000000000000000000000005f82015250565b5f6112ab600e83610ef6565b91506112b682611277565b602082019050919050565b5f6020820190508181035f8301526112d88161129f565b905091905056fea26469706673582212202e5a10e9265abeed24c19e369e9a20a15d7436d6fec76fdc950f5029448745ff64736f6c634300081e0033",
					"opcodes": "PUSH1 0x80 PUSH1 0x40 MSTORE CALLVALUE DUP1 ISZERO PUSH2 0xF JUMPI PUSH0 PUSH0 REVERT JUMPDEST POP PUSH1 0x40 MLOAD PUSH2 0x1496 CODESIZE SUB DUP1 PUSH2 0x1496 DUP4 CODECOPY DUP2 DUP2 ADD PUSH1 0x40 MSTORE DUP2 ADD SWAP1 PUSH2 0x31 SWAP2 SWAP1 PUSH2 0xD6 JUMP JUMPDEST DUP2 NUMBER PUSH2 0x3D SWAP2 SWAP1 PUSH2 0x141 JUMP JUMPDEST PUSH1 0x2 DUP2 SWAP1 SSTORE POP DUP1 PUSH1 0x2 SLOAD PUSH2 0x51 SWAP2 SWAP1 PUSH2 0x141 JUMP JUMPDEST PUSH1 0x3 DUP2 SWAP1 SSTORE POP CALLER PUSH1 0x4 PUSH1 0x1 PUSH2 0x100 EXP DUP2 SLOAD DUP2 PUSH20 0xFFFFFFFFFFFFFFFFFFFFFFFFFFFFFFFFFFFFFFFF MUL NOT AND SWAP1 DUP4 PUSH20 0xFFFFFFFFFFFFFFFFFFFFFFFFFFFFFFFFFFFFFFFF AND MUL OR SWAP1 SSTORE POP POP POP PUSH2 0x174 JUMP JUMPDEST PUSH0 PUSH0 REVERT JUMPDEST PUSH0 DUP2 SWAP1 POP SWAP2 SWAP1 POP JUMP JUMPDEST PUSH2 0xB5 DUP2 PUSH2 0xA3 JUMP JUMPDEST DUP2 EQ PUSH2 0xBF JUMPI PUSH0 PUSH0 REVERT JUMPDEST POP JUMP JUMPDEST PUSH0 DUP2 MLOAD SWAP1 POP PUSH2 0xD0 DUP2 PUSH2 0xAC JUMP JUMPDEST SWAP3 SWAP2 POP POP JUMP JUMPDEST PUSH0 PUSH0 PUSH1 0x40 DUP4 DUP6 SUB SLT ISZERO PUSH2 0xEC JUMPI PUSH2 0xEB PUSH2 0x9F JUMP JUMPDEST JUMPDEST PUSH0 PUSH2 0xF9 DUP6 DUP3 DUP7 ADD PUSH2 0xC2 JUMP JUMPDEST SWAP3 POP POP PUSH1 0x20 PUSH2 0x10A DUP6 DUP3 DUP7 ADD PUSH2 0xC2 JUMP JUMPDEST SWAP2 POP POP SWAP3 POP SWAP3 SWAP1 POP JUMP JUMPDEST PUSH32 0x4E487B7100000000000000000000000000000000000000000000000000000000 PUSH0 MSTORE PUSH1 0x11 PUSH1 0x4 MSTORE PUSH1 0x24 PUSH0 REVERT JUMPDEST PUSH0 PUSH2 0x14B DUP3 PUSH2 0xA3 JUMP JUMPDEST SWAP2 POP PUSH2 0x156 DUP4 PUSH2 0xA3 JUMP JUMPDEST SWAP3 POP DUP3 DUP3 ADD SWAP1 POP DUP1 DUP3 GT ISZERO PUSH2 0x16E JUMPI PUSH2 0x16D PUSH2 0x114 JUMP JUMPDEST JUMPDEST SWAP3 SWAP2 POP POP JUMP JUMPDEST PUSH2 0x1315 DUP1 PUSH2 0x181 PUSH0 CODECOPY PUSH0 RETURN INVALID PUSH1 0x80 PUSH1 0x40 MSTORE PUSH1 0x4 CALLDATASIZE LT PUSH2 0xE7 JUMPI PUSH0 CALLDATALOAD PUSH1 0xE0 SHR DUP1 PUSH4 0x923FB74C GT PUSH2 0x89 JUMPI DUP1 PUSH4 0xCFF29DFD GT PUSH2 0x58 JUMPI DUP1 PUSH4 0xCFF29DFD EQ PUSH2 0x2B9 JUMPI DUP1 PUSH4 0xD57BDE79 EQ PUSH2 0x2F5 JUMPI DUP1 PUSH4 0xD9A80C85 EQ PUSH2 0x31F JUMPI DUP1 PUSH4 0xE631BEDD EQ PUSH2 0x35B JUMPI PUSH2 0xE7 JUMP JUMPDEST DUP1 PUSH4 0x923FB74C EQ PUSH2 0x1FB JUMPI DUP1 PUSH4 0xA6E66477 EQ PUSH2 0x217 JUMPI DUP1 PUSH4 0xA99AECF9 EQ PUSH2 0x241 JUMPI DUP1 PUSH4 0xC4727449 EQ PUSH2 0x27D JUMPI PUSH2 0xE7 JUMP JUMPDEST DUP1 PUSH4 0x305F69DC GT PUSH2 0xC5 JUMPI DUP1 PUSH4 0x305F69DC EQ PUSH2 0x167 JUMPI DUP1 PUSH4 0x423B217F EQ PUSH2 0x17D JUMPI DUP1 PUSH4 0x86433374 EQ PUSH2 0x1A7 JUMPI DUP1 PUSH4 0x91F90157 EQ PUSH2 0x1D1 JUMPI PUSH2 0xE7 JUMP JUMPDEST DUP1 PUSH4 0x8551A53 EQ PUSH2 0xEB JUMPI DUP1 PUSH4 0x161B3E70 EQ PUSH2 0x115 JUMPI DUP1 PUSH4 0x171F08C6 EQ PUSH2 0x13F JUMPI JUMPDEST PUSH0 PUSH0 REVERT JUMPDEST CALLVALUE DUP1 ISZERO PUSH2 0xF6 JUMPI PUSH0 PUSH0 REVERT JUMPDEST POP PUSH2 0xFF PUSH2 0x385 JUMP JUMPDEST PUSH1 0x40 MLOAD PUSH2 0x10C SWAP2 SWAP1 PUSH2 0xB09 JUMP JUMPDEST PUSH1 0x40 MLOAD DUP1 SWAP2 SUB SWAP1 RETURN JUMPDEST CALLVALUE DUP1 ISZERO PUSH2 0x120 JUMPI PUSH0 PUSH0 REVERT JUMPDEST POP PUSH2 0x129 PUSH2 0x3AB JUMP JUMPDEST PUSH1 0x40 MLOAD PUSH2 0x136 SWAP2 SWAP1 PUSH2 0xB3A JUMP JUMPDEST PUSH1 0x40 MLOAD DUP1 SWAP2 SUB SWAP1 RETURN JUMPDEST CALLVALUE DUP1 ISZERO PUSH2 0x14A JUMPI PUSH0 PUSH0 REVERT JUMPDEST POP PUSH2 0x165 PUSH1 0x4 DUP1 CALLDATASIZE SUB DUP2 ADD SWAP1 PUSH2 0x160 SWAP2 SWAP1 PUSH2 0xB97 JUMP JUMPDEST PUSH2 0x3E3 JUMP JUMPDEST STOP JUMPDEST CALLVALUE DUP1 ISZERO PUSH2 0x172 JUMPI PUSH0 PUSH0 REVERT JUMPDEST POP PUSH2 0x17B PUSH2 0x54D JUMP JUMPDEST STOP JUMPDEST CALLVALUE DUP1 ISZERO PUSH2 0x188 JUMPI PUSH0 PUSH0 REVERT JUMPDEST POP PUSH2 0x191 PUSH2 0x670 JUMP JUMPDEST PUSH1 0x40 MLOAD PUSH2 0x19E SWAP2 SWAP1 PUSH2 0xB3A JUMP JUMPDEST PUSH1 0x40 MLOAD DUP1 SWAP2 SUB SWAP1 RETURN JUMPDEST CALLVALUE DUP1 ISZERO PUSH2 0x1B2 JUMPI PUSH0 PUSH0 REVERT JUMPDEST POP PUSH2 0x1BB PUSH2 0x676 JUMP JUMPDEST PUSH1 0x40 MLOAD PUSH2 0x1C8 SWAP2 SWAP1 PUSH2 0xBDC JUMP JUMPDEST PUSH1 0x40 MLOAD DUP1 SWAP2 SUB SWAP1 RETURN JUMPDEST CALLVALUE DUP1 ISZERO PUSH2 0x1DC JUMPI PUSH0 PUSH0 REVERT JUMPDEST POP PUSH2 0x1E5 PUSH2 0x688 JUMP JUMPDEST PUSH1 0x40 MLOAD PUSH2 0x1F2 SWAP2 SWAP1 PUSH2 0xC15 JUMP JUMPDEST PUSH1 0x40 MLOAD DUP1 SWAP2 SUB SWAP1 RETURN JUMPDEST PUSH2 0x215 PUSH1 0x4 DUP1 CALLDATASIZE SUB DUP2 ADD SWAP1 PUSH2 0x210 SWAP2 SWAP1 PUSH2 0xD94 JUMP JUMPDEST PUSH2 0x6AC JUMP JUMPDEST STOP JUMPDEST CALLVALUE DUP1 ISZERO PUSH2 0x222 JUMPI PUSH0 PUSH0 REVERT JUMPDEST POP PUSH2 0x22B PUSH2 0xA02 JUMP JUMPDEST PUSH1 0x40 MLOAD PUSH2 0x238 SWAP2 SWAP1 PUSH2 0xB3A JUMP JUMPDEST PUSH1 0x40 MLOAD DUP1 SWAP2 SUB SWAP1 RETURN JUMPDEST CALLVALUE DUP1 ISZERO PUSH2 0x24C JUMPI PUSH0 PUSH0 REVERT JUMPDEST POP PUSH2 0x267 PUSH1 0x4 DUP1 CALLDATASIZE SUB DUP2 ADD SWAP1 PUSH2 0x262 SWAP2 SWAP1 PUSH2 0xE18 JUMP JUMPDEST PUSH2 0xA08 JUMP JUMPDEST PUSH1 0x40 MLOAD PUSH2 0x274 SWAP2 SWAP1 PUSH2 0xE52 JUMP JUMPDEST PUSH1 0x40 MLOAD DUP1 SWAP2 SUB SWAP1 RETURN JUMPDEST CALLVALUE DUP1 ISZERO PUSH2 0x288 JUMPI PUSH0 PUSH0 REVERT JUMPDEST POP PUSH2 0x2A3 PUSH1 0x4 DUP1 CALLDATASIZE SUB DUP2 ADD SWAP1 PUSH2 0x29E SWAP2 SWAP1 PUSH2 0xD94 JUMP JUMPDEST PUSH2 0xA1D JUMP JUMPDEST PUSH1 0x40 MLOAD PUSH2 0x2B0 SWAP2 SWAP1 PUSH2 0xE52 JUMP JUMPDEST PUSH1 0x40 MLOAD DUP1 SWAP2 SUB SWAP1 RETURN JUMPDEST CALLVALUE DUP1 ISZERO PUSH2 0x2C4 JUMPI PUSH0 PUSH0 REVERT JUMPDEST POP PUSH2 0x2DF PUSH1 0x4 DUP1 CALLDATASIZE SUB DUP2 ADD SWAP1 PUSH2 0x2DA SWAP2 SWAP1 PUSH2 0xE6B JUMP JUMPDEST PUSH2 0xA4F JUMP JUMPDEST PUSH1 0x40 MLOAD PUSH2 0x2EC SWAP2 SWAP1 PUSH2 0xC15 JUMP JUMPDEST PUSH1 0x40 MLOAD DUP1 SWAP2 SUB SWAP1 RETURN JUMPDEST CALLVALUE DUP1 ISZERO PUSH2 0x300 JUMPI PUSH0 PUSH0 REVERT JUMPDEST POP PUSH2 0x309 PUSH2 0xA8A JUMP JUMPDEST PUSH1 0x40 MLOAD PUSH2 0x316 SWAP2 SWAP1 PUSH2 0xB3A JUMP JUMPDEST PUSH1 0x40 MLOAD DUP1 SWAP2 SUB SWAP1 RETURN JUMPDEST CALLVALUE DUP1 ISZERO PUSH2 0x32A JUMPI PUSH0 PUSH0 REVERT JUMPDEST POP PUSH2 0x345 PUSH1 0x4 DUP1 CALLDATASIZE SUB DUP2 ADD SWAP1 PUSH2 0x340 SWAP2 SWAP1 PUSH2 0xE18 JUMP JUMPDEST PUSH2 0xA90 JUMP JUMPDEST PUSH1 0x40 MLOAD PUSH2 0x352 SWAP2 SWAP1 PUSH2 0xB3A JUMP JUMPDEST PUSH1 0x40 MLOAD DUP1 SWAP2 SUB SWAP1 RETURN JUMPDEST CALLVALUE DUP1 ISZERO PUSH2 0x366 JUMPI PUSH0 PUSH0 REVERT JUMPDEST POP PUSH2 0x36F PUSH2 0xAA5 JUMP JUMPDEST PUSH1 0x40 MLOAD PUSH2 0x37C SWAP2 SWAP1 PUSH2 0xB3A JUMP JUMPDEST PUSH1 0x40 MLOAD DUP1 SWAP2 SUB SWAP1 RETURN JUMPDEST PUSH1 0x4 PUSH1 0x1 SWAP1 SLOAD SWAP1 PUSH2 0x100 EXP SWAP1 DIV PUSH20 0xFFFFFFFFFFFFFFFFFFFFFFFFFFFFFFFFFFFFFFFF AND DUP2 JUMP JUMPDEST PUSH0 PUSH1 0x2 SLOAD NUMBER LT ISZERO PUSH2 0x3BE JUMPI PUSH0 SWAP1 POP PUSH2 0x3E0 JUMP JUMPDEST PUSH1 0x3 SLOAD NUMBER LT ISZERO PUSH2 0x3DB JUMPI NUMBER PUSH1 0x3 SLOAD PUSH2 0x3D6 SWAP2 SWAP1 PUSH2 0xEC3 JUMP JUMPDEST PUSH2 0x3DD JUMP JUMPDEST PUSH0 JUMPDEST SWAP1 POP JUMPDEST SWAP1 JUMP JUMPDEST PUSH1 0x2 SLOAD NUMBER LT PUSH2 0x427 JUMPI PUSH1 0x40 MLOAD PUSH32 0x8C379A000000000000000000000000000000000000000000000000000000000 DUP2 MSTORE PUSH1 0x4 ADD PUSH2 0x41E SWAP1 PUSH2 0xF50 JUMP JUMPDEST PUSH1 0x40 MLOAD DUP1 SWAP2 SUB SWAP1 REVERT JUMPDEST PUSH0 PUSH0 SHL PUSH1 0x5 PUSH0 CALLER PUSH20 0xFFFFFFFFFFFFFFFFFFFFFFFFFFFFFFFFFFFFFFFF AND PUSH20 0xFFFFFFFFFFFFFFFFFFFFFFFFFFFFFFFFFFFFFFFF AND DUP2 MSTORE PUSH1 0x20 ADD SWAP1 DUP2 MSTORE PUSH1 0x20 ADD PUSH0 KECCAK256 SLOAD EQ PUSH2 0x4A8 JUMPI PUSH1 0x40 MLOAD PUSH32 0x8C379A000000000000000000000000000000000000000000000000000000000 DUP2 MSTORE PUSH1 0x4 ADD PUSH2 0x49F SWAP1 PUSH2 0xFB8 JUMP JUMPDEST PUSH1 0x40 MLOAD DUP1 SWAP2 SUB SWAP1 REVERT JUMPDEST DUP1 PUSH1 0x5 PUSH0 CALLER PUSH20 0xFFFFFFFFFFFFFFFFFFFFFFFFFFFFFFFFFFFFFFFF AND PUSH20 0xFFFFFFFFFFFFFFFFFFFFFFFFFFFFFFFFFFFFFFFF AND DUP2 MSTORE PUSH1 0x20 ADD SWAP1 DUP2 MSTORE PUSH1 0x20 ADD PUSH0 KECCAK256 DUP2 SWAP1 SSTORE POP PUSH1 0x7 CALLER SWAP1 DUP1 PUSH1 0x1 DUP2 SLOAD ADD DUP1 DUP3 SSTORE DUP1 SWAP2 POP POP PUSH1 0x1 SWAP1 SUB SWAP1 PUSH0 MSTORE PUSH1 0x20 PUSH0 KECCAK256 ADD PUSH0 SWAP1 SWAP2 SWAP1 SWAP2 SWAP1 SWAP2 PUSH2 0x100 EXP DUP2 SLOAD DUP2 PUSH20 0xFFFFFFFFFFFFFFFFFFFFFFFFFFFFFFFFFFFFFFFF MUL NOT AND SWAP1 DUP4 PUSH20 0xFFFFFFFFFFFFFFFFFFFFFFFFFFFFFFFFFFFFFFFF AND MUL OR SWAP1 SSTORE POP POP JUMP JUMPDEST PUSH1 0x3 SLOAD NUMBER LT ISZERO PUSH2 0x592 JUMPI PUSH1 0x40 MLOAD PUSH32 0x8C379A000000000000000000000000000000000000000000000000000000000 DUP2 MSTORE PUSH1 0x4 ADD PUSH2 0x589 SWAP1 PUSH2 0x1020 JUMP JUMPDEST PUSH1 0x40 MLOAD DUP1 SWAP2 SUB SWAP1 REVERT JUMPDEST PUSH1 0x4 PUSH0 SWAP1 SLOAD SWAP1 PUSH2 0x100 EXP SWAP1 DIV PUSH1 0xFF AND ISZERO PUSH2 0x5E1 JUMPI PUSH1 0x40 MLOAD PUSH32 0x8C379A000000000000000000000000000000000000000000000000000000000 DUP2 MSTORE PUSH1 0x4 ADD PUSH2 0x5D8 SWAP1 PUSH2 0x1088 JUMP JUMPDEST PUSH1 0x40 MLOAD DUP1 SWAP2 SUB SWAP1 REVERT JUMPDEST PUSH1 0x1 PUSH1 0x4 PUSH0 PUSH2 0x100 EXP DUP2 SLOAD DUP2 PUSH1 0xFF MUL NOT AND SWAP1 DUP4 ISZERO ISZERO MUL OR SWAP1 SSTORE POP PUSH0 PUSH1 0x1 SLOAD GT ISZERO PUSH2 0x66E JUMPI PUSH1 0x4 PUSH1 0x1 SWAP1 SLOAD SWAP1 PUSH2 0x100 EXP SWAP1 DIV PUSH20 0xFFFFFFFFFFFFFFFFFFFFFFFFFFFFFFFFFFFFFFFF AND PUSH20 0xFFFFFFFFFFFFFFFFFFFFFFFFFFFFFFFFFFFFFFFF AND PUSH2 0x8FC PUSH1 0x1 SLOAD SWAP1 DUP2 ISZERO MUL SWAP1 PUSH1 0x40 MLOAD PUSH0 PUSH1 0x40 MLOAD DUP1 DUP4 SUB DUP2 DUP6 DUP9 DUP9 CALL SWAP4 POP POP POP POP ISZERO DUP1 ISZERO PUSH2 0x66C JUMPI RETURNDATASIZE PUSH0 PUSH0 RETURNDATACOPY RETURNDATASIZE PUSH0 REVERT JUMPDEST POP JUMPDEST JUMP JUMPDEST PUSH1 0x2 SLOAD DUP2 JUMP JUMPDEST PUSH1 0x4 PUSH0 SWAP1 SLOAD SWAP1 PUSH2 0x100 EXP SWAP1 DIV PUSH1 0xFF AND DUP2 JUMP JUMPDEST PUSH0 PUSH0 SWAP1 SLOAD SWAP1 PUSH2 0x100 EXP SWAP1 DIV PUSH20 0xFFFFFFFFFFFFFFFFFFFFFFFFFFFFFFFFFFFFFFFF AND DUP2 JUMP JUMPDEST PUSH1 0x2 SLOAD NUMBER LT ISZERO DUP1 ISZERO PUSH2 0x6BF JUMPI POP PUSH1 0x3 SLOAD NUMBER LT JUMPDEST PUSH2 0x6FE JUMPI PUSH1 0x40 MLOAD PUSH32 0x8C379A000000000000000000000000000000000000000000000000000000000 DUP2 MSTORE PUSH1 0x4 ADD PUSH2 0x6F5 SWAP1 PUSH2 0x10F0 JUMP JUMPDEST PUSH1 0x40 MLOAD DUP1 SWAP2 SUB SWAP1 REVERT JUMPDEST PUSH0 PUSH0 SHL PUSH1 0x5 PUSH0 CALLER PUSH20 0xFFFFFFFFFFFFFFFFFFFFFFFFFFFFFFFFFFFFFFFF AND PUSH20 0xFFFFFFFFFFFFFFFFFFFFFFFFFFFFFFFFFFFFFFFF AND DUP2 MSTORE PUSH1 0x20 ADD SWAP1 DUP2 MSTORE PUSH1 0x20 ADD PUSH0 KECCAK256 SLOAD SUB PUSH2 0x77F JUMPI PUSH1 0x40 MLOAD PUSH32 0x8C379A000000000000000000000000000000000000000000000000000000000 DUP2 MSTORE PUSH1 0x4 ADD PUSH2 0x776 SWAP1 PUSH2 0x1158 JUMP JUMPDEST PUSH1 0x40 MLOAD DUP1 SWAP2 SUB SWAP1 REVERT JUMPDEST DUP2 CALLVALUE EQ PUSH2 0x7C1 JUMPI PUSH1 0x40 MLOAD PUSH32 0x8C379A000000000000000000000000000000000000000000000000000000000 DUP2 MSTORE PUSH1 0x4 ADD PUSH2 0x7B8 SWAP1 PUSH2 0x11C0 JUMP JUMPDEST PUSH1 0x40 MLOAD DUP1 SWAP2 SUB SWAP1 REVERT JUMPDEST PUSH1 0x5 PUSH0 CALLER PUSH20 0xFFFFFFFFFFFFFFFFFFFFFFFFFFFFFFFFFFFFFFFF AND PUSH20 0xFFFFFFFFFFFFFFFFFFFFFFFFFFFFFFFFFFFFFFFF AND DUP2 MSTORE PUSH1 0x20 ADD SWAP1 DUP2 MSTORE PUSH1 0x20 ADD PUSH0 KECCAK256 SLOAD DUP3 DUP3 PUSH1 0x40 MLOAD PUSH1 0x20 ADD PUSH2 0x812 SWAP3 SWAP2 SWAP1 PUSH2 0x1250 JUMP JUMPDEST PUSH1 0x40 MLOAD PUSH1 0x20 DUP2 DUP4 SUB SUB DUP2 MSTORE SWAP1 PUSH1 0x40 MSTORE DUP1 MLOAD SWAP1 PUSH1 0x20 ADD KECCAK256 EQ PUSH2 0x868 JUMPI PUSH1 0x40 MLOAD PUSH32 0x8C379A000000000000000000000000000000000000000000000000000000000 DUP2 MSTORE PUSH1 0x4 ADD PUSH2 0x85F SWAP1 PUSH2 0x12C1 JUMP JUMPDEST PUSH1 0x40 MLOAD DUP1 SWAP2 SUB SWAP1 REVERT JUMPDEST DUP2 PUSH1 0x6 PUSH0 CALLER PUSH20 0xFFFFFFFFFFFFFFFFFFFFFFFFFFFFFFFFFFFFFFFF AND PUSH20 0xFFFFFFFFFFFFFFFFFFFFFFFFFFFFFFFFFFFFFFFF AND DUP2 MSTORE PUSH1 0x20 ADD SWAP1 DUP2 MSTORE PUSH1 0x20 ADD PUSH0 KECCAK256 DUP2 SWAP1 SSTORE POP PUSH1 0x1 SLOAD DUP3 GT ISZERO PUSH2 0x9B9 JUMPI PUSH0 PUSH20 0xFFFFFFFFFFFFFFFFFFFFFFFFFFFFFFFFFFFFFFFF AND PUSH0 PUSH0 SWAP1 SLOAD SWAP1 PUSH2 0x100 EXP SWAP1 DIV PUSH20 0xFFFFFFFFFFFFFFFFFFFFFFFFFFFFFFFFFFFFFFFF AND PUSH20 0xFFFFFFFFFFFFFFFFFFFFFFFFFFFFFFFFFFFFFFFF AND EQ PUSH2 0x96E JUMPI PUSH0 PUSH0 SWAP1 SLOAD SWAP1 PUSH2 0x100 EXP SWAP1 DIV PUSH20 0xFFFFFFFFFFFFFFFFFFFFFFFFFFFFFFFFFFFFFFFF AND PUSH20 0xFFFFFFFFFFFFFFFFFFFFFFFFFFFFFFFFFFFFFFFF AND PUSH2 0x8FC PUSH1 0x1 SLOAD SWAP1 DUP2 ISZERO MUL SWAP1 PUSH1 0x40 MLOAD PUSH0 PUSH1 0x40 MLOAD DUP1 DUP4 SUB DUP2 DUP6 DUP9 DUP9 CALL SWAP4 POP POP POP POP ISZERO DUP1 ISZERO PUSH2 0x96C JUMPI RETURNDATASIZE PUSH0 PUSH0 RETURNDATACOPY RETURNDATASIZE PUSH0 REVERT JUMPDEST POP JUMPDEST CALLER PUSH0 PUSH0 PUSH2 0x100 EXP DUP2 SLOAD DUP2 PUSH20 0xFFFFFFFFFFFFFFFFFFFFFFFFFFFFFFFFFFFFFFFF MUL NOT AND SWAP1 DUP4 PUSH20 0xFFFFFFFFFFFFFFFFFFFFFFFFFFFFFFFFFFFFFFFF AND MUL OR SWAP1 SSTORE POP DUP2 PUSH1 0x1 DUP2 SWAP1 SSTORE POP PUSH2 0x9FE JUMP JUMPDEST CALLER PUSH20 0xFFFFFFFFFFFFFFFFFFFFFFFFFFFFFFFFFFFFFFFF AND PUSH2 0x8FC DUP4 SWAP1 DUP2 ISZERO MUL SWAP1 PUSH1 0x40 MLOAD PUSH0 PUSH1 0x40 MLOAD DUP1 DUP4 SUB DUP2 DUP6 DUP9 DUP9 CALL SWAP4 POP POP POP POP ISZERO DUP1 ISZERO PUSH2 0x9FC JUMPI RETURNDATASIZE PUSH0 PUSH0 RETURNDATACOPY RETURNDATASIZE PUSH0 REVERT JUMPDEST POP JUMPDEST POP POP JUMP JUMPDEST PUSH1 0x3 SLOAD DUP2 JUMP JUMPDEST PUSH1 0x5 PUSH1 0x20 MSTORE DUP1 PUSH0 MSTORE PUSH1 0x40 PUSH0 KECCAK256 PUSH0 SWAP2 POP SWAP1 POP SLOAD DUP2 JUMP JUMPDEST PUSH0 DUP3 DUP3 PUSH1 0x40 MLOAD PUSH1 0x20 ADD PUSH2 0xA31 SWAP3 SWAP2 SWAP1 PUSH2 0x1250 JUMP JUMPDEST PUSH1 0x40 MLOAD PUSH1 0x20 DUP2 DUP4 SUB SUB DUP2 MSTORE SWAP1 PUSH1 0x40 MSTORE DUP1 MLOAD SWAP1 PUSH1 0x20 ADD KECCAK256 SWAP1 POP SWAP3 SWAP2 POP POP JUMP JUMPDEST PUSH1 0x7 DUP2 DUP2 SLOAD DUP2 LT PUSH2 0xA5E JUMPI PUSH0 DUP1 REVERT JUMPDEST SWAP1 PUSH0 MSTORE PUSH1 0x20 PUSH0 KECCAK256 ADD PUSH0 SWAP2 POP SLOAD SWAP1 PUSH2 0x100 EXP SWAP1 DIV PUSH20 0xFFFFFFFFFFFFFFFFFFFFFFFFFFFFFFFFFFFFFFFF AND DUP2 JUMP JUMPDEST PUSH1 0x1 SLOAD DUP2 JUMP JUMPDEST PUSH1 0x6 PUSH1 0x20 MSTORE DUP1 PUSH0 MSTORE PUSH1 0x40 PUSH0 KECCAK256 PUSH0 SWAP2 POP SWAP1 POP SLOAD DUP2 JUMP JUMPDEST PUSH0 PUSH1 0x2 SLOAD NUMBER LT ISZERO PUSH2 0xAC3 JUMPI NUMBER PUSH1 0x2 SLOAD PUSH2 0xABE SWAP2 SWAP1 PUSH2 0xEC3 JUMP JUMPDEST PUSH2 0xAC5 JUMP JUMPDEST PUSH0 JUMPDEST SWAP1 POP SWAP1 JUMP JUMPDEST PUSH0 PUSH20 0xFFFFFFFFFFFFFFFFFFFFFFFFFFFFFFFFFFFFFFFF DUP3 AND SWAP1 POP SWAP2 SWAP1 POP JUMP JUMPDEST PUSH0 PUSH2 0xAF3 DUP3 PUSH2 0xACA JUMP JUMPDEST SWAP1 POP SWAP2 SWAP1 POP JUMP JUMPDEST PUSH2 0xB03 DUP2 PUSH2 0xAE9 JUMP JUMPDEST DUP3 MSTORE POP POP JUMP JUMPDEST PUSH0 PUSH1 0x20 DUP3 ADD SWAP1 POP PUSH2 0xB1C PUSH0 DUP4 ADD DUP5 PUSH2 0xAFA JUMP JUMPDEST SWAP3 SWAP2 POP POP JUMP JUMPDEST PUSH0 DUP2 SWAP1 POP SWAP2 SWAP1 POP JUMP JUMPDEST PUSH2 0xB34 DUP2 PUSH2 0xB22 JUMP JUMPDEST DUP3 MSTORE POP POP JUMP JUMPDEST PUSH0 PUSH1 0x20 DUP3 ADD SWAP1 POP PUSH2 0xB4D PUSH0 DUP4 ADD DUP5 PUSH2 0xB2B JUMP JUMPDEST SWAP3 SWAP2 POP POP JUMP JUMPDEST PUSH0 PUSH1 0x40 MLOAD SWAP1 POP SWAP1 JUMP JUMPDEST PUSH0 PUSH0 REVERT JUMPDEST PUSH0 PUSH0 REVERT JUMPDEST PUSH0 DUP2 SWAP1 POP SWAP2 SWAP1 POP JUMP JUMPDEST PUSH2 0xB76 DUP2 PUSH2 0xB64 JUMP JUMPDEST DUP2 EQ PUSH2 0xB80 JUMPI PUSH0 PUSH0 REVERT JUMPDEST POP JUMP JUMPDEST PUSH0 DUP2 CALLDATALOAD SWAP1 POP PUSH2 0xB91 DUP2 PUSH2 0xB6D JUMP JUMPDEST SWAP3 SWAP2 POP POP JUMP JUMPDEST PUSH0 PUSH1 0x20 DUP3 DUP5 SUB SLT ISZERO PUSH2 0xBAC JUMPI PUSH2 0xBAB PUSH2 0xB5C JUMP JUMPDEST JUMPDEST PUSH0 PUSH2 0xBB9 DUP5 DUP3 DUP6 ADD PUSH2 0xB83 JUMP JUMPDEST SWAP2 POP POP SWAP3 SWAP2 POP POP JUMP JUMPDEST PUSH0 DUP2 ISZERO ISZERO SWAP1 POP SWAP2 SWAP1 POP JUMP JUMPDEST PUSH2 0xBD6 DUP2 PUSH2 0xBC2 JUMP JUMPDEST DUP3 MSTORE POP POP JUMP JUMPDEST PUSH0 PUSH1 0x20 DUP3 ADD SWAP1 POP PUSH2 0xBEF PUSH0 DUP4 ADD DUP5 PUSH2 0xBCD JUMP JUMPDEST SWAP3 SWAP2 POP POP JUMP JUMPDEST PUSH0 PUSH2 0xBFF DUP3 PUSH2 0xACA JUMP JUMPDEST SWAP1 POP SWAP2 SWAP1 POP JUMP JUMPDEST PUSH2 0xC0F DUP2 PUSH2 0xBF5 JUMP JUMPDEST DUP3 MSTORE POP POP JUMP JUMPDEST PUSH0 PUSH1 0x20 DUP3 ADD SWAP1 POP PUSH2 0xC28 PUSH0 DUP4 ADD DUP5 PUSH2 0xC06 JUMP JUMPDEST SWAP3 SWAP2 POP POP JUMP JUMPDEST PUSH2 0xC37 DUP2 PUSH2 0xB22 JUMP JUMPDEST DUP2 EQ PUSH2 0xC41 JUMPI PUSH0 PUSH0 REVERT JUMPDEST POP JUMP JUMPDEST PUSH0 DUP2 CALLDATALOAD SWAP1 POP PUSH2 0xC52 DUP2 PUSH2 0xC2E JUMP JUMPDEST SWAP3 SWAP2 POP POP JUMP JUMPDEST PUSH0 PUSH0 REVERT JUMPDEST PUSH0 PUSH0 REVERT JUMPDEST PUSH0 PUSH1 0x1F NOT PUSH1 0x1F DUP4 ADD AND SWAP1 POP SWAP2 SWAP1 POP JUMP JUMPDEST PUSH32 0x4E487B7100000000000000000000000000000000000000000000000000000000 PUSH0 MSTORE PUSH1 0x41 PUSH1 0x4 MSTORE PUSH1 0x24 PUSH0 REVERT JUMPDEST PUSH2 0xCA6 DUP3 PUSH2 0xC60 JUMP JUMPDEST DUP2 ADD DUP2 DUP2 LT PUSH8 0xFFFFFFFFFFFFFFFF DUP3 GT OR ISZERO PUSH2 0xCC5 JUMPI PUSH2 0xCC4 PUSH2 0xC70 JUMP JUMPDEST JUMPDEST DUP1 PUSH1 0x40 MSTORE POP POP POP JUMP JUMPDEST PUSH0 PUSH2 0xCD7 PUSH2 0xB53 JUMP JUMPDEST SWAP1 POP PUSH2 0xCE3 DUP3 DUP3 PUSH2 0xC9D JUMP JUMPDEST SWAP2 SWAP1 POP JUMP JUMPDEST PUSH0 PUSH8 0xFFFFFFFFFFFFFFFF DUP3 GT ISZERO PUSH2 0xD02 JUMPI PUSH2 0xD01 PUSH2 0xC70 JUMP JUMPDEST JUMPDEST PUSH2 0xD0B DUP3 PUSH2 0xC60 JUMP JUMPDEST SWAP1 POP PUSH1 0x20 DUP2 ADD SWAP1 POP SWAP2 SWAP1 POP JUMP JUMPDEST DUP3 DUP2 DUP4 CALLDATACOPY PUSH0 DUP4 DUP4 ADD MSTORE POP POP POP JUMP JUMPDEST PUSH0 PUSH2 0xD38 PUSH2 0xD33 DUP5 PUSH2 0xCE8 JUMP JUMPDEST PUSH2 0xCCE JUMP JUMPDEST SWAP1 POP DUP3 DUP2 MSTORE PUSH1 0x20 DUP2 ADD DUP5 DUP5 DUP5 ADD GT ISZERO PUSH2 0xD54 JUMPI PUSH2 0xD53 PUSH2 0xC5C JUMP JUMPDEST JUMPDEST PUSH2 0xD5F DUP5 DUP3 DUP6 PUSH2 0xD18 JUMP JUMPDEST POP SWAP4 SWAP3 POP POP POP JUMP JUMPDEST PUSH0 DUP3 PUSH1 0x1F DUP4 ADD SLT PUSH2 0xD7B JUMPI PUSH2 0xD7A PUSH2 0xC58 JUMP JUMPDEST JUMPDEST DUP2 CALLDATALOAD PUSH2 0xD8B DUP5 DUP3 PUSH1 0x20 DUP7 ADD PUSH2 0xD26 JUMP JUMPDEST SWAP2 POP POP SWAP3 SWAP2 POP POP JUMP JUMPDEST PUSH0 PUSH0 PUSH1 0x40 DUP4 DUP6 SUB SLT ISZERO PUSH2 0xDAA JUMPI PUSH2 0xDA9 PUSH2 0xB5C JUMP JUMPDEST JUMPDEST PUSH0 PUSH2 0xDB7 DUP6 DUP3 DUP7 ADD PUSH2 0xC44 JUMP JUMPDEST SWAP3 POP POP PUSH1 0x20 DUP4 ADD CALLDATALOAD PUSH8 0xFFFFFFFFFFFFFFFF DUP2 GT ISZERO PUSH2 0xDD8 JUMPI PUSH2 0xDD7 PUSH2 0xB60 JUMP JUMPDEST JUMPDEST PUSH2 0xDE4 DUP6 DUP3 DUP7 ADD PUSH2 0xD67 JUMP JUMPDEST SWAP2 POP POP SWAP3 POP SWAP3 SWAP1 POP JUMP JUMPDEST PUSH2 0xDF7 DUP2 PUSH2 0xBF5 JUMP JUMPDEST DUP2 EQ PUSH2 0xE01 JUMPI PUSH0 PUSH0 REVERT JUMPDEST POP JUMP JUMPDEST PUSH0 DUP2 CALLDATALOAD SWAP1 POP PUSH2 0xE12 DUP2 PUSH2 0xDEE JUMP JUMPDEST SWAP3 SWAP2 POP POP JUMP JUMPDEST PUSH0 PUSH1 0x20 DUP3 DUP5 SUB SLT ISZERO PUSH2 0xE2D JUMPI PUSH2 0xE2C PUSH2 0xB5C JUMP JUMPDEST JUMPDEST PUSH0 PUSH2 0xE3A DUP5 DUP3 DUP6 ADD PUSH2 0xE04 JUMP JUMPDEST SWAP2 POP POP SWAP3 SWAP2 POP POP JUMP JUMPDEST PUSH2 0xE4C DUP2 PUSH2 0xB64 JUMP JUMPDEST DUP3 MSTORE POP POP JUMP JUMPDEST PUSH0 PUSH1 0x20 DUP3 ADD SWAP1 POP PUSH2 0xE65 PUSH0 DUP4 ADD DUP5 PUSH2 0xE43 JUMP JUMPDEST SWAP3 SWAP2 POP POP JUMP JUMPDEST PUSH0 PUSH1 0x20 DUP3 DUP5 SUB SLT ISZERO PUSH2 0xE80 JUMPI PUSH2 0xE7F PUSH2 0xB5C JUMP JUMPDEST JUMPDEST PUSH0 PUSH2 0xE8D DUP5 DUP3 DUP6 ADD PUSH2 0xC44 JUMP JUMPDEST SWAP2 POP POP SWAP3 SWAP2 POP POP JUMP JUMPDEST PUSH32 0x4E487B7100000000000000000000000000000000000000000000000000000000 PUSH0 MSTORE PUSH1 0x11 PUSH1 0x4 MSTORE PUSH1 0x24 PUSH0 REVERT JUMPDEST PUSH0 PUSH2 0xECD DUP3 PUSH2 0xB22 JUMP JUMPDEST SWAP2 POP PUSH2 0xED8 DUP4 PUSH2 0xB22 JUMP JUMPDEST SWAP3 POP DUP3 DUP3 SUB SWAP1 POP DUP2 DUP2 GT ISZERO PUSH2 0xEF0 JUMPI PUSH2 0xEEF PUSH2 0xE96 JUMP JUMPDEST JUMPDEST SWAP3 SWAP2 POP POP JUMP JUMPDEST PUSH0 DUP3 DUP3 MSTORE PUSH1 0x20 DUP3 ADD SWAP1 POP SWAP3 SWAP2 POP POP JUMP JUMPDEST PUSH32 0x436F6D6D697420706861736520656E6465642E00000000000000000000000000 PUSH0 DUP3 ADD MSTORE POP JUMP JUMPDEST PUSH0 PUSH2 0xF3A PUSH1 0x13 DUP4 PUSH2 0xEF6 JUMP JUMPDEST SWAP2 POP PUSH2 0xF45 DUP3 PUSH2 0xF06 JUMP JUMPDEST PUSH1 0x20 DUP3 ADD SWAP1 POP SWAP2 SWAP1 POP JUMP JUMPDEST PUSH0 PUSH1 0x20 DUP3 ADD SWAP1 POP DUP2 DUP2 SUB PUSH0 DUP4 ADD MSTORE PUSH2 0xF67 DUP2 PUSH2 0xF2E JUMP JUMPDEST SWAP1 POP SWAP2 SWAP1 POP JUMP JUMPDEST PUSH32 0x416C726561647920636F6D6D69747465642E0000000000000000000000000000 PUSH0 DUP3 ADD MSTORE POP JUMP JUMPDEST PUSH0 PUSH2 0xFA2 PUSH1 0x12 DUP4 PUSH2 0xEF6 JUMP JUMPDEST SWAP2 POP PUSH2 0xFAD DUP3 PUSH2 0xF6E JUMP JUMPDEST PUSH1 0x20 DUP3 ADD SWAP1 POP SWAP2 SWAP1 POP JUMP JUMPDEST PUSH0 PUSH1 0x20 DUP3 ADD SWAP1 POP DUP2 DUP2 SUB PUSH0 DUP4 ADD MSTORE PUSH2 0xFCF DUP2 PUSH2 0xF96 JUMP JUMPDEST SWAP1 POP SWAP2 SWAP1 POP JUMP JUMPDEST PUSH32 0x52657665616C207068617365206E6F742079657420656E6465642E0000000000 PUSH0 DUP3 ADD MSTORE POP JUMP JUMPDEST PUSH0 PUSH2 0x100A PUSH1 0x1B DUP4 PUSH2 0xEF6 JUMP JUMPDEST SWAP2 POP PUSH2 0x1015 DUP3 PUSH2 0xFD6 JUMP JUMPDEST PUSH1 0x20 DUP3 ADD SWAP1 POP SWAP2 SWAP1 POP JUMP JUMPDEST PUSH0 PUSH1 0x20 DUP3 ADD SWAP1 POP DUP2 DUP2 SUB PUSH0 DUP4 ADD MSTORE PUSH2 0x1037 DUP2 PUSH2 0xFFE JUMP JUMPDEST SWAP1 POP SWAP2 SWAP1 POP JUMP JUMPDEST PUSH32 0x41756374696F6E20616C72656164792066696E616C697A65642E000000000000 PUSH0 DUP3 ADD MSTORE POP JUMP JUMPDEST PUSH0 PUSH2 0x1072 PUSH1 0x1A DUP4 PUSH2 0xEF6 JUMP JUMPDEST SWAP2 POP PUSH2 0x107D DUP3 PUSH2 0x103E JUMP JUMPDEST PUSH1 0x20 DUP3 ADD SWAP1 POP SWAP2 SWAP1 POP JUMP JUMPDEST PUSH0 PUSH1 0x20 DUP3 ADD SWAP1 POP DUP2 DUP2 SUB PUSH0 DUP4 ADD MSTORE PUSH2 0x109F DUP2 PUSH2 0x1066 JUMP JUMPDEST SWAP1 POP SWAP2 SWAP1 POP JUMP JUMPDEST PUSH32 0x4E6F7420696E2072657665616C2070686173652E000000000000000000000000 PUSH0 DUP3 ADD MSTORE POP JUMP JUMPDEST PUSH0 PUSH2 0x10DA PUSH1 0x14 DUP4 PUSH2 0xEF6 JUMP JUMPDEST SWAP2 POP PUSH2 0x10E5 DUP3 PUSH2 0x10A6 JUMP JUMPDEST PUSH1 0x20 DUP3 ADD SWAP1 POP SWAP2 SWAP1 POP JUMP JUMPDEST PUSH0 PUSH1 0x20 DUP3 ADD SWAP1 POP DUP2 DUP2 SUB PUSH0 DUP4 ADD MSTORE PUSH2 0x1107 DUP2 PUSH2 0x10CE JUMP JUMPDEST SWAP1 POP SWAP2 SWAP1 POP JUMP JUMPDEST PUSH32 0x4E6F20636F6D6D69746D656E7420666F756E642E000000000000000000000000 PUSH0 DUP3 ADD MSTORE POP JUMP JUMPDEST PUSH0 PUSH2 0x1142 PUSH1 0x14 DUP4 PUSH2 0xEF6 JUMP JUMPDEST SWAP2 POP PUSH2 0x114D DUP3 PUSH2 0x110E JUMP JUMPDEST PUSH1 0x20 DUP3 ADD SWAP1 POP SWAP2 SWAP1 POP JUMP JUMPDEST PUSH0 PUSH1 0x20 DUP3 ADD SWAP1 POP DUP2 DUP2 SUB PUSH0 DUP4 ADD MSTORE PUSH2 0x116F DUP2 PUSH2 0x1136 JUMP JUMPDEST SWAP1 POP SWAP2 SWAP1 POP JUMP JUMPDEST PUSH32 0x4554482073656E74206D757374206D61746368206269642E0000000000000000 PUSH0 DUP3 ADD MSTORE POP JUMP JUMPDEST PUSH0 PUSH2 0x11AA PUSH1 0x18 DUP4 PUSH2 0xEF6 JUMP JUMPDEST SWAP2 POP PUSH2 0x11B5 DUP3 PUSH2 0x1176 JUMP JUMPDEST PUSH1 0x20 DUP3 ADD SWAP1 POP SWAP2 SWAP1 POP JUMP JUMPDEST PUSH0 PUSH1 0x20 DUP3 ADD SWAP1 POP DUP2 DUP2 SUB PUSH0 DUP4 ADD MSTORE PUSH2 0x11D7 DUP2 PUSH2 0x119E JUMP JUMPDEST SWAP1 POP SWAP2 SWAP1 POP JUMP JUMPDEST PUSH0 DUP2 SWAP1 POP SWAP2 SWAP1 POP JUMP JUMPDEST PUSH2 0x11F8 PUSH2 0x11F3 DUP3 PUSH2 0xB22 JUMP JUMPDEST PUSH2 0x11DE JUMP JUMPDEST DUP3 MSTORE POP POP JUMP JUMPDEST PUSH0 DUP2 MLOAD SWAP1 POP SWAP2 SWAP1 POP JUMP JUMPDEST PUSH0 DUP2 SWAP1 POP SWAP3 SWAP2 POP POP JUMP JUMPDEST DUP3 DUP2 DUP4 MCOPY PUSH0 DUP4 DUP4 ADD MSTORE POP POP POP JUMP JUMPDEST PUSH0 PUSH2 0x122A DUP3 PUSH2 0x11FE JUMP JUMPDEST PUSH2 0x1234 DUP2 DUP6 PUSH2 0x1208 JUMP JUMPDEST SWAP4 POP PUSH2 0x1244 DUP2 DUP6 PUSH1 0x20 DUP7 ADD PUSH2 0x1212 JUMP JUMPDEST DUP1 DUP5 ADD SWAP2 POP POP SWAP3 SWAP2 POP POP JUMP JUMPDEST PUSH0 PUSH2 0x125B DUP3 DUP6 PUSH2 0x11E7 JUMP JUMPDEST PUSH1 0x20 DUP3 ADD SWAP2 POP PUSH2 0x126B DUP3 DUP5 PUSH2 0x1220 JUMP JUMPDEST SWAP2 POP DUP2 SWAP1 POP SWAP4 SWAP3 POP POP POP JUMP JUMPDEST PUSH32 0x48617368206D69736D617463682E000000000000000000000000000000000000 PUSH0 DUP3 ADD MSTORE POP JUMP JUMPDEST PUSH0 PUSH2 0x12AB PUSH1 0xE DUP4 PUSH2 0xEF6 JUMP JUMPDEST SWAP2 POP PUSH2 0x12B6 DUP3 PUSH2 0x1277 JUMP JUMPDEST PUSH1 0x20 DUP3 ADD SWAP1 POP SWAP2 SWAP1 POP JUMP JUMPDEST PUSH0 PUSH1 0x20 DUP3 ADD SWAP1 POP DUP2 DUP2 SUB PUSH0 DUP4 ADD MSTORE PUSH2 0x12D8 DUP2 PUSH2 0x129F JUMP JUMPDEST SWAP1 POP SWAP2 SWAP1 POP JUMP INVALID LOG2 PUSH5 0x6970667358 0x22 SLT KECCAK256 0x2E GAS LT 0xE9 0x26 GAS 0xBE 0xED 0x24 0xC1 SWAP15 CALLDATASIZE SWAP15 SWAP11 KECCAK256 LOG1 TSTORE PUSH21 0x36D6FEC76FDC950F5029448745FF64736F6C634300 ADDMOD 0x1E STOP CALLER "
				},
				"gasEstimates": {
					"creation": {
						"codeDepositCost": "977000",
						"executionCost": "infinite",
						"totalCost": "infinite"
					},
					"external": {
						"CommitBid(bytes32)": "75581",
						"FinalizeAuction()": "infinite",
						"GenerateBidHash(uint256,string)": "infinite",
						"RevealBid(uint256,string)": "infinite",
						"TimeLeftCommit()": "infinite",
						"TimeLeftReveal()": "infinite",
						"auctionEnded()": "2533",
						"bidCommits(address)": "2869",
						"bidders(uint256)": "4966",
						"biddingEnd()": "2470",
						"highestBid()": "2469",
						"highestBidder()": "2596",
						"revealEnd()": "2470",
						"revealedBids(address)": "2868",
						"seller()": "2583"
					}
				},
				"methodIdentifiers": {
					"CommitBid(bytes32)": "171f08c6",
					"FinalizeAuction()": "305f69dc",
					"GenerateBidHash(uint256,string)": "c4727449",
					"RevealBid(uint256,string)": "923fb74c",
					"TimeLeftCommit()": "e631bedd",
					"TimeLeftReveal()": "161b3e70",
					"auctionEnded()": "86433374",
					"bidCommits(address)": "a99aecf9",
					"bidders(uint256)": "cff29dfd",
					"biddingEnd()": "423b217f",
					"highestBid()": "d57bde79",
					"highestBidder()": "91f90157",
					"revealEnd()": "a6e66477",
					"revealedBids(address)": "d9a80c85",
					"seller()": "08551a53"
				}
			},
			"storageLayout": {
				"storage": [
					{
						"astId": 3,
						"contract": "contracts/Auction2_SC05_Secure.sol:Auction",
						"label": "highestBidder",
						"offset": 0,
						"slot": "0",
						"type": "t_address"
					},
					{
						"astId": 5,
						"contract": "contracts/Auction2_SC05_Secure.sol:Auction",
						"label": "highestBid",
						"offset": 0,
						"slot": "1",
						"type": "t_uint256"
					},
					{
						"astId": 7,
						"contract": "contracts/Auction2_SC05_Secure.sol:Auction",
						"label": "biddingEnd",
						"offset": 0,
						"slot": "2",
						"type": "t_uint256"
					},
					{
						"astId": 9,
						"contract": "contracts/Auction2_SC05_Secure.sol:Auction",
						"label": "revealEnd",
						"offset": 0,
						"slot": "3",
						"type": "t_uint256"
					},
					{
						"astId": 11,
						"contract": "contracts/Auction2_SC05_Secure.sol:Auction",
						"label": "auctionEnded",
						"offset": 0,
						"slot": "4",
						"type": "t_bool"
					},
					{
						"astId": 13,
						"contract": "contracts/Auction2_SC05_Secure.sol:Auction",
						"label": "seller",
						"offset": 1,
						"slot": "4",
						"type": "t_address_payable"
					},
					{
						"astId": 17,
						"contract": "contracts/Auction2_SC05_Secure.sol:Auction",
						"label": "bidCommits",
						"offset": 0,
						"slot": "5",
						"type": "t_mapping(t_address,t_bytes32)"
					},
					{
						"astId": 21,
						"contract": "contracts/Auction2_SC05_Secure.sol:Auction",
						"label": "revealedBids",
						"offset": 0,
						"slot": "6",
						"type": "t_mapping(t_address,t_uint256)"
					},
					{
						"astId": 24,
						"contract": "contracts/Auction2_SC05_Secure.sol:Auction",
						"label": "bidders",
						"offset": 0,
						"slot": "7",
						"type": "t_array(t_address)dyn_storage"
					}
				],
				"types": {
					"t_address": {
						"encoding": "inplace",
						"label": "address",
						"numberOfBytes": "20"
					},
					"t_address_payable": {
						"encoding": "inplace",
						"label": "address payable",
						"numberOfBytes": "20"
					},
					"t_array(t_address)dyn_storage": {
						"base": "t_address",
						"encoding": "dynamic_array",
						"label": "address[]",
						"numberOfBytes": "32"
					},
					"t_bool": {
						"encoding": "inplace",
						"label": "bool",
						"numberOfBytes": "1"
					},
					"t_bytes32": {
						"encoding": "inplace",
						"label": "bytes32",
						"numberOfBytes": "32"
					},
					"t_mapping(t_address,t_bytes32)": {
						"encoding": "mapping",
						"key": "t_address",
						"label": "mapping(address => bytes32)",
						"numberOfBytes": "32",
						"value": "t_bytes32"
					},
					"t_mapping(t_address,t_uint256)": {
						"encoding": "mapping",
						"key": "t_address",
						"label": "mapping(address => uint256)",
						"numberOfBytes": "32",
						"value": "t_uint256"
					},
					"t_uint256": {
						"encoding": "inplace",
						"label": "uint256",
						"numberOfBytes": "32"
					}
				}
			},
			"userdoc": {
				"kind": "user",
				"methods": {},
				"version": 1
			}
		}
	}
}