{
	"contracts/Auction_NotSecure.sol": {
		"Auction": {
			"abi": [
				{
					"inputs": [
						{
							"internalType": "uint256",
							"name": "biddingTime",
							"type": "uint256"
						}
					],
					"stateMutability": "nonpayable",
					"type": "constructor"
				},
				{
					"inputs": [],
					"name": "FinalizeAuction",
					"outputs": [],
					"stateMutability": "nonpayable",
					"type": "function"
				},
				{
					"inputs": [],
					"name": "GetTimeLeft",
					"outputs": [
						{
							"internalType": "uint256",
							"name": "",
							"type": "uint256"
						}
					],
					"stateMutability": "view",
					"type": "function"
				},
				{
					"inputs": [],
					"name": "PlaceBid",
					"outputs": [],
					"stateMutability": "payable",
					"type": "function"
				},
				{
					"inputs": [],
					"name": "auctionEndTime",
					"outputs": [
						{
							"internalType": "uint256",
							"name": "",
							"type": "uint256"
						}
					],
					"stateMutability": "view",
					"type": "function"
				},
				{
					"inputs": [],
					"name": "highestBid",
					"outputs": [
						{
							"internalType": "uint256",
							"name": "",
							"type": "uint256"
						}
					],
					"stateMutability": "view",
					"type": "function"
				},
				{
					"inputs": [],
					"name": "highestBidder",
					"outputs": [
						{
							"internalType": "address",
							"name": "",
							"type": "address"
						}
					],
					"stateMutability": "view",
					"type": "function"
				}
			],
			"devdoc": {
				"kind": "dev",
				"methods": {},
				"version": 1
			},
			"evm": {
				"assembly": "    /* \"contracts/Auction_NotSecure.sol\":68:1299  contract Auction {... */\n  mstore(0x40, 0x80)\n    /* \"contracts/Auction_NotSecure.sol\":274:410  constructor(uint256 biddingTime) {... */\n  callvalue\n  dup1\n  iszero\n  tag_1\n  jumpi\n  0x00\n  dup1\n  revert\ntag_1:\n  pop\n  mload(0x40)\n  sub(codesize, bytecodeSize)\n  dup1\n  bytecodeSize\n  dup4\n  codecopy\n  dup2\n  dup2\n  add\n  0x40\n  mstore\n  dup2\n  add\n  swap1\n  tag_2\n  swap2\n  swap1\n  tag_3\n  jump\t// in\ntag_2:\n    /* \"contracts/Auction_NotSecure.sol\":353:364  biddingTime */\n  dup1\n    /* \"contracts/Auction_NotSecure.sol\":335:350  block.timestamp */\n  timestamp\n    /* \"contracts/Auction_NotSecure.sol\":335:364  block.timestamp + biddingTime */\n  tag_6\n  swap2\n  swap1\n  tag_7\n  jump\t// in\ntag_6:\n    /* \"contracts/Auction_NotSecure.sol\":318:332  auctionEndTime */\n  0x02\n    /* \"contracts/Auction_NotSecure.sol\":318:364  auctionEndTime = block.timestamp + biddingTime */\n  dup2\n  swap1\n  sstore\n  pop\n    /* \"contracts/Auction_NotSecure.sol\":274:410  constructor(uint256 biddingTime) {... */\n  pop\n    /* \"contracts/Auction_NotSecure.sol\":68:1299  contract Auction {... */\n  jump(tag_8)\n    /* \"#utility.yul\":88:205   */\ntag_10:\n    /* \"#utility.yul\":197:198   */\n  0x00\n    /* \"#utility.yul\":194:195   */\n  dup1\n    /* \"#utility.yul\":187:199   */\n  revert\n    /* \"#utility.yul\":334:411   */\ntag_12:\n    /* \"#utility.yul\":371:378   */\n  0x00\n    /* \"#utility.yul\":400:405   */\n  dup2\n    /* \"#utility.yul\":389:405   */\n  swap1\n  pop\n    /* \"#utility.yul\":334:411   */\n  swap2\n  swap1\n  pop\n  jump\t// out\n    /* \"#utility.yul\":417:539   */\ntag_13:\n    /* \"#utility.yul\":490:514   */\n  tag_22\n    /* \"#utility.yul\":508:513   */\n  dup2\n    /* \"#utility.yul\":490:514   */\n  tag_12\n  jump\t// in\ntag_22:\n    /* \"#utility.yul\":483:488   */\n  dup2\n    /* \"#utility.yul\":480:515   */\n  eq\n    /* \"#utility.yul\":470:533   */\n  tag_23\n  jumpi\n    /* \"#utility.yul\":529:530   */\n  0x00\n    /* \"#utility.yul\":526:527   */\n  dup1\n    /* \"#utility.yul\":519:531   */\n  revert\n    /* \"#utility.yul\":470:533   */\ntag_23:\n    /* \"#utility.yul\":417:539   */\n  pop\n  jump\t// out\n    /* \"#utility.yul\":545:688   */\ntag_14:\n    /* \"#utility.yul\":602:607   */\n  0x00\n    /* \"#utility.yul\":633:639   */\n  dup2\n    /* \"#utility.yul\":627:640   */\n  mload\n    /* \"#utility.yul\":618:640   */\n  swap1\n  pop\n    /* \"#utility.yul\":649:682   */\n  tag_25\n    /* \"#utility.yul\":676:681   */\n  dup2\n    /* \"#utility.yul\":649:682   */\n  tag_13\n  jump\t// in\ntag_25:\n    /* \"#utility.yul\":545:688   */\n  swap3\n  swap2\n  pop\n  pop\n  jump\t// out\n    /* \"#utility.yul\":694:1045   */\ntag_3:\n    /* \"#utility.yul\":764:770   */\n  0x00\n    /* \"#utility.yul\":813:815   */\n  0x20\n    /* \"#utility.yul\":801:810   */\n  dup3\n    /* \"#utility.yul\":792:799   */\n  dup5\n    /* \"#utility.yul\":788:811   */\n  sub\n    /* \"#utility.yul\":784:816   */\n  slt\n    /* \"#utility.yul\":781:900   */\n  iszero\n  tag_27\n  jumpi\n    /* \"#utility.yul\":819:898   */\n  tag_28\n  tag_10\n  jump\t// in\ntag_28:\n    /* \"#utility.yul\":781:900   */\ntag_27:\n    /* \"#utility.yul\":939:940   */\n  0x00\n    /* \"#utility.yul\":964:1028   */\n  tag_29\n    /* \"#utility.yul\":1020:1027   */\n  dup5\n    /* \"#utility.yul\":1011:1017   */\n  dup3\n    /* \"#utility.yul\":1000:1009   */\n  dup6\n    /* \"#utility.yul\":996:1018   */\n  add\n    /* \"#utility.yul\":964:1028   */\n  tag_14\n  jump\t// in\ntag_29:\n    /* \"#utility.yul\":954:1028   */\n  swap2\n  pop\n    /* \"#utility.yul\":910:1038   */\n  pop\n    /* \"#utility.yul\":694:1045   */\n  swap3\n  swap2\n  pop\n  pop\n  jump\t// out\n    /* \"#utility.yul\":1051:1231   */\ntag_15:\n    /* \"#utility.yul\":1099:1176   */\n  0x4e487b7100000000000000000000000000000000000000000000000000000000\n    /* \"#utility.yul\":1096:1097   */\n  0x00\n    /* \"#utility.yul\":1089:1177   */\n  mstore\n    /* \"#utility.yul\":1196:1200   */\n  0x11\n    /* \"#utility.yul\":1193:1194   */\n  0x04\n    /* \"#utility.yul\":1186:1201   */\n  mstore\n    /* \"#utility.yul\":1220:1224   */\n  0x24\n    /* \"#utility.yul\":1217:1218   */\n  0x00\n    /* \"#utility.yul\":1210:1225   */\n  revert\n    /* \"#utility.yul\":1237:1428   */\ntag_7:\n    /* \"#utility.yul\":1277:1280   */\n  0x00\n    /* \"#utility.yul\":1296:1316   */\n  tag_32\n    /* \"#utility.yul\":1314:1315   */\n  dup3\n    /* \"#utility.yul\":1296:1316   */\n  tag_12\n  jump\t// in\ntag_32:\n    /* \"#utility.yul\":1291:1316   */\n  swap2\n  pop\n    /* \"#utility.yul\":1330:1350   */\n  tag_33\n    /* \"#utility.yul\":1348:1349   */\n  dup4\n    /* \"#utility.yul\":1330:1350   */\n  tag_12\n  jump\t// in\ntag_33:\n    /* \"#utility.yul\":1325:1350   */\n  swap3\n  pop\n    /* \"#utility.yul\":1373:1374   */\n  dup3\n    /* \"#utility.yul\":1370:1371   */\n  dup3\n    /* \"#utility.yul\":1366:1375   */\n  add\n    /* \"#utility.yul\":1359:1375   */\n  swap1\n  pop\n    /* \"#utility.yul\":1394:1397   */\n  dup1\n    /* \"#utility.yul\":1391:1392   */\n  dup3\n    /* \"#utility.yul\":1388:1398   */\n  gt\n    /* \"#utility.yul\":1385:1421   */\n  iszero\n  tag_34\n  jumpi\n    /* \"#utility.yul\":1401:1419   */\n  tag_35\n  tag_15\n  jump\t// in\ntag_35:\n    /* \"#utility.yul\":1385:1421   */\ntag_34:\n    /* \"#utility.yul\":1237:1428   */\n  swap3\n  swap2\n  pop\n  pop\n  jump\t// out\n    /* \"contracts/Auction_NotSecure.sol\":68:1299  contract Auction {... */\ntag_8:\n  dataSize(sub_0)\n  dup1\n  dataOffset(sub_0)\n  0x00\n  codecopy\n  0x00\n  return\nstop\n\nsub_0: assembly {\n        /* \"contracts/Auction_NotSecure.sol\":68:1299  contract Auction {... */\n      mstore(0x40, 0x80)\n      jumpi(tag_1, lt(calldatasize, 0x04))\n      shr(0xe0, calldataload(0x00))\n      dup1\n      0x305f69dc\n      eq\n      tag_2\n      jumpi\n      dup1\n      0x4b449cba\n      eq\n      tag_3\n      jumpi\n      dup1\n      0x91f90157\n      eq\n      tag_4\n      jumpi\n      dup1\n      0xd57bde79\n      eq\n      tag_5\n      jumpi\n      dup1\n      0xdc201dc2\n      eq\n      tag_6\n      jumpi\n      dup1\n      0xf21777c0\n      eq\n      tag_7\n      jumpi\n    tag_1:\n      0x00\n      dup1\n      revert\n        /* \"contracts/Auction_NotSecure.sol\":848:1093  function FinalizeAuction() public {... */\n    tag_2:\n      callvalue\n      dup1\n      iszero\n      tag_8\n      jumpi\n      0x00\n      dup1\n      revert\n    tag_8:\n      pop\n      tag_9\n      tag_10\n      jump\t// in\n    tag_9:\n      stop\n        /* \"contracts/Auction_NotSecure.sol\":208:237  uint256 public auctionEndTime */\n    tag_3:\n      callvalue\n      dup1\n      iszero\n      tag_11\n      jumpi\n      0x00\n      dup1\n      revert\n    tag_11:\n      pop\n      tag_12\n      tag_13\n      jump\t// in\n    tag_12:\n      mload(0x40)\n      tag_14\n      swap2\n      swap1\n      tag_15\n      jump\t// in\n    tag_14:\n      mload(0x40)\n      dup1\n      swap2\n      sub\n      swap1\n      return\n        /* \"contracts/Auction_NotSecure.sol\":92:120  address public highestBidder */\n    tag_4:\n      callvalue\n      dup1\n      iszero\n      tag_16\n      jumpi\n      0x00\n      dup1\n      revert\n    tag_16:\n      pop\n      tag_17\n      tag_18\n      jump\t// in\n    tag_17:\n      mload(0x40)\n      tag_19\n      swap2\n      swap1\n      tag_20\n      jump\t// in\n    tag_19:\n      mload(0x40)\n      dup1\n      swap2\n      sub\n      swap1\n      return\n        /* \"contracts/Auction_NotSecure.sol\":157:182  uint256 public highestBid */\n    tag_5:\n      callvalue\n      dup1\n      iszero\n      tag_21\n      jumpi\n      0x00\n      dup1\n      revert\n    tag_21:\n      pop\n      tag_22\n      tag_23\n      jump\t// in\n    tag_22:\n      mload(0x40)\n      tag_24\n      swap2\n      swap1\n      tag_15\n      jump\t// in\n    tag_24:\n      mload(0x40)\n      dup1\n      swap2\n      sub\n      swap1\n      return\n        /* \"contracts/Auction_NotSecure.sol\":418:840  function PlaceBid() public payable {... */\n    tag_6:\n      tag_25\n      tag_26\n      jump\t// in\n    tag_25:\n      stop\n        /* \"contracts/Auction_NotSecure.sol\":1101:1296  function GetTimeLeft() public view returns (uint256) {... */\n    tag_7:\n      callvalue\n      dup1\n      iszero\n      tag_27\n      jumpi\n      0x00\n      dup1\n      revert\n    tag_27:\n      pop\n      tag_28\n      tag_29\n      jump\t// in\n    tag_28:\n      mload(0x40)\n      tag_30\n      swap2\n      swap1\n      tag_15\n      jump\t// in\n    tag_30:\n      mload(0x40)\n      dup1\n      swap2\n      sub\n      swap1\n      return\n        /* \"contracts/Auction_NotSecure.sol\":848:1093  function FinalizeAuction() public {... */\n    tag_10:\n        /* \"contracts/Auction_NotSecure.sol\":919:933  auctionEndTime */\n      sload(0x02)\n        /* \"contracts/Auction_NotSecure.sol\":901:916  block.timestamp */\n      timestamp\n        /* \"contracts/Auction_NotSecure.sol\":901:933  block.timestamp > auctionEndTime */\n      gt\n        /* \"contracts/Auction_NotSecure.sol\":893:963  require(block.timestamp > auctionEndTime, \"Auction is still ongoing.\") */\n      tag_32\n      jumpi\n      mload(0x40)\n      0x08c379a000000000000000000000000000000000000000000000000000000000\n      dup2\n      mstore\n      0x04\n      add\n      tag_33\n      swap1\n      tag_34\n      jump\t// in\n    tag_33:\n      mload(0x40)\n      dup1\n      swap2\n      sub\n      swap1\n      revert\n    tag_32:\n        /* \"contracts/Auction_NotSecure.sol\":1039:1052  highestBidder */\n      0x00\n      dup1\n      sload\n      swap1\n      0x0100\n      exp\n      swap1\n      div\n      0xffffffffffffffffffffffffffffffffffffffff\n      and\n        /* \"contracts/Auction_NotSecure.sol\":1031:1062  payable(highestBidder).transfer */\n      0xffffffffffffffffffffffffffffffffffffffff\n      and\n        /* \"contracts/Auction_NotSecure.sol\":1031:1085  payable(highestBidder).transfer(address(this).balance) */\n      0x08fc\n        /* \"contracts/Auction_NotSecure.sol\":1063:1084  address(this).balance */\n      selfbalance\n        /* \"contracts/Auction_NotSecure.sol\":1031:1085  payable(highestBidder).transfer(address(this).balance) */\n      swap1\n      dup2\n      iszero\n      mul\n      swap1\n      mload(0x40)\n      0x00\n      mload(0x40)\n      dup1\n      dup4\n      sub\n      dup2\n      dup6\n      dup9\n      dup9\n      call\n      swap4\n      pop\n      pop\n      pop\n      pop\n      iszero\n      dup1\n      iszero\n      tag_36\n      jumpi\n      returndatasize\n      0x00\n      dup1\n      returndatacopy\n      revert(0x00, returndatasize)\n    tag_36:\n      pop\n        /* \"contracts/Auction_NotSecure.sol\":848:1093  function FinalizeAuction() public {... */\n      jump\t// out\n        /* \"contracts/Auction_NotSecure.sol\":208:237  uint256 public auctionEndTime */\n    tag_13:\n      sload(0x02)\n      dup2\n      jump\t// out\n        /* \"contracts/Auction_NotSecure.sol\":92:120  address public highestBidder */\n    tag_18:\n      0x00\n      dup1\n      sload\n      swap1\n      0x0100\n      exp\n      swap1\n      div\n      0xffffffffffffffffffffffffffffffffffffffff\n      and\n      dup2\n      jump\t// out\n        /* \"contracts/Auction_NotSecure.sol\":157:182  uint256 public highestBid */\n    tag_23:\n      sload(0x01)\n      dup2\n      jump\t// out\n        /* \"contracts/Auction_NotSecure.sol\":418:840  function PlaceBid() public payable {... */\n    tag_26:\n        /* \"contracts/Auction_NotSecure.sol\":491:505  auctionEndTime */\n      sload(0x02)\n        /* \"contracts/Auction_NotSecure.sol\":472:487  block.timestamp */\n      timestamp\n        /* \"contracts/Auction_NotSecure.sol\":472:505  block.timestamp <= auctionEndTime */\n      gt\n      iszero\n        /* \"contracts/Auction_NotSecure.sol\":464:536  require(block.timestamp <= auctionEndTime, \"Auction has already ended.\") */\n      tag_38\n      jumpi\n      mload(0x40)\n      0x08c379a000000000000000000000000000000000000000000000000000000000\n      dup2\n      mstore\n      0x04\n      add\n      tag_39\n      swap1\n      tag_40\n      jump\t// in\n    tag_39:\n      mload(0x40)\n      dup1\n      swap2\n      sub\n      swap1\n      revert\n    tag_38:\n        /* \"contracts/Auction_NotSecure.sol\":567:577  highestBid */\n      sload(0x01)\n        /* \"contracts/Auction_NotSecure.sol\":555:564  msg.value */\n      callvalue\n        /* \"contracts/Auction_NotSecure.sol\":555:577  msg.value > highestBid */\n      gt\n        /* \"contracts/Auction_NotSecure.sol\":547:612  require(msg.value > highestBid, \"There already is a higher bid.\") */\n      tag_41\n      jumpi\n      mload(0x40)\n      0x08c379a000000000000000000000000000000000000000000000000000000000\n      dup2\n      mstore\n      0x04\n      add\n      tag_42\n      swap1\n      tag_43\n      jump\t// in\n    tag_42:\n      mload(0x40)\n      dup1\n      swap2\n      sub\n      swap1\n      revert\n    tag_41:\n        /* \"contracts/Auction_NotSecure.sol\":642:643  0 */\n      0x00\n        /* \"contracts/Auction_NotSecure.sol\":629:639  highestBid */\n      sload(0x01)\n        /* \"contracts/Auction_NotSecure.sol\":629:643  highestBid > 0 */\n      gt\n        /* \"contracts/Auction_NotSecure.sol\":625:761  if (highestBid > 0) {... */\n      iszero\n      tag_44\n      jumpi\n        /* \"contracts/Auction_NotSecure.sol\":714:727  highestBidder */\n      0x00\n      dup1\n      sload\n      swap1\n      0x0100\n      exp\n      swap1\n      div\n      0xffffffffffffffffffffffffffffffffffffffff\n      and\n        /* \"contracts/Auction_NotSecure.sol\":706:737  payable(highestBidder).transfer */\n      0xffffffffffffffffffffffffffffffffffffffff\n      and\n        /* \"contracts/Auction_NotSecure.sol\":706:749  payable(highestBidder).transfer(highestBid) */\n      0x08fc\n        /* \"contracts/Auction_NotSecure.sol\":738:748  highestBid */\n      sload(0x01)\n        /* \"contracts/Auction_NotSecure.sol\":706:749  payable(highestBidder).transfer(highestBid) */\n      swap1\n      dup2\n      iszero\n      mul\n      swap1\n      mload(0x40)\n      0x00\n      mload(0x40)\n      dup1\n      dup4\n      sub\n      dup2\n      dup6\n      dup9\n      dup9\n      call\n      swap4\n      pop\n      pop\n      pop\n      pop\n      iszero\n      dup1\n      iszero\n      tag_46\n      jumpi\n      returndatasize\n      0x00\n      dup1\n      returndatacopy\n      revert(0x00, returndatasize)\n    tag_46:\n      pop\n        /* \"contracts/Auction_NotSecure.sol\":625:761  if (highestBid > 0) {... */\n    tag_44:\n        /* \"contracts/Auction_NotSecure.sol\":789:799  msg.sender */\n      caller\n        /* \"contracts/Auction_NotSecure.sol\":773:786  highestBidder */\n      0x00\n      dup1\n        /* \"contracts/Auction_NotSecure.sol\":773:799  highestBidder = msg.sender */\n      0x0100\n      exp\n      dup2\n      sload\n      dup2\n      0xffffffffffffffffffffffffffffffffffffffff\n      mul\n      not\n      and\n      swap1\n      dup4\n      0xffffffffffffffffffffffffffffffffffffffff\n      and\n      mul\n      or\n      swap1\n      sstore\n      pop\n        /* \"contracts/Auction_NotSecure.sol\":823:832  msg.value */\n      callvalue\n        /* \"contracts/Auction_NotSecure.sol\":810:820  highestBid */\n      0x01\n        /* \"contracts/Auction_NotSecure.sol\":810:832  highestBid = msg.value */\n      dup2\n      swap1\n      sstore\n      pop\n        /* \"contracts/Auction_NotSecure.sol\":418:840  function PlaceBid() public payable {... */\n      jump\t// out\n        /* \"contracts/Auction_NotSecure.sol\":1101:1296  function GetTimeLeft() public view returns (uint256) {... */\n    tag_29:\n        /* \"contracts/Auction_NotSecure.sol\":1145:1152  uint256 */\n      0x00\n        /* \"contracts/Auction_NotSecure.sol\":1188:1202  auctionEndTime */\n      sload(0x02)\n        /* \"contracts/Auction_NotSecure.sol\":1169:1184  block.timestamp */\n      timestamp\n        /* \"contracts/Auction_NotSecure.sol\":1169:1202  block.timestamp >= auctionEndTime */\n      lt\n        /* \"contracts/Auction_NotSecure.sol\":1165:1239  if (block.timestamp >= auctionEndTime) {... */\n      tag_48\n      jumpi\n        /* \"contracts/Auction_NotSecure.sol\":1226:1227  0 */\n      0x00\n        /* \"contracts/Auction_NotSecure.sol\":1219:1227  return 0 */\n      swap1\n      pop\n      jump(tag_47)\n        /* \"contracts/Auction_NotSecure.sol\":1165:1239  if (block.timestamp >= auctionEndTime) {... */\n    tag_48:\n        /* \"contracts/Auction_NotSecure.sol\":1273:1288  block.timestamp */\n      timestamp\n        /* \"contracts/Auction_NotSecure.sol\":1256:1270  auctionEndTime */\n      sload(0x02)\n        /* \"contracts/Auction_NotSecure.sol\":1256:1288  auctionEndTime - block.timestamp */\n      tag_49\n      swap2\n      swap1\n      tag_50\n      jump\t// in\n    tag_49:\n        /* \"contracts/Auction_NotSecure.sol\":1249:1288  return auctionEndTime - block.timestamp */\n      swap1\n      pop\n        /* \"contracts/Auction_NotSecure.sol\":1101:1296  function GetTimeLeft() public view returns (uint256) {... */\n    tag_47:\n      swap1\n      jump\t// out\n        /* \"#utility.yul\":7:84   */\n    tag_51:\n        /* \"#utility.yul\":44:51   */\n      0x00\n        /* \"#utility.yul\":73:78   */\n      dup2\n        /* \"#utility.yul\":62:78   */\n      swap1\n      pop\n        /* \"#utility.yul\":7:84   */\n      swap2\n      swap1\n      pop\n      jump\t// out\n        /* \"#utility.yul\":90:208   */\n    tag_52:\n        /* \"#utility.yul\":177:201   */\n      tag_67\n        /* \"#utility.yul\":195:200   */\n      dup2\n        /* \"#utility.yul\":177:201   */\n      tag_51\n      jump\t// in\n    tag_67:\n        /* \"#utility.yul\":172:175   */\n      dup3\n        /* \"#utility.yul\":165:202   */\n      mstore\n        /* \"#utility.yul\":90:208   */\n      pop\n      pop\n      jump\t// out\n        /* \"#utility.yul\":214:436   */\n    tag_15:\n        /* \"#utility.yul\":307:311   */\n      0x00\n        /* \"#utility.yul\":345:347   */\n      0x20\n        /* \"#utility.yul\":334:343   */\n      dup3\n        /* \"#utility.yul\":330:348   */\n      add\n        /* \"#utility.yul\":322:348   */\n      swap1\n      pop\n        /* \"#utility.yul\":358:429   */\n      tag_69\n        /* \"#utility.yul\":426:427   */\n      0x00\n        /* \"#utility.yul\":415:424   */\n      dup4\n        /* \"#utility.yul\":411:428   */\n      add\n        /* \"#utility.yul\":402:408   */\n      dup5\n        /* \"#utility.yul\":358:429   */\n      tag_52\n      jump\t// in\n    tag_69:\n        /* \"#utility.yul\":214:436   */\n      swap3\n      swap2\n      pop\n      pop\n      jump\t// out\n        /* \"#utility.yul\":442:568   */\n    tag_53:\n        /* \"#utility.yul\":479:486   */\n      0x00\n        /* \"#utility.yul\":519:561   */\n      0xffffffffffffffffffffffffffffffffffffffff\n        /* \"#utility.yul\":512:517   */\n      dup3\n        /* \"#utility.yul\":508:562   */\n      and\n        /* \"#utility.yul\":497:562   */\n      swap1\n      pop\n        /* \"#utility.yul\":442:568   */\n      swap2\n      swap1\n      pop\n      jump\t// out\n        /* \"#utility.yul\":574:670   */\n    tag_54:\n        /* \"#utility.yul\":611:618   */\n      0x00\n        /* \"#utility.yul\":640:664   */\n      tag_72\n        /* \"#utility.yul\":658:663   */\n      dup3\n        /* \"#utility.yul\":640:664   */\n      tag_53\n      jump\t// in\n    tag_72:\n        /* \"#utility.yul\":629:664   */\n      swap1\n      pop\n        /* \"#utility.yul\":574:670   */\n      swap2\n      swap1\n      pop\n      jump\t// out\n        /* \"#utility.yul\":676:794   */\n    tag_55:\n        /* \"#utility.yul\":763:787   */\n      tag_74\n        /* \"#utility.yul\":781:786   */\n      dup2\n        /* \"#utility.yul\":763:787   */\n      tag_54\n      jump\t// in\n    tag_74:\n        /* \"#utility.yul\":758:761   */\n      dup3\n        /* \"#utility.yul\":751:788   */\n      mstore\n        /* \"#utility.yul\":676:794   */\n      pop\n      pop\n      jump\t// out\n        /* \"#utility.yul\":800:1022   */\n    tag_20:\n        /* \"#utility.yul\":893:897   */\n      0x00\n        /* \"#utility.yul\":931:933   */\n      0x20\n        /* \"#utility.yul\":920:929   */\n      dup3\n        /* \"#utility.yul\":916:934   */\n      add\n        /* \"#utility.yul\":908:934   */\n      swap1\n      pop\n        /* \"#utility.yul\":944:1015   */\n      tag_76\n        /* \"#utility.yul\":1012:1013   */\n      0x00\n        /* \"#utility.yul\":1001:1010   */\n      dup4\n        /* \"#utility.yul\":997:1014   */\n      add\n        /* \"#utility.yul\":988:994   */\n      dup5\n        /* \"#utility.yul\":944:1015   */\n      tag_55\n      jump\t// in\n    tag_76:\n        /* \"#utility.yul\":800:1022   */\n      swap3\n      swap2\n      pop\n      pop\n      jump\t// out\n        /* \"#utility.yul\":1028:1197   */\n    tag_56:\n        /* \"#utility.yul\":1112:1123   */\n      0x00\n        /* \"#utility.yul\":1146:1152   */\n      dup3\n        /* \"#utility.yul\":1141:1144   */\n      dup3\n        /* \"#utility.yul\":1134:1153   */\n      mstore\n        /* \"#utility.yul\":1186:1190   */\n      0x20\n        /* \"#utility.yul\":1181:1184   */\n      dup3\n        /* \"#utility.yul\":1177:1191   */\n      add\n        /* \"#utility.yul\":1162:1191   */\n      swap1\n      pop\n        /* \"#utility.yul\":1028:1197   */\n      swap3\n      swap2\n      pop\n      pop\n      jump\t// out\n        /* \"#utility.yul\":1203:1378   */\n    tag_57:\n        /* \"#utility.yul\":1343:1370   */\n      0x41756374696f6e206973207374696c6c206f6e676f696e672e00000000000000\n        /* \"#utility.yul\":1339:1340   */\n      0x00\n        /* \"#utility.yul\":1331:1337   */\n      dup3\n        /* \"#utility.yul\":1327:1341   */\n      add\n        /* \"#utility.yul\":1320:1371   */\n      mstore\n        /* \"#utility.yul\":1203:1378   */\n      pop\n      jump\t// out\n        /* \"#utility.yul\":1384:1750   */\n    tag_58:\n        /* \"#utility.yul\":1526:1529   */\n      0x00\n        /* \"#utility.yul\":1547:1614   */\n      tag_80\n        /* \"#utility.yul\":1611:1613   */\n      0x19\n        /* \"#utility.yul\":1606:1609   */\n      dup4\n        /* \"#utility.yul\":1547:1614   */\n      tag_56\n      jump\t// in\n    tag_80:\n        /* \"#utility.yul\":1540:1614   */\n      swap2\n      pop\n        /* \"#utility.yul\":1623:1716   */\n      tag_81\n        /* \"#utility.yul\":1712:1715   */\n      dup3\n        /* \"#utility.yul\":1623:1716   */\n      tag_57\n      jump\t// in\n    tag_81:\n        /* \"#utility.yul\":1741:1743   */\n      0x20\n        /* \"#utility.yul\":1736:1739   */\n      dup3\n        /* \"#utility.yul\":1732:1744   */\n      add\n        /* \"#utility.yul\":1725:1744   */\n      swap1\n      pop\n        /* \"#utility.yul\":1384:1750   */\n      swap2\n      swap1\n      pop\n      jump\t// out\n        /* \"#utility.yul\":1756:2175   */\n    tag_34:\n        /* \"#utility.yul\":1922:1926   */\n      0x00\n        /* \"#utility.yul\":1960:1962   */\n      0x20\n        /* \"#utility.yul\":1949:1958   */\n      dup3\n        /* \"#utility.yul\":1945:1963   */\n      add\n        /* \"#utility.yul\":1937:1963   */\n      swap1\n      pop\n        /* \"#utility.yul\":2009:2018   */\n      dup2\n        /* \"#utility.yul\":2003:2007   */\n      dup2\n        /* \"#utility.yul\":1999:2019   */\n      sub\n        /* \"#utility.yul\":1995:1996   */\n      0x00\n        /* \"#utility.yul\":1984:1993   */\n      dup4\n        /* \"#utility.yul\":1980:1997   */\n      add\n        /* \"#utility.yul\":1973:2020   */\n      mstore\n        /* \"#utility.yul\":2037:2168   */\n      tag_83\n        /* \"#utility.yul\":2163:2167   */\n      dup2\n        /* \"#utility.yul\":2037:2168   */\n      tag_58\n      jump\t// in\n    tag_83:\n        /* \"#utility.yul\":2029:2168   */\n      swap1\n      pop\n        /* \"#utility.yul\":1756:2175   */\n      swap2\n      swap1\n      pop\n      jump\t// out\n        /* \"#utility.yul\":2181:2357   */\n    tag_59:\n        /* \"#utility.yul\":2321:2349   */\n      0x41756374696f6e2068617320616c726561647920656e6465642e000000000000\n        /* \"#utility.yul\":2317:2318   */\n      0x00\n        /* \"#utility.yul\":2309:2315   */\n      dup3\n        /* \"#utility.yul\":2305:2319   */\n      add\n        /* \"#utility.yul\":2298:2350   */\n      mstore\n        /* \"#utility.yul\":2181:2357   */\n      pop\n      jump\t// out\n        /* \"#utility.yul\":2363:2729   */\n    tag_60:\n        /* \"#utility.yul\":2505:2508   */\n      0x00\n        /* \"#utility.yul\":2526:2593   */\n      tag_86\n        /* \"#utility.yul\":2590:2592   */\n      0x1a\n        /* \"#utility.yul\":2585:2588   */\n      dup4\n        /* \"#utility.yul\":2526:2593   */\n      tag_56\n      jump\t// in\n    tag_86:\n        /* \"#utility.yul\":2519:2593   */\n      swap2\n      pop\n        /* \"#utility.yul\":2602:2695   */\n      tag_87\n        /* \"#utility.yul\":2691:2694   */\n      dup3\n        /* \"#utility.yul\":2602:2695   */\n      tag_59\n      jump\t// in\n    tag_87:\n        /* \"#utility.yul\":2720:2722   */\n      0x20\n        /* \"#utility.yul\":2715:2718   */\n      dup3\n        /* \"#utility.yul\":2711:2723   */\n      add\n        /* \"#utility.yul\":2704:2723   */\n      swap1\n      pop\n        /* \"#utility.yul\":2363:2729   */\n      swap2\n      swap1\n      pop\n      jump\t// out\n        /* \"#utility.yul\":2735:3154   */\n    tag_40:\n        /* \"#utility.yul\":2901:2905   */\n      0x00\n        /* \"#utility.yul\":2939:2941   */\n      0x20\n        /* \"#utility.yul\":2928:2937   */\n      dup3\n        /* \"#utility.yul\":2924:2942   */\n      add\n        /* \"#utility.yul\":2916:2942   */\n      swap1\n      pop\n        /* \"#utility.yul\":2988:2997   */\n      dup2\n        /* \"#utility.yul\":2982:2986   */\n      dup2\n        /* \"#utility.yul\":2978:2998   */\n      sub\n        /* \"#utility.yul\":2974:2975   */\n      0x00\n        /* \"#utility.yul\":2963:2972   */\n      dup4\n        /* \"#utility.yul\":2959:2976   */\n      add\n        /* \"#utility.yul\":2952:2999   */\n      mstore\n        /* \"#utility.yul\":3016:3147   */\n      tag_89\n        /* \"#utility.yul\":3142:3146   */\n      dup2\n        /* \"#utility.yul\":3016:3147   */\n      tag_60\n      jump\t// in\n    tag_89:\n        /* \"#utility.yul\":3008:3147   */\n      swap1\n      pop\n        /* \"#utility.yul\":2735:3154   */\n      swap2\n      swap1\n      pop\n      jump\t// out\n        /* \"#utility.yul\":3160:3340   */\n    tag_61:\n        /* \"#utility.yul\":3300:3332   */\n      0x546865726520616c7265616479206973206120686967686572206269642e0000\n        /* \"#utility.yul\":3296:3297   */\n      0x00\n        /* \"#utility.yul\":3288:3294   */\n      dup3\n        /* \"#utility.yul\":3284:3298   */\n      add\n        /* \"#utility.yul\":3277:3333   */\n      mstore\n        /* \"#utility.yul\":3160:3340   */\n      pop\n      jump\t// out\n        /* \"#utility.yul\":3346:3712   */\n    tag_62:\n        /* \"#utility.yul\":3488:3491   */\n      0x00\n        /* \"#utility.yul\":3509:3576   */\n      tag_92\n        /* \"#utility.yul\":3573:3575   */\n      0x1e\n        /* \"#utility.yul\":3568:3571   */\n      dup4\n        /* \"#utility.yul\":3509:3576   */\n      tag_56\n      jump\t// in\n    tag_92:\n        /* \"#utility.yul\":3502:3576   */\n      swap2\n      pop\n        /* \"#utility.yul\":3585:3678   */\n      tag_93\n        /* \"#utility.yul\":3674:3677   */\n      dup3\n        /* \"#utility.yul\":3585:3678   */\n      tag_61\n      jump\t// in\n    tag_93:\n        /* \"#utility.yul\":3703:3705   */\n      0x20\n        /* \"#utility.yul\":3698:3701   */\n      dup3\n        /* \"#utility.yul\":3694:3706   */\n      add\n        /* \"#utility.yul\":3687:3706   */\n      swap1\n      pop\n        /* \"#utility.yul\":3346:3712   */\n      swap2\n      swap1\n      pop\n      jump\t// out\n        /* \"#utility.yul\":3718:4137   */\n    tag_43:\n        /* \"#utility.yul\":3884:3888   */\n      0x00\n        /* \"#utility.yul\":3922:3924   */\n      0x20\n        /* \"#utility.yul\":3911:3920   */\n      dup3\n        /* \"#utility.yul\":3907:3925   */\n      add\n        /* \"#utility.yul\":3899:3925   */\n      swap1\n      pop\n        /* \"#utility.yul\":3971:3980   */\n      dup2\n        /* \"#utility.yul\":3965:3969   */\n      dup2\n        /* \"#utility.yul\":3961:3981   */\n      sub\n        /* \"#utility.yul\":3957:3958   */\n      0x00\n        /* \"#utility.yul\":3946:3955   */\n      dup4\n        /* \"#utility.yul\":3942:3959   */\n      add\n        /* \"#utility.yul\":3935:3982   */\n      mstore\n        /* \"#utility.yul\":3999:4130   */\n      tag_95\n        /* \"#utility.yul\":4125:4129   */\n      dup2\n        /* \"#utility.yul\":3999:4130   */\n      tag_62\n      jump\t// in\n    tag_95:\n        /* \"#utility.yul\":3991:4130   */\n      swap1\n      pop\n        /* \"#utility.yul\":3718:4137   */\n      swap2\n      swap1\n      pop\n      jump\t// out\n        /* \"#utility.yul\":4143:4323   */\n    tag_63:\n        /* \"#utility.yul\":4191:4268   */\n      0x4e487b7100000000000000000000000000000000000000000000000000000000\n        /* \"#utility.yul\":4188:4189   */\n      0x00\n        /* \"#utility.yul\":4181:4269   */\n      mstore\n        /* \"#utility.yul\":4288:4292   */\n      0x11\n        /* \"#utility.yul\":4285:4286   */\n      0x04\n        /* \"#utility.yul\":4278:4293   */\n      mstore\n        /* \"#utility.yul\":4312:4316   */\n      0x24\n        /* \"#utility.yul\":4309:4310   */\n      0x00\n        /* \"#utility.yul\":4302:4317   */\n      revert\n        /* \"#utility.yul\":4329:4523   */\n    tag_50:\n        /* \"#utility.yul\":4369:4373   */\n      0x00\n        /* \"#utility.yul\":4389:4409   */\n      tag_98\n        /* \"#utility.yul\":4407:4408   */\n      dup3\n        /* \"#utility.yul\":4389:4409   */\n      tag_51\n      jump\t// in\n    tag_98:\n        /* \"#utility.yul\":4384:4409   */\n      swap2\n      pop\n        /* \"#utility.yul\":4423:4443   */\n      tag_99\n        /* \"#utility.yul\":4441:4442   */\n      dup4\n        /* \"#utility.yul\":4423:4443   */\n      tag_51\n      jump\t// in\n    tag_99:\n        /* \"#utility.yul\":4418:4443   */\n      swap3\n      pop\n        /* \"#utility.yul\":4467:4468   */\n      dup3\n        /* \"#utility.yul\":4464:4465   */\n      dup3\n        /* \"#utility.yul\":4460:4469   */\n      sub\n        /* \"#utility.yul\":4452:4469   */\n      swap1\n      pop\n        /* \"#utility.yul\":4491:4492   */\n      dup2\n        /* \"#utility.yul\":4485:4489   */\n      dup2\n        /* \"#utility.yul\":4482:4493   */\n      gt\n        /* \"#utility.yul\":4479:4516   */\n      iszero\n      tag_100\n      jumpi\n        /* \"#utility.yul\":4496:4514   */\n      tag_101\n      tag_63\n      jump\t// in\n    tag_101:\n        /* \"#utility.yul\":4479:4516   */\n    tag_100:\n        /* \"#utility.yul\":4329:4523   */\n      swap3\n      swap2\n      pop\n      pop\n      jump\t// out\n\n    auxdata: 0xa264697066735822122035e9b767cf31991ea03a98eb5707322450839d1af39789e0ea80e2af97c2692864736f6c634300081a0033\n}\n",
				"bytecode": {
					"linkReferences": {},
					"object": "608060405234801561000f575f80fd5b506040516106de3803806106de83398181016040528101906100319190610080565b804261003d91906100d8565b6002819055505061010b565b5f80fd5b5f819050919050565b61005f8161004d565b8114610069575f80fd5b50565b5f8151905061007a81610056565b92915050565b5f6020828403121561009557610094610049565b5b5f6100a28482850161006c565b91505092915050565b7f4e487b71000000000000000000000000000000000000000000000000000000005f52601160045260245ffd5b5f6100e28261004d565b91506100ed8361004d565b9250828201905080821115610105576101046100ab565b5b92915050565b6105c6806101185f395ff3fe608060405260043610610054575f3560e01c8063305f69dc146100585780634b449cba1461006e57806391f9015714610098578063d57bde79146100c2578063dc201dc2146100ec578063f21777c0146100f6575b5f80fd5b348015610063575f80fd5b5061006c610120565b005b348015610079575f80fd5b506100826101c9565b60405161008f9190610377565b60405180910390f35b3480156100a3575f80fd5b506100ac6101cf565b6040516100b991906103cf565b60405180910390f35b3480156100cd575f80fd5b506100d66101f2565b6040516100e39190610377565b60405180910390f35b6100f46101f8565b005b348015610101575f80fd5b5061010a610339565b6040516101179190610377565b60405180910390f35b6002544211610164576040517f08c379a000000000000000000000000000000000000000000000000000000000815260040161015b90610442565b60405180910390fd5b5f8054906101000a900473ffffffffffffffffffffffffffffffffffffffff1673ffffffffffffffffffffffffffffffffffffffff166108fc4790811502906040515f60405180830381858888f193505050501580156101c6573d5f803e3d5ffd5b50565b60025481565b5f8054906101000a900473ffffffffffffffffffffffffffffffffffffffff1681565b60015481565b60025442111561023d576040517f08c379a0000000000000000000000000000000000000000000000000000000008152600401610234906104aa565b60405180910390fd5b6001543411610281576040517f08c379a000000000000000000000000000000000000000000000000000000000815260040161027890610512565b60405180910390fd5b5f60015411156102f1575f8054906101000a900473ffffffffffffffffffffffffffffffffffffffff1673ffffffffffffffffffffffffffffffffffffffff166108fc60015490811502906040515f60405180830381858888f193505050501580156102ef573d5f803e3d5ffd5b505b335f806101000a81548173ffffffffffffffffffffffffffffffffffffffff021916908373ffffffffffffffffffffffffffffffffffffffff16021790555034600181905550565b5f600254421061034b575f905061035c565b42600254610359919061055d565b90505b90565b5f819050919050565b6103718161035f565b82525050565b5f60208201905061038a5f830184610368565b92915050565b5f73ffffffffffffffffffffffffffffffffffffffff82169050919050565b5f6103b982610390565b9050919050565b6103c9816103af565b82525050565b5f6020820190506103e25f8301846103c0565b92915050565b5f82825260208201905092915050565b7f41756374696f6e206973207374696c6c206f6e676f696e672e000000000000005f82015250565b5f61042c6019836103e8565b9150610437826103f8565b602082019050919050565b5f6020820190508181035f83015261045981610420565b9050919050565b7f41756374696f6e2068617320616c726561647920656e6465642e0000000000005f82015250565b5f610494601a836103e8565b915061049f82610460565b602082019050919050565b5f6020820190508181035f8301526104c181610488565b9050919050565b7f546865726520616c7265616479206973206120686967686572206269642e00005f82015250565b5f6104fc601e836103e8565b9150610507826104c8565b602082019050919050565b5f6020820190508181035f830152610529816104f0565b9050919050565b7f4e487b71000000000000000000000000000000000000000000000000000000005f52601160045260245ffd5b5f6105678261035f565b91506105728361035f565b925082820390508181111561058a57610589610530565b5b9291505056fea264697066735822122035e9b767cf31991ea03a98eb5707322450839d1af39789e0ea80e2af97c2692864736f6c634300081a0033",
					"opcodes": "PUSH1 0x80 PUSH1 0x40 MSTORE CALLVALUE DUP1 ISZERO PUSH2 0xF JUMPI PUSH0 DUP1 REVERT JUMPDEST POP PUSH1 0x40 MLOAD PUSH2 0x6DE CODESIZE SUB DUP1 PUSH2 0x6DE DUP4 CODECOPY DUP2 DUP2 ADD PUSH1 0x40 MSTORE DUP2 ADD SWAP1 PUSH2 0x31 SWAP2 SWAP1 PUSH2 0x80 JUMP JUMPDEST DUP1 TIMESTAMP PUSH2 0x3D SWAP2 SWAP1 PUSH2 0xD8 JUMP JUMPDEST PUSH1 0x2 DUP2 SWAP1 SSTORE POP POP PUSH2 0x10B JUMP JUMPDEST PUSH0 DUP1 REVERT JUMPDEST PUSH0 DUP2 SWAP1 POP SWAP2 SWAP1 POP JUMP JUMPDEST PUSH2 0x5F DUP2 PUSH2 0x4D JUMP JUMPDEST DUP2 EQ PUSH2 0x69 JUMPI PUSH0 DUP1 REVERT JUMPDEST POP JUMP JUMPDEST PUSH0 DUP2 MLOAD SWAP1 POP PUSH2 0x7A DUP2 PUSH2 0x56 JUMP JUMPDEST SWAP3 SWAP2 POP POP JUMP JUMPDEST PUSH0 PUSH1 0x20 DUP3 DUP5 SUB SLT ISZERO PUSH2 0x95 JUMPI PUSH2 0x94 PUSH2 0x49 JUMP JUMPDEST JUMPDEST PUSH0 PUSH2 0xA2 DUP5 DUP3 DUP6 ADD PUSH2 0x6C JUMP JUMPDEST SWAP2 POP POP SWAP3 SWAP2 POP POP JUMP JUMPDEST PUSH32 0x4E487B7100000000000000000000000000000000000000000000000000000000 PUSH0 MSTORE PUSH1 0x11 PUSH1 0x4 MSTORE PUSH1 0x24 PUSH0 REVERT JUMPDEST PUSH0 PUSH2 0xE2 DUP3 PUSH2 0x4D JUMP JUMPDEST SWAP2 POP PUSH2 0xED DUP4 PUSH2 0x4D JUMP JUMPDEST SWAP3 POP DUP3 DUP3 ADD SWAP1 POP DUP1 DUP3 GT ISZERO PUSH2 0x105 JUMPI PUSH2 0x104 PUSH2 0xAB JUMP JUMPDEST JUMPDEST SWAP3 SWAP2 POP POP JUMP JUMPDEST PUSH2 0x5C6 DUP1 PUSH2 0x118 PUSH0 CODECOPY PUSH0 RETURN INVALID PUSH1 0x80 PUSH1 0x40 MSTORE PUSH1 0x4 CALLDATASIZE LT PUSH2 0x54 JUMPI PUSH0 CALLDATALOAD PUSH1 0xE0 SHR DUP1 PUSH4 0x305F69DC EQ PUSH2 0x58 JUMPI DUP1 PUSH4 0x4B449CBA EQ PUSH2 0x6E JUMPI DUP1 PUSH4 0x91F90157 EQ PUSH2 0x98 JUMPI DUP1 PUSH4 0xD57BDE79 EQ PUSH2 0xC2 JUMPI DUP1 PUSH4 0xDC201DC2 EQ PUSH2 0xEC JUMPI DUP1 PUSH4 0xF21777C0 EQ PUSH2 0xF6 JUMPI JUMPDEST PUSH0 DUP1 REVERT JUMPDEST CALLVALUE DUP1 ISZERO PUSH2 0x63 JUMPI PUSH0 DUP1 REVERT JUMPDEST POP PUSH2 0x6C PUSH2 0x120 JUMP JUMPDEST STOP JUMPDEST CALLVALUE DUP1 ISZERO PUSH2 0x79 JUMPI PUSH0 DUP1 REVERT JUMPDEST POP PUSH2 0x82 PUSH2 0x1C9 JUMP JUMPDEST PUSH1 0x40 MLOAD PUSH2 0x8F SWAP2 SWAP1 PUSH2 0x377 JUMP JUMPDEST PUSH1 0x40 MLOAD DUP1 SWAP2 SUB SWAP1 RETURN JUMPDEST CALLVALUE DUP1 ISZERO PUSH2 0xA3 JUMPI PUSH0 DUP1 REVERT JUMPDEST POP PUSH2 0xAC PUSH2 0x1CF JUMP JUMPDEST PUSH1 0x40 MLOAD PUSH2 0xB9 SWAP2 SWAP1 PUSH2 0x3CF JUMP JUMPDEST PUSH1 0x40 MLOAD DUP1 SWAP2 SUB SWAP1 RETURN JUMPDEST CALLVALUE DUP1 ISZERO PUSH2 0xCD JUMPI PUSH0 DUP1 REVERT JUMPDEST POP PUSH2 0xD6 PUSH2 0x1F2 JUMP JUMPDEST PUSH1 0x40 MLOAD PUSH2 0xE3 SWAP2 SWAP1 PUSH2 0x377 JUMP JUMPDEST PUSH1 0x40 MLOAD DUP1 SWAP2 SUB SWAP1 RETURN JUMPDEST PUSH2 0xF4 PUSH2 0x1F8 JUMP JUMPDEST STOP JUMPDEST CALLVALUE DUP1 ISZERO PUSH2 0x101 JUMPI PUSH0 DUP1 REVERT JUMPDEST POP PUSH2 0x10A PUSH2 0x339 JUMP JUMPDEST PUSH1 0x40 MLOAD PUSH2 0x117 SWAP2 SWAP1 PUSH2 0x377 JUMP JUMPDEST PUSH1 0x40 MLOAD DUP1 SWAP2 SUB SWAP1 RETURN JUMPDEST PUSH1 0x2 SLOAD TIMESTAMP GT PUSH2 0x164 JUMPI PUSH1 0x40 MLOAD PUSH32 0x8C379A000000000000000000000000000000000000000000000000000000000 DUP2 MSTORE PUSH1 0x4 ADD PUSH2 0x15B SWAP1 PUSH2 0x442 JUMP JUMPDEST PUSH1 0x40 MLOAD DUP1 SWAP2 SUB SWAP1 REVERT JUMPDEST PUSH0 DUP1 SLOAD SWAP1 PUSH2 0x100 EXP SWAP1 DIV PUSH20 0xFFFFFFFFFFFFFFFFFFFFFFFFFFFFFFFFFFFFFFFF AND PUSH20 0xFFFFFFFFFFFFFFFFFFFFFFFFFFFFFFFFFFFFFFFF AND PUSH2 0x8FC SELFBALANCE SWAP1 DUP2 ISZERO MUL SWAP1 PUSH1 0x40 MLOAD PUSH0 PUSH1 0x40 MLOAD DUP1 DUP4 SUB DUP2 DUP6 DUP9 DUP9 CALL SWAP4 POP POP POP POP ISZERO DUP1 ISZERO PUSH2 0x1C6 JUMPI RETURNDATASIZE PUSH0 DUP1 RETURNDATACOPY RETURNDATASIZE PUSH0 REVERT JUMPDEST POP JUMP JUMPDEST PUSH1 0x2 SLOAD DUP2 JUMP JUMPDEST PUSH0 DUP1 SLOAD SWAP1 PUSH2 0x100 EXP SWAP1 DIV PUSH20 0xFFFFFFFFFFFFFFFFFFFFFFFFFFFFFFFFFFFFFFFF AND DUP2 JUMP JUMPDEST PUSH1 0x1 SLOAD DUP2 JUMP JUMPDEST PUSH1 0x2 SLOAD TIMESTAMP GT ISZERO PUSH2 0x23D JUMPI PUSH1 0x40 MLOAD PUSH32 0x8C379A000000000000000000000000000000000000000000000000000000000 DUP2 MSTORE PUSH1 0x4 ADD PUSH2 0x234 SWAP1 PUSH2 0x4AA JUMP JUMPDEST PUSH1 0x40 MLOAD DUP1 SWAP2 SUB SWAP1 REVERT JUMPDEST PUSH1 0x1 SLOAD CALLVALUE GT PUSH2 0x281 JUMPI PUSH1 0x40 MLOAD PUSH32 0x8C379A000000000000000000000000000000000000000000000000000000000 DUP2 MSTORE PUSH1 0x4 ADD PUSH2 0x278 SWAP1 PUSH2 0x512 JUMP JUMPDEST PUSH1 0x40 MLOAD DUP1 SWAP2 SUB SWAP1 REVERT JUMPDEST PUSH0 PUSH1 0x1 SLOAD GT ISZERO PUSH2 0x2F1 JUMPI PUSH0 DUP1 SLOAD SWAP1 PUSH2 0x100 EXP SWAP1 DIV PUSH20 0xFFFFFFFFFFFFFFFFFFFFFFFFFFFFFFFFFFFFFFFF AND PUSH20 0xFFFFFFFFFFFFFFFFFFFFFFFFFFFFFFFFFFFFFFFF AND PUSH2 0x8FC PUSH1 0x1 SLOAD SWAP1 DUP2 ISZERO MUL SWAP1 PUSH1 0x40 MLOAD PUSH0 PUSH1 0x40 MLOAD DUP1 DUP4 SUB DUP2 DUP6 DUP9 DUP9 CALL SWAP4 POP POP POP POP ISZERO DUP1 ISZERO PUSH2 0x2EF JUMPI RETURNDATASIZE PUSH0 DUP1 RETURNDATACOPY RETURNDATASIZE PUSH0 REVERT JUMPDEST POP JUMPDEST CALLER PUSH0 DUP1 PUSH2 0x100 EXP DUP2 SLOAD DUP2 PUSH20 0xFFFFFFFFFFFFFFFFFFFFFFFFFFFFFFFFFFFFFFFF MUL NOT AND SWAP1 DUP4 PUSH20 0xFFFFFFFFFFFFFFFFFFFFFFFFFFFFFFFFFFFFFFFF AND MUL OR SWAP1 SSTORE POP CALLVALUE PUSH1 0x1 DUP2 SWAP1 SSTORE POP JUMP JUMPDEST PUSH0 PUSH1 0x2 SLOAD TIMESTAMP LT PUSH2 0x34B JUMPI PUSH0 SWAP1 POP PUSH2 0x35C JUMP JUMPDEST TIMESTAMP PUSH1 0x2 SLOAD PUSH2 0x359 SWAP2 SWAP1 PUSH2 0x55D JUMP JUMPDEST SWAP1 POP JUMPDEST SWAP1 JUMP JUMPDEST PUSH0 DUP2 SWAP1 POP SWAP2 SWAP1 POP JUMP JUMPDEST PUSH2 0x371 DUP2 PUSH2 0x35F JUMP JUMPDEST DUP3 MSTORE POP POP JUMP JUMPDEST PUSH0 PUSH1 0x20 DUP3 ADD SWAP1 POP PUSH2 0x38A PUSH0 DUP4 ADD DUP5 PUSH2 0x368 JUMP JUMPDEST SWAP3 SWAP2 POP POP JUMP JUMPDEST PUSH0 PUSH20 0xFFFFFFFFFFFFFFFFFFFFFFFFFFFFFFFFFFFFFFFF DUP3 AND SWAP1 POP SWAP2 SWAP1 POP JUMP JUMPDEST PUSH0 PUSH2 0x3B9 DUP3 PUSH2 0x390 JUMP JUMPDEST SWAP1 POP SWAP2 SWAP1 POP JUMP JUMPDEST PUSH2 0x3C9 DUP2 PUSH2 0x3AF JUMP JUMPDEST DUP3 MSTORE POP POP JUMP JUMPDEST PUSH0 PUSH1 0x20 DUP3 ADD SWAP1 POP PUSH2 0x3E2 PUSH0 DUP4 ADD DUP5 PUSH2 0x3C0 JUMP JUMPDEST SWAP3 SWAP2 POP POP JUMP JUMPDEST PUSH0 DUP3 DUP3 MSTORE PUSH1 0x20 DUP3 ADD SWAP1 POP SWAP3 SWAP2 POP POP JUMP JUMPDEST PUSH32 0x41756374696F6E206973207374696C6C206F6E676F696E672E00000000000000 PUSH0 DUP3 ADD MSTORE POP JUMP JUMPDEST PUSH0 PUSH2 0x42C PUSH1 0x19 DUP4 PUSH2 0x3E8 JUMP JUMPDEST SWAP2 POP PUSH2 0x437 DUP3 PUSH2 0x3F8 JUMP JUMPDEST PUSH1 0x20 DUP3 ADD SWAP1 POP SWAP2 SWAP1 POP JUMP JUMPDEST PUSH0 PUSH1 0x20 DUP3 ADD SWAP1 POP DUP2 DUP2 SUB PUSH0 DUP4 ADD MSTORE PUSH2 0x459 DUP2 PUSH2 0x420 JUMP JUMPDEST SWAP1 POP SWAP2 SWAP1 POP JUMP JUMPDEST PUSH32 0x41756374696F6E2068617320616C726561647920656E6465642E000000000000 PUSH0 DUP3 ADD MSTORE POP JUMP JUMPDEST PUSH0 PUSH2 0x494 PUSH1 0x1A DUP4 PUSH2 0x3E8 JUMP JUMPDEST SWAP2 POP PUSH2 0x49F DUP3 PUSH2 0x460 JUMP JUMPDEST PUSH1 0x20 DUP3 ADD SWAP1 POP SWAP2 SWAP1 POP JUMP JUMPDEST PUSH0 PUSH1 0x20 DUP3 ADD SWAP1 POP DUP2 DUP2 SUB PUSH0 DUP4 ADD MSTORE PUSH2 0x4C1 DUP2 PUSH2 0x488 JUMP JUMPDEST SWAP1 POP SWAP2 SWAP1 POP JUMP JUMPDEST PUSH32 0x546865726520616C7265616479206973206120686967686572206269642E0000 PUSH0 DUP3 ADD MSTORE POP JUMP JUMPDEST PUSH0 PUSH2 0x4FC PUSH1 0x1E DUP4 PUSH2 0x3E8 JUMP JUMPDEST SWAP2 POP PUSH2 0x507 DUP3 PUSH2 0x4C8 JUMP JUMPDEST PUSH1 0x20 DUP3 ADD SWAP1 POP SWAP2 SWAP1 POP JUMP JUMPDEST PUSH0 PUSH1 0x20 DUP3 ADD SWAP1 POP DUP2 DUP2 SUB PUSH0 DUP4 ADD MSTORE PUSH2 0x529 DUP2 PUSH2 0x4F0 JUMP JUMPDEST SWAP1 POP SWAP2 SWAP1 POP JUMP JUMPDEST PUSH32 0x4E487B7100000000000000000000000000000000000000000000000000000000 PUSH0 MSTORE PUSH1 0x11 PUSH1 0x4 MSTORE PUSH1 0x24 PUSH0 REVERT JUMPDEST PUSH0 PUSH2 0x567 DUP3 PUSH2 0x35F JUMP JUMPDEST SWAP2 POP PUSH2 0x572 DUP4 PUSH2 0x35F JUMP JUMPDEST SWAP3 POP DUP3 DUP3 SUB SWAP1 POP DUP2 DUP2 GT ISZERO PUSH2 0x58A JUMPI PUSH2 0x589 PUSH2 0x530 JUMP JUMPDEST JUMPDEST SWAP3 SWAP2 POP POP JUMP INVALID LOG2 PUSH5 0x6970667358 0x22 SLT KECCAK256 CALLDATALOAD 0xE9 0xB7 PUSH8 0xCF31991EA03A98EB JUMPI SMOD ORIGIN 0x24 POP DUP4 SWAP14 BYTE RETURN SWAP8 DUP10 0xE0 0xEA DUP1 0xE2 0xAF SWAP8 0xC2 PUSH10 0x2864736F6C634300081A STOP CALLER "
				},
				"gasEstimates": {
					"creation": {
						"codeDepositCost": "295600",
						"executionCost": "infinite",
						"totalCost": "infinite"
					},
					"external": {
						"FinalizeAuction()": "infinite",
						"GetTimeLeft()": "infinite",
						"PlaceBid()": "infinite",
						"auctionEndTime()": "2425",
						"highestBid()": "2469",
						"highestBidder()": "2527"
					}
				},
				"methodIdentifiers": {
					"FinalizeAuction()": "305f69dc",
					"GetTimeLeft()": "f21777c0",
					"PlaceBid()": "dc201dc2",
					"auctionEndTime()": "4b449cba",
					"highestBid()": "d57bde79",
					"highestBidder()": "91f90157"
				}
			},
			"storageLayout": {
				"storage": [
					{
						"astId": 3,
						"contract": "contracts/Auction_NotSecure.sol:Auction",
						"label": "highestBidder",
						"offset": 0,
						"slot": "0",
						"type": "t_address"
					},
					{
						"astId": 5,
						"contract": "contracts/Auction_NotSecure.sol:Auction",
						"label": "highestBid",
						"offset": 0,
						"slot": "1",
						"type": "t_uint256"
					},
					{
						"astId": 7,
						"contract": "contracts/Auction_NotSecure.sol:Auction",
						"label": "auctionEndTime",
						"offset": 0,
						"slot": "2",
						"type": "t_uint256"
					}
				],
				"types": {
					"t_address": {
						"encoding": "inplace",
						"label": "address",
						"numberOfBytes": "20"
					},
					"t_uint256": {
						"encoding": "inplace",
						"label": "uint256",
						"numberOfBytes": "32"
					}
				}
			},
			"userdoc": {
				"kind": "user",
				"methods": {},
				"version": 1
			}
		}
	}
}