{
	"contracts/Withdrawal_SC01_Secure.sol": {
		"Withdrawal": {
			"abi": [
				{
					"inputs": [],
					"name": "CheckBalance",
					"outputs": [
						{
							"internalType": "uint256",
							"name": "",
							"type": "uint256"
						}
					],
					"stateMutability": "view",
					"type": "function"
				},
				{
					"inputs": [],
					"name": "Deposit",
					"outputs": [],
					"stateMutability": "payable",
					"type": "function"
				},
				{
					"inputs": [
						{
							"internalType": "uint256",
							"name": "amount",
							"type": "uint256"
						}
					],
					"name": "Withdraw",
					"outputs": [],
					"stateMutability": "nonpayable",
					"type": "function"
				}
			],
			"devdoc": {
				"kind": "dev",
				"methods": {},
				"version": 1
			},
			"evm": {
				"assembly": "    /* \"contracts/Withdrawal_SC01_Secure.sol\":126:1618  contract Withdrawal is ReentrancyGuard {... */\n  mstore(0x40, 0x80)\n  callvalue\n  dup1\n  iszero\n  tag_1\n  jumpi\n  0x00\n  dup1\n  revert\ntag_1:\n  pop\n    /* \"@openzeppelin/contracts/security/ReentrancyGuard.sol\":1716:1717  1 */\n  0x01\n    /* \"@openzeppelin/contracts/security/ReentrancyGuard.sol\":1821:1828  _status */\n  0x00\n    /* \"@openzeppelin/contracts/security/ReentrancyGuard.sol\":1821:1843  _status = _NOT_ENTERED */\n  dup2\n  swap1\n  sstore\n  pop\n    /* \"contracts/Withdrawal_SC01_Secure.sol\":126:1618  contract Withdrawal is ReentrancyGuard {... */\n  dataSize(sub_0)\n  dup1\n  dataOffset(sub_0)\n  0x00\n  codecopy\n  0x00\n  return\nstop\n\nsub_0: assembly {\n        /* \"contracts/Withdrawal_SC01_Secure.sol\":126:1618  contract Withdrawal is ReentrancyGuard {... */\n      mstore(0x40, 0x80)\n      jumpi(tag_1, lt(calldatasize, 0x04))\n      shr(0xe0, calldataload(0x00))\n      dup1\n      0x44e73b78\n      eq\n      tag_2\n      jumpi\n      dup1\n      0x5b6b431d\n      eq\n      tag_3\n      jumpi\n      dup1\n      0xed21248c\n      eq\n      tag_4\n      jumpi\n    tag_1:\n      0x00\n      dup1\n      revert\n        /* \"contracts/Withdrawal_SC01_Secure.sol\":470:570  function CheckBalance() public view returns (uint256) {... */\n    tag_2:\n      callvalue\n      dup1\n      iszero\n      tag_5\n      jumpi\n      0x00\n      dup1\n      revert\n    tag_5:\n      pop\n      tag_6\n      tag_7\n      jump\t// in\n    tag_6:\n      mload(0x40)\n      tag_8\n      swap2\n      swap1\n      tag_9\n      jump\t// in\n    tag_8:\n      mload(0x40)\n      dup1\n      swap2\n      sub\n      swap1\n      return\n        /* \"contracts/Withdrawal_SC01_Secure.sol\":972:1615  function Withdraw(uint256 amount) public nonReentrant {... */\n    tag_3:\n      callvalue\n      dup1\n      iszero\n      tag_10\n      jumpi\n      0x00\n      dup1\n      revert\n    tag_10:\n      pop\n      tag_11\n      0x04\n      dup1\n      calldatasize\n      sub\n      dup2\n      add\n      swap1\n      tag_12\n      swap2\n      swap1\n      tag_13\n      jump\t// in\n    tag_12:\n      tag_14\n      jump\t// in\n    tag_11:\n      stop\n        /* \"contracts/Withdrawal_SC01_Secure.sol\":621:893  function Deposit() public payable {... */\n    tag_4:\n      tag_15\n      tag_16\n      jump\t// in\n    tag_15:\n      stop\n        /* \"contracts/Withdrawal_SC01_Secure.sol\":470:570  function CheckBalance() public view returns (uint256) {... */\n    tag_7:\n        /* \"contracts/Withdrawal_SC01_Secure.sol\":515:522  uint256 */\n      0x00\n        /* \"contracts/Withdrawal_SC01_Secure.sol\":542:550  balances */\n      0x01\n        /* \"contracts/Withdrawal_SC01_Secure.sol\":542:562  balances[msg.sender] */\n      0x00\n        /* \"contracts/Withdrawal_SC01_Secure.sol\":551:561  msg.sender */\n      caller\n        /* \"contracts/Withdrawal_SC01_Secure.sol\":542:562  balances[msg.sender] */\n      0xffffffffffffffffffffffffffffffffffffffff\n      and\n      0xffffffffffffffffffffffffffffffffffffffff\n      and\n      dup2\n      mstore\n      0x20\n      add\n      swap1\n      dup2\n      mstore\n      0x20\n      add\n      0x00\n      keccak256\n      sload\n        /* \"contracts/Withdrawal_SC01_Secure.sol\":535:562  return balances[msg.sender] */\n      swap1\n      pop\n        /* \"contracts/Withdrawal_SC01_Secure.sol\":470:570  function CheckBalance() public view returns (uint256) {... */\n      swap1\n      jump\t// out\n        /* \"contracts/Withdrawal_SC01_Secure.sol\":972:1615  function Withdraw(uint256 amount) public nonReentrant {... */\n    tag_14:\n        /* \"@openzeppelin/contracts/security/ReentrancyGuard.sol\":2261:2282  _nonReentrantBefore() */\n      tag_19\n        /* \"@openzeppelin/contracts/security/ReentrancyGuard.sol\":2261:2280  _nonReentrantBefore */\n      tag_20\n        /* \"@openzeppelin/contracts/security/ReentrancyGuard.sol\":2261:2282  _nonReentrantBefore() */\n      jump\t// in\n    tag_19:\n        /* \"contracts/Withdrawal_SC01_Secure.sol\":1069:1075  amount */\n      dup1\n        /* \"contracts/Withdrawal_SC01_Secure.sol\":1045:1053  balances */\n      0x01\n        /* \"contracts/Withdrawal_SC01_Secure.sol\":1045:1065  balances[msg.sender] */\n      0x00\n        /* \"contracts/Withdrawal_SC01_Secure.sol\":1054:1064  msg.sender */\n      caller\n        /* \"contracts/Withdrawal_SC01_Secure.sol\":1045:1065  balances[msg.sender] */\n      0xffffffffffffffffffffffffffffffffffffffff\n      and\n      0xffffffffffffffffffffffffffffffffffffffff\n      and\n      dup2\n      mstore\n      0x20\n      add\n      swap1\n      dup2\n      mstore\n      0x20\n      add\n      0x00\n      keccak256\n      sload\n        /* \"contracts/Withdrawal_SC01_Secure.sol\":1045:1075  balances[msg.sender] >= amount */\n      lt\n      iszero\n        /* \"contracts/Withdrawal_SC01_Secure.sol\":1037:1101  require(balances[msg.sender] >= amount, \"Insufficient balance.\") */\n      tag_22\n      jumpi\n      mload(0x40)\n      0x08c379a000000000000000000000000000000000000000000000000000000000\n      dup2\n      mstore\n      0x04\n      add\n      tag_23\n      swap1\n      tag_24\n      jump\t// in\n    tag_23:\n      mload(0x40)\n      dup1\n      swap2\n      sub\n      swap1\n      revert\n    tag_22:\n        /* \"contracts/Withdrawal_SC01_Secure.sol\":1223:1229  amount */\n      dup1\n        /* \"contracts/Withdrawal_SC01_Secure.sol\":1199:1207  balances */\n      0x01\n        /* \"contracts/Withdrawal_SC01_Secure.sol\":1199:1219  balances[msg.sender] */\n      0x00\n        /* \"contracts/Withdrawal_SC01_Secure.sol\":1208:1218  msg.sender */\n      caller\n        /* \"contracts/Withdrawal_SC01_Secure.sol\":1199:1219  balances[msg.sender] */\n      0xffffffffffffffffffffffffffffffffffffffff\n      and\n      0xffffffffffffffffffffffffffffffffffffffff\n      and\n      dup2\n      mstore\n      0x20\n      add\n      swap1\n      dup2\n      mstore\n      0x20\n      add\n      0x00\n      keccak256\n      0x00\n        /* \"contracts/Withdrawal_SC01_Secure.sol\":1199:1229  balances[msg.sender] -= amount */\n      dup3\n      dup3\n      sload\n      tag_25\n      swap2\n      swap1\n      tag_26\n      jump\t// in\n    tag_25:\n      swap3\n      pop\n      pop\n      dup2\n      swap1\n      sstore\n      pop\n        /* \"contracts/Withdrawal_SC01_Secure.sol\":1292:1304  bool success */\n      0x00\n        /* \"contracts/Withdrawal_SC01_Secure.sol\":1318:1328  msg.sender */\n      caller\n        /* \"contracts/Withdrawal_SC01_Secure.sol\":1310:1334  payable(msg.sender).call */\n      0xffffffffffffffffffffffffffffffffffffffff\n      and\n        /* \"contracts/Withdrawal_SC01_Secure.sol\":1342:1348  amount */\n      dup3\n        /* \"contracts/Withdrawal_SC01_Secure.sol\":1310:1353  payable(msg.sender).call{value: amount}(\"\") */\n      mload(0x40)\n      tag_27\n      swap1\n      tag_28\n      jump\t// in\n    tag_27:\n      0x00\n      mload(0x40)\n      dup1\n      dup4\n      sub\n      dup2\n      dup6\n      dup8\n      gas\n      call\n      swap3\n      pop\n      pop\n      pop\n      returndatasize\n      dup1\n      0x00\n      dup2\n      eq\n      tag_31\n      jumpi\n      mload(0x40)\n      swap2\n      pop\n      and(add(returndatasize, 0x3f), not(0x1f))\n      dup3\n      add\n      0x40\n      mstore\n      returndatasize\n      dup3\n      mstore\n      returndatasize\n      0x00\n      0x20\n      dup5\n      add\n      returndatacopy\n      jump(tag_30)\n    tag_31:\n      0x60\n      swap2\n      pop\n    tag_30:\n      pop\n        /* \"contracts/Withdrawal_SC01_Secure.sol\":1291:1353  (bool success, ) = payable(msg.sender).call{value: amount}(\"\") */\n      pop\n      swap1\n      pop\n        /* \"contracts/Withdrawal_SC01_Secure.sol\":1372:1379  success */\n      dup1\n        /* \"contracts/Withdrawal_SC01_Secure.sol\":1364:1400  require(success, \"Transfer failed.\") */\n      tag_32\n      jumpi\n      mload(0x40)\n      0x08c379a000000000000000000000000000000000000000000000000000000000\n      dup2\n      mstore\n      0x04\n      add\n      tag_33\n      swap1\n      tag_34\n      jump\t// in\n    tag_33:\n      mload(0x40)\n      dup1\n      swap2\n      sub\n      swap1\n      revert\n    tag_32:\n        /* \"contracts/Withdrawal_SC01_Secure.sol\":1026:1615  {... */\n      pop\n        /* \"@openzeppelin/contracts/security/ReentrancyGuard.sol\":2303:2323  _nonReentrantAfter() */\n      tag_35\n        /* \"@openzeppelin/contracts/security/ReentrancyGuard.sol\":2303:2321  _nonReentrantAfter */\n      tag_36\n        /* \"@openzeppelin/contracts/security/ReentrancyGuard.sol\":2303:2323  _nonReentrantAfter() */\n      jump\t// in\n    tag_35:\n        /* \"contracts/Withdrawal_SC01_Secure.sol\":972:1615  function Withdraw(uint256 amount) public nonReentrant {... */\n      pop\n      jump\t// out\n        /* \"contracts/Withdrawal_SC01_Secure.sol\":621:893  function Deposit() public payable {... */\n    tag_16:\n        /* \"contracts/Withdrawal_SC01_Secure.sol\":686:687  0 */\n      0x00\n        /* \"contracts/Withdrawal_SC01_Secure.sol\":674:683  msg.value */\n      callvalue\n        /* \"contracts/Withdrawal_SC01_Secure.sol\":674:687  msg.value > 0 */\n      gt\n        /* \"contracts/Withdrawal_SC01_Secure.sol\":666:725  require(msg.value > 0, \"You must deposit more than 0 ETH.\") */\n      tag_38\n      jumpi\n      mload(0x40)\n      0x08c379a000000000000000000000000000000000000000000000000000000000\n      dup2\n      mstore\n      0x04\n      add\n      tag_39\n      swap1\n      tag_40\n      jump\t// in\n    tag_39:\n      mload(0x40)\n      dup1\n      swap2\n      sub\n      swap1\n      revert\n    tag_38:\n        /* \"contracts/Withdrawal_SC01_Secure.sol\":760:769  msg.value */\n      callvalue\n        /* \"contracts/Withdrawal_SC01_Secure.sol\":736:744  balances */\n      0x01\n        /* \"contracts/Withdrawal_SC01_Secure.sol\":736:756  balances[msg.sender] */\n      0x00\n        /* \"contracts/Withdrawal_SC01_Secure.sol\":745:755  msg.sender */\n      caller\n        /* \"contracts/Withdrawal_SC01_Secure.sol\":736:756  balances[msg.sender] */\n      0xffffffffffffffffffffffffffffffffffffffff\n      and\n      0xffffffffffffffffffffffffffffffffffffffff\n      and\n      dup2\n      mstore\n      0x20\n      add\n      swap1\n      dup2\n      mstore\n      0x20\n      add\n      0x00\n      keccak256\n      0x00\n        /* \"contracts/Withdrawal_SC01_Secure.sol\":736:769  balances[msg.sender] += msg.value */\n      dup3\n      dup3\n      sload\n      tag_41\n      swap2\n      swap1\n      tag_42\n      jump\t// in\n    tag_41:\n      swap3\n      pop\n      pop\n      dup2\n      swap1\n      sstore\n      pop\n        /* \"contracts/Withdrawal_SC01_Secure.sol\":621:893  function Deposit() public payable {... */\n      jump\t// out\n        /* \"@openzeppelin/contracts/security/ReentrancyGuard.sol\":2336:2623  function _nonReentrantBefore() private {... */\n    tag_20:\n        /* \"@openzeppelin/contracts/security/ReentrancyGuard.sol\":1759:1760  2 */\n      0x02\n        /* \"@openzeppelin/contracts/security/ReentrancyGuard.sol\":2468:2475  _status */\n      sload(0x00)\n        /* \"@openzeppelin/contracts/security/ReentrancyGuard.sol\":2468:2487  _status != _ENTERED */\n      sub\n        /* \"@openzeppelin/contracts/security/ReentrancyGuard.sol\":2460:2523  require(_status != _ENTERED, \"ReentrancyGuard: reentrant call\") */\n      tag_44\n      jumpi\n      mload(0x40)\n      0x08c379a000000000000000000000000000000000000000000000000000000000\n      dup2\n      mstore\n      0x04\n      add\n      tag_45\n      swap1\n      tag_46\n      jump\t// in\n    tag_45:\n      mload(0x40)\n      dup1\n      swap2\n      sub\n      swap1\n      revert\n    tag_44:\n        /* \"@openzeppelin/contracts/security/ReentrancyGuard.sol\":1759:1760  2 */\n      0x02\n        /* \"@openzeppelin/contracts/security/ReentrancyGuard.sol\":2598:2605  _status */\n      0x00\n        /* \"@openzeppelin/contracts/security/ReentrancyGuard.sol\":2598:2616  _status = _ENTERED */\n      dup2\n      swap1\n      sstore\n      pop\n        /* \"@openzeppelin/contracts/security/ReentrancyGuard.sol\":2336:2623  function _nonReentrantBefore() private {... */\n      jump\t// out\n        /* \"@openzeppelin/contracts/security/ReentrancyGuard.sol\":2629:2838  function _nonReentrantAfter() private {... */\n    tag_36:\n        /* \"@openzeppelin/contracts/security/ReentrancyGuard.sol\":1716:1717  1 */\n      0x01\n        /* \"@openzeppelin/contracts/security/ReentrancyGuard.sol\":2809:2816  _status */\n      0x00\n        /* \"@openzeppelin/contracts/security/ReentrancyGuard.sol\":2809:2831  _status = _NOT_ENTERED */\n      dup2\n      swap1\n      sstore\n      pop\n        /* \"@openzeppelin/contracts/security/ReentrancyGuard.sol\":2629:2838  function _nonReentrantAfter() private {... */\n      jump\t// out\n        /* \"#utility.yul\":7:84   */\n    tag_48:\n        /* \"#utility.yul\":44:51   */\n      0x00\n        /* \"#utility.yul\":73:78   */\n      dup2\n        /* \"#utility.yul\":62:78   */\n      swap1\n      pop\n        /* \"#utility.yul\":7:84   */\n      swap2\n      swap1\n      pop\n      jump\t// out\n        /* \"#utility.yul\":90:208   */\n    tag_49:\n        /* \"#utility.yul\":177:201   */\n      tag_71\n        /* \"#utility.yul\":195:200   */\n      dup2\n        /* \"#utility.yul\":177:201   */\n      tag_48\n      jump\t// in\n    tag_71:\n        /* \"#utility.yul\":172:175   */\n      dup3\n        /* \"#utility.yul\":165:202   */\n      mstore\n        /* \"#utility.yul\":90:208   */\n      pop\n      pop\n      jump\t// out\n        /* \"#utility.yul\":214:436   */\n    tag_9:\n        /* \"#utility.yul\":307:311   */\n      0x00\n        /* \"#utility.yul\":345:347   */\n      0x20\n        /* \"#utility.yul\":334:343   */\n      dup3\n        /* \"#utility.yul\":330:348   */\n      add\n        /* \"#utility.yul\":322:348   */\n      swap1\n      pop\n        /* \"#utility.yul\":358:429   */\n      tag_73\n        /* \"#utility.yul\":426:427   */\n      0x00\n        /* \"#utility.yul\":415:424   */\n      dup4\n        /* \"#utility.yul\":411:428   */\n      add\n        /* \"#utility.yul\":402:408   */\n      dup5\n        /* \"#utility.yul\":358:429   */\n      tag_49\n      jump\t// in\n    tag_73:\n        /* \"#utility.yul\":214:436   */\n      swap3\n      swap2\n      pop\n      pop\n      jump\t// out\n        /* \"#utility.yul\":523:640   */\n    tag_51:\n        /* \"#utility.yul\":632:633   */\n      0x00\n        /* \"#utility.yul\":629:630   */\n      dup1\n        /* \"#utility.yul\":622:634   */\n      revert\n        /* \"#utility.yul\":769:891   */\n    tag_53:\n        /* \"#utility.yul\":842:866   */\n      tag_78\n        /* \"#utility.yul\":860:865   */\n      dup2\n        /* \"#utility.yul\":842:866   */\n      tag_48\n      jump\t// in\n    tag_78:\n        /* \"#utility.yul\":835:840   */\n      dup2\n        /* \"#utility.yul\":832:867   */\n      eq\n        /* \"#utility.yul\":822:885   */\n      tag_79\n      jumpi\n        /* \"#utility.yul\":881:882   */\n      0x00\n        /* \"#utility.yul\":878:879   */\n      dup1\n        /* \"#utility.yul\":871:883   */\n      revert\n        /* \"#utility.yul\":822:885   */\n    tag_79:\n        /* \"#utility.yul\":769:891   */\n      pop\n      jump\t// out\n        /* \"#utility.yul\":897:1036   */\n    tag_54:\n        /* \"#utility.yul\":943:948   */\n      0x00\n        /* \"#utility.yul\":981:987   */\n      dup2\n        /* \"#utility.yul\":968:988   */\n      calldataload\n        /* \"#utility.yul\":959:988   */\n      swap1\n      pop\n        /* \"#utility.yul\":997:1030   */\n      tag_81\n        /* \"#utility.yul\":1024:1029   */\n      dup2\n        /* \"#utility.yul\":997:1030   */\n      tag_53\n      jump\t// in\n    tag_81:\n        /* \"#utility.yul\":897:1036   */\n      swap3\n      swap2\n      pop\n      pop\n      jump\t// out\n        /* \"#utility.yul\":1042:1371   */\n    tag_13:\n        /* \"#utility.yul\":1101:1107   */\n      0x00\n        /* \"#utility.yul\":1150:1152   */\n      0x20\n        /* \"#utility.yul\":1138:1147   */\n      dup3\n        /* \"#utility.yul\":1129:1136   */\n      dup5\n        /* \"#utility.yul\":1125:1148   */\n      sub\n        /* \"#utility.yul\":1121:1153   */\n      slt\n        /* \"#utility.yul\":1118:1237   */\n      iszero\n      tag_83\n      jumpi\n        /* \"#utility.yul\":1156:1235   */\n      tag_84\n      tag_51\n      jump\t// in\n    tag_84:\n        /* \"#utility.yul\":1118:1237   */\n    tag_83:\n        /* \"#utility.yul\":1276:1277   */\n      0x00\n        /* \"#utility.yul\":1301:1354   */\n      tag_85\n        /* \"#utility.yul\":1346:1353   */\n      dup5\n        /* \"#utility.yul\":1337:1343   */\n      dup3\n        /* \"#utility.yul\":1326:1335   */\n      dup6\n        /* \"#utility.yul\":1322:1344   */\n      add\n        /* \"#utility.yul\":1301:1354   */\n      tag_54\n      jump\t// in\n    tag_85:\n        /* \"#utility.yul\":1291:1354   */\n      swap2\n      pop\n        /* \"#utility.yul\":1247:1364   */\n      pop\n        /* \"#utility.yul\":1042:1371   */\n      swap3\n      swap2\n      pop\n      pop\n      jump\t// out\n        /* \"#utility.yul\":1377:1546   */\n    tag_55:\n        /* \"#utility.yul\":1461:1472   */\n      0x00\n        /* \"#utility.yul\":1495:1501   */\n      dup3\n        /* \"#utility.yul\":1490:1493   */\n      dup3\n        /* \"#utility.yul\":1483:1502   */\n      mstore\n        /* \"#utility.yul\":1535:1539   */\n      0x20\n        /* \"#utility.yul\":1530:1533   */\n      dup3\n        /* \"#utility.yul\":1526:1540   */\n      add\n        /* \"#utility.yul\":1511:1540   */\n      swap1\n      pop\n        /* \"#utility.yul\":1377:1546   */\n      swap3\n      swap2\n      pop\n      pop\n      jump\t// out\n        /* \"#utility.yul\":1552:1723   */\n    tag_56:\n        /* \"#utility.yul\":1692:1715   */\n      0x496e73756666696369656e742062616c616e63652e0000000000000000000000\n        /* \"#utility.yul\":1688:1689   */\n      0x00\n        /* \"#utility.yul\":1680:1686   */\n      dup3\n        /* \"#utility.yul\":1676:1690   */\n      add\n        /* \"#utility.yul\":1669:1716   */\n      mstore\n        /* \"#utility.yul\":1552:1723   */\n      pop\n      jump\t// out\n        /* \"#utility.yul\":1729:2095   */\n    tag_57:\n        /* \"#utility.yul\":1871:1874   */\n      0x00\n        /* \"#utility.yul\":1892:1959   */\n      tag_89\n        /* \"#utility.yul\":1956:1958   */\n      0x15\n        /* \"#utility.yul\":1951:1954   */\n      dup4\n        /* \"#utility.yul\":1892:1959   */\n      tag_55\n      jump\t// in\n    tag_89:\n        /* \"#utility.yul\":1885:1959   */\n      swap2\n      pop\n        /* \"#utility.yul\":1968:2061   */\n      tag_90\n        /* \"#utility.yul\":2057:2060   */\n      dup3\n        /* \"#utility.yul\":1968:2061   */\n      tag_56\n      jump\t// in\n    tag_90:\n        /* \"#utility.yul\":2086:2088   */\n      0x20\n        /* \"#utility.yul\":2081:2084   */\n      dup3\n        /* \"#utility.yul\":2077:2089   */\n      add\n        /* \"#utility.yul\":2070:2089   */\n      swap1\n      pop\n        /* \"#utility.yul\":1729:2095   */\n      swap2\n      swap1\n      pop\n      jump\t// out\n        /* \"#utility.yul\":2101:2520   */\n    tag_24:\n        /* \"#utility.yul\":2267:2271   */\n      0x00\n        /* \"#utility.yul\":2305:2307   */\n      0x20\n        /* \"#utility.yul\":2294:2303   */\n      dup3\n        /* \"#utility.yul\":2290:2308   */\n      add\n        /* \"#utility.yul\":2282:2308   */\n      swap1\n      pop\n        /* \"#utility.yul\":2354:2363   */\n      dup2\n        /* \"#utility.yul\":2348:2352   */\n      dup2\n        /* \"#utility.yul\":2344:2364   */\n      sub\n        /* \"#utility.yul\":2340:2341   */\n      0x00\n        /* \"#utility.yul\":2329:2338   */\n      dup4\n        /* \"#utility.yul\":2325:2342   */\n      add\n        /* \"#utility.yul\":2318:2365   */\n      mstore\n        /* \"#utility.yul\":2382:2513   */\n      tag_92\n        /* \"#utility.yul\":2508:2512   */\n      dup2\n        /* \"#utility.yul\":2382:2513   */\n      tag_57\n      jump\t// in\n    tag_92:\n        /* \"#utility.yul\":2374:2513   */\n      swap1\n      pop\n        /* \"#utility.yul\":2101:2520   */\n      swap2\n      swap1\n      pop\n      jump\t// out\n        /* \"#utility.yul\":2526:2706   */\n    tag_58:\n        /* \"#utility.yul\":2574:2651   */\n      0x4e487b7100000000000000000000000000000000000000000000000000000000\n        /* \"#utility.yul\":2571:2572   */\n      0x00\n        /* \"#utility.yul\":2564:2652   */\n      mstore\n        /* \"#utility.yul\":2671:2675   */\n      0x11\n        /* \"#utility.yul\":2668:2669   */\n      0x04\n        /* \"#utility.yul\":2661:2676   */\n      mstore\n        /* \"#utility.yul\":2695:2699   */\n      0x24\n        /* \"#utility.yul\":2692:2693   */\n      0x00\n        /* \"#utility.yul\":2685:2700   */\n      revert\n        /* \"#utility.yul\":2712:2906   */\n    tag_26:\n        /* \"#utility.yul\":2752:2756   */\n      0x00\n        /* \"#utility.yul\":2772:2792   */\n      tag_95\n        /* \"#utility.yul\":2790:2791   */\n      dup3\n        /* \"#utility.yul\":2772:2792   */\n      tag_48\n      jump\t// in\n    tag_95:\n        /* \"#utility.yul\":2767:2792   */\n      swap2\n      pop\n        /* \"#utility.yul\":2806:2826   */\n      tag_96\n        /* \"#utility.yul\":2824:2825   */\n      dup4\n        /* \"#utility.yul\":2806:2826   */\n      tag_48\n      jump\t// in\n    tag_96:\n        /* \"#utility.yul\":2801:2826   */\n      swap3\n      pop\n        /* \"#utility.yul\":2850:2851   */\n      dup3\n        /* \"#utility.yul\":2847:2848   */\n      dup3\n        /* \"#utility.yul\":2843:2852   */\n      sub\n        /* \"#utility.yul\":2835:2852   */\n      swap1\n      pop\n        /* \"#utility.yul\":2874:2875   */\n      dup2\n        /* \"#utility.yul\":2868:2872   */\n      dup2\n        /* \"#utility.yul\":2865:2876   */\n      gt\n        /* \"#utility.yul\":2862:2899   */\n      iszero\n      tag_97\n      jumpi\n        /* \"#utility.yul\":2879:2897   */\n      tag_98\n      tag_58\n      jump\t// in\n    tag_98:\n        /* \"#utility.yul\":2862:2899   */\n    tag_97:\n        /* \"#utility.yul\":2712:2906   */\n      swap3\n      swap2\n      pop\n      pop\n      jump\t// out\n        /* \"#utility.yul\":2912:3059   */\n    tag_59:\n        /* \"#utility.yul\":3013:3024   */\n      0x00\n        /* \"#utility.yul\":3050:3053   */\n      dup2\n        /* \"#utility.yul\":3035:3053   */\n      swap1\n      pop\n        /* \"#utility.yul\":2912:3059   */\n      swap3\n      swap2\n      pop\n      pop\n      jump\t// out\n        /* \"#utility.yul\":3065:3179   */\n    tag_60:\n      pop\n      jump\t// out\n        /* \"#utility.yul\":3185:3583   */\n    tag_61:\n        /* \"#utility.yul\":3344:3347   */\n      0x00\n        /* \"#utility.yul\":3365:3448   */\n      tag_102\n        /* \"#utility.yul\":3446:3447   */\n      0x00\n        /* \"#utility.yul\":3441:3444   */\n      dup4\n        /* \"#utility.yul\":3365:3448   */\n      tag_59\n      jump\t// in\n    tag_102:\n        /* \"#utility.yul\":3358:3448   */\n      swap2\n      pop\n        /* \"#utility.yul\":3457:3550   */\n      tag_103\n        /* \"#utility.yul\":3546:3549   */\n      dup3\n        /* \"#utility.yul\":3457:3550   */\n      tag_60\n      jump\t// in\n    tag_103:\n        /* \"#utility.yul\":3575:3576   */\n      0x00\n        /* \"#utility.yul\":3570:3573   */\n      dup3\n        /* \"#utility.yul\":3566:3577   */\n      add\n        /* \"#utility.yul\":3559:3577   */\n      swap1\n      pop\n        /* \"#utility.yul\":3185:3583   */\n      swap2\n      swap1\n      pop\n      jump\t// out\n        /* \"#utility.yul\":3589:3968   */\n    tag_28:\n        /* \"#utility.yul\":3773:3776   */\n      0x00\n        /* \"#utility.yul\":3795:3942   */\n      tag_105\n        /* \"#utility.yul\":3938:3941   */\n      dup3\n        /* \"#utility.yul\":3795:3942   */\n      tag_61\n      jump\t// in\n    tag_105:\n        /* \"#utility.yul\":3788:3942   */\n      swap2\n      pop\n        /* \"#utility.yul\":3959:3962   */\n      dup2\n        /* \"#utility.yul\":3952:3962   */\n      swap1\n      pop\n        /* \"#utility.yul\":3589:3968   */\n      swap2\n      swap1\n      pop\n      jump\t// out\n        /* \"#utility.yul\":3974:4140   */\n    tag_62:\n        /* \"#utility.yul\":4114:4132   */\n      0x5472616e73666572206661696c65642e00000000000000000000000000000000\n        /* \"#utility.yul\":4110:4111   */\n      0x00\n        /* \"#utility.yul\":4102:4108   */\n      dup3\n        /* \"#utility.yul\":4098:4112   */\n      add\n        /* \"#utility.yul\":4091:4133   */\n      mstore\n        /* \"#utility.yul\":3974:4140   */\n      pop\n      jump\t// out\n        /* \"#utility.yul\":4146:4512   */\n    tag_63:\n        /* \"#utility.yul\":4288:4291   */\n      0x00\n        /* \"#utility.yul\":4309:4376   */\n      tag_108\n        /* \"#utility.yul\":4373:4375   */\n      0x10\n        /* \"#utility.yul\":4368:4371   */\n      dup4\n        /* \"#utility.yul\":4309:4376   */\n      tag_55\n      jump\t// in\n    tag_108:\n        /* \"#utility.yul\":4302:4376   */\n      swap2\n      pop\n        /* \"#utility.yul\":4385:4478   */\n      tag_109\n        /* \"#utility.yul\":4474:4477   */\n      dup3\n        /* \"#utility.yul\":4385:4478   */\n      tag_62\n      jump\t// in\n    tag_109:\n        /* \"#utility.yul\":4503:4505   */\n      0x20\n        /* \"#utility.yul\":4498:4501   */\n      dup3\n        /* \"#utility.yul\":4494:4506   */\n      add\n        /* \"#utility.yul\":4487:4506   */\n      swap1\n      pop\n        /* \"#utility.yul\":4146:4512   */\n      swap2\n      swap1\n      pop\n      jump\t// out\n        /* \"#utility.yul\":4518:4937   */\n    tag_34:\n        /* \"#utility.yul\":4684:4688   */\n      0x00\n        /* \"#utility.yul\":4722:4724   */\n      0x20\n        /* \"#utility.yul\":4711:4720   */\n      dup3\n        /* \"#utility.yul\":4707:4725   */\n      add\n        /* \"#utility.yul\":4699:4725   */\n      swap1\n      pop\n        /* \"#utility.yul\":4771:4780   */\n      dup2\n        /* \"#utility.yul\":4765:4769   */\n      dup2\n        /* \"#utility.yul\":4761:4781   */\n      sub\n        /* \"#utility.yul\":4757:4758   */\n      0x00\n        /* \"#utility.yul\":4746:4755   */\n      dup4\n        /* \"#utility.yul\":4742:4759   */\n      add\n        /* \"#utility.yul\":4735:4782   */\n      mstore\n        /* \"#utility.yul\":4799:4930   */\n      tag_111\n        /* \"#utility.yul\":4925:4929   */\n      dup2\n        /* \"#utility.yul\":4799:4930   */\n      tag_63\n      jump\t// in\n    tag_111:\n        /* \"#utility.yul\":4791:4930   */\n      swap1\n      pop\n        /* \"#utility.yul\":4518:4937   */\n      swap2\n      swap1\n      pop\n      jump\t// out\n        /* \"#utility.yul\":4943:5163   */\n    tag_64:\n        /* \"#utility.yul\":5083:5117   */\n      0x596f75206d757374206465706f736974206d6f7265207468616e203020455448\n        /* \"#utility.yul\":5079:5080   */\n      0x00\n        /* \"#utility.yul\":5071:5077   */\n      dup3\n        /* \"#utility.yul\":5067:5081   */\n      add\n        /* \"#utility.yul\":5060:5118   */\n      mstore\n        /* \"#utility.yul\":5152:5155   */\n      0x2e00000000000000000000000000000000000000000000000000000000000000\n        /* \"#utility.yul\":5147:5149   */\n      0x20\n        /* \"#utility.yul\":5139:5145   */\n      dup3\n        /* \"#utility.yul\":5135:5150   */\n      add\n        /* \"#utility.yul\":5128:5156   */\n      mstore\n        /* \"#utility.yul\":4943:5163   */\n      pop\n      jump\t// out\n        /* \"#utility.yul\":5169:5535   */\n    tag_65:\n        /* \"#utility.yul\":5311:5314   */\n      0x00\n        /* \"#utility.yul\":5332:5399   */\n      tag_114\n        /* \"#utility.yul\":5396:5398   */\n      0x21\n        /* \"#utility.yul\":5391:5394   */\n      dup4\n        /* \"#utility.yul\":5332:5399   */\n      tag_55\n      jump\t// in\n    tag_114:\n        /* \"#utility.yul\":5325:5399   */\n      swap2\n      pop\n        /* \"#utility.yul\":5408:5501   */\n      tag_115\n        /* \"#utility.yul\":5497:5500   */\n      dup3\n        /* \"#utility.yul\":5408:5501   */\n      tag_64\n      jump\t// in\n    tag_115:\n        /* \"#utility.yul\":5526:5528   */\n      0x40\n        /* \"#utility.yul\":5521:5524   */\n      dup3\n        /* \"#utility.yul\":5517:5529   */\n      add\n        /* \"#utility.yul\":5510:5529   */\n      swap1\n      pop\n        /* \"#utility.yul\":5169:5535   */\n      swap2\n      swap1\n      pop\n      jump\t// out\n        /* \"#utility.yul\":5541:5960   */\n    tag_40:\n        /* \"#utility.yul\":5707:5711   */\n      0x00\n        /* \"#utility.yul\":5745:5747   */\n      0x20\n        /* \"#utility.yul\":5734:5743   */\n      dup3\n        /* \"#utility.yul\":5730:5748   */\n      add\n        /* \"#utility.yul\":5722:5748   */\n      swap1\n      pop\n        /* \"#utility.yul\":5794:5803   */\n      dup2\n        /* \"#utility.yul\":5788:5792   */\n      dup2\n        /* \"#utility.yul\":5784:5804   */\n      sub\n        /* \"#utility.yul\":5780:5781   */\n      0x00\n        /* \"#utility.yul\":5769:5778   */\n      dup4\n        /* \"#utility.yul\":5765:5782   */\n      add\n        /* \"#utility.yul\":5758:5805   */\n      mstore\n        /* \"#utility.yul\":5822:5953   */\n      tag_117\n        /* \"#utility.yul\":5948:5952   */\n      dup2\n        /* \"#utility.yul\":5822:5953   */\n      tag_65\n      jump\t// in\n    tag_117:\n        /* \"#utility.yul\":5814:5953   */\n      swap1\n      pop\n        /* \"#utility.yul\":5541:5960   */\n      swap2\n      swap1\n      pop\n      jump\t// out\n        /* \"#utility.yul\":5966:6157   */\n    tag_42:\n        /* \"#utility.yul\":6006:6009   */\n      0x00\n        /* \"#utility.yul\":6025:6045   */\n      tag_119\n        /* \"#utility.yul\":6043:6044   */\n      dup3\n        /* \"#utility.yul\":6025:6045   */\n      tag_48\n      jump\t// in\n    tag_119:\n        /* \"#utility.yul\":6020:6045   */\n      swap2\n      pop\n        /* \"#utility.yul\":6059:6079   */\n      tag_120\n        /* \"#utility.yul\":6077:6078   */\n      dup4\n        /* \"#utility.yul\":6059:6079   */\n      tag_48\n      jump\t// in\n    tag_120:\n        /* \"#utility.yul\":6054:6079   */\n      swap3\n      pop\n        /* \"#utility.yul\":6102:6103   */\n      dup3\n        /* \"#utility.yul\":6099:6100   */\n      dup3\n        /* \"#utility.yul\":6095:6104   */\n      add\n        /* \"#utility.yul\":6088:6104   */\n      swap1\n      pop\n        /* \"#utility.yul\":6123:6126   */\n      dup1\n        /* \"#utility.yul\":6120:6121   */\n      dup3\n        /* \"#utility.yul\":6117:6127   */\n      gt\n        /* \"#utility.yul\":6114:6150   */\n      iszero\n      tag_121\n      jumpi\n        /* \"#utility.yul\":6130:6148   */\n      tag_122\n      tag_58\n      jump\t// in\n    tag_122:\n        /* \"#utility.yul\":6114:6150   */\n    tag_121:\n        /* \"#utility.yul\":5966:6157   */\n      swap3\n      swap2\n      pop\n      pop\n      jump\t// out\n        /* \"#utility.yul\":6163:6344   */\n    tag_66:\n        /* \"#utility.yul\":6303:6336   */\n      0x5265656e7472616e637947756172643a207265656e7472616e742063616c6c00\n        /* \"#utility.yul\":6299:6300   */\n      0x00\n        /* \"#utility.yul\":6291:6297   */\n      dup3\n        /* \"#utility.yul\":6287:6301   */\n      add\n        /* \"#utility.yul\":6280:6337   */\n      mstore\n        /* \"#utility.yul\":6163:6344   */\n      pop\n      jump\t// out\n        /* \"#utility.yul\":6350:6716   */\n    tag_67:\n        /* \"#utility.yul\":6492:6495   */\n      0x00\n        /* \"#utility.yul\":6513:6580   */\n      tag_125\n        /* \"#utility.yul\":6577:6579   */\n      0x1f\n        /* \"#utility.yul\":6572:6575   */\n      dup4\n        /* \"#utility.yul\":6513:6580   */\n      tag_55\n      jump\t// in\n    tag_125:\n        /* \"#utility.yul\":6506:6580   */\n      swap2\n      pop\n        /* \"#utility.yul\":6589:6682   */\n      tag_126\n        /* \"#utility.yul\":6678:6681   */\n      dup3\n        /* \"#utility.yul\":6589:6682   */\n      tag_66\n      jump\t// in\n    tag_126:\n        /* \"#utility.yul\":6707:6709   */\n      0x20\n        /* \"#utility.yul\":6702:6705   */\n      dup3\n        /* \"#utility.yul\":6698:6710   */\n      add\n        /* \"#utility.yul\":6691:6710   */\n      swap1\n      pop\n        /* \"#utility.yul\":6350:6716   */\n      swap2\n      swap1\n      pop\n      jump\t// out\n        /* \"#utility.yul\":6722:7141   */\n    tag_46:\n        /* \"#utility.yul\":6888:6892   */\n      0x00\n        /* \"#utility.yul\":6926:6928   */\n      0x20\n        /* \"#utility.yul\":6915:6924   */\n      dup3\n        /* \"#utility.yul\":6911:6929   */\n      add\n        /* \"#utility.yul\":6903:6929   */\n      swap1\n      pop\n        /* \"#utility.yul\":6975:6984   */\n      dup2\n        /* \"#utility.yul\":6969:6973   */\n      dup2\n        /* \"#utility.yul\":6965:6985   */\n      sub\n        /* \"#utility.yul\":6961:6962   */\n      0x00\n        /* \"#utility.yul\":6950:6959   */\n      dup4\n        /* \"#utility.yul\":6946:6963   */\n      add\n        /* \"#utility.yul\":6939:6986   */\n      mstore\n        /* \"#utility.yul\":7003:7134   */\n      tag_128\n        /* \"#utility.yul\":7129:7133   */\n      dup2\n        /* \"#utility.yul\":7003:7134   */\n      tag_67\n      jump\t// in\n    tag_128:\n        /* \"#utility.yul\":6995:7134   */\n      swap1\n      pop\n        /* \"#utility.yul\":6722:7141   */\n      swap2\n      swap1\n      pop\n      jump\t// out\n\n    auxdata: 0xa2646970667358221220be4b58d1ef95f151bddcbb8e9a2e7299efa7a6596320e6bdf707e14558a1250a64736f6c634300081a0033\n}\n",
				"bytecode": {
					"linkReferences": {},
					"object": "6080604052348015600e575f80fd5b5060015f819055506106bd806100235f395ff3fe608060405260043610610033575f3560e01c806344e73b78146100375780635b6b431d14610061578063ed21248c14610089575b5f80fd5b348015610042575f80fd5b5061004b610093565b604051610058919061036b565b60405180910390f35b34801561006c575f80fd5b50610087600480360381019061008291906103b2565b6100d7565b005b610091610266565b005b5f60015f3373ffffffffffffffffffffffffffffffffffffffff1673ffffffffffffffffffffffffffffffffffffffff1681526020019081526020015f2054905090565b6100df6102fd565b8060015f3373ffffffffffffffffffffffffffffffffffffffff1673ffffffffffffffffffffffffffffffffffffffff1681526020019081526020015f2054101561015f576040517f08c379a000000000000000000000000000000000000000000000000000000000815260040161015690610437565b60405180910390fd5b8060015f3373ffffffffffffffffffffffffffffffffffffffff1673ffffffffffffffffffffffffffffffffffffffff1681526020019081526020015f205f8282546101ab9190610482565b925050819055505f3373ffffffffffffffffffffffffffffffffffffffff16826040516101d7906104e2565b5f6040518083038185875af1925050503d805f8114610211576040519150601f19603f3d011682016040523d82523d5f602084013e610216565b606091505b505090508061025a576040517f08c379a000000000000000000000000000000000000000000000000000000000815260040161025190610540565b60405180910390fd5b5061026361034a565b50565b5f34116102a8576040517f08c379a000000000000000000000000000000000000000000000000000000000815260040161029f906105ce565b60405180910390fd5b3460015f3373ffffffffffffffffffffffffffffffffffffffff1673ffffffffffffffffffffffffffffffffffffffff1681526020019081526020015f205f8282546102f491906105ec565b92505081905550565b60025f5403610341576040517f08c379a000000000000000000000000000000000000000000000000000000000815260040161033890610669565b60405180910390fd5b60025f81905550565b60015f81905550565b5f819050919050565b61036581610353565b82525050565b5f60208201905061037e5f83018461035c565b92915050565b5f80fd5b61039181610353565b811461039b575f80fd5b50565b5f813590506103ac81610388565b92915050565b5f602082840312156103c7576103c6610384565b5b5f6103d48482850161039e565b91505092915050565b5f82825260208201905092915050565b7f496e73756666696369656e742062616c616e63652e00000000000000000000005f82015250565b5f6104216015836103dd565b915061042c826103ed565b602082019050919050565b5f6020820190508181035f83015261044e81610415565b9050919050565b7f4e487b71000000000000000000000000000000000000000000000000000000005f52601160045260245ffd5b5f61048c82610353565b915061049783610353565b92508282039050818111156104af576104ae610455565b5b92915050565b5f81905092915050565b50565b5f6104cd5f836104b5565b91506104d8826104bf565b5f82019050919050565b5f6104ec826104c2565b9150819050919050565b7f5472616e73666572206661696c65642e000000000000000000000000000000005f82015250565b5f61052a6010836103dd565b9150610535826104f6565b602082019050919050565b5f6020820190508181035f8301526105578161051e565b9050919050565b7f596f75206d757374206465706f736974206d6f7265207468616e2030204554485f8201527f2e00000000000000000000000000000000000000000000000000000000000000602082015250565b5f6105b86021836103dd565b91506105c38261055e565b604082019050919050565b5f6020820190508181035f8301526105e5816105ac565b9050919050565b5f6105f682610353565b915061060183610353565b925082820190508082111561061957610618610455565b5b92915050565b7f5265656e7472616e637947756172643a207265656e7472616e742063616c6c005f82015250565b5f610653601f836103dd565b915061065e8261061f565b602082019050919050565b5f6020820190508181035f83015261068081610647565b905091905056fea2646970667358221220be4b58d1ef95f151bddcbb8e9a2e7299efa7a6596320e6bdf707e14558a1250a64736f6c634300081a0033",
					"opcodes": "PUSH1 0x80 PUSH1 0x40 MSTORE CALLVALUE DUP1 ISZERO PUSH1 0xE JUMPI PUSH0 DUP1 REVERT JUMPDEST POP PUSH1 0x1 PUSH0 DUP2 SWAP1 SSTORE POP PUSH2 0x6BD DUP1 PUSH2 0x23 PUSH0 CODECOPY PUSH0 RETURN INVALID PUSH1 0x80 PUSH1 0x40 MSTORE PUSH1 0x4 CALLDATASIZE LT PUSH2 0x33 JUMPI PUSH0 CALLDATALOAD PUSH1 0xE0 SHR DUP1 PUSH4 0x44E73B78 EQ PUSH2 0x37 JUMPI DUP1 PUSH4 0x5B6B431D EQ PUSH2 0x61 JUMPI DUP1 PUSH4 0xED21248C EQ PUSH2 0x89 JUMPI JUMPDEST PUSH0 DUP1 REVERT JUMPDEST CALLVALUE DUP1 ISZERO PUSH2 0x42 JUMPI PUSH0 DUP1 REVERT JUMPDEST POP PUSH2 0x4B PUSH2 0x93 JUMP JUMPDEST PUSH1 0x40 MLOAD PUSH2 0x58 SWAP2 SWAP1 PUSH2 0x36B JUMP JUMPDEST PUSH1 0x40 MLOAD DUP1 SWAP2 SUB SWAP1 RETURN JUMPDEST CALLVALUE DUP1 ISZERO PUSH2 0x6C JUMPI PUSH0 DUP1 REVERT JUMPDEST POP PUSH2 0x87 PUSH1 0x4 DUP1 CALLDATASIZE SUB DUP2 ADD SWAP1 PUSH2 0x82 SWAP2 SWAP1 PUSH2 0x3B2 JUMP JUMPDEST PUSH2 0xD7 JUMP JUMPDEST STOP JUMPDEST PUSH2 0x91 PUSH2 0x266 JUMP JUMPDEST STOP JUMPDEST PUSH0 PUSH1 0x1 PUSH0 CALLER PUSH20 0xFFFFFFFFFFFFFFFFFFFFFFFFFFFFFFFFFFFFFFFF AND PUSH20 0xFFFFFFFFFFFFFFFFFFFFFFFFFFFFFFFFFFFFFFFF AND DUP2 MSTORE PUSH1 0x20 ADD SWAP1 DUP2 MSTORE PUSH1 0x20 ADD PUSH0 KECCAK256 SLOAD SWAP1 POP SWAP1 JUMP JUMPDEST PUSH2 0xDF PUSH2 0x2FD JUMP JUMPDEST DUP1 PUSH1 0x1 PUSH0 CALLER PUSH20 0xFFFFFFFFFFFFFFFFFFFFFFFFFFFFFFFFFFFFFFFF AND PUSH20 0xFFFFFFFFFFFFFFFFFFFFFFFFFFFFFFFFFFFFFFFF AND DUP2 MSTORE PUSH1 0x20 ADD SWAP1 DUP2 MSTORE PUSH1 0x20 ADD PUSH0 KECCAK256 SLOAD LT ISZERO PUSH2 0x15F JUMPI PUSH1 0x40 MLOAD PUSH32 0x8C379A000000000000000000000000000000000000000000000000000000000 DUP2 MSTORE PUSH1 0x4 ADD PUSH2 0x156 SWAP1 PUSH2 0x437 JUMP JUMPDEST PUSH1 0x40 MLOAD DUP1 SWAP2 SUB SWAP1 REVERT JUMPDEST DUP1 PUSH1 0x1 PUSH0 CALLER PUSH20 0xFFFFFFFFFFFFFFFFFFFFFFFFFFFFFFFFFFFFFFFF AND PUSH20 0xFFFFFFFFFFFFFFFFFFFFFFFFFFFFFFFFFFFFFFFF AND DUP2 MSTORE PUSH1 0x20 ADD SWAP1 DUP2 MSTORE PUSH1 0x20 ADD PUSH0 KECCAK256 PUSH0 DUP3 DUP3 SLOAD PUSH2 0x1AB SWAP2 SWAP1 PUSH2 0x482 JUMP JUMPDEST SWAP3 POP POP DUP2 SWAP1 SSTORE POP PUSH0 CALLER PUSH20 0xFFFFFFFFFFFFFFFFFFFFFFFFFFFFFFFFFFFFFFFF AND DUP3 PUSH1 0x40 MLOAD PUSH2 0x1D7 SWAP1 PUSH2 0x4E2 JUMP JUMPDEST PUSH0 PUSH1 0x40 MLOAD DUP1 DUP4 SUB DUP2 DUP6 DUP8 GAS CALL SWAP3 POP POP POP RETURNDATASIZE DUP1 PUSH0 DUP2 EQ PUSH2 0x211 JUMPI PUSH1 0x40 MLOAD SWAP2 POP PUSH1 0x1F NOT PUSH1 0x3F RETURNDATASIZE ADD AND DUP3 ADD PUSH1 0x40 MSTORE RETURNDATASIZE DUP3 MSTORE RETURNDATASIZE PUSH0 PUSH1 0x20 DUP5 ADD RETURNDATACOPY PUSH2 0x216 JUMP JUMPDEST PUSH1 0x60 SWAP2 POP JUMPDEST POP POP SWAP1 POP DUP1 PUSH2 0x25A JUMPI PUSH1 0x40 MLOAD PUSH32 0x8C379A000000000000000000000000000000000000000000000000000000000 DUP2 MSTORE PUSH1 0x4 ADD PUSH2 0x251 SWAP1 PUSH2 0x540 JUMP JUMPDEST PUSH1 0x40 MLOAD DUP1 SWAP2 SUB SWAP1 REVERT JUMPDEST POP PUSH2 0x263 PUSH2 0x34A JUMP JUMPDEST POP JUMP JUMPDEST PUSH0 CALLVALUE GT PUSH2 0x2A8 JUMPI PUSH1 0x40 MLOAD PUSH32 0x8C379A000000000000000000000000000000000000000000000000000000000 DUP2 MSTORE PUSH1 0x4 ADD PUSH2 0x29F SWAP1 PUSH2 0x5CE JUMP JUMPDEST PUSH1 0x40 MLOAD DUP1 SWAP2 SUB SWAP1 REVERT JUMPDEST CALLVALUE PUSH1 0x1 PUSH0 CALLER PUSH20 0xFFFFFFFFFFFFFFFFFFFFFFFFFFFFFFFFFFFFFFFF AND PUSH20 0xFFFFFFFFFFFFFFFFFFFFFFFFFFFFFFFFFFFFFFFF AND DUP2 MSTORE PUSH1 0x20 ADD SWAP1 DUP2 MSTORE PUSH1 0x20 ADD PUSH0 KECCAK256 PUSH0 DUP3 DUP3 SLOAD PUSH2 0x2F4 SWAP2 SWAP1 PUSH2 0x5EC JUMP JUMPDEST SWAP3 POP POP DUP2 SWAP1 SSTORE POP JUMP JUMPDEST PUSH1 0x2 PUSH0 SLOAD SUB PUSH2 0x341 JUMPI PUSH1 0x40 MLOAD PUSH32 0x8C379A000000000000000000000000000000000000000000000000000000000 DUP2 MSTORE PUSH1 0x4 ADD PUSH2 0x338 SWAP1 PUSH2 0x669 JUMP JUMPDEST PUSH1 0x40 MLOAD DUP1 SWAP2 SUB SWAP1 REVERT JUMPDEST PUSH1 0x2 PUSH0 DUP2 SWAP1 SSTORE POP JUMP JUMPDEST PUSH1 0x1 PUSH0 DUP2 SWAP1 SSTORE POP JUMP JUMPDEST PUSH0 DUP2 SWAP1 POP SWAP2 SWAP1 POP JUMP JUMPDEST PUSH2 0x365 DUP2 PUSH2 0x353 JUMP JUMPDEST DUP3 MSTORE POP POP JUMP JUMPDEST PUSH0 PUSH1 0x20 DUP3 ADD SWAP1 POP PUSH2 0x37E PUSH0 DUP4 ADD DUP5 PUSH2 0x35C JUMP JUMPDEST SWAP3 SWAP2 POP POP JUMP JUMPDEST PUSH0 DUP1 REVERT JUMPDEST PUSH2 0x391 DUP2 PUSH2 0x353 JUMP JUMPDEST DUP2 EQ PUSH2 0x39B JUMPI PUSH0 DUP1 REVERT JUMPDEST POP JUMP JUMPDEST PUSH0 DUP2 CALLDATALOAD SWAP1 POP PUSH2 0x3AC DUP2 PUSH2 0x388 JUMP JUMPDEST SWAP3 SWAP2 POP POP JUMP JUMPDEST PUSH0 PUSH1 0x20 DUP3 DUP5 SUB SLT ISZERO PUSH2 0x3C7 JUMPI PUSH2 0x3C6 PUSH2 0x384 JUMP JUMPDEST JUMPDEST PUSH0 PUSH2 0x3D4 DUP5 DUP3 DUP6 ADD PUSH2 0x39E JUMP JUMPDEST SWAP2 POP POP SWAP3 SWAP2 POP POP JUMP JUMPDEST PUSH0 DUP3 DUP3 MSTORE PUSH1 0x20 DUP3 ADD SWAP1 POP SWAP3 SWAP2 POP POP JUMP JUMPDEST PUSH32 0x496E73756666696369656E742062616C616E63652E0000000000000000000000 PUSH0 DUP3 ADD MSTORE POP JUMP JUMPDEST PUSH0 PUSH2 0x421 PUSH1 0x15 DUP4 PUSH2 0x3DD JUMP JUMPDEST SWAP2 POP PUSH2 0x42C DUP3 PUSH2 0x3ED JUMP JUMPDEST PUSH1 0x20 DUP3 ADD SWAP1 POP SWAP2 SWAP1 POP JUMP JUMPDEST PUSH0 PUSH1 0x20 DUP3 ADD SWAP1 POP DUP2 DUP2 SUB PUSH0 DUP4 ADD MSTORE PUSH2 0x44E DUP2 PUSH2 0x415 JUMP JUMPDEST SWAP1 POP SWAP2 SWAP1 POP JUMP JUMPDEST PUSH32 0x4E487B7100000000000000000000000000000000000000000000000000000000 PUSH0 MSTORE PUSH1 0x11 PUSH1 0x4 MSTORE PUSH1 0x24 PUSH0 REVERT JUMPDEST PUSH0 PUSH2 0x48C DUP3 PUSH2 0x353 JUMP JUMPDEST SWAP2 POP PUSH2 0x497 DUP4 PUSH2 0x353 JUMP JUMPDEST SWAP3 POP DUP3 DUP3 SUB SWAP1 POP DUP2 DUP2 GT ISZERO PUSH2 0x4AF JUMPI PUSH2 0x4AE PUSH2 0x455 JUMP JUMPDEST JUMPDEST SWAP3 SWAP2 POP POP JUMP JUMPDEST PUSH0 DUP2 SWAP1 POP SWAP3 SWAP2 POP POP JUMP JUMPDEST POP JUMP JUMPDEST PUSH0 PUSH2 0x4CD PUSH0 DUP4 PUSH2 0x4B5 JUMP JUMPDEST SWAP2 POP PUSH2 0x4D8 DUP3 PUSH2 0x4BF JUMP JUMPDEST PUSH0 DUP3 ADD SWAP1 POP SWAP2 SWAP1 POP JUMP JUMPDEST PUSH0 PUSH2 0x4EC DUP3 PUSH2 0x4C2 JUMP JUMPDEST SWAP2 POP DUP2 SWAP1 POP SWAP2 SWAP1 POP JUMP JUMPDEST PUSH32 0x5472616E73666572206661696C65642E00000000000000000000000000000000 PUSH0 DUP3 ADD MSTORE POP JUMP JUMPDEST PUSH0 PUSH2 0x52A PUSH1 0x10 DUP4 PUSH2 0x3DD JUMP JUMPDEST SWAP2 POP PUSH2 0x535 DUP3 PUSH2 0x4F6 JUMP JUMPDEST PUSH1 0x20 DUP3 ADD SWAP1 POP SWAP2 SWAP1 POP JUMP JUMPDEST PUSH0 PUSH1 0x20 DUP3 ADD SWAP1 POP DUP2 DUP2 SUB PUSH0 DUP4 ADD MSTORE PUSH2 0x557 DUP2 PUSH2 0x51E JUMP JUMPDEST SWAP1 POP SWAP2 SWAP1 POP JUMP JUMPDEST PUSH32 0x596F75206D757374206465706F736974206D6F7265207468616E203020455448 PUSH0 DUP3 ADD MSTORE PUSH32 0x2E00000000000000000000000000000000000000000000000000000000000000 PUSH1 0x20 DUP3 ADD MSTORE POP JUMP JUMPDEST PUSH0 PUSH2 0x5B8 PUSH1 0x21 DUP4 PUSH2 0x3DD JUMP JUMPDEST SWAP2 POP PUSH2 0x5C3 DUP3 PUSH2 0x55E JUMP JUMPDEST PUSH1 0x40 DUP3 ADD SWAP1 POP SWAP2 SWAP1 POP JUMP JUMPDEST PUSH0 PUSH1 0x20 DUP3 ADD SWAP1 POP DUP2 DUP2 SUB PUSH0 DUP4 ADD MSTORE PUSH2 0x5E5 DUP2 PUSH2 0x5AC JUMP JUMPDEST SWAP1 POP SWAP2 SWAP1 POP JUMP JUMPDEST PUSH0 PUSH2 0x5F6 DUP3 PUSH2 0x353 JUMP JUMPDEST SWAP2 POP PUSH2 0x601 DUP4 PUSH2 0x353 JUMP JUMPDEST SWAP3 POP DUP3 DUP3 ADD SWAP1 POP DUP1 DUP3 GT ISZERO PUSH2 0x619 JUMPI PUSH2 0x618 PUSH2 0x455 JUMP JUMPDEST JUMPDEST SWAP3 SWAP2 POP POP JUMP JUMPDEST PUSH32 0x5265656E7472616E637947756172643A207265656E7472616E742063616C6C00 PUSH0 DUP3 ADD MSTORE POP JUMP JUMPDEST PUSH0 PUSH2 0x653 PUSH1 0x1F DUP4 PUSH2 0x3DD JUMP JUMPDEST SWAP2 POP PUSH2 0x65E DUP3 PUSH2 0x61F JUMP JUMPDEST PUSH1 0x20 DUP3 ADD SWAP1 POP SWAP2 SWAP1 POP JUMP JUMPDEST PUSH0 PUSH1 0x20 DUP3 ADD SWAP1 POP DUP2 DUP2 SUB PUSH0 DUP4 ADD MSTORE PUSH2 0x680 DUP2 PUSH2 0x647 JUMP JUMPDEST SWAP1 POP SWAP2 SWAP1 POP JUMP INVALID LOG2 PUSH5 0x6970667358 0x22 SLT KECCAK256 0xBE 0x4B PC 0xD1 0xEF SWAP6 CALL MLOAD 0xBD 0xDC 0xBB DUP15 SWAP11 0x2E PUSH19 0x99EFA7A6596320E6BDF707E14558A1250A6473 PUSH16 0x6C634300081A00330000000000000000 "
				},
				"gasEstimates": {
					"creation": {
						"codeDepositCost": "345000",
						"executionCost": "22491",
						"totalCost": "367491"
					},
					"external": {
						"CheckBalance()": "2497",
						"Deposit()": "infinite",
						"Withdraw(uint256)": "infinite"
					}
				},
				"methodIdentifiers": {
					"CheckBalance()": "44e73b78",
					"Deposit()": "ed21248c",
					"Withdraw(uint256)": "5b6b431d"
				}
			},
			"storageLayout": {
				"storage": [
					{
						"astId": 10,
						"contract": "contracts/Withdrawal_SC01_Secure.sol:Withdrawal",
						"label": "_status",
						"offset": 0,
						"slot": "0",
						"type": "t_uint256"
					},
					{
						"astId": 73,
						"contract": "contracts/Withdrawal_SC01_Secure.sol:Withdrawal",
						"label": "balances",
						"offset": 0,
						"slot": "1",
						"type": "t_mapping(t_address,t_uint256)"
					}
				],
				"types": {
					"t_address": {
						"encoding": "inplace",
						"label": "address",
						"numberOfBytes": "20"
					},
					"t_mapping(t_address,t_uint256)": {
						"encoding": "mapping",
						"key": "t_address",
						"label": "mapping(address => uint256)",
						"numberOfBytes": "32",
						"value": "t_uint256"
					},
					"t_uint256": {
						"encoding": "inplace",
						"label": "uint256",
						"numberOfBytes": "32"
					}
				}
			},
			"userdoc": {
				"kind": "user",
				"methods": {},
				"version": 1
			}
		}
	}
}