{
	"contracts/Withdrawal_NotSecure.sol": {
		"Withdrawal": {
			"abi": [
				{
					"inputs": [],
					"name": "CheckBallance",
					"outputs": [
						{
							"internalType": "uint256",
							"name": "",
							"type": "uint256"
						}
					],
					"stateMutability": "view",
					"type": "function"
				},
				{
					"inputs": [],
					"name": "Deposit",
					"outputs": [],
					"stateMutability": "payable",
					"type": "function"
				},
				{
					"inputs": [
						{
							"internalType": "uint256",
							"name": "money",
							"type": "uint256"
						}
					],
					"name": "Withdraw",
					"outputs": [],
					"stateMutability": "nonpayable",
					"type": "function"
				}
			],
			"devdoc": {
				"kind": "dev",
				"methods": {},
				"version": 1
			},
			"evm": {
				"assembly": "    /* \"contracts/Withdrawal_NotSecure.sol\":68:536  contract Withdrawal {... */\n  mstore(0x40, 0x80)\n  callvalue\n  dup1\n  iszero\n  tag_1\n  jumpi\n  0x00\n  dup1\n  revert\ntag_1:\n  pop\n  dataSize(sub_0)\n  dup1\n  dataOffset(sub_0)\n  0x00\n  codecopy\n  0x00\n  return\nstop\n\nsub_0: assembly {\n        /* \"contracts/Withdrawal_NotSecure.sol\":68:536  contract Withdrawal {... */\n      mstore(0x40, 0x80)\n      jumpi(tag_1, lt(calldatasize, 0x04))\n      shr(0xe0, calldataload(0x00))\n      dup1\n      0x5b6b431d\n      eq\n      tag_2\n      jumpi\n      dup1\n      0xed21248c\n      eq\n      tag_3\n      jumpi\n      dup1\n      0xefeb436d\n      eq\n      tag_4\n      jumpi\n    tag_1:\n      0x00\n      dup1\n      revert\n        /* \"contracts/Withdrawal_NotSecure.sol\":358:533  function Withdraw(uint256 money) public{... */\n    tag_2:\n      callvalue\n      dup1\n      iszero\n      tag_5\n      jumpi\n      0x00\n      dup1\n      revert\n    tag_5:\n      pop\n      tag_6\n      0x04\n      dup1\n      calldatasize\n      sub\n      dup2\n      add\n      swap1\n      tag_7\n      swap2\n      swap1\n      tag_8\n      jump\t// in\n    tag_7:\n      tag_9\n      jump\t// in\n    tag_6:\n      stop\n        /* \"contracts/Withdrawal_NotSecure.sol\":241:350  function Deposit() public payable {... */\n    tag_3:\n      tag_10\n      tag_11\n      jump\t// in\n    tag_10:\n      stop\n        /* \"contracts/Withdrawal_NotSecure.sol\":97:233  function CheckBallance() public view returns(uint256) {... */\n    tag_4:\n      callvalue\n      dup1\n      iszero\n      tag_12\n      jumpi\n      0x00\n      dup1\n      revert\n    tag_12:\n      pop\n      tag_13\n      tag_14\n      jump\t// in\n    tag_13:\n      mload(0x40)\n      tag_15\n      swap2\n      swap1\n      tag_16\n      jump\t// in\n    tag_15:\n      mload(0x40)\n      dup1\n      swap2\n      sub\n      swap1\n      return\n        /* \"contracts/Withdrawal_NotSecure.sol\":358:533  function Withdraw(uint256 money) public{... */\n    tag_9:\n        /* \"contracts/Withdrawal_NotSecure.sol\":435:440  money */\n      dup1\n        /* \"contracts/Withdrawal_NotSecure.sol\":416:431  CheckBallance() */\n      tag_18\n        /* \"contracts/Withdrawal_NotSecure.sol\":416:429  CheckBallance */\n      tag_14\n        /* \"contracts/Withdrawal_NotSecure.sol\":416:431  CheckBallance() */\n      jump\t// in\n    tag_18:\n        /* \"contracts/Withdrawal_NotSecure.sol\":416:440  CheckBallance() >= money */\n      lt\n      iszero\n        /* \"contracts/Withdrawal_NotSecure.sol\":408:478  require(CheckBallance() >= money, \"Not enough funds in the contract!\") */\n      tag_19\n      jumpi\n      mload(0x40)\n      0x08c379a000000000000000000000000000000000000000000000000000000000\n      dup2\n      mstore\n      0x04\n      add\n      tag_20\n      swap1\n      tag_21\n      jump\t// in\n    tag_20:\n      mload(0x40)\n      dup1\n      swap2\n      sub\n      swap1\n      revert\n    tag_19:\n        /* \"contracts/Withdrawal_NotSecure.sol\":498:508  msg.sender */\n      caller\n        /* \"contracts/Withdrawal_NotSecure.sol\":489:518  payable (msg.sender).transfer */\n      0xffffffffffffffffffffffffffffffffffffffff\n      and\n        /* \"contracts/Withdrawal_NotSecure.sol\":489:525  payable (msg.sender).transfer(money) */\n      0x08fc\n        /* \"contracts/Withdrawal_NotSecure.sol\":519:524  money */\n      dup3\n        /* \"contracts/Withdrawal_NotSecure.sol\":489:525  payable (msg.sender).transfer(money) */\n      swap1\n      dup2\n      iszero\n      mul\n      swap1\n      mload(0x40)\n      0x00\n      mload(0x40)\n      dup1\n      dup4\n      sub\n      dup2\n      dup6\n      dup9\n      dup9\n      call\n      swap4\n      pop\n      pop\n      pop\n      pop\n      iszero\n      dup1\n      iszero\n      tag_23\n      jumpi\n      returndatasize\n      0x00\n      dup1\n      returndatacopy\n      revert(0x00, returndatasize)\n    tag_23:\n      pop\n        /* \"contracts/Withdrawal_NotSecure.sol\":358:533  function Withdraw(uint256 money) public{... */\n      pop\n      jump\t// out\n        /* \"contracts/Withdrawal_NotSecure.sol\":241:350  function Deposit() public payable {... */\n    tag_11:\n        /* \"contracts/Withdrawal_NotSecure.sol\":306:307  0 */\n      0x00\n        /* \"contracts/Withdrawal_NotSecure.sol\":294:303  msg.value */\n      callvalue\n        /* \"contracts/Withdrawal_NotSecure.sol\":294:307  msg.value > 0 */\n      gt\n        /* \"contracts/Withdrawal_NotSecure.sol\":286:342  require(msg.value > 0, \"Number must be greater then 0!\") */\n      tag_25\n      jumpi\n      mload(0x40)\n      0x08c379a000000000000000000000000000000000000000000000000000000000\n      dup2\n      mstore\n      0x04\n      add\n      tag_26\n      swap1\n      tag_27\n      jump\t// in\n    tag_26:\n      mload(0x40)\n      dup1\n      swap2\n      sub\n      swap1\n      revert\n    tag_25:\n        /* \"contracts/Withdrawal_NotSecure.sol\":241:350  function Deposit() public payable {... */\n      jump\t// out\n        /* \"contracts/Withdrawal_NotSecure.sol\":97:233  function CheckBallance() public view returns(uint256) {... */\n    tag_14:\n        /* \"contracts/Withdrawal_NotSecure.sol\":142:149  uint256 */\n      0x00\n        /* \"contracts/Withdrawal_NotSecure.sol\":169:190  address(this).balance */\n      selfbalance\n        /* \"contracts/Withdrawal_NotSecure.sol\":162:190  return address(this).balance */\n      swap1\n      pop\n        /* \"contracts/Withdrawal_NotSecure.sol\":97:233  function CheckBallance() public view returns(uint256) {... */\n      swap1\n      jump\t// out\n        /* \"#utility.yul\":88:205   */\n    tag_30:\n        /* \"#utility.yul\":197:198   */\n      0x00\n        /* \"#utility.yul\":194:195   */\n      dup1\n        /* \"#utility.yul\":187:199   */\n      revert\n        /* \"#utility.yul\":334:411   */\n    tag_32:\n        /* \"#utility.yul\":371:378   */\n      0x00\n        /* \"#utility.yul\":400:405   */\n      dup2\n        /* \"#utility.yul\":389:405   */\n      swap1\n      pop\n        /* \"#utility.yul\":334:411   */\n      swap2\n      swap1\n      pop\n      jump\t// out\n        /* \"#utility.yul\":417:539   */\n    tag_33:\n        /* \"#utility.yul\":490:514   */\n      tag_47\n        /* \"#utility.yul\":508:513   */\n      dup2\n        /* \"#utility.yul\":490:514   */\n      tag_32\n      jump\t// in\n    tag_47:\n        /* \"#utility.yul\":483:488   */\n      dup2\n        /* \"#utility.yul\":480:515   */\n      eq\n        /* \"#utility.yul\":470:533   */\n      tag_48\n      jumpi\n        /* \"#utility.yul\":529:530   */\n      0x00\n        /* \"#utility.yul\":526:527   */\n      dup1\n        /* \"#utility.yul\":519:531   */\n      revert\n        /* \"#utility.yul\":470:533   */\n    tag_48:\n        /* \"#utility.yul\":417:539   */\n      pop\n      jump\t// out\n        /* \"#utility.yul\":545:684   */\n    tag_34:\n        /* \"#utility.yul\":591:596   */\n      0x00\n        /* \"#utility.yul\":629:635   */\n      dup2\n        /* \"#utility.yul\":616:636   */\n      calldataload\n        /* \"#utility.yul\":607:636   */\n      swap1\n      pop\n        /* \"#utility.yul\":645:678   */\n      tag_50\n        /* \"#utility.yul\":672:677   */\n      dup2\n        /* \"#utility.yul\":645:678   */\n      tag_33\n      jump\t// in\n    tag_50:\n        /* \"#utility.yul\":545:684   */\n      swap3\n      swap2\n      pop\n      pop\n      jump\t// out\n        /* \"#utility.yul\":690:1019   */\n    tag_8:\n        /* \"#utility.yul\":749:755   */\n      0x00\n        /* \"#utility.yul\":798:800   */\n      0x20\n        /* \"#utility.yul\":786:795   */\n      dup3\n        /* \"#utility.yul\":777:784   */\n      dup5\n        /* \"#utility.yul\":773:796   */\n      sub\n        /* \"#utility.yul\":769:801   */\n      slt\n        /* \"#utility.yul\":766:885   */\n      iszero\n      tag_52\n      jumpi\n        /* \"#utility.yul\":804:883   */\n      tag_53\n      tag_30\n      jump\t// in\n    tag_53:\n        /* \"#utility.yul\":766:885   */\n    tag_52:\n        /* \"#utility.yul\":924:925   */\n      0x00\n        /* \"#utility.yul\":949:1002   */\n      tag_54\n        /* \"#utility.yul\":994:1001   */\n      dup5\n        /* \"#utility.yul\":985:991   */\n      dup3\n        /* \"#utility.yul\":974:983   */\n      dup6\n        /* \"#utility.yul\":970:992   */\n      add\n        /* \"#utility.yul\":949:1002   */\n      tag_34\n      jump\t// in\n    tag_54:\n        /* \"#utility.yul\":939:1002   */\n      swap2\n      pop\n        /* \"#utility.yul\":895:1012   */\n      pop\n        /* \"#utility.yul\":690:1019   */\n      swap3\n      swap2\n      pop\n      pop\n      jump\t// out\n        /* \"#utility.yul\":1025:1143   */\n    tag_35:\n        /* \"#utility.yul\":1112:1136   */\n      tag_56\n        /* \"#utility.yul\":1130:1135   */\n      dup2\n        /* \"#utility.yul\":1112:1136   */\n      tag_32\n      jump\t// in\n    tag_56:\n        /* \"#utility.yul\":1107:1110   */\n      dup3\n        /* \"#utility.yul\":1100:1137   */\n      mstore\n        /* \"#utility.yul\":1025:1143   */\n      pop\n      pop\n      jump\t// out\n        /* \"#utility.yul\":1149:1371   */\n    tag_16:\n        /* \"#utility.yul\":1242:1246   */\n      0x00\n        /* \"#utility.yul\":1280:1282   */\n      0x20\n        /* \"#utility.yul\":1269:1278   */\n      dup3\n        /* \"#utility.yul\":1265:1283   */\n      add\n        /* \"#utility.yul\":1257:1283   */\n      swap1\n      pop\n        /* \"#utility.yul\":1293:1364   */\n      tag_58\n        /* \"#utility.yul\":1361:1362   */\n      0x00\n        /* \"#utility.yul\":1350:1359   */\n      dup4\n        /* \"#utility.yul\":1346:1363   */\n      add\n        /* \"#utility.yul\":1337:1343   */\n      dup5\n        /* \"#utility.yul\":1293:1364   */\n      tag_35\n      jump\t// in\n    tag_58:\n        /* \"#utility.yul\":1149:1371   */\n      swap3\n      swap2\n      pop\n      pop\n      jump\t// out\n        /* \"#utility.yul\":1377:1546   */\n    tag_36:\n        /* \"#utility.yul\":1461:1472   */\n      0x00\n        /* \"#utility.yul\":1495:1501   */\n      dup3\n        /* \"#utility.yul\":1490:1493   */\n      dup3\n        /* \"#utility.yul\":1483:1502   */\n      mstore\n        /* \"#utility.yul\":1535:1539   */\n      0x20\n        /* \"#utility.yul\":1530:1533   */\n      dup3\n        /* \"#utility.yul\":1526:1540   */\n      add\n        /* \"#utility.yul\":1511:1540   */\n      swap1\n      pop\n        /* \"#utility.yul\":1377:1546   */\n      swap3\n      swap2\n      pop\n      pop\n      jump\t// out\n        /* \"#utility.yul\":1552:1772   */\n    tag_37:\n        /* \"#utility.yul\":1692:1726   */\n      0x4e6f7420656e6f7567682066756e647320696e2074686520636f6e7472616374\n        /* \"#utility.yul\":1688:1689   */\n      0x00\n        /* \"#utility.yul\":1680:1686   */\n      dup3\n        /* \"#utility.yul\":1676:1690   */\n      add\n        /* \"#utility.yul\":1669:1727   */\n      mstore\n        /* \"#utility.yul\":1761:1764   */\n      0x2100000000000000000000000000000000000000000000000000000000000000\n        /* \"#utility.yul\":1756:1758   */\n      0x20\n        /* \"#utility.yul\":1748:1754   */\n      dup3\n        /* \"#utility.yul\":1744:1759   */\n      add\n        /* \"#utility.yul\":1737:1765   */\n      mstore\n        /* \"#utility.yul\":1552:1772   */\n      pop\n      jump\t// out\n        /* \"#utility.yul\":1778:2144   */\n    tag_38:\n        /* \"#utility.yul\":1920:1923   */\n      0x00\n        /* \"#utility.yul\":1941:2008   */\n      tag_62\n        /* \"#utility.yul\":2005:2007   */\n      0x21\n        /* \"#utility.yul\":2000:2003   */\n      dup4\n        /* \"#utility.yul\":1941:2008   */\n      tag_36\n      jump\t// in\n    tag_62:\n        /* \"#utility.yul\":1934:2008   */\n      swap2\n      pop\n        /* \"#utility.yul\":2017:2110   */\n      tag_63\n        /* \"#utility.yul\":2106:2109   */\n      dup3\n        /* \"#utility.yul\":2017:2110   */\n      tag_37\n      jump\t// in\n    tag_63:\n        /* \"#utility.yul\":2135:2137   */\n      0x40\n        /* \"#utility.yul\":2130:2133   */\n      dup3\n        /* \"#utility.yul\":2126:2138   */\n      add\n        /* \"#utility.yul\":2119:2138   */\n      swap1\n      pop\n        /* \"#utility.yul\":1778:2144   */\n      swap2\n      swap1\n      pop\n      jump\t// out\n        /* \"#utility.yul\":2150:2569   */\n    tag_21:\n        /* \"#utility.yul\":2316:2320   */\n      0x00\n        /* \"#utility.yul\":2354:2356   */\n      0x20\n        /* \"#utility.yul\":2343:2352   */\n      dup3\n        /* \"#utility.yul\":2339:2357   */\n      add\n        /* \"#utility.yul\":2331:2357   */\n      swap1\n      pop\n        /* \"#utility.yul\":2403:2412   */\n      dup2\n        /* \"#utility.yul\":2397:2401   */\n      dup2\n        /* \"#utility.yul\":2393:2413   */\n      sub\n        /* \"#utility.yul\":2389:2390   */\n      0x00\n        /* \"#utility.yul\":2378:2387   */\n      dup4\n        /* \"#utility.yul\":2374:2391   */\n      add\n        /* \"#utility.yul\":2367:2414   */\n      mstore\n        /* \"#utility.yul\":2431:2562   */\n      tag_65\n        /* \"#utility.yul\":2557:2561   */\n      dup2\n        /* \"#utility.yul\":2431:2562   */\n      tag_38\n      jump\t// in\n    tag_65:\n        /* \"#utility.yul\":2423:2562   */\n      swap1\n      pop\n        /* \"#utility.yul\":2150:2569   */\n      swap2\n      swap1\n      pop\n      jump\t// out\n        /* \"#utility.yul\":2575:2755   */\n    tag_39:\n        /* \"#utility.yul\":2715:2747   */\n      0x4e756d626572206d7573742062652067726561746572207468656e2030210000\n        /* \"#utility.yul\":2711:2712   */\n      0x00\n        /* \"#utility.yul\":2703:2709   */\n      dup3\n        /* \"#utility.yul\":2699:2713   */\n      add\n        /* \"#utility.yul\":2692:2748   */\n      mstore\n        /* \"#utility.yul\":2575:2755   */\n      pop\n      jump\t// out\n        /* \"#utility.yul\":2761:3127   */\n    tag_40:\n        /* \"#utility.yul\":2903:2906   */\n      0x00\n        /* \"#utility.yul\":2924:2991   */\n      tag_68\n        /* \"#utility.yul\":2988:2990   */\n      0x1e\n        /* \"#utility.yul\":2983:2986   */\n      dup4\n        /* \"#utility.yul\":2924:2991   */\n      tag_36\n      jump\t// in\n    tag_68:\n        /* \"#utility.yul\":2917:2991   */\n      swap2\n      pop\n        /* \"#utility.yul\":3000:3093   */\n      tag_69\n        /* \"#utility.yul\":3089:3092   */\n      dup3\n        /* \"#utility.yul\":3000:3093   */\n      tag_39\n      jump\t// in\n    tag_69:\n        /* \"#utility.yul\":3118:3120   */\n      0x20\n        /* \"#utility.yul\":3113:3116   */\n      dup3\n        /* \"#utility.yul\":3109:3121   */\n      add\n        /* \"#utility.yul\":3102:3121   */\n      swap1\n      pop\n        /* \"#utility.yul\":2761:3127   */\n      swap2\n      swap1\n      pop\n      jump\t// out\n        /* \"#utility.yul\":3133:3552   */\n    tag_27:\n        /* \"#utility.yul\":3299:3303   */\n      0x00\n        /* \"#utility.yul\":3337:3339   */\n      0x20\n        /* \"#utility.yul\":3326:3335   */\n      dup3\n        /* \"#utility.yul\":3322:3340   */\n      add\n        /* \"#utility.yul\":3314:3340   */\n      swap1\n      pop\n        /* \"#utility.yul\":3386:3395   */\n      dup2\n        /* \"#utility.yul\":3380:3384   */\n      dup2\n        /* \"#utility.yul\":3376:3396   */\n      sub\n        /* \"#utility.yul\":3372:3373   */\n      0x00\n        /* \"#utility.yul\":3361:3370   */\n      dup4\n        /* \"#utility.yul\":3357:3374   */\n      add\n        /* \"#utility.yul\":3350:3397   */\n      mstore\n        /* \"#utility.yul\":3414:3545   */\n      tag_71\n        /* \"#utility.yul\":3540:3544   */\n      dup2\n        /* \"#utility.yul\":3414:3545   */\n      tag_40\n      jump\t// in\n    tag_71:\n        /* \"#utility.yul\":3406:3545   */\n      swap1\n      pop\n        /* \"#utility.yul\":3133:3552   */\n      swap2\n      swap1\n      pop\n      jump\t// out\n\n    auxdata: 0xa264697066735822122062e0dfbbac5565af9feb2f566b02d2cf2cfb4abc6048042c63441c07efaccac764736f6c634300081a0033\n}\n",
				"bytecode": {
					"linkReferences": {},
					"object": "6080604052348015600e575f80fd5b506103358061001c5f395ff3fe608060405260043610610033575f3560e01c80635b6b431d14610037578063ed21248c1461005f578063efeb436d14610069575b5f80fd5b348015610042575f80fd5b5061005d600480360381019061005891906101a6565b610093565b005b610067610124565b005b348015610074575f80fd5b5061007d610168565b60405161008a91906101e0565b60405180910390f35b8061009c610168565b10156100dd576040517f08c379a00000000000000000000000000000000000000000000000000000000081526004016100d490610279565b60405180910390fd5b3373ffffffffffffffffffffffffffffffffffffffff166108fc8290811502906040515f60405180830381858888f19350505050158015610120573d5f803e3d5ffd5b5050565b5f3411610166576040517f08c379a000000000000000000000000000000000000000000000000000000000815260040161015d906102e1565b60405180910390fd5b565b5f47905090565b5f80fd5b5f819050919050565b61018581610173565b811461018f575f80fd5b50565b5f813590506101a08161017c565b92915050565b5f602082840312156101bb576101ba61016f565b5b5f6101c884828501610192565b91505092915050565b6101da81610173565b82525050565b5f6020820190506101f35f8301846101d1565b92915050565b5f82825260208201905092915050565b7f4e6f7420656e6f7567682066756e647320696e2074686520636f6e74726163745f8201527f2100000000000000000000000000000000000000000000000000000000000000602082015250565b5f6102636021836101f9565b915061026e82610209565b604082019050919050565b5f6020820190508181035f83015261029081610257565b9050919050565b7f4e756d626572206d7573742062652067726561746572207468656e20302100005f82015250565b5f6102cb601e836101f9565b91506102d682610297565b602082019050919050565b5f6020820190508181035f8301526102f8816102bf565b905091905056fea264697066735822122062e0dfbbac5565af9feb2f566b02d2cf2cfb4abc6048042c63441c07efaccac764736f6c634300081a0033",
					"opcodes": "PUSH1 0x80 PUSH1 0x40 MSTORE CALLVALUE DUP1 ISZERO PUSH1 0xE JUMPI PUSH0 DUP1 REVERT JUMPDEST POP PUSH2 0x335 DUP1 PUSH2 0x1C PUSH0 CODECOPY PUSH0 RETURN INVALID PUSH1 0x80 PUSH1 0x40 MSTORE PUSH1 0x4 CALLDATASIZE LT PUSH2 0x33 JUMPI PUSH0 CALLDATALOAD PUSH1 0xE0 SHR DUP1 PUSH4 0x5B6B431D EQ PUSH2 0x37 JUMPI DUP1 PUSH4 0xED21248C EQ PUSH2 0x5F JUMPI DUP1 PUSH4 0xEFEB436D EQ PUSH2 0x69 JUMPI JUMPDEST PUSH0 DUP1 REVERT JUMPDEST CALLVALUE DUP1 ISZERO PUSH2 0x42 JUMPI PUSH0 DUP1 REVERT JUMPDEST POP PUSH2 0x5D PUSH1 0x4 DUP1 CALLDATASIZE SUB DUP2 ADD SWAP1 PUSH2 0x58 SWAP2 SWAP1 PUSH2 0x1A6 JUMP JUMPDEST PUSH2 0x93 JUMP JUMPDEST STOP JUMPDEST PUSH2 0x67 PUSH2 0x124 JUMP JUMPDEST STOP JUMPDEST CALLVALUE DUP1 ISZERO PUSH2 0x74 JUMPI PUSH0 DUP1 REVERT JUMPDEST POP PUSH2 0x7D PUSH2 0x168 JUMP JUMPDEST PUSH1 0x40 MLOAD PUSH2 0x8A SWAP2 SWAP1 PUSH2 0x1E0 JUMP JUMPDEST PUSH1 0x40 MLOAD DUP1 SWAP2 SUB SWAP1 RETURN JUMPDEST DUP1 PUSH2 0x9C PUSH2 0x168 JUMP JUMPDEST LT ISZERO PUSH2 0xDD JUMPI PUSH1 0x40 MLOAD PUSH32 0x8C379A000000000000000000000000000000000000000000000000000000000 DUP2 MSTORE PUSH1 0x4 ADD PUSH2 0xD4 SWAP1 PUSH2 0x279 JUMP JUMPDEST PUSH1 0x40 MLOAD DUP1 SWAP2 SUB SWAP1 REVERT JUMPDEST CALLER PUSH20 0xFFFFFFFFFFFFFFFFFFFFFFFFFFFFFFFFFFFFFFFF AND PUSH2 0x8FC DUP3 SWAP1 DUP2 ISZERO MUL SWAP1 PUSH1 0x40 MLOAD PUSH0 PUSH1 0x40 MLOAD DUP1 DUP4 SUB DUP2 DUP6 DUP9 DUP9 CALL SWAP4 POP POP POP POP ISZERO DUP1 ISZERO PUSH2 0x120 JUMPI RETURNDATASIZE PUSH0 DUP1 RETURNDATACOPY RETURNDATASIZE PUSH0 REVERT JUMPDEST POP POP JUMP JUMPDEST PUSH0 CALLVALUE GT PUSH2 0x166 JUMPI PUSH1 0x40 MLOAD PUSH32 0x8C379A000000000000000000000000000000000000000000000000000000000 DUP2 MSTORE PUSH1 0x4 ADD PUSH2 0x15D SWAP1 PUSH2 0x2E1 JUMP JUMPDEST PUSH1 0x40 MLOAD DUP1 SWAP2 SUB SWAP1 REVERT JUMPDEST JUMP JUMPDEST PUSH0 SELFBALANCE SWAP1 POP SWAP1 JUMP JUMPDEST PUSH0 DUP1 REVERT JUMPDEST PUSH0 DUP2 SWAP1 POP SWAP2 SWAP1 POP JUMP JUMPDEST PUSH2 0x185 DUP2 PUSH2 0x173 JUMP JUMPDEST DUP2 EQ PUSH2 0x18F JUMPI PUSH0 DUP1 REVERT JUMPDEST POP JUMP JUMPDEST PUSH0 DUP2 CALLDATALOAD SWAP1 POP PUSH2 0x1A0 DUP2 PUSH2 0x17C JUMP JUMPDEST SWAP3 SWAP2 POP POP JUMP JUMPDEST PUSH0 PUSH1 0x20 DUP3 DUP5 SUB SLT ISZERO PUSH2 0x1BB JUMPI PUSH2 0x1BA PUSH2 0x16F JUMP JUMPDEST JUMPDEST PUSH0 PUSH2 0x1C8 DUP5 DUP3 DUP6 ADD PUSH2 0x192 JUMP JUMPDEST SWAP2 POP POP SWAP3 SWAP2 POP POP JUMP JUMPDEST PUSH2 0x1DA DUP2 PUSH2 0x173 JUMP JUMPDEST DUP3 MSTORE POP POP JUMP JUMPDEST PUSH0 PUSH1 0x20 DUP3 ADD SWAP1 POP PUSH2 0x1F3 PUSH0 DUP4 ADD DUP5 PUSH2 0x1D1 JUMP JUMPDEST SWAP3 SWAP2 POP POP JUMP JUMPDEST PUSH0 DUP3 DUP3 MSTORE PUSH1 0x20 DUP3 ADD SWAP1 POP SWAP3 SWAP2 POP POP JUMP JUMPDEST PUSH32 0x4E6F7420656E6F7567682066756E647320696E2074686520636F6E7472616374 PUSH0 DUP3 ADD MSTORE PUSH32 0x2100000000000000000000000000000000000000000000000000000000000000 PUSH1 0x20 DUP3 ADD MSTORE POP JUMP JUMPDEST PUSH0 PUSH2 0x263 PUSH1 0x21 DUP4 PUSH2 0x1F9 JUMP JUMPDEST SWAP2 POP PUSH2 0x26E DUP3 PUSH2 0x209 JUMP JUMPDEST PUSH1 0x40 DUP3 ADD SWAP1 POP SWAP2 SWAP1 POP JUMP JUMPDEST PUSH0 PUSH1 0x20 DUP3 ADD SWAP1 POP DUP2 DUP2 SUB PUSH0 DUP4 ADD MSTORE PUSH2 0x290 DUP2 PUSH2 0x257 JUMP JUMPDEST SWAP1 POP SWAP2 SWAP1 POP JUMP JUMPDEST PUSH32 0x4E756D626572206D7573742062652067726561746572207468656E2030210000 PUSH0 DUP3 ADD MSTORE POP JUMP JUMPDEST PUSH0 PUSH2 0x2CB PUSH1 0x1E DUP4 PUSH2 0x1F9 JUMP JUMPDEST SWAP2 POP PUSH2 0x2D6 DUP3 PUSH2 0x297 JUMP JUMPDEST PUSH1 0x20 DUP3 ADD SWAP1 POP SWAP2 SWAP1 POP JUMP JUMPDEST PUSH0 PUSH1 0x20 DUP3 ADD SWAP1 POP DUP2 DUP2 SUB PUSH0 DUP4 ADD MSTORE PUSH2 0x2F8 DUP2 PUSH2 0x2BF JUMP JUMPDEST SWAP1 POP SWAP2 SWAP1 POP JUMP INVALID LOG2 PUSH5 0x6970667358 0x22 SLT KECCAK256 PUSH3 0xE0DFBB 0xAC SSTORE PUSH6 0xAF9FEB2F566B MUL 0xD2 0xCF 0x2C 0xFB BLOBBASEFEE 0xBC PUSH1 0x48 DIV 0x2C PUSH4 0x441C07EF 0xAC 0xCA 0xC7 PUSH5 0x736F6C6343 STOP ADDMOD BYTE STOP CALLER "
				},
				"gasEstimates": {
					"creation": {
						"codeDepositCost": "164200",
						"executionCost": "206",
						"totalCost": "164406"
					},
					"external": {
						"CheckBallance()": "356",
						"Deposit()": "424",
						"Withdraw(uint256)": "infinite"
					}
				},
				"methodIdentifiers": {
					"CheckBallance()": "efeb436d",
					"Deposit()": "ed21248c",
					"Withdraw(uint256)": "5b6b431d"
				}
			},
			"storageLayout": {
				"storage": [],
				"types": null
			},
			"userdoc": {
				"kind": "user",
				"methods": {},
				"version": 1
			}
		}
	}
}