{
	"contracts/Auction_SC03_Secure.sol": {
		"Auction": {
			"abi": [
				{
					"inputs": [
						{
							"internalType": "uint256",
							"name": "biddingTimeInSeconds",
							"type": "uint256"
						}
					],
					"stateMutability": "nonpayable",
					"type": "constructor"
				},
				{
					"inputs": [],
					"name": "FinalizeAuction",
					"outputs": [],
					"stateMutability": "nonpayable",
					"type": "function"
				},
				{
					"inputs": [],
					"name": "GetTimeLeft",
					"outputs": [
						{
							"internalType": "uint256",
							"name": "",
							"type": "uint256"
						}
					],
					"stateMutability": "view",
					"type": "function"
				},
				{
					"inputs": [],
					"name": "PlaceBid",
					"outputs": [],
					"stateMutability": "payable",
					"type": "function"
				},
				{
					"inputs": [],
					"name": "auctionEndTime",
					"outputs": [
						{
							"internalType": "uint256",
							"name": "",
							"type": "uint256"
						}
					],
					"stateMutability": "view",
					"type": "function"
				},
				{
					"inputs": [],
					"name": "auctionEnded",
					"outputs": [
						{
							"internalType": "bool",
							"name": "",
							"type": "bool"
						}
					],
					"stateMutability": "view",
					"type": "function"
				},
				{
					"inputs": [
						{
							"internalType": "uint256",
							"name": "",
							"type": "uint256"
						}
					],
					"name": "bidders",
					"outputs": [
						{
							"internalType": "address",
							"name": "",
							"type": "address"
						}
					],
					"stateMutability": "view",
					"type": "function"
				},
				{
					"inputs": [
						{
							"internalType": "address",
							"name": "",
							"type": "address"
						}
					],
					"name": "bids",
					"outputs": [
						{
							"internalType": "uint256",
							"name": "",
							"type": "uint256"
						}
					],
					"stateMutability": "view",
					"type": "function"
				},
				{
					"inputs": [],
					"name": "highestBid",
					"outputs": [
						{
							"internalType": "uint256",
							"name": "",
							"type": "uint256"
						}
					],
					"stateMutability": "view",
					"type": "function"
				},
				{
					"inputs": [],
					"name": "highestBidder",
					"outputs": [
						{
							"internalType": "address",
							"name": "",
							"type": "address"
						}
					],
					"stateMutability": "view",
					"type": "function"
				}
			],
			"devdoc": {
				"kind": "dev",
				"methods": {},
				"version": 1
			},
			"evm": {
				"assembly": "    /* \"contracts/Auction_SC03_Secure.sol\":68:2231  contract Auction {... */\n  mstore(0x40, 0x80)\n    /* \"contracts/Auction_SC03_Secure.sol\":438:738  constructor(uint256 biddingTimeInSeconds) {... */\n  callvalue\n  dup1\n  iszero\n  tag_1\n  jumpi\n  0x00\n  dup1\n  revert\ntag_1:\n  pop\n  mload(0x40)\n  sub(codesize, bytecodeSize)\n  dup1\n  bytecodeSize\n  dup4\n  codecopy\n  dup2\n  dup2\n  add\n  0x40\n  mstore\n  dup2\n  add\n  swap1\n  tag_2\n  swap2\n  swap1\n  tag_3\n  jump\t// in\ntag_2:\n    /* \"contracts/Auction_SC03_Secure.sol\":491:509  uint256 randomSeed */\n  0x00\n    /* \"contracts/Auction_SC03_Secure.sol\":572:573  1 */\n  0x01\n    /* \"contracts/Auction_SC03_Secure.sol\":557:569  block.number */\n  number\n    /* \"contracts/Auction_SC03_Secure.sol\":557:573  block.number - 1 */\n  tag_6\n  swap2\n  swap1\n  tag_7\n  jump\t// in\ntag_6:\n    /* \"contracts/Auction_SC03_Secure.sol\":547:574  blockhash(block.number - 1) */\n  blockhash\n    /* \"contracts/Auction_SC03_Secure.sol\":576:591  block.timestamp */\n  timestamp\n    /* \"contracts/Auction_SC03_Secure.sol\":593:609  block.prevrandao */\n  prevrandao\n    /* \"contracts/Auction_SC03_Secure.sol\":530:610  abi.encodePacked(blockhash(block.number - 1), block.timestamp, block.prevrandao) */\n  add(0x20, mload(0x40))\n  tag_8\n  swap4\n  swap3\n  swap2\n  swap1\n  tag_9\n  jump\t// in\ntag_8:\n  mload(0x40)\n  0x20\n  dup2\n  dup4\n  sub\n  sub\n  dup2\n  mstore\n  swap1\n  0x40\n  mstore\n    /* \"contracts/Auction_SC03_Secure.sol\":520:611  keccak256(abi.encodePacked(blockhash(block.number - 1), block.timestamp, block.prevrandao)) */\n  dup1\n  mload\n  swap1\n  0x20\n  add\n  keccak256\n    /* \"contracts/Auction_SC03_Secure.sol\":512:612  uint256(keccak256(abi.encodePacked(blockhash(block.number - 1), block.timestamp, block.prevrandao))) */\n  0x00\n  shr\n    /* \"contracts/Auction_SC03_Secure.sol\":491:612  uint256 randomSeed = uint256(keccak256(abi.encodePacked(blockhash(block.number - 1), block.timestamp, block.prevrandao))) */\n  swap1\n  pop\n    /* \"contracts/Auction_SC03_Secure.sol\":679:699  biddingTimeInSeconds */\n  dup2\n    /* \"contracts/Auction_SC03_Secure.sol\":661:676  block.timestamp */\n  timestamp\n    /* \"contracts/Auction_SC03_Secure.sol\":654:657  200 */\n  0xc8\n    /* \"contracts/Auction_SC03_Secure.sol\":641:651  randomSeed */\n  dup4\n    /* \"contracts/Auction_SC03_Secure.sol\":641:657  randomSeed % 200 */\n  tag_10\n  swap2\n  swap1\n  tag_11\n  jump\t// in\ntag_10:\n    /* \"contracts/Auction_SC03_Secure.sol\":640:676  (randomSeed % 200) + block.timestamp */\n  tag_12\n  swap2\n  swap1\n  tag_13\n  jump\t// in\ntag_12:\n    /* \"contracts/Auction_SC03_Secure.sol\":640:699  (randomSeed % 200) + block.timestamp + biddingTimeInSeconds */\n  tag_14\n  swap2\n  swap1\n  tag_13\n  jump\t// in\ntag_14:\n    /* \"contracts/Auction_SC03_Secure.sol\":623:637  auctionEndTime */\n  0x02\n    /* \"contracts/Auction_SC03_Secure.sol\":623:699  auctionEndTime = (randomSeed % 200) + block.timestamp + biddingTimeInSeconds */\n  dup2\n  swap1\n  sstore\n  pop\n    /* \"contracts/Auction_SC03_Secure.sol\":725:730  false */\n  0x00\n    /* \"contracts/Auction_SC03_Secure.sol\":710:722  auctionEnded */\n  0x03\n  0x00\n    /* \"contracts/Auction_SC03_Secure.sol\":710:730  auctionEnded = false */\n  0x0100\n  exp\n  dup2\n  sload\n  dup2\n  0xff\n  mul\n  not\n  and\n  swap1\n  dup4\n  iszero\n  iszero\n  mul\n  or\n  swap1\n  sstore\n  pop\n    /* \"contracts/Auction_SC03_Secure.sol\":480:738  {... */\n  pop\n    /* \"contracts/Auction_SC03_Secure.sol\":438:738  constructor(uint256 biddingTimeInSeconds) {... */\n  pop\n    /* \"contracts/Auction_SC03_Secure.sol\":68:2231  contract Auction {... */\n  jump(tag_15)\n    /* \"#utility.yul\":88:205   */\ntag_17:\n    /* \"#utility.yul\":197:198   */\n  0x00\n    /* \"#utility.yul\":194:195   */\n  dup1\n    /* \"#utility.yul\":187:199   */\n  revert\n    /* \"#utility.yul\":334:411   */\ntag_19:\n    /* \"#utility.yul\":371:378   */\n  0x00\n    /* \"#utility.yul\":400:405   */\n  dup2\n    /* \"#utility.yul\":389:405   */\n  swap1\n  pop\n    /* \"#utility.yul\":334:411   */\n  swap2\n  swap1\n  pop\n  jump\t// out\n    /* \"#utility.yul\":417:539   */\ntag_20:\n    /* \"#utility.yul\":490:514   */\n  tag_35\n    /* \"#utility.yul\":508:513   */\n  dup2\n    /* \"#utility.yul\":490:514   */\n  tag_19\n  jump\t// in\ntag_35:\n    /* \"#utility.yul\":483:488   */\n  dup2\n    /* \"#utility.yul\":480:515   */\n  eq\n    /* \"#utility.yul\":470:533   */\n  tag_36\n  jumpi\n    /* \"#utility.yul\":529:530   */\n  0x00\n    /* \"#utility.yul\":526:527   */\n  dup1\n    /* \"#utility.yul\":519:531   */\n  revert\n    /* \"#utility.yul\":470:533   */\ntag_36:\n    /* \"#utility.yul\":417:539   */\n  pop\n  jump\t// out\n    /* \"#utility.yul\":545:688   */\ntag_21:\n    /* \"#utility.yul\":602:607   */\n  0x00\n    /* \"#utility.yul\":633:639   */\n  dup2\n    /* \"#utility.yul\":627:640   */\n  mload\n    /* \"#utility.yul\":618:640   */\n  swap1\n  pop\n    /* \"#utility.yul\":649:682   */\n  tag_38\n    /* \"#utility.yul\":676:681   */\n  dup2\n    /* \"#utility.yul\":649:682   */\n  tag_20\n  jump\t// in\ntag_38:\n    /* \"#utility.yul\":545:688   */\n  swap3\n  swap2\n  pop\n  pop\n  jump\t// out\n    /* \"#utility.yul\":694:1045   */\ntag_3:\n    /* \"#utility.yul\":764:770   */\n  0x00\n    /* \"#utility.yul\":813:815   */\n  0x20\n    /* \"#utility.yul\":801:810   */\n  dup3\n    /* \"#utility.yul\":792:799   */\n  dup5\n    /* \"#utility.yul\":788:811   */\n  sub\n    /* \"#utility.yul\":784:816   */\n  slt\n    /* \"#utility.yul\":781:900   */\n  iszero\n  tag_40\n  jumpi\n    /* \"#utility.yul\":819:898   */\n  tag_41\n  tag_17\n  jump\t// in\ntag_41:\n    /* \"#utility.yul\":781:900   */\ntag_40:\n    /* \"#utility.yul\":939:940   */\n  0x00\n    /* \"#utility.yul\":964:1028   */\n  tag_42\n    /* \"#utility.yul\":1020:1027   */\n  dup5\n    /* \"#utility.yul\":1011:1017   */\n  dup3\n    /* \"#utility.yul\":1000:1009   */\n  dup6\n    /* \"#utility.yul\":996:1018   */\n  add\n    /* \"#utility.yul\":964:1028   */\n  tag_21\n  jump\t// in\ntag_42:\n    /* \"#utility.yul\":954:1028   */\n  swap2\n  pop\n    /* \"#utility.yul\":910:1038   */\n  pop\n    /* \"#utility.yul\":694:1045   */\n  swap3\n  swap2\n  pop\n  pop\n  jump\t// out\n    /* \"#utility.yul\":1051:1231   */\ntag_22:\n    /* \"#utility.yul\":1099:1176   */\n  0x4e487b7100000000000000000000000000000000000000000000000000000000\n    /* \"#utility.yul\":1096:1097   */\n  0x00\n    /* \"#utility.yul\":1089:1177   */\n  mstore\n    /* \"#utility.yul\":1196:1200   */\n  0x11\n    /* \"#utility.yul\":1193:1194   */\n  0x04\n    /* \"#utility.yul\":1186:1201   */\n  mstore\n    /* \"#utility.yul\":1220:1224   */\n  0x24\n    /* \"#utility.yul\":1217:1218   */\n  0x00\n    /* \"#utility.yul\":1210:1225   */\n  revert\n    /* \"#utility.yul\":1237:1431   */\ntag_7:\n    /* \"#utility.yul\":1277:1281   */\n  0x00\n    /* \"#utility.yul\":1297:1317   */\n  tag_45\n    /* \"#utility.yul\":1315:1316   */\n  dup3\n    /* \"#utility.yul\":1297:1317   */\n  tag_19\n  jump\t// in\ntag_45:\n    /* \"#utility.yul\":1292:1317   */\n  swap2\n  pop\n    /* \"#utility.yul\":1331:1351   */\n  tag_46\n    /* \"#utility.yul\":1349:1350   */\n  dup4\n    /* \"#utility.yul\":1331:1351   */\n  tag_19\n  jump\t// in\ntag_46:\n    /* \"#utility.yul\":1326:1351   */\n  swap3\n  pop\n    /* \"#utility.yul\":1375:1376   */\n  dup3\n    /* \"#utility.yul\":1372:1373   */\n  dup3\n    /* \"#utility.yul\":1368:1377   */\n  sub\n    /* \"#utility.yul\":1360:1377   */\n  swap1\n  pop\n    /* \"#utility.yul\":1399:1400   */\n  dup2\n    /* \"#utility.yul\":1393:1397   */\n  dup2\n    /* \"#utility.yul\":1390:1401   */\n  gt\n    /* \"#utility.yul\":1387:1424   */\n  iszero\n  tag_47\n  jumpi\n    /* \"#utility.yul\":1404:1422   */\n  tag_48\n  tag_22\n  jump\t// in\ntag_48:\n    /* \"#utility.yul\":1387:1424   */\ntag_47:\n    /* \"#utility.yul\":1237:1431   */\n  swap3\n  swap2\n  pop\n  pop\n  jump\t// out\n    /* \"#utility.yul\":1437:1514   */\ntag_23:\n    /* \"#utility.yul\":1474:1481   */\n  0x00\n    /* \"#utility.yul\":1503:1508   */\n  dup2\n    /* \"#utility.yul\":1492:1508   */\n  swap1\n  pop\n    /* \"#utility.yul\":1437:1514   */\n  swap2\n  swap1\n  pop\n  jump\t// out\n    /* \"#utility.yul\":1520:1599   */\ntag_24:\n    /* \"#utility.yul\":1559:1566   */\n  0x00\n    /* \"#utility.yul\":1588:1593   */\n  dup2\n    /* \"#utility.yul\":1577:1593   */\n  swap1\n  pop\n    /* \"#utility.yul\":1520:1599   */\n  swap2\n  swap1\n  pop\n  jump\t// out\n    /* \"#utility.yul\":1605:1762   */\ntag_25:\n    /* \"#utility.yul\":1710:1755   */\n  tag_52\n    /* \"#utility.yul\":1730:1754   */\n  tag_53\n    /* \"#utility.yul\":1748:1753   */\n  dup3\n    /* \"#utility.yul\":1730:1754   */\n  tag_23\n  jump\t// in\ntag_53:\n    /* \"#utility.yul\":1710:1755   */\n  tag_24\n  jump\t// in\ntag_52:\n    /* \"#utility.yul\":1705:1708   */\n  dup3\n    /* \"#utility.yul\":1698:1756   */\n  mstore\n    /* \"#utility.yul\":1605:1762   */\n  pop\n  pop\n  jump\t// out\n    /* \"#utility.yul\":1768:1847   */\ntag_26:\n    /* \"#utility.yul\":1807:1814   */\n  0x00\n    /* \"#utility.yul\":1836:1841   */\n  dup2\n    /* \"#utility.yul\":1825:1841   */\n  swap1\n  pop\n    /* \"#utility.yul\":1768:1847   */\n  swap2\n  swap1\n  pop\n  jump\t// out\n    /* \"#utility.yul\":1853:2010   */\ntag_27:\n    /* \"#utility.yul\":1958:2003   */\n  tag_56\n    /* \"#utility.yul\":1978:2002   */\n  tag_57\n    /* \"#utility.yul\":1996:2001   */\n  dup3\n    /* \"#utility.yul\":1978:2002   */\n  tag_19\n  jump\t// in\ntag_57:\n    /* \"#utility.yul\":1958:2003   */\n  tag_26\n  jump\t// in\ntag_56:\n    /* \"#utility.yul\":1953:1956   */\n  dup3\n    /* \"#utility.yul\":1946:2004   */\n  mstore\n    /* \"#utility.yul\":1853:2010   */\n  pop\n  pop\n  jump\t// out\n    /* \"#utility.yul\":2016:2554   */\ntag_9:\n    /* \"#utility.yul\":2184:2187   */\n  0x00\n    /* \"#utility.yul\":2199:2274   */\n  tag_59\n    /* \"#utility.yul\":2270:2273   */\n  dup3\n    /* \"#utility.yul\":2261:2267   */\n  dup7\n    /* \"#utility.yul\":2199:2274   */\n  tag_25\n  jump\t// in\ntag_59:\n    /* \"#utility.yul\":2299:2301   */\n  0x20\n    /* \"#utility.yul\":2294:2297   */\n  dup3\n    /* \"#utility.yul\":2290:2302   */\n  add\n    /* \"#utility.yul\":2283:2302   */\n  swap2\n  pop\n    /* \"#utility.yul\":2312:2387   */\n  tag_60\n    /* \"#utility.yul\":2383:2386   */\n  dup3\n    /* \"#utility.yul\":2374:2380   */\n  dup6\n    /* \"#utility.yul\":2312:2387   */\n  tag_27\n  jump\t// in\ntag_60:\n    /* \"#utility.yul\":2412:2414   */\n  0x20\n    /* \"#utility.yul\":2407:2410   */\n  dup3\n    /* \"#utility.yul\":2403:2415   */\n  add\n    /* \"#utility.yul\":2396:2415   */\n  swap2\n  pop\n    /* \"#utility.yul\":2425:2500   */\n  tag_61\n    /* \"#utility.yul\":2496:2499   */\n  dup3\n    /* \"#utility.yul\":2487:2493   */\n  dup5\n    /* \"#utility.yul\":2425:2500   */\n  tag_27\n  jump\t// in\ntag_61:\n    /* \"#utility.yul\":2525:2527   */\n  0x20\n    /* \"#utility.yul\":2520:2523   */\n  dup3\n    /* \"#utility.yul\":2516:2528   */\n  add\n    /* \"#utility.yul\":2509:2528   */\n  swap2\n  pop\n    /* \"#utility.yul\":2545:2548   */\n  dup2\n    /* \"#utility.yul\":2538:2548   */\n  swap1\n  pop\n    /* \"#utility.yul\":2016:2554   */\n  swap5\n  swap4\n  pop\n  pop\n  pop\n  pop\n  jump\t// out\n    /* \"#utility.yul\":2560:2740   */\ntag_28:\n    /* \"#utility.yul\":2608:2685   */\n  0x4e487b7100000000000000000000000000000000000000000000000000000000\n    /* \"#utility.yul\":2605:2606   */\n  0x00\n    /* \"#utility.yul\":2598:2686   */\n  mstore\n    /* \"#utility.yul\":2705:2709   */\n  0x12\n    /* \"#utility.yul\":2702:2703   */\n  0x04\n    /* \"#utility.yul\":2695:2710   */\n  mstore\n    /* \"#utility.yul\":2729:2733   */\n  0x24\n    /* \"#utility.yul\":2726:2727   */\n  0x00\n    /* \"#utility.yul\":2719:2734   */\n  revert\n    /* \"#utility.yul\":2746:2922   */\ntag_11:\n    /* \"#utility.yul\":2778:2779   */\n  0x00\n    /* \"#utility.yul\":2795:2815   */\n  tag_64\n    /* \"#utility.yul\":2813:2814   */\n  dup3\n    /* \"#utility.yul\":2795:2815   */\n  tag_19\n  jump\t// in\ntag_64:\n    /* \"#utility.yul\":2790:2815   */\n  swap2\n  pop\n    /* \"#utility.yul\":2829:2849   */\n  tag_65\n    /* \"#utility.yul\":2847:2848   */\n  dup4\n    /* \"#utility.yul\":2829:2849   */\n  tag_19\n  jump\t// in\ntag_65:\n    /* \"#utility.yul\":2824:2849   */\n  swap3\n  pop\n    /* \"#utility.yul\":2868:2869   */\n  dup3\n    /* \"#utility.yul\":2858:2893   */\n  tag_66\n  jumpi\n    /* \"#utility.yul\":2873:2891   */\n  tag_67\n  tag_28\n  jump\t// in\ntag_67:\n    /* \"#utility.yul\":2858:2893   */\ntag_66:\n    /* \"#utility.yul\":2914:2915   */\n  dup3\n    /* \"#utility.yul\":2911:2912   */\n  dup3\n    /* \"#utility.yul\":2907:2916   */\n  mod\n    /* \"#utility.yul\":2902:2916   */\n  swap1\n  pop\n    /* \"#utility.yul\":2746:2922   */\n  swap3\n  swap2\n  pop\n  pop\n  jump\t// out\n    /* \"#utility.yul\":2928:3119   */\ntag_13:\n    /* \"#utility.yul\":2968:2971   */\n  0x00\n    /* \"#utility.yul\":2987:3007   */\n  tag_69\n    /* \"#utility.yul\":3005:3006   */\n  dup3\n    /* \"#utility.yul\":2987:3007   */\n  tag_19\n  jump\t// in\ntag_69:\n    /* \"#utility.yul\":2982:3007   */\n  swap2\n  pop\n    /* \"#utility.yul\":3021:3041   */\n  tag_70\n    /* \"#utility.yul\":3039:3040   */\n  dup4\n    /* \"#utility.yul\":3021:3041   */\n  tag_19\n  jump\t// in\ntag_70:\n    /* \"#utility.yul\":3016:3041   */\n  swap3\n  pop\n    /* \"#utility.yul\":3064:3065   */\n  dup3\n    /* \"#utility.yul\":3061:3062   */\n  dup3\n    /* \"#utility.yul\":3057:3066   */\n  add\n    /* \"#utility.yul\":3050:3066   */\n  swap1\n  pop\n    /* \"#utility.yul\":3085:3088   */\n  dup1\n    /* \"#utility.yul\":3082:3083   */\n  dup3\n    /* \"#utility.yul\":3079:3089   */\n  gt\n    /* \"#utility.yul\":3076:3112   */\n  iszero\n  tag_71\n  jumpi\n    /* \"#utility.yul\":3092:3110   */\n  tag_72\n  tag_22\n  jump\t// in\ntag_72:\n    /* \"#utility.yul\":3076:3112   */\ntag_71:\n    /* \"#utility.yul\":2928:3119   */\n  swap3\n  swap2\n  pop\n  pop\n  jump\t// out\n    /* \"contracts/Auction_SC03_Secure.sol\":68:2231  contract Auction {... */\ntag_15:\n  dataSize(sub_0)\n  dup1\n  dataOffset(sub_0)\n  0x00\n  codecopy\n  0x00\n  return\nstop\n\nsub_0: assembly {\n        /* \"contracts/Auction_SC03_Secure.sol\":68:2231  contract Auction {... */\n      mstore(0x40, 0x80)\n      jumpi(tag_1, lt(calldatasize, 0x04))\n      shr(0xe0, calldataload(0x00))\n      dup1\n      0x91f90157\n      gt\n      tag_11\n      jumpi\n      dup1\n      0x91f90157\n      eq\n      tag_6\n      jumpi\n      dup1\n      0xcff29dfd\n      eq\n      tag_7\n      jumpi\n      dup1\n      0xd57bde79\n      eq\n      tag_8\n      jumpi\n      dup1\n      0xdc201dc2\n      eq\n      tag_9\n      jumpi\n      dup1\n      0xf21777c0\n      eq\n      tag_10\n      jumpi\n      jump(tag_1)\n    tag_11:\n      dup1\n      0x305f69dc\n      eq\n      tag_2\n      jumpi\n      dup1\n      0x4b449cba\n      eq\n      tag_3\n      jumpi\n      dup1\n      0x62ea82db\n      eq\n      tag_4\n      jumpi\n      dup1\n      0x86433374\n      eq\n      tag_5\n      jumpi\n    tag_1:\n      0x00\n      dup1\n      revert\n        /* \"contracts/Auction_SC03_Secure.sol\":1242:2021  function FinalizeAuction() public {... */\n    tag_2:\n      callvalue\n      dup1\n      iszero\n      tag_12\n      jumpi\n      0x00\n      dup1\n      revert\n    tag_12:\n      pop\n      tag_13\n      tag_14\n      jump\t// in\n    tag_13:\n      stop\n        /* \"contracts/Auction_SC03_Secure.sol\":208:237  uint256 public auctionEndTime */\n    tag_3:\n      callvalue\n      dup1\n      iszero\n      tag_15\n      jumpi\n      0x00\n      dup1\n      revert\n    tag_15:\n      pop\n      tag_16\n      tag_17\n      jump\t// in\n    tag_16:\n      mload(0x40)\n      tag_18\n      swap2\n      swap1\n      tag_19\n      jump\t// in\n    tag_18:\n      mload(0x40)\n      dup1\n      swap2\n      sub\n      swap1\n      return\n        /* \"contracts/Auction_SC03_Secure.sol\":303:342  mapping(address => uint256) public bids */\n    tag_4:\n      callvalue\n      dup1\n      iszero\n      tag_20\n      jumpi\n      0x00\n      dup1\n      revert\n    tag_20:\n      pop\n      tag_21\n      0x04\n      dup1\n      calldatasize\n      sub\n      dup2\n      add\n      swap1\n      tag_22\n      swap2\n      swap1\n      tag_23\n      jump\t// in\n    tag_22:\n      tag_24\n      jump\t// in\n    tag_21:\n      mload(0x40)\n      tag_25\n      swap2\n      swap1\n      tag_19\n      jump\t// in\n    tag_25:\n      mload(0x40)\n      dup1\n      swap2\n      sub\n      swap1\n      return\n        /* \"contracts/Auction_SC03_Secure.sol\":272:296  bool public auctionEnded */\n    tag_5:\n      callvalue\n      dup1\n      iszero\n      tag_26\n      jumpi\n      0x00\n      dup1\n      revert\n    tag_26:\n      pop\n      tag_27\n      tag_28\n      jump\t// in\n    tag_27:\n      mload(0x40)\n      tag_29\n      swap2\n      swap1\n      tag_30\n      jump\t// in\n    tag_29:\n      mload(0x40)\n      dup1\n      swap2\n      sub\n      swap1\n      return\n        /* \"contracts/Auction_SC03_Secure.sol\":92:120  address public highestBidder */\n    tag_6:\n      callvalue\n      dup1\n      iszero\n      tag_31\n      jumpi\n      0x00\n      dup1\n      revert\n    tag_31:\n      pop\n      tag_32\n      tag_33\n      jump\t// in\n    tag_32:\n      mload(0x40)\n      tag_34\n      swap2\n      swap1\n      tag_35\n      jump\t// in\n    tag_34:\n      mload(0x40)\n      dup1\n      swap2\n      sub\n      swap1\n      return\n        /* \"contracts/Auction_SC03_Secure.sol\":381:405  address[] public bidders */\n    tag_7:\n      callvalue\n      dup1\n      iszero\n      tag_36\n      jumpi\n      0x00\n      dup1\n      revert\n    tag_36:\n      pop\n      tag_37\n      0x04\n      dup1\n      calldatasize\n      sub\n      dup2\n      add\n      swap1\n      tag_38\n      swap2\n      swap1\n      tag_39\n      jump\t// in\n    tag_38:\n      tag_40\n      jump\t// in\n    tag_37:\n      mload(0x40)\n      tag_41\n      swap2\n      swap1\n      tag_35\n      jump\t// in\n    tag_41:\n      mload(0x40)\n      dup1\n      swap2\n      sub\n      swap1\n      return\n        /* \"contracts/Auction_SC03_Secure.sol\":157:182  uint256 public highestBid */\n    tag_8:\n      callvalue\n      dup1\n      iszero\n      tag_42\n      jumpi\n      0x00\n      dup1\n      revert\n    tag_42:\n      pop\n      tag_43\n      tag_44\n      jump\t// in\n    tag_43:\n      mload(0x40)\n      tag_45\n      swap2\n      swap1\n      tag_19\n      jump\t// in\n    tag_45:\n      mload(0x40)\n      dup1\n      swap2\n      sub\n      swap1\n      return\n        /* \"contracts/Auction_SC03_Secure.sol\":746:1234  function PlaceBid() public payable {... */\n    tag_9:\n      tag_46\n      tag_47\n      jump\t// in\n    tag_46:\n      stop\n        /* \"contracts/Auction_SC03_Secure.sol\":2029:2224  function GetTimeLeft() public view returns (uint256) {... */\n    tag_10:\n      callvalue\n      dup1\n      iszero\n      tag_48\n      jumpi\n      0x00\n      dup1\n      revert\n    tag_48:\n      pop\n      tag_49\n      tag_50\n      jump\t// in\n    tag_49:\n      mload(0x40)\n      tag_51\n      swap2\n      swap1\n      tag_19\n      jump\t// in\n    tag_51:\n      mload(0x40)\n      dup1\n      swap2\n      sub\n      swap1\n      return\n        /* \"contracts/Auction_SC03_Secure.sol\":1242:2021  function FinalizeAuction() public {... */\n    tag_14:\n        /* \"contracts/Auction_SC03_Secure.sol\":1314:1328  auctionEndTime */\n      sload(0x02)\n        /* \"contracts/Auction_SC03_Secure.sol\":1295:1310  block.timestamp */\n      timestamp\n        /* \"contracts/Auction_SC03_Secure.sol\":1295:1328  block.timestamp >= auctionEndTime */\n      lt\n      iszero\n        /* \"contracts/Auction_SC03_Secure.sol\":1287:1358  require(block.timestamp >= auctionEndTime, \"Auction is still ongoing.\") */\n      tag_53\n      jumpi\n      mload(0x40)\n      0x08c379a000000000000000000000000000000000000000000000000000000000\n      dup2\n      mstore\n      0x04\n      add\n      tag_54\n      swap1\n      tag_55\n      jump\t// in\n    tag_54:\n      mload(0x40)\n      dup1\n      swap2\n      sub\n      swap1\n      revert\n    tag_53:\n        /* \"contracts/Auction_SC03_Secure.sol\":1378:1390  auctionEnded */\n      0x03\n      0x00\n      swap1\n      sload\n      swap1\n      0x0100\n      exp\n      swap1\n      div\n      0xff\n      and\n        /* \"contracts/Auction_SC03_Secure.sol\":1377:1390  !auctionEnded */\n      iszero\n        /* \"contracts/Auction_SC03_Secure.sol\":1369:1421  require(!auctionEnded, \"Auction already finalized.\") */\n      tag_56\n      jumpi\n      mload(0x40)\n      0x08c379a000000000000000000000000000000000000000000000000000000000\n      dup2\n      mstore\n      0x04\n      add\n      tag_57\n      swap1\n      tag_58\n      jump\t// in\n    tag_57:\n      mload(0x40)\n      dup1\n      swap2\n      sub\n      swap1\n      revert\n    tag_56:\n        /* \"contracts/Auction_SC03_Secure.sol\":1449:1453  true */\n      0x01\n        /* \"contracts/Auction_SC03_Secure.sol\":1434:1446  auctionEnded */\n      0x03\n      0x00\n        /* \"contracts/Auction_SC03_Secure.sol\":1434:1453  auctionEnded = true */\n      0x0100\n      exp\n      dup2\n      sload\n      dup2\n      0xff\n      mul\n      not\n      and\n      swap1\n      dup4\n      iszero\n      iszero\n      mul\n      or\n      swap1\n      sstore\n      pop\n        /* \"contracts/Auction_SC03_Secure.sol\":1527:1540  highestBidder */\n      0x00\n      dup1\n      sload\n      swap1\n      0x0100\n      exp\n      swap1\n      div\n      0xffffffffffffffffffffffffffffffffffffffff\n      and\n        /* \"contracts/Auction_SC03_Secure.sol\":1519:1550  payable(highestBidder).transfer */\n      0xffffffffffffffffffffffffffffffffffffffff\n      and\n        /* \"contracts/Auction_SC03_Secure.sol\":1519:1562  payable(highestBidder).transfer(highestBid) */\n      0x08fc\n        /* \"contracts/Auction_SC03_Secure.sol\":1551:1561  highestBid */\n      sload(0x01)\n        /* \"contracts/Auction_SC03_Secure.sol\":1519:1562  payable(highestBidder).transfer(highestBid) */\n      swap1\n      dup2\n      iszero\n      mul\n      swap1\n      mload(0x40)\n      0x00\n      mload(0x40)\n      dup1\n      dup4\n      sub\n      dup2\n      dup6\n      dup9\n      dup9\n      call\n      swap4\n      pop\n      pop\n      pop\n      pop\n      iszero\n      dup1\n      iszero\n      tag_60\n      jumpi\n      returndatasize\n      0x00\n      dup1\n      returndatacopy\n      revert(0x00, returndatasize)\n    tag_60:\n      pop\n        /* \"contracts/Auction_SC03_Secure.sol\":1621:1630  uint256 i */\n      0x00\n        /* \"contracts/Auction_SC03_Secure.sol\":1616:1914  for (uint256 i = 0; i < bidders.length; i++) {... */\n    tag_61:\n        /* \"contracts/Auction_SC03_Secure.sol\":1640:1647  bidders */\n      0x05\n        /* \"contracts/Auction_SC03_Secure.sol\":1640:1654  bidders.length */\n      dup1\n      sload\n      swap1\n      pop\n        /* \"contracts/Auction_SC03_Secure.sol\":1636:1637  i */\n      dup2\n        /* \"contracts/Auction_SC03_Secure.sol\":1636:1654  i < bidders.length */\n      lt\n        /* \"contracts/Auction_SC03_Secure.sol\":1616:1914  for (uint256 i = 0; i < bidders.length; i++) {... */\n      iszero\n      tag_62\n      jumpi\n        /* \"contracts/Auction_SC03_Secure.sol\":1676:1690  address bidder */\n      0x00\n        /* \"contracts/Auction_SC03_Secure.sol\":1693:1700  bidders */\n      0x05\n        /* \"contracts/Auction_SC03_Secure.sol\":1701:1702  i */\n      dup3\n        /* \"contracts/Auction_SC03_Secure.sol\":1693:1703  bidders[i] */\n      dup2\n      sload\n      dup2\n      lt\n      tag_64\n      jumpi\n      tag_65\n      tag_66\n      jump\t// in\n    tag_65:\n    tag_64:\n      swap1\n      0x00\n      mstore\n      keccak256(0x00, 0x20)\n      add\n      0x00\n      swap1\n      sload\n      swap1\n      0x0100\n      exp\n      swap1\n      div\n      0xffffffffffffffffffffffffffffffffffffffff\n      and\n        /* \"contracts/Auction_SC03_Secure.sol\":1676:1703  address bidder = bidders[i] */\n      swap1\n      pop\n        /* \"contracts/Auction_SC03_Secure.sol\":1718:1732  uint256 refund */\n      0x00\n        /* \"contracts/Auction_SC03_Secure.sol\":1735:1739  bids */\n      0x04\n        /* \"contracts/Auction_SC03_Secure.sol\":1735:1747  bids[bidder] */\n      0x00\n        /* \"contracts/Auction_SC03_Secure.sol\":1740:1746  bidder */\n      dup4\n        /* \"contracts/Auction_SC03_Secure.sol\":1735:1747  bids[bidder] */\n      0xffffffffffffffffffffffffffffffffffffffff\n      and\n      0xffffffffffffffffffffffffffffffffffffffff\n      and\n      dup2\n      mstore\n      0x20\n      add\n      swap1\n      dup2\n      mstore\n      0x20\n      add\n      0x00\n      keccak256\n      sload\n        /* \"contracts/Auction_SC03_Secure.sol\":1718:1747  uint256 refund = bids[bidder] */\n      swap1\n      pop\n        /* \"contracts/Auction_SC03_Secure.sol\":1775:1776  0 */\n      0x00\n        /* \"contracts/Auction_SC03_Secure.sol\":1766:1772  refund */\n      dup2\n        /* \"contracts/Auction_SC03_Secure.sol\":1766:1776  refund > 0 */\n      gt\n        /* \"contracts/Auction_SC03_Secure.sol\":1762:1903  if (refund > 0) {... */\n      iszero\n      tag_68\n      jumpi\n        /* \"contracts/Auction_SC03_Secure.sol\":1805:1811  bidder */\n      dup2\n        /* \"contracts/Auction_SC03_Secure.sol\":1797:1821  payable(bidder).transfer */\n      0xffffffffffffffffffffffffffffffffffffffff\n      and\n        /* \"contracts/Auction_SC03_Secure.sol\":1797:1829  payable(bidder).transfer(refund) */\n      0x08fc\n        /* \"contracts/Auction_SC03_Secure.sol\":1822:1828  refund */\n      dup3\n        /* \"contracts/Auction_SC03_Secure.sol\":1797:1829  payable(bidder).transfer(refund) */\n      swap1\n      dup2\n      iszero\n      mul\n      swap1\n      mload(0x40)\n      0x00\n      mload(0x40)\n      dup1\n      dup4\n      sub\n      dup2\n      dup6\n      dup9\n      dup9\n      call\n      swap4\n      pop\n      pop\n      pop\n      pop\n      iszero\n      dup1\n      iszero\n      tag_70\n      jumpi\n      returndatasize\n      0x00\n      dup1\n      returndatacopy\n      revert(0x00, returndatasize)\n    tag_70:\n      pop\n        /* \"contracts/Auction_SC03_Secure.sol\":1863:1864  0 */\n      0x00\n        /* \"contracts/Auction_SC03_Secure.sol\":1848:1852  bids */\n      0x04\n        /* \"contracts/Auction_SC03_Secure.sol\":1848:1860  bids[bidder] */\n      0x00\n        /* \"contracts/Auction_SC03_Secure.sol\":1853:1859  bidder */\n      dup5\n        /* \"contracts/Auction_SC03_Secure.sol\":1848:1860  bids[bidder] */\n      0xffffffffffffffffffffffffffffffffffffffff\n      and\n      0xffffffffffffffffffffffffffffffffffffffff\n      and\n      dup2\n      mstore\n      0x20\n      add\n      swap1\n      dup2\n      mstore\n      0x20\n      add\n      0x00\n      keccak256\n        /* \"contracts/Auction_SC03_Secure.sol\":1848:1864  bids[bidder] = 0 */\n      dup2\n      swap1\n      sstore\n      pop\n        /* \"contracts/Auction_SC03_Secure.sol\":1762:1903  if (refund > 0) {... */\n    tag_68:\n        /* \"contracts/Auction_SC03_Secure.sol\":1661:1914  {... */\n      pop\n      pop\n        /* \"contracts/Auction_SC03_Secure.sol\":1656:1659  i++ */\n      dup1\n      dup1\n      0x01\n      add\n      swap2\n      pop\n      pop\n        /* \"contracts/Auction_SC03_Secure.sol\":1616:1914  for (uint256 i = 0; i < bidders.length; i++) {... */\n      jump(tag_61)\n    tag_62:\n      pop\n        /* \"contracts/Auction_SC03_Secure.sol\":2006:2013  bidders */\n      0x05\n      0x00\n        /* \"contracts/Auction_SC03_Secure.sol\":1999:2013  delete bidders */\n      tag_71\n      swap2\n      swap1\n      tag_72\n      jump\t// in\n    tag_71:\n        /* \"contracts/Auction_SC03_Secure.sol\":1242:2021  function FinalizeAuction() public {... */\n      jump\t// out\n        /* \"contracts/Auction_SC03_Secure.sol\":208:237  uint256 public auctionEndTime */\n    tag_17:\n      sload(0x02)\n      dup2\n      jump\t// out\n        /* \"contracts/Auction_SC03_Secure.sol\":303:342  mapping(address => uint256) public bids */\n    tag_24:\n      mstore(0x20, 0x04)\n      dup1\n      0x00\n      mstore\n      keccak256(0x00, 0x40)\n      0x00\n      swap2\n      pop\n      swap1\n      pop\n      sload\n      dup2\n      jump\t// out\n        /* \"contracts/Auction_SC03_Secure.sol\":272:296  bool public auctionEnded */\n    tag_28:\n      0x03\n      0x00\n      swap1\n      sload\n      swap1\n      0x0100\n      exp\n      swap1\n      div\n      0xff\n      and\n      dup2\n      jump\t// out\n        /* \"contracts/Auction_SC03_Secure.sol\":92:120  address public highestBidder */\n    tag_33:\n      0x00\n      dup1\n      sload\n      swap1\n      0x0100\n      exp\n      swap1\n      div\n      0xffffffffffffffffffffffffffffffffffffffff\n      and\n      dup2\n      jump\t// out\n        /* \"contracts/Auction_SC03_Secure.sol\":381:405  address[] public bidders */\n    tag_40:\n      0x05\n      dup2\n      dup2\n      sload\n      dup2\n      lt\n      tag_73\n      jumpi\n      0x00\n      dup1\n      revert\n    tag_73:\n      swap1\n      0x00\n      mstore\n      keccak256(0x00, 0x20)\n      add\n      0x00\n      swap2\n      pop\n      sload\n      swap1\n      0x0100\n      exp\n      swap1\n      div\n      0xffffffffffffffffffffffffffffffffffffffff\n      and\n      dup2\n      jump\t// out\n        /* \"contracts/Auction_SC03_Secure.sol\":157:182  uint256 public highestBid */\n    tag_44:\n      sload(0x01)\n      dup2\n      jump\t// out\n        /* \"contracts/Auction_SC03_Secure.sol\":746:1234  function PlaceBid() public payable {... */\n    tag_47:\n        /* \"contracts/Auction_SC03_Secure.sol\":819:833  auctionEndTime */\n      sload(0x02)\n        /* \"contracts/Auction_SC03_Secure.sol\":800:815  block.timestamp */\n      timestamp\n        /* \"contracts/Auction_SC03_Secure.sol\":800:833  block.timestamp <= auctionEndTime */\n      gt\n      iszero\n        /* \"contracts/Auction_SC03_Secure.sol\":792:856  require(block.timestamp <= auctionEndTime, \"Auction has ended.\") */\n      tag_76\n      jumpi\n      mload(0x40)\n      0x08c379a000000000000000000000000000000000000000000000000000000000\n      dup2\n      mstore\n      0x04\n      add\n      tag_77\n      swap1\n      tag_78\n      jump\t// in\n    tag_77:\n      mload(0x40)\n      dup1\n      swap2\n      sub\n      swap1\n      revert\n    tag_76:\n        /* \"contracts/Auction_SC03_Secure.sol\":887:897  highestBid */\n      sload(0x01)\n        /* \"contracts/Auction_SC03_Secure.sol\":875:884  msg.value */\n      callvalue\n        /* \"contracts/Auction_SC03_Secure.sol\":875:897  msg.value > highestBid */\n      gt\n        /* \"contracts/Auction_SC03_Secure.sol\":867:932  require(msg.value > highestBid, \"There already is a higher bid.\") */\n      tag_79\n      jumpi\n      mload(0x40)\n      0x08c379a000000000000000000000000000000000000000000000000000000000\n      dup2\n      mstore\n      0x04\n      add\n      tag_80\n      swap1\n      tag_81\n      jump\t// in\n    tag_80:\n      mload(0x40)\n      dup1\n      swap2\n      sub\n      swap1\n      revert\n    tag_79:\n        /* \"contracts/Auction_SC03_Secure.sol\":1011:1012  0 */\n      0x00\n        /* \"contracts/Auction_SC03_Secure.sol\":997:1007  highestBid */\n      sload(0x01)\n        /* \"contracts/Auction_SC03_Secure.sol\":997:1012  highestBid != 0 */\n      eq\n        /* \"contracts/Auction_SC03_Secure.sol\":993:1074  if (highestBid != 0) {... */\n      tag_82\n      jumpi\n        /* \"contracts/Auction_SC03_Secure.sol\":1052:1062  highestBid */\n      sload(0x01)\n        /* \"contracts/Auction_SC03_Secure.sol\":1029:1033  bids */\n      0x04\n        /* \"contracts/Auction_SC03_Secure.sol\":1029:1048  bids[highestBidder] */\n      0x00\n        /* \"contracts/Auction_SC03_Secure.sol\":1034:1047  highestBidder */\n      dup1\n      0x00\n      swap1\n      sload\n      swap1\n      0x0100\n      exp\n      swap1\n      div\n      0xffffffffffffffffffffffffffffffffffffffff\n      and\n        /* \"contracts/Auction_SC03_Secure.sol\":1029:1048  bids[highestBidder] */\n      0xffffffffffffffffffffffffffffffffffffffff\n      and\n      0xffffffffffffffffffffffffffffffffffffffff\n      and\n      dup2\n      mstore\n      0x20\n      add\n      swap1\n      dup2\n      mstore\n      0x20\n      add\n      0x00\n      keccak256\n      0x00\n        /* \"contracts/Auction_SC03_Secure.sol\":1029:1062  bids[highestBidder] += highestBid */\n      dup3\n      dup3\n      sload\n      tag_83\n      swap2\n      swap1\n      tag_84\n      jump\t// in\n    tag_83:\n      swap3\n      pop\n      pop\n      dup2\n      swap1\n      sstore\n      pop\n        /* \"contracts/Auction_SC03_Secure.sol\":993:1074  if (highestBid != 0) {... */\n    tag_82:\n        /* \"contracts/Auction_SC03_Secure.sol\":1102:1112  msg.sender */\n      caller\n        /* \"contracts/Auction_SC03_Secure.sol\":1086:1099  highestBidder */\n      0x00\n      dup1\n        /* \"contracts/Auction_SC03_Secure.sol\":1086:1112  highestBidder = msg.sender */\n      0x0100\n      exp\n      dup2\n      sload\n      dup2\n      0xffffffffffffffffffffffffffffffffffffffff\n      mul\n      not\n      and\n      swap1\n      dup4\n      0xffffffffffffffffffffffffffffffffffffffff\n      and\n      mul\n      or\n      swap1\n      sstore\n      pop\n        /* \"contracts/Auction_SC03_Secure.sol\":1136:1145  msg.value */\n      callvalue\n        /* \"contracts/Auction_SC03_Secure.sol\":1123:1133  highestBid */\n      0x01\n        /* \"contracts/Auction_SC03_Secure.sol\":1123:1145  highestBid = msg.value */\n      dup2\n      swap1\n      sstore\n      pop\n        /* \"contracts/Auction_SC03_Secure.sol\":1202:1209  bidders */\n      0x05\n        /* \"contracts/Auction_SC03_Secure.sol\":1215:1225  msg.sender */\n      caller\n        /* \"contracts/Auction_SC03_Secure.sol\":1202:1226  bidders.push(msg.sender) */\n      swap1\n      dup1\n      0x01\n      dup2\n      sload\n      add\n      dup1\n      dup3\n      sstore\n      dup1\n      swap2\n      pop\n      pop\n      0x01\n      swap1\n      sub\n      swap1\n      0x00\n      mstore\n      keccak256(0x00, 0x20)\n      add\n      0x00\n      swap1\n      swap2\n      swap1\n      swap2\n      swap1\n      swap2\n      0x0100\n      exp\n      dup2\n      sload\n      dup2\n      0xffffffffffffffffffffffffffffffffffffffff\n      mul\n      not\n      and\n      swap1\n      dup4\n      0xffffffffffffffffffffffffffffffffffffffff\n      and\n      mul\n      or\n      swap1\n      sstore\n      pop\n        /* \"contracts/Auction_SC03_Secure.sol\":746:1234  function PlaceBid() public payable {... */\n      jump\t// out\n        /* \"contracts/Auction_SC03_Secure.sol\":2029:2224  function GetTimeLeft() public view returns (uint256) {... */\n    tag_50:\n        /* \"contracts/Auction_SC03_Secure.sol\":2073:2080  uint256 */\n      0x00\n        /* \"contracts/Auction_SC03_Secure.sol\":2116:2130  auctionEndTime */\n      sload(0x02)\n        /* \"contracts/Auction_SC03_Secure.sol\":2097:2112  block.timestamp */\n      timestamp\n        /* \"contracts/Auction_SC03_Secure.sol\":2097:2130  block.timestamp >= auctionEndTime */\n      lt\n        /* \"contracts/Auction_SC03_Secure.sol\":2093:2167  if (block.timestamp >= auctionEndTime) {... */\n      tag_87\n      jumpi\n        /* \"contracts/Auction_SC03_Secure.sol\":2154:2155  0 */\n      0x00\n        /* \"contracts/Auction_SC03_Secure.sol\":2147:2155  return 0 */\n      swap1\n      pop\n      jump(tag_86)\n        /* \"contracts/Auction_SC03_Secure.sol\":2093:2167  if (block.timestamp >= auctionEndTime) {... */\n    tag_87:\n        /* \"contracts/Auction_SC03_Secure.sol\":2201:2216  block.timestamp */\n      timestamp\n        /* \"contracts/Auction_SC03_Secure.sol\":2184:2198  auctionEndTime */\n      sload(0x02)\n        /* \"contracts/Auction_SC03_Secure.sol\":2184:2216  auctionEndTime - block.timestamp */\n      tag_88\n      swap2\n      swap1\n      tag_89\n      jump\t// in\n    tag_88:\n        /* \"contracts/Auction_SC03_Secure.sol\":2177:2216  return auctionEndTime - block.timestamp */\n      swap1\n      pop\n        /* \"contracts/Auction_SC03_Secure.sol\":2029:2224  function GetTimeLeft() public view returns (uint256) {... */\n    tag_86:\n      swap1\n      jump\t// out\n    tag_72:\n      pop\n      dup1\n      sload\n      0x00\n      dup3\n      sstore\n      swap1\n      0x00\n      mstore\n      keccak256(0x00, 0x20)\n      swap1\n      dup2\n      add\n      swap1\n      tag_91\n      swap2\n      swap1\n      tag_92\n      jump\t// in\n    tag_91:\n      pop\n      jump\t// out\n    tag_92:\n    tag_93:\n      dup1\n      dup3\n      gt\n      iszero\n      tag_94\n      jumpi\n      0x00\n      dup2\n      0x00\n      swap1\n      sstore\n      pop\n      0x01\n      add\n      jump(tag_93)\n    tag_94:\n      pop\n      swap1\n      jump\t// out\n        /* \"#utility.yul\":7:84   */\n    tag_95:\n        /* \"#utility.yul\":44:51   */\n      0x00\n        /* \"#utility.yul\":73:78   */\n      dup2\n        /* \"#utility.yul\":62:78   */\n      swap1\n      pop\n        /* \"#utility.yul\":7:84   */\n      swap2\n      swap1\n      pop\n      jump\t// out\n        /* \"#utility.yul\":90:208   */\n    tag_96:\n        /* \"#utility.yul\":177:201   */\n      tag_122\n        /* \"#utility.yul\":195:200   */\n      dup2\n        /* \"#utility.yul\":177:201   */\n      tag_95\n      jump\t// in\n    tag_122:\n        /* \"#utility.yul\":172:175   */\n      dup3\n        /* \"#utility.yul\":165:202   */\n      mstore\n        /* \"#utility.yul\":90:208   */\n      pop\n      pop\n      jump\t// out\n        /* \"#utility.yul\":214:436   */\n    tag_19:\n        /* \"#utility.yul\":307:311   */\n      0x00\n        /* \"#utility.yul\":345:347   */\n      0x20\n        /* \"#utility.yul\":334:343   */\n      dup3\n        /* \"#utility.yul\":330:348   */\n      add\n        /* \"#utility.yul\":322:348   */\n      swap1\n      pop\n        /* \"#utility.yul\":358:429   */\n      tag_124\n        /* \"#utility.yul\":426:427   */\n      0x00\n        /* \"#utility.yul\":415:424   */\n      dup4\n        /* \"#utility.yul\":411:428   */\n      add\n        /* \"#utility.yul\":402:408   */\n      dup5\n        /* \"#utility.yul\":358:429   */\n      tag_96\n      jump\t// in\n    tag_124:\n        /* \"#utility.yul\":214:436   */\n      swap3\n      swap2\n      pop\n      pop\n      jump\t// out\n        /* \"#utility.yul\":523:640   */\n    tag_98:\n        /* \"#utility.yul\":632:633   */\n      0x00\n        /* \"#utility.yul\":629:630   */\n      dup1\n        /* \"#utility.yul\":622:634   */\n      revert\n        /* \"#utility.yul\":769:895   */\n    tag_100:\n        /* \"#utility.yul\":806:813   */\n      0x00\n        /* \"#utility.yul\":846:888   */\n      0xffffffffffffffffffffffffffffffffffffffff\n        /* \"#utility.yul\":839:844   */\n      dup3\n        /* \"#utility.yul\":835:889   */\n      and\n        /* \"#utility.yul\":824:889   */\n      swap1\n      pop\n        /* \"#utility.yul\":769:895   */\n      swap2\n      swap1\n      pop\n      jump\t// out\n        /* \"#utility.yul\":901:997   */\n    tag_101:\n        /* \"#utility.yul\":938:945   */\n      0x00\n        /* \"#utility.yul\":967:991   */\n      tag_130\n        /* \"#utility.yul\":985:990   */\n      dup3\n        /* \"#utility.yul\":967:991   */\n      tag_100\n      jump\t// in\n    tag_130:\n        /* \"#utility.yul\":956:991   */\n      swap1\n      pop\n        /* \"#utility.yul\":901:997   */\n      swap2\n      swap1\n      pop\n      jump\t// out\n        /* \"#utility.yul\":1003:1125   */\n    tag_102:\n        /* \"#utility.yul\":1076:1100   */\n      tag_132\n        /* \"#utility.yul\":1094:1099   */\n      dup2\n        /* \"#utility.yul\":1076:1100   */\n      tag_101\n      jump\t// in\n    tag_132:\n        /* \"#utility.yul\":1069:1074   */\n      dup2\n        /* \"#utility.yul\":1066:1101   */\n      eq\n        /* \"#utility.yul\":1056:1119   */\n      tag_133\n      jumpi\n        /* \"#utility.yul\":1115:1116   */\n      0x00\n        /* \"#utility.yul\":1112:1113   */\n      dup1\n        /* \"#utility.yul\":1105:1117   */\n      revert\n        /* \"#utility.yul\":1056:1119   */\n    tag_133:\n        /* \"#utility.yul\":1003:1125   */\n      pop\n      jump\t// out\n        /* \"#utility.yul\":1131:1270   */\n    tag_103:\n        /* \"#utility.yul\":1177:1182   */\n      0x00\n        /* \"#utility.yul\":1215:1221   */\n      dup2\n        /* \"#utility.yul\":1202:1222   */\n      calldataload\n        /* \"#utility.yul\":1193:1222   */\n      swap1\n      pop\n        /* \"#utility.yul\":1231:1264   */\n      tag_135\n        /* \"#utility.yul\":1258:1263   */\n      dup2\n        /* \"#utility.yul\":1231:1264   */\n      tag_102\n      jump\t// in\n    tag_135:\n        /* \"#utility.yul\":1131:1270   */\n      swap3\n      swap2\n      pop\n      pop\n      jump\t// out\n        /* \"#utility.yul\":1276:1605   */\n    tag_23:\n        /* \"#utility.yul\":1335:1341   */\n      0x00\n        /* \"#utility.yul\":1384:1386   */\n      0x20\n        /* \"#utility.yul\":1372:1381   */\n      dup3\n        /* \"#utility.yul\":1363:1370   */\n      dup5\n        /* \"#utility.yul\":1359:1382   */\n      sub\n        /* \"#utility.yul\":1355:1387   */\n      slt\n        /* \"#utility.yul\":1352:1471   */\n      iszero\n      tag_137\n      jumpi\n        /* \"#utility.yul\":1390:1469   */\n      tag_138\n      tag_98\n      jump\t// in\n    tag_138:\n        /* \"#utility.yul\":1352:1471   */\n    tag_137:\n        /* \"#utility.yul\":1510:1511   */\n      0x00\n        /* \"#utility.yul\":1535:1588   */\n      tag_139\n        /* \"#utility.yul\":1580:1587   */\n      dup5\n        /* \"#utility.yul\":1571:1577   */\n      dup3\n        /* \"#utility.yul\":1560:1569   */\n      dup6\n        /* \"#utility.yul\":1556:1578   */\n      add\n        /* \"#utility.yul\":1535:1588   */\n      tag_103\n      jump\t// in\n    tag_139:\n        /* \"#utility.yul\":1525:1588   */\n      swap2\n      pop\n        /* \"#utility.yul\":1481:1598   */\n      pop\n        /* \"#utility.yul\":1276:1605   */\n      swap3\n      swap2\n      pop\n      pop\n      jump\t// out\n        /* \"#utility.yul\":1611:1701   */\n    tag_104:\n        /* \"#utility.yul\":1645:1652   */\n      0x00\n        /* \"#utility.yul\":1688:1693   */\n      dup2\n        /* \"#utility.yul\":1681:1694   */\n      iszero\n        /* \"#utility.yul\":1674:1695   */\n      iszero\n        /* \"#utility.yul\":1663:1695   */\n      swap1\n      pop\n        /* \"#utility.yul\":1611:1701   */\n      swap2\n      swap1\n      pop\n      jump\t// out\n        /* \"#utility.yul\":1707:1816   */\n    tag_105:\n        /* \"#utility.yul\":1788:1809   */\n      tag_142\n        /* \"#utility.yul\":1803:1808   */\n      dup2\n        /* \"#utility.yul\":1788:1809   */\n      tag_104\n      jump\t// in\n    tag_142:\n        /* \"#utility.yul\":1783:1786   */\n      dup3\n        /* \"#utility.yul\":1776:1810   */\n      mstore\n        /* \"#utility.yul\":1707:1816   */\n      pop\n      pop\n      jump\t// out\n        /* \"#utility.yul\":1822:2032   */\n    tag_30:\n        /* \"#utility.yul\":1909:1913   */\n      0x00\n        /* \"#utility.yul\":1947:1949   */\n      0x20\n        /* \"#utility.yul\":1936:1945   */\n      dup3\n        /* \"#utility.yul\":1932:1950   */\n      add\n        /* \"#utility.yul\":1924:1950   */\n      swap1\n      pop\n        /* \"#utility.yul\":1960:2025   */\n      tag_144\n        /* \"#utility.yul\":2022:2023   */\n      0x00\n        /* \"#utility.yul\":2011:2020   */\n      dup4\n        /* \"#utility.yul\":2007:2024   */\n      add\n        /* \"#utility.yul\":1998:2004   */\n      dup5\n        /* \"#utility.yul\":1960:2025   */\n      tag_105\n      jump\t// in\n    tag_144:\n        /* \"#utility.yul\":1822:2032   */\n      swap3\n      swap2\n      pop\n      pop\n      jump\t// out\n        /* \"#utility.yul\":2038:2156   */\n    tag_106:\n        /* \"#utility.yul\":2125:2149   */\n      tag_146\n        /* \"#utility.yul\":2143:2148   */\n      dup2\n        /* \"#utility.yul\":2125:2149   */\n      tag_101\n      jump\t// in\n    tag_146:\n        /* \"#utility.yul\":2120:2123   */\n      dup3\n        /* \"#utility.yul\":2113:2150   */\n      mstore\n        /* \"#utility.yul\":2038:2156   */\n      pop\n      pop\n      jump\t// out\n        /* \"#utility.yul\":2162:2384   */\n    tag_35:\n        /* \"#utility.yul\":2255:2259   */\n      0x00\n        /* \"#utility.yul\":2293:2295   */\n      0x20\n        /* \"#utility.yul\":2282:2291   */\n      dup3\n        /* \"#utility.yul\":2278:2296   */\n      add\n        /* \"#utility.yul\":2270:2296   */\n      swap1\n      pop\n        /* \"#utility.yul\":2306:2377   */\n      tag_148\n        /* \"#utility.yul\":2374:2375   */\n      0x00\n        /* \"#utility.yul\":2363:2372   */\n      dup4\n        /* \"#utility.yul\":2359:2376   */\n      add\n        /* \"#utility.yul\":2350:2356   */\n      dup5\n        /* \"#utility.yul\":2306:2377   */\n      tag_106\n      jump\t// in\n    tag_148:\n        /* \"#utility.yul\":2162:2384   */\n      swap3\n      swap2\n      pop\n      pop\n      jump\t// out\n        /* \"#utility.yul\":2390:2512   */\n    tag_107:\n        /* \"#utility.yul\":2463:2487   */\n      tag_150\n        /* \"#utility.yul\":2481:2486   */\n      dup2\n        /* \"#utility.yul\":2463:2487   */\n      tag_95\n      jump\t// in\n    tag_150:\n        /* \"#utility.yul\":2456:2461   */\n      dup2\n        /* \"#utility.yul\":2453:2488   */\n      eq\n        /* \"#utility.yul\":2443:2506   */\n      tag_151\n      jumpi\n        /* \"#utility.yul\":2502:2503   */\n      0x00\n        /* \"#utility.yul\":2499:2500   */\n      dup1\n        /* \"#utility.yul\":2492:2504   */\n      revert\n        /* \"#utility.yul\":2443:2506   */\n    tag_151:\n        /* \"#utility.yul\":2390:2512   */\n      pop\n      jump\t// out\n        /* \"#utility.yul\":2518:2657   */\n    tag_108:\n        /* \"#utility.yul\":2564:2569   */\n      0x00\n        /* \"#utility.yul\":2602:2608   */\n      dup2\n        /* \"#utility.yul\":2589:2609   */\n      calldataload\n        /* \"#utility.yul\":2580:2609   */\n      swap1\n      pop\n        /* \"#utility.yul\":2618:2651   */\n      tag_153\n        /* \"#utility.yul\":2645:2650   */\n      dup2\n        /* \"#utility.yul\":2618:2651   */\n      tag_107\n      jump\t// in\n    tag_153:\n        /* \"#utility.yul\":2518:2657   */\n      swap3\n      swap2\n      pop\n      pop\n      jump\t// out\n        /* \"#utility.yul\":2663:2992   */\n    tag_39:\n        /* \"#utility.yul\":2722:2728   */\n      0x00\n        /* \"#utility.yul\":2771:2773   */\n      0x20\n        /* \"#utility.yul\":2759:2768   */\n      dup3\n        /* \"#utility.yul\":2750:2757   */\n      dup5\n        /* \"#utility.yul\":2746:2769   */\n      sub\n        /* \"#utility.yul\":2742:2774   */\n      slt\n        /* \"#utility.yul\":2739:2858   */\n      iszero\n      tag_155\n      jumpi\n        /* \"#utility.yul\":2777:2856   */\n      tag_156\n      tag_98\n      jump\t// in\n    tag_156:\n        /* \"#utility.yul\":2739:2858   */\n    tag_155:\n        /* \"#utility.yul\":2897:2898   */\n      0x00\n        /* \"#utility.yul\":2922:2975   */\n      tag_157\n        /* \"#utility.yul\":2967:2974   */\n      dup5\n        /* \"#utility.yul\":2958:2964   */\n      dup3\n        /* \"#utility.yul\":2947:2956   */\n      dup6\n        /* \"#utility.yul\":2943:2965   */\n      add\n        /* \"#utility.yul\":2922:2975   */\n      tag_108\n      jump\t// in\n    tag_157:\n        /* \"#utility.yul\":2912:2975   */\n      swap2\n      pop\n        /* \"#utility.yul\":2868:2985   */\n      pop\n        /* \"#utility.yul\":2663:2992   */\n      swap3\n      swap2\n      pop\n      pop\n      jump\t// out\n        /* \"#utility.yul\":2998:3167   */\n    tag_109:\n        /* \"#utility.yul\":3082:3093   */\n      0x00\n        /* \"#utility.yul\":3116:3122   */\n      dup3\n        /* \"#utility.yul\":3111:3114   */\n      dup3\n        /* \"#utility.yul\":3104:3123   */\n      mstore\n        /* \"#utility.yul\":3156:3160   */\n      0x20\n        /* \"#utility.yul\":3151:3154   */\n      dup3\n        /* \"#utility.yul\":3147:3161   */\n      add\n        /* \"#utility.yul\":3132:3161   */\n      swap1\n      pop\n        /* \"#utility.yul\":2998:3167   */\n      swap3\n      swap2\n      pop\n      pop\n      jump\t// out\n        /* \"#utility.yul\":3173:3348   */\n    tag_110:\n        /* \"#utility.yul\":3313:3340   */\n      0x41756374696f6e206973207374696c6c206f6e676f696e672e00000000000000\n        /* \"#utility.yul\":3309:3310   */\n      0x00\n        /* \"#utility.yul\":3301:3307   */\n      dup3\n        /* \"#utility.yul\":3297:3311   */\n      add\n        /* \"#utility.yul\":3290:3341   */\n      mstore\n        /* \"#utility.yul\":3173:3348   */\n      pop\n      jump\t// out\n        /* \"#utility.yul\":3354:3720   */\n    tag_111:\n        /* \"#utility.yul\":3496:3499   */\n      0x00\n        /* \"#utility.yul\":3517:3584   */\n      tag_161\n        /* \"#utility.yul\":3581:3583   */\n      0x19\n        /* \"#utility.yul\":3576:3579   */\n      dup4\n        /* \"#utility.yul\":3517:3584   */\n      tag_109\n      jump\t// in\n    tag_161:\n        /* \"#utility.yul\":3510:3584   */\n      swap2\n      pop\n        /* \"#utility.yul\":3593:3686   */\n      tag_162\n        /* \"#utility.yul\":3682:3685   */\n      dup3\n        /* \"#utility.yul\":3593:3686   */\n      tag_110\n      jump\t// in\n    tag_162:\n        /* \"#utility.yul\":3711:3713   */\n      0x20\n        /* \"#utility.yul\":3706:3709   */\n      dup3\n        /* \"#utility.yul\":3702:3714   */\n      add\n        /* \"#utility.yul\":3695:3714   */\n      swap1\n      pop\n        /* \"#utility.yul\":3354:3720   */\n      swap2\n      swap1\n      pop\n      jump\t// out\n        /* \"#utility.yul\":3726:4145   */\n    tag_55:\n        /* \"#utility.yul\":3892:3896   */\n      0x00\n        /* \"#utility.yul\":3930:3932   */\n      0x20\n        /* \"#utility.yul\":3919:3928   */\n      dup3\n        /* \"#utility.yul\":3915:3933   */\n      add\n        /* \"#utility.yul\":3907:3933   */\n      swap1\n      pop\n        /* \"#utility.yul\":3979:3988   */\n      dup2\n        /* \"#utility.yul\":3973:3977   */\n      dup2\n        /* \"#utility.yul\":3969:3989   */\n      sub\n        /* \"#utility.yul\":3965:3966   */\n      0x00\n        /* \"#utility.yul\":3954:3963   */\n      dup4\n        /* \"#utility.yul\":3950:3967   */\n      add\n        /* \"#utility.yul\":3943:3990   */\n      mstore\n        /* \"#utility.yul\":4007:4138   */\n      tag_164\n        /* \"#utility.yul\":4133:4137   */\n      dup2\n        /* \"#utility.yul\":4007:4138   */\n      tag_111\n      jump\t// in\n    tag_164:\n        /* \"#utility.yul\":3999:4138   */\n      swap1\n      pop\n        /* \"#utility.yul\":3726:4145   */\n      swap2\n      swap1\n      pop\n      jump\t// out\n        /* \"#utility.yul\":4151:4327   */\n    tag_112:\n        /* \"#utility.yul\":4291:4319   */\n      0x41756374696f6e20616c72656164792066696e616c697a65642e000000000000\n        /* \"#utility.yul\":4287:4288   */\n      0x00\n        /* \"#utility.yul\":4279:4285   */\n      dup3\n        /* \"#utility.yul\":4275:4289   */\n      add\n        /* \"#utility.yul\":4268:4320   */\n      mstore\n        /* \"#utility.yul\":4151:4327   */\n      pop\n      jump\t// out\n        /* \"#utility.yul\":4333:4699   */\n    tag_113:\n        /* \"#utility.yul\":4475:4478   */\n      0x00\n        /* \"#utility.yul\":4496:4563   */\n      tag_167\n        /* \"#utility.yul\":4560:4562   */\n      0x1a\n        /* \"#utility.yul\":4555:4558   */\n      dup4\n        /* \"#utility.yul\":4496:4563   */\n      tag_109\n      jump\t// in\n    tag_167:\n        /* \"#utility.yul\":4489:4563   */\n      swap2\n      pop\n        /* \"#utility.yul\":4572:4665   */\n      tag_168\n        /* \"#utility.yul\":4661:4664   */\n      dup3\n        /* \"#utility.yul\":4572:4665   */\n      tag_112\n      jump\t// in\n    tag_168:\n        /* \"#utility.yul\":4690:4692   */\n      0x20\n        /* \"#utility.yul\":4685:4688   */\n      dup3\n        /* \"#utility.yul\":4681:4693   */\n      add\n        /* \"#utility.yul\":4674:4693   */\n      swap1\n      pop\n        /* \"#utility.yul\":4333:4699   */\n      swap2\n      swap1\n      pop\n      jump\t// out\n        /* \"#utility.yul\":4705:5124   */\n    tag_58:\n        /* \"#utility.yul\":4871:4875   */\n      0x00\n        /* \"#utility.yul\":4909:4911   */\n      0x20\n        /* \"#utility.yul\":4898:4907   */\n      dup3\n        /* \"#utility.yul\":4894:4912   */\n      add\n        /* \"#utility.yul\":4886:4912   */\n      swap1\n      pop\n        /* \"#utility.yul\":4958:4967   */\n      dup2\n        /* \"#utility.yul\":4952:4956   */\n      dup2\n        /* \"#utility.yul\":4948:4968   */\n      sub\n        /* \"#utility.yul\":4944:4945   */\n      0x00\n        /* \"#utility.yul\":4933:4942   */\n      dup4\n        /* \"#utility.yul\":4929:4946   */\n      add\n        /* \"#utility.yul\":4922:4969   */\n      mstore\n        /* \"#utility.yul\":4986:5117   */\n      tag_170\n        /* \"#utility.yul\":5112:5116   */\n      dup2\n        /* \"#utility.yul\":4986:5117   */\n      tag_113\n      jump\t// in\n    tag_170:\n        /* \"#utility.yul\":4978:5117   */\n      swap1\n      pop\n        /* \"#utility.yul\":4705:5124   */\n      swap2\n      swap1\n      pop\n      jump\t// out\n        /* \"#utility.yul\":5130:5310   */\n    tag_66:\n        /* \"#utility.yul\":5178:5255   */\n      0x4e487b7100000000000000000000000000000000000000000000000000000000\n        /* \"#utility.yul\":5175:5176   */\n      0x00\n        /* \"#utility.yul\":5168:5256   */\n      mstore\n        /* \"#utility.yul\":5275:5279   */\n      0x32\n        /* \"#utility.yul\":5272:5273   */\n      0x04\n        /* \"#utility.yul\":5265:5280   */\n      mstore\n        /* \"#utility.yul\":5299:5303   */\n      0x24\n        /* \"#utility.yul\":5296:5297   */\n      0x00\n        /* \"#utility.yul\":5289:5304   */\n      revert\n        /* \"#utility.yul\":5316:5484   */\n    tag_114:\n        /* \"#utility.yul\":5456:5476   */\n      0x41756374696f6e2068617320656e6465642e0000000000000000000000000000\n        /* \"#utility.yul\":5452:5453   */\n      0x00\n        /* \"#utility.yul\":5444:5450   */\n      dup3\n        /* \"#utility.yul\":5440:5454   */\n      add\n        /* \"#utility.yul\":5433:5477   */\n      mstore\n        /* \"#utility.yul\":5316:5484   */\n      pop\n      jump\t// out\n        /* \"#utility.yul\":5490:5856   */\n    tag_115:\n        /* \"#utility.yul\":5632:5635   */\n      0x00\n        /* \"#utility.yul\":5653:5720   */\n      tag_174\n        /* \"#utility.yul\":5717:5719   */\n      0x12\n        /* \"#utility.yul\":5712:5715   */\n      dup4\n        /* \"#utility.yul\":5653:5720   */\n      tag_109\n      jump\t// in\n    tag_174:\n        /* \"#utility.yul\":5646:5720   */\n      swap2\n      pop\n        /* \"#utility.yul\":5729:5822   */\n      tag_175\n        /* \"#utility.yul\":5818:5821   */\n      dup3\n        /* \"#utility.yul\":5729:5822   */\n      tag_114\n      jump\t// in\n    tag_175:\n        /* \"#utility.yul\":5847:5849   */\n      0x20\n        /* \"#utility.yul\":5842:5845   */\n      dup3\n        /* \"#utility.yul\":5838:5850   */\n      add\n        /* \"#utility.yul\":5831:5850   */\n      swap1\n      pop\n        /* \"#utility.yul\":5490:5856   */\n      swap2\n      swap1\n      pop\n      jump\t// out\n        /* \"#utility.yul\":5862:6281   */\n    tag_78:\n        /* \"#utility.yul\":6028:6032   */\n      0x00\n        /* \"#utility.yul\":6066:6068   */\n      0x20\n        /* \"#utility.yul\":6055:6064   */\n      dup3\n        /* \"#utility.yul\":6051:6069   */\n      add\n        /* \"#utility.yul\":6043:6069   */\n      swap1\n      pop\n        /* \"#utility.yul\":6115:6124   */\n      dup2\n        /* \"#utility.yul\":6109:6113   */\n      dup2\n        /* \"#utility.yul\":6105:6125   */\n      sub\n        /* \"#utility.yul\":6101:6102   */\n      0x00\n        /* \"#utility.yul\":6090:6099   */\n      dup4\n        /* \"#utility.yul\":6086:6103   */\n      add\n        /* \"#utility.yul\":6079:6126   */\n      mstore\n        /* \"#utility.yul\":6143:6274   */\n      tag_177\n        /* \"#utility.yul\":6269:6273   */\n      dup2\n        /* \"#utility.yul\":6143:6274   */\n      tag_115\n      jump\t// in\n    tag_177:\n        /* \"#utility.yul\":6135:6274   */\n      swap1\n      pop\n        /* \"#utility.yul\":5862:6281   */\n      swap2\n      swap1\n      pop\n      jump\t// out\n        /* \"#utility.yul\":6287:6467   */\n    tag_116:\n        /* \"#utility.yul\":6427:6459   */\n      0x546865726520616c7265616479206973206120686967686572206269642e0000\n        /* \"#utility.yul\":6423:6424   */\n      0x00\n        /* \"#utility.yul\":6415:6421   */\n      dup3\n        /* \"#utility.yul\":6411:6425   */\n      add\n        /* \"#utility.yul\":6404:6460   */\n      mstore\n        /* \"#utility.yul\":6287:6467   */\n      pop\n      jump\t// out\n        /* \"#utility.yul\":6473:6839   */\n    tag_117:\n        /* \"#utility.yul\":6615:6618   */\n      0x00\n        /* \"#utility.yul\":6636:6703   */\n      tag_180\n        /* \"#utility.yul\":6700:6702   */\n      0x1e\n        /* \"#utility.yul\":6695:6698   */\n      dup4\n        /* \"#utility.yul\":6636:6703   */\n      tag_109\n      jump\t// in\n    tag_180:\n        /* \"#utility.yul\":6629:6703   */\n      swap2\n      pop\n        /* \"#utility.yul\":6712:6805   */\n      tag_181\n        /* \"#utility.yul\":6801:6804   */\n      dup3\n        /* \"#utility.yul\":6712:6805   */\n      tag_116\n      jump\t// in\n    tag_181:\n        /* \"#utility.yul\":6830:6832   */\n      0x20\n        /* \"#utility.yul\":6825:6828   */\n      dup3\n        /* \"#utility.yul\":6821:6833   */\n      add\n        /* \"#utility.yul\":6814:6833   */\n      swap1\n      pop\n        /* \"#utility.yul\":6473:6839   */\n      swap2\n      swap1\n      pop\n      jump\t// out\n        /* \"#utility.yul\":6845:7264   */\n    tag_81:\n        /* \"#utility.yul\":7011:7015   */\n      0x00\n        /* \"#utility.yul\":7049:7051   */\n      0x20\n        /* \"#utility.yul\":7038:7047   */\n      dup3\n        /* \"#utility.yul\":7034:7052   */\n      add\n        /* \"#utility.yul\":7026:7052   */\n      swap1\n      pop\n        /* \"#utility.yul\":7098:7107   */\n      dup2\n        /* \"#utility.yul\":7092:7096   */\n      dup2\n        /* \"#utility.yul\":7088:7108   */\n      sub\n        /* \"#utility.yul\":7084:7085   */\n      0x00\n        /* \"#utility.yul\":7073:7082   */\n      dup4\n        /* \"#utility.yul\":7069:7086   */\n      add\n        /* \"#utility.yul\":7062:7109   */\n      mstore\n        /* \"#utility.yul\":7126:7257   */\n      tag_183\n        /* \"#utility.yul\":7252:7256   */\n      dup2\n        /* \"#utility.yul\":7126:7257   */\n      tag_117\n      jump\t// in\n    tag_183:\n        /* \"#utility.yul\":7118:7257   */\n      swap1\n      pop\n        /* \"#utility.yul\":6845:7264   */\n      swap2\n      swap1\n      pop\n      jump\t// out\n        /* \"#utility.yul\":7270:7450   */\n    tag_118:\n        /* \"#utility.yul\":7318:7395   */\n      0x4e487b7100000000000000000000000000000000000000000000000000000000\n        /* \"#utility.yul\":7315:7316   */\n      0x00\n        /* \"#utility.yul\":7308:7396   */\n      mstore\n        /* \"#utility.yul\":7415:7419   */\n      0x11\n        /* \"#utility.yul\":7412:7413   */\n      0x04\n        /* \"#utility.yul\":7405:7420   */\n      mstore\n        /* \"#utility.yul\":7439:7443   */\n      0x24\n        /* \"#utility.yul\":7436:7437   */\n      0x00\n        /* \"#utility.yul\":7429:7444   */\n      revert\n        /* \"#utility.yul\":7456:7647   */\n    tag_84:\n        /* \"#utility.yul\":7496:7499   */\n      0x00\n        /* \"#utility.yul\":7515:7535   */\n      tag_186\n        /* \"#utility.yul\":7533:7534   */\n      dup3\n        /* \"#utility.yul\":7515:7535   */\n      tag_95\n      jump\t// in\n    tag_186:\n        /* \"#utility.yul\":7510:7535   */\n      swap2\n      pop\n        /* \"#utility.yul\":7549:7569   */\n      tag_187\n        /* \"#utility.yul\":7567:7568   */\n      dup4\n        /* \"#utility.yul\":7549:7569   */\n      tag_95\n      jump\t// in\n    tag_187:\n        /* \"#utility.yul\":7544:7569   */\n      swap3\n      pop\n        /* \"#utility.yul\":7592:7593   */\n      dup3\n        /* \"#utility.yul\":7589:7590   */\n      dup3\n        /* \"#utility.yul\":7585:7594   */\n      add\n        /* \"#utility.yul\":7578:7594   */\n      swap1\n      pop\n        /* \"#utility.yul\":7613:7616   */\n      dup1\n        /* \"#utility.yul\":7610:7611   */\n      dup3\n        /* \"#utility.yul\":7607:7617   */\n      gt\n        /* \"#utility.yul\":7604:7640   */\n      iszero\n      tag_188\n      jumpi\n        /* \"#utility.yul\":7620:7638   */\n      tag_189\n      tag_118\n      jump\t// in\n    tag_189:\n        /* \"#utility.yul\":7604:7640   */\n    tag_188:\n        /* \"#utility.yul\":7456:7647   */\n      swap3\n      swap2\n      pop\n      pop\n      jump\t// out\n        /* \"#utility.yul\":7653:7847   */\n    tag_89:\n        /* \"#utility.yul\":7693:7697   */\n      0x00\n        /* \"#utility.yul\":7713:7733   */\n      tag_191\n        /* \"#utility.yul\":7731:7732   */\n      dup3\n        /* \"#utility.yul\":7713:7733   */\n      tag_95\n      jump\t// in\n    tag_191:\n        /* \"#utility.yul\":7708:7733   */\n      swap2\n      pop\n        /* \"#utility.yul\":7747:7767   */\n      tag_192\n        /* \"#utility.yul\":7765:7766   */\n      dup4\n        /* \"#utility.yul\":7747:7767   */\n      tag_95\n      jump\t// in\n    tag_192:\n        /* \"#utility.yul\":7742:7767   */\n      swap3\n      pop\n        /* \"#utility.yul\":7791:7792   */\n      dup3\n        /* \"#utility.yul\":7788:7789   */\n      dup3\n        /* \"#utility.yul\":7784:7793   */\n      sub\n        /* \"#utility.yul\":7776:7793   */\n      swap1\n      pop\n        /* \"#utility.yul\":7815:7816   */\n      dup2\n        /* \"#utility.yul\":7809:7813   */\n      dup2\n        /* \"#utility.yul\":7806:7817   */\n      gt\n        /* \"#utility.yul\":7803:7840   */\n      iszero\n      tag_193\n      jumpi\n        /* \"#utility.yul\":7820:7838   */\n      tag_194\n      tag_118\n      jump\t// in\n    tag_194:\n        /* \"#utility.yul\":7803:7840   */\n    tag_193:\n        /* \"#utility.yul\":7653:7847   */\n      swap3\n      swap2\n      pop\n      pop\n      jump\t// out\n\n    auxdata: 0xa26469706673582212203823519263d8cd18b9822c7a2b326fa0dfed0d5ad365a42f73a25874f57d551c64736f6c634300081a0033\n}\n",
				"bytecode": {
					"linkReferences": {},
					"object": "608060405234801561000f575f80fd5b50604051610d8e380380610d8e833981810160405281019061003191906100ee565b5f60014361003f9190610146565b404244604051602001610054939291906101c2565b604051602081830303815290604052805190602001205f1c9050814260c88361007d919061022b565b610087919061025b565b610091919061025b565b6002819055505f60035f6101000a81548160ff021916908315150217905550505061028e565b5f80fd5b5f819050919050565b6100cd816100bb565b81146100d7575f80fd5b50565b5f815190506100e8816100c4565b92915050565b5f60208284031215610103576101026100b7565b5b5f610110848285016100da565b91505092915050565b7f4e487b71000000000000000000000000000000000000000000000000000000005f52601160045260245ffd5b5f610150826100bb565b915061015b836100bb565b925082820390508181111561017357610172610119565b5b92915050565b5f819050919050565b5f819050919050565b61019c61019782610179565b610182565b82525050565b5f819050919050565b6101bc6101b7826100bb565b6101a2565b82525050565b5f6101cd828661018b565b6020820191506101dd82856101ab565b6020820191506101ed82846101ab565b602082019150819050949350505050565b7f4e487b71000000000000000000000000000000000000000000000000000000005f52601260045260245ffd5b5f610235826100bb565b9150610240836100bb565b9250826102505761024f6101fe565b5b828206905092915050565b5f610265826100bb565b9150610270836100bb565b925082820190508082111561028857610287610119565b5b92915050565b610af38061029b5f395ff3fe608060405260043610610085575f3560e01c806391f901571161005857806391f901571461012f578063cff29dfd14610159578063d57bde7914610195578063dc201dc2146101bf578063f21777c0146101c957610085565b8063305f69dc146100895780634b449cba1461009f57806362ea82db146100c95780638643337414610105575b5f80fd5b348015610094575f80fd5b5061009d6101f3565b005b3480156100aa575f80fd5b506100b3610443565b6040516100c091906106fb565b60405180910390f35b3480156100d4575f80fd5b506100ef60048036038101906100ea9190610772565b610449565b6040516100fc91906106fb565b60405180910390f35b348015610110575f80fd5b5061011961045e565b60405161012691906107b7565b60405180910390f35b34801561013a575f80fd5b50610143610470565b60405161015091906107df565b60405180910390f35b348015610164575f80fd5b5061017f600480360381019061017a9190610822565b610493565b60405161018c91906107df565b60405180910390f35b3480156101a0575f80fd5b506101a96104ce565b6040516101b691906106fb565b60405180910390f35b6101c76104d4565b005b3480156101d4575f80fd5b506101dd610684565b6040516101ea91906106fb565b60405180910390f35b600254421015610238576040517f08c379a000000000000000000000000000000000000000000000000000000000815260040161022f906108a7565b60405180910390fd5b60035f9054906101000a900460ff1615610287576040517f08c379a000000000000000000000000000000000000000000000000000000000815260040161027e9061090f565b60405180910390fd5b600160035f6101000a81548160ff0219169083151502179055505f8054906101000a900473ffffffffffffffffffffffffffffffffffffffff1673ffffffffffffffffffffffffffffffffffffffff166108fc60015490811502906040515f60405180830381858888f19350505050158015610305573d5f803e3d5ffd5b505f5b600580549050811015610433575f6005828154811061032a5761032961092d565b5b905f5260205f20015f9054906101000a900473ffffffffffffffffffffffffffffffffffffffff1690505f60045f8373ffffffffffffffffffffffffffffffffffffffff1673ffffffffffffffffffffffffffffffffffffffff1681526020019081526020015f205490505f811115610424578173ffffffffffffffffffffffffffffffffffffffff166108fc8290811502906040515f60405180830381858888f193505050501580156103e0573d5f803e3d5ffd5b505f60045f8473ffffffffffffffffffffffffffffffffffffffff1673ffffffffffffffffffffffffffffffffffffffff1681526020019081526020015f20819055505b50508080600101915050610308565b5060055f61044191906106aa565b565b60025481565b6004602052805f5260405f205f915090505481565b60035f9054906101000a900460ff1681565b5f8054906101000a900473ffffffffffffffffffffffffffffffffffffffff1681565b600581815481106104a2575f80fd5b905f5260205f20015f915054906101000a900473ffffffffffffffffffffffffffffffffffffffff1681565b60015481565b600254421115610519576040517f08c379a0000000000000000000000000000000000000000000000000000000008152600401610510906109a4565b60405180910390fd5b600154341161055d576040517f08c379a000000000000000000000000000000000000000000000000000000000815260040161055490610a0c565b60405180910390fd5b5f600154146105dc5760015460045f805f9054906101000a900473ffffffffffffffffffffffffffffffffffffffff1673ffffffffffffffffffffffffffffffffffffffff1673ffffffffffffffffffffffffffffffffffffffff1681526020019081526020015f205f8282546105d49190610a57565b925050819055505b335f806101000a81548173ffffffffffffffffffffffffffffffffffffffff021916908373ffffffffffffffffffffffffffffffffffffffff16021790555034600181905550600533908060018154018082558091505060019003905f5260205f20015f9091909190916101000a81548173ffffffffffffffffffffffffffffffffffffffff021916908373ffffffffffffffffffffffffffffffffffffffff160217905550565b5f6002544210610696575f90506106a7565b426002546106a49190610a8a565b90505b90565b5080545f8255905f5260205f20908101906106c591906106c8565b50565b5b808211156106df575f815f9055506001016106c9565b5090565b5f819050919050565b6106f5816106e3565b82525050565b5f60208201905061070e5f8301846106ec565b92915050565b5f80fd5b5f73ffffffffffffffffffffffffffffffffffffffff82169050919050565b5f61074182610718565b9050919050565b61075181610737565b811461075b575f80fd5b50565b5f8135905061076c81610748565b92915050565b5f6020828403121561078757610786610714565b5b5f6107948482850161075e565b91505092915050565b5f8115159050919050565b6107b18161079d565b82525050565b5f6020820190506107ca5f8301846107a8565b92915050565b6107d981610737565b82525050565b5f6020820190506107f25f8301846107d0565b92915050565b610801816106e3565b811461080b575f80fd5b50565b5f8135905061081c816107f8565b92915050565b5f6020828403121561083757610836610714565b5b5f6108448482850161080e565b91505092915050565b5f82825260208201905092915050565b7f41756374696f6e206973207374696c6c206f6e676f696e672e000000000000005f82015250565b5f61089160198361084d565b915061089c8261085d565b602082019050919050565b5f6020820190508181035f8301526108be81610885565b9050919050565b7f41756374696f6e20616c72656164792066696e616c697a65642e0000000000005f82015250565b5f6108f9601a8361084d565b9150610904826108c5565b602082019050919050565b5f6020820190508181035f830152610926816108ed565b9050919050565b7f4e487b71000000000000000000000000000000000000000000000000000000005f52603260045260245ffd5b7f41756374696f6e2068617320656e6465642e00000000000000000000000000005f82015250565b5f61098e60128361084d565b91506109998261095a565b602082019050919050565b5f6020820190508181035f8301526109bb81610982565b9050919050565b7f546865726520616c7265616479206973206120686967686572206269642e00005f82015250565b5f6109f6601e8361084d565b9150610a01826109c2565b602082019050919050565b5f6020820190508181035f830152610a23816109ea565b9050919050565b7f4e487b71000000000000000000000000000000000000000000000000000000005f52601160045260245ffd5b5f610a61826106e3565b9150610a6c836106e3565b9250828201905080821115610a8457610a83610a2a565b5b92915050565b5f610a94826106e3565b9150610a9f836106e3565b9250828203905081811115610ab757610ab6610a2a565b5b9291505056fea26469706673582212203823519263d8cd18b9822c7a2b326fa0dfed0d5ad365a42f73a25874f57d551c64736f6c634300081a0033",
					"opcodes": "PUSH1 0x80 PUSH1 0x40 MSTORE CALLVALUE DUP1 ISZERO PUSH2 0xF JUMPI PUSH0 DUP1 REVERT JUMPDEST POP PUSH1 0x40 MLOAD PUSH2 0xD8E CODESIZE SUB DUP1 PUSH2 0xD8E DUP4 CODECOPY DUP2 DUP2 ADD PUSH1 0x40 MSTORE DUP2 ADD SWAP1 PUSH2 0x31 SWAP2 SWAP1 PUSH2 0xEE JUMP JUMPDEST PUSH0 PUSH1 0x1 NUMBER PUSH2 0x3F SWAP2 SWAP1 PUSH2 0x146 JUMP JUMPDEST BLOCKHASH TIMESTAMP PREVRANDAO PUSH1 0x40 MLOAD PUSH1 0x20 ADD PUSH2 0x54 SWAP4 SWAP3 SWAP2 SWAP1 PUSH2 0x1C2 JUMP JUMPDEST PUSH1 0x40 MLOAD PUSH1 0x20 DUP2 DUP4 SUB SUB DUP2 MSTORE SWAP1 PUSH1 0x40 MSTORE DUP1 MLOAD SWAP1 PUSH1 0x20 ADD KECCAK256 PUSH0 SHR SWAP1 POP DUP2 TIMESTAMP PUSH1 0xC8 DUP4 PUSH2 0x7D SWAP2 SWAP1 PUSH2 0x22B JUMP JUMPDEST PUSH2 0x87 SWAP2 SWAP1 PUSH2 0x25B JUMP JUMPDEST PUSH2 0x91 SWAP2 SWAP1 PUSH2 0x25B JUMP JUMPDEST PUSH1 0x2 DUP2 SWAP1 SSTORE POP PUSH0 PUSH1 0x3 PUSH0 PUSH2 0x100 EXP DUP2 SLOAD DUP2 PUSH1 0xFF MUL NOT AND SWAP1 DUP4 ISZERO ISZERO MUL OR SWAP1 SSTORE POP POP POP PUSH2 0x28E JUMP JUMPDEST PUSH0 DUP1 REVERT JUMPDEST PUSH0 DUP2 SWAP1 POP SWAP2 SWAP1 POP JUMP JUMPDEST PUSH2 0xCD DUP2 PUSH2 0xBB JUMP JUMPDEST DUP2 EQ PUSH2 0xD7 JUMPI PUSH0 DUP1 REVERT JUMPDEST POP JUMP JUMPDEST PUSH0 DUP2 MLOAD SWAP1 POP PUSH2 0xE8 DUP2 PUSH2 0xC4 JUMP JUMPDEST SWAP3 SWAP2 POP POP JUMP JUMPDEST PUSH0 PUSH1 0x20 DUP3 DUP5 SUB SLT ISZERO PUSH2 0x103 JUMPI PUSH2 0x102 PUSH2 0xB7 JUMP JUMPDEST JUMPDEST PUSH0 PUSH2 0x110 DUP5 DUP3 DUP6 ADD PUSH2 0xDA JUMP JUMPDEST SWAP2 POP POP SWAP3 SWAP2 POP POP JUMP JUMPDEST PUSH32 0x4E487B7100000000000000000000000000000000000000000000000000000000 PUSH0 MSTORE PUSH1 0x11 PUSH1 0x4 MSTORE PUSH1 0x24 PUSH0 REVERT JUMPDEST PUSH0 PUSH2 0x150 DUP3 PUSH2 0xBB JUMP JUMPDEST SWAP2 POP PUSH2 0x15B DUP4 PUSH2 0xBB JUMP JUMPDEST SWAP3 POP DUP3 DUP3 SUB SWAP1 POP DUP2 DUP2 GT ISZERO PUSH2 0x173 JUMPI PUSH2 0x172 PUSH2 0x119 JUMP JUMPDEST JUMPDEST SWAP3 SWAP2 POP POP JUMP JUMPDEST PUSH0 DUP2 SWAP1 POP SWAP2 SWAP1 POP JUMP JUMPDEST PUSH0 DUP2 SWAP1 POP SWAP2 SWAP1 POP JUMP JUMPDEST PUSH2 0x19C PUSH2 0x197 DUP3 PUSH2 0x179 JUMP JUMPDEST PUSH2 0x182 JUMP JUMPDEST DUP3 MSTORE POP POP JUMP JUMPDEST PUSH0 DUP2 SWAP1 POP SWAP2 SWAP1 POP JUMP JUMPDEST PUSH2 0x1BC PUSH2 0x1B7 DUP3 PUSH2 0xBB JUMP JUMPDEST PUSH2 0x1A2 JUMP JUMPDEST DUP3 MSTORE POP POP JUMP JUMPDEST PUSH0 PUSH2 0x1CD DUP3 DUP7 PUSH2 0x18B JUMP JUMPDEST PUSH1 0x20 DUP3 ADD SWAP2 POP PUSH2 0x1DD DUP3 DUP6 PUSH2 0x1AB JUMP JUMPDEST PUSH1 0x20 DUP3 ADD SWAP2 POP PUSH2 0x1ED DUP3 DUP5 PUSH2 0x1AB JUMP JUMPDEST PUSH1 0x20 DUP3 ADD SWAP2 POP DUP2 SWAP1 POP SWAP5 SWAP4 POP POP POP POP JUMP JUMPDEST PUSH32 0x4E487B7100000000000000000000000000000000000000000000000000000000 PUSH0 MSTORE PUSH1 0x12 PUSH1 0x4 MSTORE PUSH1 0x24 PUSH0 REVERT JUMPDEST PUSH0 PUSH2 0x235 DUP3 PUSH2 0xBB JUMP JUMPDEST SWAP2 POP PUSH2 0x240 DUP4 PUSH2 0xBB JUMP JUMPDEST SWAP3 POP DUP3 PUSH2 0x250 JUMPI PUSH2 0x24F PUSH2 0x1FE JUMP JUMPDEST JUMPDEST DUP3 DUP3 MOD SWAP1 POP SWAP3 SWAP2 POP POP JUMP JUMPDEST PUSH0 PUSH2 0x265 DUP3 PUSH2 0xBB JUMP JUMPDEST SWAP2 POP PUSH2 0x270 DUP4 PUSH2 0xBB JUMP JUMPDEST SWAP3 POP DUP3 DUP3 ADD SWAP1 POP DUP1 DUP3 GT ISZERO PUSH2 0x288 JUMPI PUSH2 0x287 PUSH2 0x119 JUMP JUMPDEST JUMPDEST SWAP3 SWAP2 POP POP JUMP JUMPDEST PUSH2 0xAF3 DUP1 PUSH2 0x29B PUSH0 CODECOPY PUSH0 RETURN INVALID PUSH1 0x80 PUSH1 0x40 MSTORE PUSH1 0x4 CALLDATASIZE LT PUSH2 0x85 JUMPI PUSH0 CALLDATALOAD PUSH1 0xE0 SHR DUP1 PUSH4 0x91F90157 GT PUSH2 0x58 JUMPI DUP1 PUSH4 0x91F90157 EQ PUSH2 0x12F JUMPI DUP1 PUSH4 0xCFF29DFD EQ PUSH2 0x159 JUMPI DUP1 PUSH4 0xD57BDE79 EQ PUSH2 0x195 JUMPI DUP1 PUSH4 0xDC201DC2 EQ PUSH2 0x1BF JUMPI DUP1 PUSH4 0xF21777C0 EQ PUSH2 0x1C9 JUMPI PUSH2 0x85 JUMP JUMPDEST DUP1 PUSH4 0x305F69DC EQ PUSH2 0x89 JUMPI DUP1 PUSH4 0x4B449CBA EQ PUSH2 0x9F JUMPI DUP1 PUSH4 0x62EA82DB EQ PUSH2 0xC9 JUMPI DUP1 PUSH4 0x86433374 EQ PUSH2 0x105 JUMPI JUMPDEST PUSH0 DUP1 REVERT JUMPDEST CALLVALUE DUP1 ISZERO PUSH2 0x94 JUMPI PUSH0 DUP1 REVERT JUMPDEST POP PUSH2 0x9D PUSH2 0x1F3 JUMP JUMPDEST STOP JUMPDEST CALLVALUE DUP1 ISZERO PUSH2 0xAA JUMPI PUSH0 DUP1 REVERT JUMPDEST POP PUSH2 0xB3 PUSH2 0x443 JUMP JUMPDEST PUSH1 0x40 MLOAD PUSH2 0xC0 SWAP2 SWAP1 PUSH2 0x6FB JUMP JUMPDEST PUSH1 0x40 MLOAD DUP1 SWAP2 SUB SWAP1 RETURN JUMPDEST CALLVALUE DUP1 ISZERO PUSH2 0xD4 JUMPI PUSH0 DUP1 REVERT JUMPDEST POP PUSH2 0xEF PUSH1 0x4 DUP1 CALLDATASIZE SUB DUP2 ADD SWAP1 PUSH2 0xEA SWAP2 SWAP1 PUSH2 0x772 JUMP JUMPDEST PUSH2 0x449 JUMP JUMPDEST PUSH1 0x40 MLOAD PUSH2 0xFC SWAP2 SWAP1 PUSH2 0x6FB JUMP JUMPDEST PUSH1 0x40 MLOAD DUP1 SWAP2 SUB SWAP1 RETURN JUMPDEST CALLVALUE DUP1 ISZERO PUSH2 0x110 JUMPI PUSH0 DUP1 REVERT JUMPDEST POP PUSH2 0x119 PUSH2 0x45E JUMP JUMPDEST PUSH1 0x40 MLOAD PUSH2 0x126 SWAP2 SWAP1 PUSH2 0x7B7 JUMP JUMPDEST PUSH1 0x40 MLOAD DUP1 SWAP2 SUB SWAP1 RETURN JUMPDEST CALLVALUE DUP1 ISZERO PUSH2 0x13A JUMPI PUSH0 DUP1 REVERT JUMPDEST POP PUSH2 0x143 PUSH2 0x470 JUMP JUMPDEST PUSH1 0x40 MLOAD PUSH2 0x150 SWAP2 SWAP1 PUSH2 0x7DF JUMP JUMPDEST PUSH1 0x40 MLOAD DUP1 SWAP2 SUB SWAP1 RETURN JUMPDEST CALLVALUE DUP1 ISZERO PUSH2 0x164 JUMPI PUSH0 DUP1 REVERT JUMPDEST POP PUSH2 0x17F PUSH1 0x4 DUP1 CALLDATASIZE SUB DUP2 ADD SWAP1 PUSH2 0x17A SWAP2 SWAP1 PUSH2 0x822 JUMP JUMPDEST PUSH2 0x493 JUMP JUMPDEST PUSH1 0x40 MLOAD PUSH2 0x18C SWAP2 SWAP1 PUSH2 0x7DF JUMP JUMPDEST PUSH1 0x40 MLOAD DUP1 SWAP2 SUB SWAP1 RETURN JUMPDEST CALLVALUE DUP1 ISZERO PUSH2 0x1A0 JUMPI PUSH0 DUP1 REVERT JUMPDEST POP PUSH2 0x1A9 PUSH2 0x4CE JUMP JUMPDEST PUSH1 0x40 MLOAD PUSH2 0x1B6 SWAP2 SWAP1 PUSH2 0x6FB JUMP JUMPDEST PUSH1 0x40 MLOAD DUP1 SWAP2 SUB SWAP1 RETURN JUMPDEST PUSH2 0x1C7 PUSH2 0x4D4 JUMP JUMPDEST STOP JUMPDEST CALLVALUE DUP1 ISZERO PUSH2 0x1D4 JUMPI PUSH0 DUP1 REVERT JUMPDEST POP PUSH2 0x1DD PUSH2 0x684 JUMP JUMPDEST PUSH1 0x40 MLOAD PUSH2 0x1EA SWAP2 SWAP1 PUSH2 0x6FB JUMP JUMPDEST PUSH1 0x40 MLOAD DUP1 SWAP2 SUB SWAP1 RETURN JUMPDEST PUSH1 0x2 SLOAD TIMESTAMP LT ISZERO PUSH2 0x238 JUMPI PUSH1 0x40 MLOAD PUSH32 0x8C379A000000000000000000000000000000000000000000000000000000000 DUP2 MSTORE PUSH1 0x4 ADD PUSH2 0x22F SWAP1 PUSH2 0x8A7 JUMP JUMPDEST PUSH1 0x40 MLOAD DUP1 SWAP2 SUB SWAP1 REVERT JUMPDEST PUSH1 0x3 PUSH0 SWAP1 SLOAD SWAP1 PUSH2 0x100 EXP SWAP1 DIV PUSH1 0xFF AND ISZERO PUSH2 0x287 JUMPI PUSH1 0x40 MLOAD PUSH32 0x8C379A000000000000000000000000000000000000000000000000000000000 DUP2 MSTORE PUSH1 0x4 ADD PUSH2 0x27E SWAP1 PUSH2 0x90F JUMP JUMPDEST PUSH1 0x40 MLOAD DUP1 SWAP2 SUB SWAP1 REVERT JUMPDEST PUSH1 0x1 PUSH1 0x3 PUSH0 PUSH2 0x100 EXP DUP2 SLOAD DUP2 PUSH1 0xFF MUL NOT AND SWAP1 DUP4 ISZERO ISZERO MUL OR SWAP1 SSTORE POP PUSH0 DUP1 SLOAD SWAP1 PUSH2 0x100 EXP SWAP1 DIV PUSH20 0xFFFFFFFFFFFFFFFFFFFFFFFFFFFFFFFFFFFFFFFF AND PUSH20 0xFFFFFFFFFFFFFFFFFFFFFFFFFFFFFFFFFFFFFFFF AND PUSH2 0x8FC PUSH1 0x1 SLOAD SWAP1 DUP2 ISZERO MUL SWAP1 PUSH1 0x40 MLOAD PUSH0 PUSH1 0x40 MLOAD DUP1 DUP4 SUB DUP2 DUP6 DUP9 DUP9 CALL SWAP4 POP POP POP POP ISZERO DUP1 ISZERO PUSH2 0x305 JUMPI RETURNDATASIZE PUSH0 DUP1 RETURNDATACOPY RETURNDATASIZE PUSH0 REVERT JUMPDEST POP PUSH0 JUMPDEST PUSH1 0x5 DUP1 SLOAD SWAP1 POP DUP2 LT ISZERO PUSH2 0x433 JUMPI PUSH0 PUSH1 0x5 DUP3 DUP2 SLOAD DUP2 LT PUSH2 0x32A JUMPI PUSH2 0x329 PUSH2 0x92D JUMP JUMPDEST JUMPDEST SWAP1 PUSH0 MSTORE PUSH1 0x20 PUSH0 KECCAK256 ADD PUSH0 SWAP1 SLOAD SWAP1 PUSH2 0x100 EXP SWAP1 DIV PUSH20 0xFFFFFFFFFFFFFFFFFFFFFFFFFFFFFFFFFFFFFFFF AND SWAP1 POP PUSH0 PUSH1 0x4 PUSH0 DUP4 PUSH20 0xFFFFFFFFFFFFFFFFFFFFFFFFFFFFFFFFFFFFFFFF AND PUSH20 0xFFFFFFFFFFFFFFFFFFFFFFFFFFFFFFFFFFFFFFFF AND DUP2 MSTORE PUSH1 0x20 ADD SWAP1 DUP2 MSTORE PUSH1 0x20 ADD PUSH0 KECCAK256 SLOAD SWAP1 POP PUSH0 DUP2 GT ISZERO PUSH2 0x424 JUMPI DUP2 PUSH20 0xFFFFFFFFFFFFFFFFFFFFFFFFFFFFFFFFFFFFFFFF AND PUSH2 0x8FC DUP3 SWAP1 DUP2 ISZERO MUL SWAP1 PUSH1 0x40 MLOAD PUSH0 PUSH1 0x40 MLOAD DUP1 DUP4 SUB DUP2 DUP6 DUP9 DUP9 CALL SWAP4 POP POP POP POP ISZERO DUP1 ISZERO PUSH2 0x3E0 JUMPI RETURNDATASIZE PUSH0 DUP1 RETURNDATACOPY RETURNDATASIZE PUSH0 REVERT JUMPDEST POP PUSH0 PUSH1 0x4 PUSH0 DUP5 PUSH20 0xFFFFFFFFFFFFFFFFFFFFFFFFFFFFFFFFFFFFFFFF AND PUSH20 0xFFFFFFFFFFFFFFFFFFFFFFFFFFFFFFFFFFFFFFFF AND DUP2 MSTORE PUSH1 0x20 ADD SWAP1 DUP2 MSTORE PUSH1 0x20 ADD PUSH0 KECCAK256 DUP2 SWAP1 SSTORE POP JUMPDEST POP POP DUP1 DUP1 PUSH1 0x1 ADD SWAP2 POP POP PUSH2 0x308 JUMP JUMPDEST POP PUSH1 0x5 PUSH0 PUSH2 0x441 SWAP2 SWAP1 PUSH2 0x6AA JUMP JUMPDEST JUMP JUMPDEST PUSH1 0x2 SLOAD DUP2 JUMP JUMPDEST PUSH1 0x4 PUSH1 0x20 MSTORE DUP1 PUSH0 MSTORE PUSH1 0x40 PUSH0 KECCAK256 PUSH0 SWAP2 POP SWAP1 POP SLOAD DUP2 JUMP JUMPDEST PUSH1 0x3 PUSH0 SWAP1 SLOAD SWAP1 PUSH2 0x100 EXP SWAP1 DIV PUSH1 0xFF AND DUP2 JUMP JUMPDEST PUSH0 DUP1 SLOAD SWAP1 PUSH2 0x100 EXP SWAP1 DIV PUSH20 0xFFFFFFFFFFFFFFFFFFFFFFFFFFFFFFFFFFFFFFFF AND DUP2 JUMP JUMPDEST PUSH1 0x5 DUP2 DUP2 SLOAD DUP2 LT PUSH2 0x4A2 JUMPI PUSH0 DUP1 REVERT JUMPDEST SWAP1 PUSH0 MSTORE PUSH1 0x20 PUSH0 KECCAK256 ADD PUSH0 SWAP2 POP SLOAD SWAP1 PUSH2 0x100 EXP SWAP1 DIV PUSH20 0xFFFFFFFFFFFFFFFFFFFFFFFFFFFFFFFFFFFFFFFF AND DUP2 JUMP JUMPDEST PUSH1 0x1 SLOAD DUP2 JUMP JUMPDEST PUSH1 0x2 SLOAD TIMESTAMP GT ISZERO PUSH2 0x519 JUMPI PUSH1 0x40 MLOAD PUSH32 0x8C379A000000000000000000000000000000000000000000000000000000000 DUP2 MSTORE PUSH1 0x4 ADD PUSH2 0x510 SWAP1 PUSH2 0x9A4 JUMP JUMPDEST PUSH1 0x40 MLOAD DUP1 SWAP2 SUB SWAP1 REVERT JUMPDEST PUSH1 0x1 SLOAD CALLVALUE GT PUSH2 0x55D JUMPI PUSH1 0x40 MLOAD PUSH32 0x8C379A000000000000000000000000000000000000000000000000000000000 DUP2 MSTORE PUSH1 0x4 ADD PUSH2 0x554 SWAP1 PUSH2 0xA0C JUMP JUMPDEST PUSH1 0x40 MLOAD DUP1 SWAP2 SUB SWAP1 REVERT JUMPDEST PUSH0 PUSH1 0x1 SLOAD EQ PUSH2 0x5DC JUMPI PUSH1 0x1 SLOAD PUSH1 0x4 PUSH0 DUP1 PUSH0 SWAP1 SLOAD SWAP1 PUSH2 0x100 EXP SWAP1 DIV PUSH20 0xFFFFFFFFFFFFFFFFFFFFFFFFFFFFFFFFFFFFFFFF AND PUSH20 0xFFFFFFFFFFFFFFFFFFFFFFFFFFFFFFFFFFFFFFFF AND PUSH20 0xFFFFFFFFFFFFFFFFFFFFFFFFFFFFFFFFFFFFFFFF AND DUP2 MSTORE PUSH1 0x20 ADD SWAP1 DUP2 MSTORE PUSH1 0x20 ADD PUSH0 KECCAK256 PUSH0 DUP3 DUP3 SLOAD PUSH2 0x5D4 SWAP2 SWAP1 PUSH2 0xA57 JUMP JUMPDEST SWAP3 POP POP DUP2 SWAP1 SSTORE POP JUMPDEST CALLER PUSH0 DUP1 PUSH2 0x100 EXP DUP2 SLOAD DUP2 PUSH20 0xFFFFFFFFFFFFFFFFFFFFFFFFFFFFFFFFFFFFFFFF MUL NOT AND SWAP1 DUP4 PUSH20 0xFFFFFFFFFFFFFFFFFFFFFFFFFFFFFFFFFFFFFFFF AND MUL OR SWAP1 SSTORE POP CALLVALUE PUSH1 0x1 DUP2 SWAP1 SSTORE POP PUSH1 0x5 CALLER SWAP1 DUP1 PUSH1 0x1 DUP2 SLOAD ADD DUP1 DUP3 SSTORE DUP1 SWAP2 POP POP PUSH1 0x1 SWAP1 SUB SWAP1 PUSH0 MSTORE PUSH1 0x20 PUSH0 KECCAK256 ADD PUSH0 SWAP1 SWAP2 SWAP1 SWAP2 SWAP1 SWAP2 PUSH2 0x100 EXP DUP2 SLOAD DUP2 PUSH20 0xFFFFFFFFFFFFFFFFFFFFFFFFFFFFFFFFFFFFFFFF MUL NOT AND SWAP1 DUP4 PUSH20 0xFFFFFFFFFFFFFFFFFFFFFFFFFFFFFFFFFFFFFFFF AND MUL OR SWAP1 SSTORE POP JUMP JUMPDEST PUSH0 PUSH1 0x2 SLOAD TIMESTAMP LT PUSH2 0x696 JUMPI PUSH0 SWAP1 POP PUSH2 0x6A7 JUMP JUMPDEST TIMESTAMP PUSH1 0x2 SLOAD PUSH2 0x6A4 SWAP2 SWAP1 PUSH2 0xA8A JUMP JUMPDEST SWAP1 POP JUMPDEST SWAP1 JUMP JUMPDEST POP DUP1 SLOAD PUSH0 DUP3 SSTORE SWAP1 PUSH0 MSTORE PUSH1 0x20 PUSH0 KECCAK256 SWAP1 DUP2 ADD SWAP1 PUSH2 0x6C5 SWAP2 SWAP1 PUSH2 0x6C8 JUMP JUMPDEST POP JUMP JUMPDEST JUMPDEST DUP1 DUP3 GT ISZERO PUSH2 0x6DF JUMPI PUSH0 DUP2 PUSH0 SWAP1 SSTORE POP PUSH1 0x1 ADD PUSH2 0x6C9 JUMP JUMPDEST POP SWAP1 JUMP JUMPDEST PUSH0 DUP2 SWAP1 POP SWAP2 SWAP1 POP JUMP JUMPDEST PUSH2 0x6F5 DUP2 PUSH2 0x6E3 JUMP JUMPDEST DUP3 MSTORE POP POP JUMP JUMPDEST PUSH0 PUSH1 0x20 DUP3 ADD SWAP1 POP PUSH2 0x70E PUSH0 DUP4 ADD DUP5 PUSH2 0x6EC JUMP JUMPDEST SWAP3 SWAP2 POP POP JUMP JUMPDEST PUSH0 DUP1 REVERT JUMPDEST PUSH0 PUSH20 0xFFFFFFFFFFFFFFFFFFFFFFFFFFFFFFFFFFFFFFFF DUP3 AND SWAP1 POP SWAP2 SWAP1 POP JUMP JUMPDEST PUSH0 PUSH2 0x741 DUP3 PUSH2 0x718 JUMP JUMPDEST SWAP1 POP SWAP2 SWAP1 POP JUMP JUMPDEST PUSH2 0x751 DUP2 PUSH2 0x737 JUMP JUMPDEST DUP2 EQ PUSH2 0x75B JUMPI PUSH0 DUP1 REVERT JUMPDEST POP JUMP JUMPDEST PUSH0 DUP2 CALLDATALOAD SWAP1 POP PUSH2 0x76C DUP2 PUSH2 0x748 JUMP JUMPDEST SWAP3 SWAP2 POP POP JUMP JUMPDEST PUSH0 PUSH1 0x20 DUP3 DUP5 SUB SLT ISZERO PUSH2 0x787 JUMPI PUSH2 0x786 PUSH2 0x714 JUMP JUMPDEST JUMPDEST PUSH0 PUSH2 0x794 DUP5 DUP3 DUP6 ADD PUSH2 0x75E JUMP JUMPDEST SWAP2 POP POP SWAP3 SWAP2 POP POP JUMP JUMPDEST PUSH0 DUP2 ISZERO ISZERO SWAP1 POP SWAP2 SWAP1 POP JUMP JUMPDEST PUSH2 0x7B1 DUP2 PUSH2 0x79D JUMP JUMPDEST DUP3 MSTORE POP POP JUMP JUMPDEST PUSH0 PUSH1 0x20 DUP3 ADD SWAP1 POP PUSH2 0x7CA PUSH0 DUP4 ADD DUP5 PUSH2 0x7A8 JUMP JUMPDEST SWAP3 SWAP2 POP POP JUMP JUMPDEST PUSH2 0x7D9 DUP2 PUSH2 0x737 JUMP JUMPDEST DUP3 MSTORE POP POP JUMP JUMPDEST PUSH0 PUSH1 0x20 DUP3 ADD SWAP1 POP PUSH2 0x7F2 PUSH0 DUP4 ADD DUP5 PUSH2 0x7D0 JUMP JUMPDEST SWAP3 SWAP2 POP POP JUMP JUMPDEST PUSH2 0x801 DUP2 PUSH2 0x6E3 JUMP JUMPDEST DUP2 EQ PUSH2 0x80B JUMPI PUSH0 DUP1 REVERT JUMPDEST POP JUMP JUMPDEST PUSH0 DUP2 CALLDATALOAD SWAP1 POP PUSH2 0x81C DUP2 PUSH2 0x7F8 JUMP JUMPDEST SWAP3 SWAP2 POP POP JUMP JUMPDEST PUSH0 PUSH1 0x20 DUP3 DUP5 SUB SLT ISZERO PUSH2 0x837 JUMPI PUSH2 0x836 PUSH2 0x714 JUMP JUMPDEST JUMPDEST PUSH0 PUSH2 0x844 DUP5 DUP3 DUP6 ADD PUSH2 0x80E JUMP JUMPDEST SWAP2 POP POP SWAP3 SWAP2 POP POP JUMP JUMPDEST PUSH0 DUP3 DUP3 MSTORE PUSH1 0x20 DUP3 ADD SWAP1 POP SWAP3 SWAP2 POP POP JUMP JUMPDEST PUSH32 0x41756374696F6E206973207374696C6C206F6E676F696E672E00000000000000 PUSH0 DUP3 ADD MSTORE POP JUMP JUMPDEST PUSH0 PUSH2 0x891 PUSH1 0x19 DUP4 PUSH2 0x84D JUMP JUMPDEST SWAP2 POP PUSH2 0x89C DUP3 PUSH2 0x85D JUMP JUMPDEST PUSH1 0x20 DUP3 ADD SWAP1 POP SWAP2 SWAP1 POP JUMP JUMPDEST PUSH0 PUSH1 0x20 DUP3 ADD SWAP1 POP DUP2 DUP2 SUB PUSH0 DUP4 ADD MSTORE PUSH2 0x8BE DUP2 PUSH2 0x885 JUMP JUMPDEST SWAP1 POP SWAP2 SWAP1 POP JUMP JUMPDEST PUSH32 0x41756374696F6E20616C72656164792066696E616C697A65642E000000000000 PUSH0 DUP3 ADD MSTORE POP JUMP JUMPDEST PUSH0 PUSH2 0x8F9 PUSH1 0x1A DUP4 PUSH2 0x84D JUMP JUMPDEST SWAP2 POP PUSH2 0x904 DUP3 PUSH2 0x8C5 JUMP JUMPDEST PUSH1 0x20 DUP3 ADD SWAP1 POP SWAP2 SWAP1 POP JUMP JUMPDEST PUSH0 PUSH1 0x20 DUP3 ADD SWAP1 POP DUP2 DUP2 SUB PUSH0 DUP4 ADD MSTORE PUSH2 0x926 DUP2 PUSH2 0x8ED JUMP JUMPDEST SWAP1 POP SWAP2 SWAP1 POP JUMP JUMPDEST PUSH32 0x4E487B7100000000000000000000000000000000000000000000000000000000 PUSH0 MSTORE PUSH1 0x32 PUSH1 0x4 MSTORE PUSH1 0x24 PUSH0 REVERT JUMPDEST PUSH32 0x41756374696F6E2068617320656E6465642E0000000000000000000000000000 PUSH0 DUP3 ADD MSTORE POP JUMP JUMPDEST PUSH0 PUSH2 0x98E PUSH1 0x12 DUP4 PUSH2 0x84D JUMP JUMPDEST SWAP2 POP PUSH2 0x999 DUP3 PUSH2 0x95A JUMP JUMPDEST PUSH1 0x20 DUP3 ADD SWAP1 POP SWAP2 SWAP1 POP JUMP JUMPDEST PUSH0 PUSH1 0x20 DUP3 ADD SWAP1 POP DUP2 DUP2 SUB PUSH0 DUP4 ADD MSTORE PUSH2 0x9BB DUP2 PUSH2 0x982 JUMP JUMPDEST SWAP1 POP SWAP2 SWAP1 POP JUMP JUMPDEST PUSH32 0x546865726520616C7265616479206973206120686967686572206269642E0000 PUSH0 DUP3 ADD MSTORE POP JUMP JUMPDEST PUSH0 PUSH2 0x9F6 PUSH1 0x1E DUP4 PUSH2 0x84D JUMP JUMPDEST SWAP2 POP PUSH2 0xA01 DUP3 PUSH2 0x9C2 JUMP JUMPDEST PUSH1 0x20 DUP3 ADD SWAP1 POP SWAP2 SWAP1 POP JUMP JUMPDEST PUSH0 PUSH1 0x20 DUP3 ADD SWAP1 POP DUP2 DUP2 SUB PUSH0 DUP4 ADD MSTORE PUSH2 0xA23 DUP2 PUSH2 0x9EA JUMP JUMPDEST SWAP1 POP SWAP2 SWAP1 POP JUMP JUMPDEST PUSH32 0x4E487B7100000000000000000000000000000000000000000000000000000000 PUSH0 MSTORE PUSH1 0x11 PUSH1 0x4 MSTORE PUSH1 0x24 PUSH0 REVERT JUMPDEST PUSH0 PUSH2 0xA61 DUP3 PUSH2 0x6E3 JUMP JUMPDEST SWAP2 POP PUSH2 0xA6C DUP4 PUSH2 0x6E3 JUMP JUMPDEST SWAP3 POP DUP3 DUP3 ADD SWAP1 POP DUP1 DUP3 GT ISZERO PUSH2 0xA84 JUMPI PUSH2 0xA83 PUSH2 0xA2A JUMP JUMPDEST JUMPDEST SWAP3 SWAP2 POP POP JUMP JUMPDEST PUSH0 PUSH2 0xA94 DUP3 PUSH2 0x6E3 JUMP JUMPDEST SWAP2 POP PUSH2 0xA9F DUP4 PUSH2 0x6E3 JUMP JUMPDEST SWAP3 POP DUP3 DUP3 SUB SWAP1 POP DUP2 DUP2 GT ISZERO PUSH2 0xAB7 JUMPI PUSH2 0xAB6 PUSH2 0xA2A JUMP JUMPDEST JUMPDEST SWAP3 SWAP2 POP POP JUMP INVALID LOG2 PUSH5 0x6970667358 0x22 SLT KECCAK256 CODESIZE 0x23 MLOAD SWAP3 PUSH4 0xD8CD18B9 DUP3 0x2C PUSH27 0x2B326FA0DFED0D5AD365A42F73A25874F57D551C64736F6C634300 ADDMOD BYTE STOP CALLER "
				},
				"gasEstimates": {
					"creation": {
						"codeDepositCost": "560600",
						"executionCost": "infinite",
						"totalCost": "infinite"
					},
					"external": {
						"FinalizeAuction()": "infinite",
						"GetTimeLeft()": "infinite",
						"PlaceBid()": "infinite",
						"auctionEndTime()": "2448",
						"auctionEnded()": "2533",
						"bidders(uint256)": "4966",
						"bids(address)": "2847",
						"highestBid()": "2469",
						"highestBidder()": "2505"
					}
				},
				"methodIdentifiers": {
					"FinalizeAuction()": "305f69dc",
					"GetTimeLeft()": "f21777c0",
					"PlaceBid()": "dc201dc2",
					"auctionEndTime()": "4b449cba",
					"auctionEnded()": "86433374",
					"bidders(uint256)": "cff29dfd",
					"bids(address)": "62ea82db",
					"highestBid()": "d57bde79",
					"highestBidder()": "91f90157"
				}
			},
			"storageLayout": {
				"storage": [
					{
						"astId": 3,
						"contract": "contracts/Auction_SC03_Secure.sol:Auction",
						"label": "highestBidder",
						"offset": 0,
						"slot": "0",
						"type": "t_address"
					},
					{
						"astId": 5,
						"contract": "contracts/Auction_SC03_Secure.sol:Auction",
						"label": "highestBid",
						"offset": 0,
						"slot": "1",
						"type": "t_uint256"
					},
					{
						"astId": 7,
						"contract": "contracts/Auction_SC03_Secure.sol:Auction",
						"label": "auctionEndTime",
						"offset": 0,
						"slot": "2",
						"type": "t_uint256"
					},
					{
						"astId": 9,
						"contract": "contracts/Auction_SC03_Secure.sol:Auction",
						"label": "auctionEnded",
						"offset": 0,
						"slot": "3",
						"type": "t_bool"
					},
					{
						"astId": 13,
						"contract": "contracts/Auction_SC03_Secure.sol:Auction",
						"label": "bids",
						"offset": 0,
						"slot": "4",
						"type": "t_mapping(t_address,t_uint256)"
					},
					{
						"astId": 16,
						"contract": "contracts/Auction_SC03_Secure.sol:Auction",
						"label": "bidders",
						"offset": 0,
						"slot": "5",
						"type": "t_array(t_address)dyn_storage"
					}
				],
				"types": {
					"t_address": {
						"encoding": "inplace",
						"label": "address",
						"numberOfBytes": "20"
					},
					"t_array(t_address)dyn_storage": {
						"base": "t_address",
						"encoding": "dynamic_array",
						"label": "address[]",
						"numberOfBytes": "32"
					},
					"t_bool": {
						"encoding": "inplace",
						"label": "bool",
						"numberOfBytes": "1"
					},
					"t_mapping(t_address,t_uint256)": {
						"encoding": "mapping",
						"key": "t_address",
						"label": "mapping(address => uint256)",
						"numberOfBytes": "32",
						"value": "t_uint256"
					},
					"t_uint256": {
						"encoding": "inplace",
						"label": "uint256",
						"numberOfBytes": "32"
					}
				}
			},
			"userdoc": {
				"kind": "user",
				"methods": {},
				"version": 1
			}
		}
	}
}