{
	"contracts/Dividend_NotSecure.sol": {
		"DividendDistributor": {
			"abi": [
				{
					"inputs": [],
					"stateMutability": "nonpayable",
					"type": "constructor"
				},
				{
					"inputs": [
						{
							"internalType": "address",
							"name": "recipient",
							"type": "address"
						},
						{
							"internalType": "uint256",
							"name": "amount",
							"type": "uint256"
						}
					],
					"name": "AddRecipient",
					"outputs": [],
					"stateMutability": "nonpayable",
					"type": "function"
				},
				{
					"inputs": [],
					"name": "DepositFunds",
					"outputs": [],
					"stateMutability": "payable",
					"type": "function"
				},
				{
					"inputs": [],
					"name": "DistributeDividends",
					"outputs": [],
					"stateMutability": "nonpayable",
					"type": "function"
				},
				{
					"inputs": [],
					"name": "GetRecipients",
					"outputs": [
						{
							"internalType": "address[]",
							"name": "",
							"type": "address[]"
						}
					],
					"stateMutability": "view",
					"type": "function"
				},
				{
					"inputs": [],
					"name": "admin",
					"outputs": [
						{
							"internalType": "address",
							"name": "",
							"type": "address"
						}
					],
					"stateMutability": "view",
					"type": "function"
				},
				{
					"inputs": [
						{
							"internalType": "address",
							"name": "",
							"type": "address"
						}
					],
					"name": "dividends",
					"outputs": [
						{
							"internalType": "uint256",
							"name": "",
							"type": "uint256"
						}
					],
					"stateMutability": "view",
					"type": "function"
				},
				{
					"inputs": [
						{
							"internalType": "uint256",
							"name": "",
							"type": "uint256"
						}
					],
					"name": "recipients",
					"outputs": [
						{
							"internalType": "address",
							"name": "",
							"type": "address"
						}
					],
					"stateMutability": "view",
					"type": "function"
				}
			],
			"devdoc": {
				"kind": "dev",
				"methods": {},
				"version": 1
			},
			"evm": {
				"assembly": "    /* \"contracts/Dividend_NotSecure.sol\":587:2007  contract DividendDistributor {... */\n  mstore(0x40, 0x80)\n    /* \"contracts/Dividend_NotSecure.sol\":737:788  constructor() {... */\n  callvalue\n  dup1\n  iszero\n  tag_1\n  jumpi\n  0x00\n  dup1\n  revert\ntag_1:\n  pop\n    /* \"contracts/Dividend_NotSecure.sol\":770:780  msg.sender */\n  caller\n    /* \"contracts/Dividend_NotSecure.sol\":762:767  admin */\n  0x00\n  dup1\n    /* \"contracts/Dividend_NotSecure.sol\":762:780  admin = msg.sender */\n  0x0100\n  exp\n  dup2\n  sload\n  dup2\n  0xffffffffffffffffffffffffffffffffffffffff\n  mul\n  not\n  and\n  swap1\n  dup4\n  0xffffffffffffffffffffffffffffffffffffffff\n  and\n  mul\n  or\n  swap1\n  sstore\n  pop\n    /* \"contracts/Dividend_NotSecure.sol\":587:2007  contract DividendDistributor {... */\n  dataSize(sub_0)\n  dup1\n  dataOffset(sub_0)\n  0x00\n  codecopy\n  0x00\n  return\nstop\n\nsub_0: assembly {\n        /* \"contracts/Dividend_NotSecure.sol\":587:2007  contract DividendDistributor {... */\n      mstore(0x40, 0x80)\n      jumpi(tag_1, lt(calldatasize, 0x04))\n      shr(0xe0, calldataload(0x00))\n      dup1\n      0x68306e43\n      gt\n      tag_9\n      jumpi\n      dup1\n      0x68306e43\n      eq\n      tag_5\n      jumpi\n      dup1\n      0x75b4306b\n      eq\n      tag_6\n      jumpi\n      dup1\n      0xd1bc76a1\n      eq\n      tag_7\n      jumpi\n      dup1\n      0xf851a440\n      eq\n      tag_8\n      jumpi\n      jump(tag_1)\n    tag_9:\n      dup1\n      0x1e1f1072\n      eq\n      tag_2\n      jumpi\n      dup1\n      0x4fbcd6d5\n      eq\n      tag_3\n      jumpi\n      dup1\n      0x51a16967\n      eq\n      tag_4\n      jumpi\n    tag_1:\n      0x00\n      dup1\n      revert\n        /* \"contracts/Dividend_NotSecure.sol\":1079:1311  function AddRecipient(address recipient, uint256 amount) public onlyAdmin {... */\n    tag_2:\n      callvalue\n      dup1\n      iszero\n      tag_10\n      jumpi\n      0x00\n      dup1\n      revert\n    tag_10:\n      pop\n      tag_11\n      0x04\n      dup1\n      calldatasize\n      sub\n      dup2\n      add\n      swap1\n      tag_12\n      swap2\n      swap1\n      tag_13\n      jump\t// in\n    tag_12:\n      tag_14\n      jump\t// in\n    tag_11:\n      stop\n        /* \"contracts/Dividend_NotSecure.sol\":1845:1896  function DepositFunds() public payable onlyAdmin {} */\n    tag_3:\n      tag_15\n      tag_16\n      jump\t// in\n    tag_15:\n      stop\n        /* \"contracts/Dividend_NotSecure.sol\":1319:1837  function DistributeDividends() public onlyAdmin {... */\n    tag_4:\n      callvalue\n      dup1\n      iszero\n      tag_17\n      jumpi\n      0x00\n      dup1\n      revert\n    tag_17:\n      pop\n      tag_18\n      tag_19\n      jump\t// in\n    tag_18:\n      stop\n        /* \"contracts/Dividend_NotSecure.sol\":684:728  mapping(address => uint256) public dividends */\n    tag_5:\n      callvalue\n      dup1\n      iszero\n      tag_20\n      jumpi\n      0x00\n      dup1\n      revert\n    tag_20:\n      pop\n      tag_21\n      0x04\n      dup1\n      calldatasize\n      sub\n      dup2\n      add\n      swap1\n      tag_22\n      swap2\n      swap1\n      tag_23\n      jump\t// in\n    tag_22:\n      tag_24\n      jump\t// in\n    tag_21:\n      mload(0x40)\n      tag_25\n      swap2\n      swap1\n      tag_26\n      jump\t// in\n    tag_25:\n      mload(0x40)\n      dup1\n      swap2\n      sub\n      swap1\n      return\n        /* \"contracts/Dividend_NotSecure.sol\":1904:2004  function GetRecipients() public view returns (address[] memory) {... */\n    tag_6:\n      callvalue\n      dup1\n      iszero\n      tag_27\n      jumpi\n      0x00\n      dup1\n      revert\n    tag_27:\n      pop\n      tag_28\n      tag_29\n      jump\t// in\n    tag_28:\n      mload(0x40)\n      tag_30\n      swap2\n      swap1\n      tag_31\n      jump\t// in\n    tag_30:\n      mload(0x40)\n      dup1\n      swap2\n      sub\n      swap1\n      return\n        /* \"contracts/Dividend_NotSecure.sol\":650:677  address[] public recipients */\n    tag_7:\n      callvalue\n      dup1\n      iszero\n      tag_32\n      jumpi\n      0x00\n      dup1\n      revert\n    tag_32:\n      pop\n      tag_33\n      0x04\n      dup1\n      calldatasize\n      sub\n      dup2\n      add\n      swap1\n      tag_34\n      swap2\n      swap1\n      tag_35\n      jump\t// in\n    tag_34:\n      tag_36\n      jump\t// in\n    tag_33:\n      mload(0x40)\n      tag_37\n      swap2\n      swap1\n      tag_38\n      jump\t// in\n    tag_37:\n      mload(0x40)\n      dup1\n      swap2\n      sub\n      swap1\n      return\n        /* \"contracts/Dividend_NotSecure.sol\":623:643  address public admin */\n    tag_8:\n      callvalue\n      dup1\n      iszero\n      tag_39\n      jumpi\n      0x00\n      dup1\n      revert\n    tag_39:\n      pop\n      tag_40\n      tag_41\n      jump\t// in\n    tag_40:\n      mload(0x40)\n      tag_42\n      swap2\n      swap1\n      tag_38\n      jump\t// in\n    tag_42:\n      mload(0x40)\n      dup1\n      swap2\n      sub\n      swap1\n      return\n        /* \"contracts/Dividend_NotSecure.sol\":1079:1311  function AddRecipient(address recipient, uint256 amount) public onlyAdmin {... */\n    tag_14:\n        /* \"contracts/Dividend_NotSecure.sol\":957:962  admin */\n      0x00\n      dup1\n      sload\n      swap1\n      0x0100\n      exp\n      swap1\n      div\n      0xffffffffffffffffffffffffffffffffffffffff\n      and\n        /* \"contracts/Dividend_NotSecure.sol\":943:962  msg.sender == admin */\n      0xffffffffffffffffffffffffffffffffffffffff\n      and\n        /* \"contracts/Dividend_NotSecure.sol\":943:953  msg.sender */\n      caller\n        /* \"contracts/Dividend_NotSecure.sol\":943:962  msg.sender == admin */\n      0xffffffffffffffffffffffffffffffffffffffff\n      and\n      eq\n        /* \"contracts/Dividend_NotSecure.sol\":935:1002  require(msg.sender == admin, \"Only admin can perform this action.\") */\n      tag_44\n      jumpi\n      mload(0x40)\n      0x08c379a000000000000000000000000000000000000000000000000000000000\n      dup2\n      mstore\n      0x04\n      add\n      tag_45\n      swap1\n      tag_46\n      jump\t// in\n    tag_45:\n      mload(0x40)\n      dup1\n      swap2\n      sub\n      swap1\n      revert\n    tag_44:\n        /* \"contracts/Dividend_NotSecure.sol\":1193:1194  0 */\n      0x00\n        /* \"contracts/Dividend_NotSecure.sol\":1172:1195  recipient != address(0) */\n      0xffffffffffffffffffffffffffffffffffffffff\n      and\n        /* \"contracts/Dividend_NotSecure.sol\":1172:1181  recipient */\n      dup3\n        /* \"contracts/Dividend_NotSecure.sol\":1172:1195  recipient != address(0) */\n      0xffffffffffffffffffffffffffffffffffffffff\n      and\n      sub\n        /* \"contracts/Dividend_NotSecure.sol\":1164:1226  require(recipient != address(0), \"Invalid recipient address.\") */\n      tag_48\n      jumpi\n      mload(0x40)\n      0x08c379a000000000000000000000000000000000000000000000000000000000\n      dup2\n      mstore\n      0x04\n      add\n      tag_49\n      swap1\n      tag_50\n      jump\t// in\n    tag_49:\n      mload(0x40)\n      dup1\n      swap2\n      sub\n      swap1\n      revert\n    tag_48:\n        /* \"contracts/Dividend_NotSecure.sol\":1237:1247  recipients */\n      0x01\n        /* \"contracts/Dividend_NotSecure.sol\":1253:1262  recipient */\n      dup3\n        /* \"contracts/Dividend_NotSecure.sol\":1237:1263  recipients.push(recipient) */\n      swap1\n      dup1\n      0x01\n      dup2\n      sload\n      add\n      dup1\n      dup3\n      sstore\n      dup1\n      swap2\n      pop\n      pop\n      0x01\n      swap1\n      sub\n      swap1\n      0x00\n      mstore\n      keccak256(0x00, 0x20)\n      add\n      0x00\n      swap1\n      swap2\n      swap1\n      swap2\n      swap1\n      swap2\n      0x0100\n      exp\n      dup2\n      sload\n      dup2\n      0xffffffffffffffffffffffffffffffffffffffff\n      mul\n      not\n      and\n      swap1\n      dup4\n      0xffffffffffffffffffffffffffffffffffffffff\n      and\n      mul\n      or\n      swap1\n      sstore\n      pop\n        /* \"contracts/Dividend_NotSecure.sol\":1297:1303  amount */\n      dup1\n        /* \"contracts/Dividend_NotSecure.sol\":1274:1283  dividends */\n      0x02\n        /* \"contracts/Dividend_NotSecure.sol\":1274:1294  dividends[recipient] */\n      0x00\n        /* \"contracts/Dividend_NotSecure.sol\":1284:1293  recipient */\n      dup5\n        /* \"contracts/Dividend_NotSecure.sol\":1274:1294  dividends[recipient] */\n      0xffffffffffffffffffffffffffffffffffffffff\n      and\n      0xffffffffffffffffffffffffffffffffffffffff\n      and\n      dup2\n      mstore\n      0x20\n      add\n      swap1\n      dup2\n      mstore\n      0x20\n      add\n      0x00\n      keccak256\n        /* \"contracts/Dividend_NotSecure.sol\":1274:1303  dividends[recipient] = amount */\n      dup2\n      swap1\n      sstore\n      pop\n        /* \"contracts/Dividend_NotSecure.sol\":1079:1311  function AddRecipient(address recipient, uint256 amount) public onlyAdmin {... */\n      pop\n      pop\n      jump\t// out\n        /* \"contracts/Dividend_NotSecure.sol\":1845:1896  function DepositFunds() public payable onlyAdmin {} */\n    tag_16:\n        /* \"contracts/Dividend_NotSecure.sol\":957:962  admin */\n      0x00\n      dup1\n      sload\n      swap1\n      0x0100\n      exp\n      swap1\n      div\n      0xffffffffffffffffffffffffffffffffffffffff\n      and\n        /* \"contracts/Dividend_NotSecure.sol\":943:962  msg.sender == admin */\n      0xffffffffffffffffffffffffffffffffffffffff\n      and\n        /* \"contracts/Dividend_NotSecure.sol\":943:953  msg.sender */\n      caller\n        /* \"contracts/Dividend_NotSecure.sol\":943:962  msg.sender == admin */\n      0xffffffffffffffffffffffffffffffffffffffff\n      and\n      eq\n        /* \"contracts/Dividend_NotSecure.sol\":935:1002  require(msg.sender == admin, \"Only admin can perform this action.\") */\n      tag_53\n      jumpi\n      mload(0x40)\n      0x08c379a000000000000000000000000000000000000000000000000000000000\n      dup2\n      mstore\n      0x04\n      add\n      tag_54\n      swap1\n      tag_46\n      jump\t// in\n    tag_54:\n      mload(0x40)\n      dup1\n      swap2\n      sub\n      swap1\n      revert\n    tag_53:\n        /* \"contracts/Dividend_NotSecure.sol\":1845:1896  function DepositFunds() public payable onlyAdmin {} */\n      jump\t// out\n        /* \"contracts/Dividend_NotSecure.sol\":1319:1837  function DistributeDividends() public onlyAdmin {... */\n    tag_19:\n        /* \"contracts/Dividend_NotSecure.sol\":957:962  admin */\n      0x00\n      dup1\n      sload\n      swap1\n      0x0100\n      exp\n      swap1\n      div\n      0xffffffffffffffffffffffffffffffffffffffff\n      and\n        /* \"contracts/Dividend_NotSecure.sol\":943:962  msg.sender == admin */\n      0xffffffffffffffffffffffffffffffffffffffff\n      and\n        /* \"contracts/Dividend_NotSecure.sol\":943:953  msg.sender */\n      caller\n        /* \"contracts/Dividend_NotSecure.sol\":943:962  msg.sender == admin */\n      0xffffffffffffffffffffffffffffffffffffffff\n      and\n      eq\n        /* \"contracts/Dividend_NotSecure.sol\":935:1002  require(msg.sender == admin, \"Only admin can perform this action.\") */\n      tag_57\n      jumpi\n      mload(0x40)\n      0x08c379a000000000000000000000000000000000000000000000000000000000\n      dup2\n      mstore\n      0x04\n      add\n      tag_58\n      swap1\n      tag_46\n      jump\t// in\n    tag_58:\n      mload(0x40)\n      dup1\n      swap2\n      sub\n      swap1\n      revert\n    tag_57:\n        /* \"contracts/Dividend_NotSecure.sol\":1410:1411  0 */\n      0x00\n        /* \"contracts/Dividend_NotSecure.sol\":1386:1407  address(this).balance */\n      selfbalance\n        /* \"contracts/Dividend_NotSecure.sol\":1386:1411  address(this).balance > 0 */\n      gt\n        /* \"contracts/Dividend_NotSecure.sol\":1378:1439  require(address(this).balance > 0, \"No funds to distribute.\") */\n      tag_60\n      jumpi\n      mload(0x40)\n      0x08c379a000000000000000000000000000000000000000000000000000000000\n      dup2\n      mstore\n      0x04\n      add\n      tag_61\n      swap1\n      tag_62\n      jump\t// in\n    tag_61:\n      mload(0x40)\n      dup1\n      swap2\n      sub\n      swap1\n      revert\n    tag_60:\n        /* \"contracts/Dividend_NotSecure.sol\":1457:1466  uint256 i */\n      0x00\n        /* \"contracts/Dividend_NotSecure.sol\":1452:1830  for (uint256 i = 0; i < recipients.length; i++) {... */\n    tag_63:\n        /* \"contracts/Dividend_NotSecure.sol\":1476:1486  recipients */\n      0x01\n        /* \"contracts/Dividend_NotSecure.sol\":1476:1493  recipients.length */\n      dup1\n      sload\n      swap1\n      pop\n        /* \"contracts/Dividend_NotSecure.sol\":1472:1473  i */\n      dup2\n        /* \"contracts/Dividend_NotSecure.sol\":1472:1493  i < recipients.length */\n      lt\n        /* \"contracts/Dividend_NotSecure.sol\":1452:1830  for (uint256 i = 0; i < recipients.length; i++) {... */\n      iszero\n      tag_64\n      jumpi\n        /* \"contracts/Dividend_NotSecure.sol\":1515:1532  address recipient */\n      0x00\n        /* \"contracts/Dividend_NotSecure.sol\":1535:1545  recipients */\n      0x01\n        /* \"contracts/Dividend_NotSecure.sol\":1546:1547  i */\n      dup3\n        /* \"contracts/Dividend_NotSecure.sol\":1535:1548  recipients[i] */\n      dup2\n      sload\n      dup2\n      lt\n      tag_66\n      jumpi\n      tag_67\n      tag_68\n      jump\t// in\n    tag_67:\n    tag_66:\n      swap1\n      0x00\n      mstore\n      keccak256(0x00, 0x20)\n      add\n      0x00\n      swap1\n      sload\n      swap1\n      0x0100\n      exp\n      swap1\n      div\n      0xffffffffffffffffffffffffffffffffffffffff\n      and\n        /* \"contracts/Dividend_NotSecure.sol\":1515:1548  address recipient = recipients[i] */\n      swap1\n      pop\n        /* \"contracts/Dividend_NotSecure.sol\":1563:1577  uint256 amount */\n      0x00\n        /* \"contracts/Dividend_NotSecure.sol\":1580:1589  dividends */\n      0x02\n        /* \"contracts/Dividend_NotSecure.sol\":1580:1600  dividends[recipient] */\n      0x00\n        /* \"contracts/Dividend_NotSecure.sol\":1590:1599  recipient */\n      dup4\n        /* \"contracts/Dividend_NotSecure.sol\":1580:1600  dividends[recipient] */\n      0xffffffffffffffffffffffffffffffffffffffff\n      and\n      0xffffffffffffffffffffffffffffffffffffffff\n      and\n      dup2\n      mstore\n      0x20\n      add\n      swap1\n      dup2\n      mstore\n      0x20\n      add\n      0x00\n      keccak256\n      sload\n        /* \"contracts/Dividend_NotSecure.sol\":1563:1600  uint256 amount = dividends[recipient] */\n      swap1\n      pop\n        /* \"contracts/Dividend_NotSecure.sol\":1630:1631  0 */\n      0x00\n        /* \"contracts/Dividend_NotSecure.sol\":1621:1627  amount */\n      dup2\n        /* \"contracts/Dividend_NotSecure.sol\":1621:1631  amount > 0 */\n      gt\n        /* \"contracts/Dividend_NotSecure.sol\":1617:1819  if (amount > 0) {... */\n      iszero\n      tag_70\n      jumpi\n        /* \"contracts/Dividend_NotSecure.sol\":1701:1710  recipient */\n      dup2\n        /* \"contracts/Dividend_NotSecure.sol\":1693:1720  payable(recipient).transfer */\n      0xffffffffffffffffffffffffffffffffffffffff\n      and\n        /* \"contracts/Dividend_NotSecure.sol\":1693:1728  payable(recipient).transfer(amount) */\n      0x08fc\n        /* \"contracts/Dividend_NotSecure.sol\":1721:1727  amount */\n      dup3\n        /* \"contracts/Dividend_NotSecure.sol\":1693:1728  payable(recipient).transfer(amount) */\n      swap1\n      dup2\n      iszero\n      mul\n      swap1\n      mload(0x40)\n      0x00\n      mload(0x40)\n      dup1\n      dup4\n      sub\n      dup2\n      dup6\n      dup9\n      dup9\n      call\n      swap4\n      pop\n      pop\n      pop\n      pop\n      iszero\n      dup1\n      iszero\n      tag_72\n      jumpi\n      returndatasize\n      0x00\n      dup1\n      returndatacopy\n      revert(0x00, returndatasize)\n    tag_72:\n      pop\n        /* \"contracts/Dividend_NotSecure.sol\":1770:1771  0 */\n      0x00\n        /* \"contracts/Dividend_NotSecure.sol\":1747:1756  dividends */\n      0x02\n        /* \"contracts/Dividend_NotSecure.sol\":1747:1767  dividends[recipient] */\n      0x00\n        /* \"contracts/Dividend_NotSecure.sol\":1757:1766  recipient */\n      dup5\n        /* \"contracts/Dividend_NotSecure.sol\":1747:1767  dividends[recipient] */\n      0xffffffffffffffffffffffffffffffffffffffff\n      and\n      0xffffffffffffffffffffffffffffffffffffffff\n      and\n      dup2\n      mstore\n      0x20\n      add\n      swap1\n      dup2\n      mstore\n      0x20\n      add\n      0x00\n      keccak256\n        /* \"contracts/Dividend_NotSecure.sol\":1747:1771  dividends[recipient] = 0 */\n      dup2\n      swap1\n      sstore\n      pop\n        /* \"contracts/Dividend_NotSecure.sol\":1617:1819  if (amount > 0) {... */\n    tag_70:\n        /* \"contracts/Dividend_NotSecure.sol\":1500:1830  {... */\n      pop\n      pop\n        /* \"contracts/Dividend_NotSecure.sol\":1495:1498  i++ */\n      dup1\n      dup1\n      0x01\n      add\n      swap2\n      pop\n      pop\n        /* \"contracts/Dividend_NotSecure.sol\":1452:1830  for (uint256 i = 0; i < recipients.length; i++) {... */\n      jump(tag_63)\n    tag_64:\n      pop\n        /* \"contracts/Dividend_NotSecure.sol\":1319:1837  function DistributeDividends() public onlyAdmin {... */\n      jump\t// out\n        /* \"contracts/Dividend_NotSecure.sol\":684:728  mapping(address => uint256) public dividends */\n    tag_24:\n      mstore(0x20, 0x02)\n      dup1\n      0x00\n      mstore\n      keccak256(0x00, 0x40)\n      0x00\n      swap2\n      pop\n      swap1\n      pop\n      sload\n      dup2\n      jump\t// out\n        /* \"contracts/Dividend_NotSecure.sol\":1904:2004  function GetRecipients() public view returns (address[] memory) {... */\n    tag_29:\n        /* \"contracts/Dividend_NotSecure.sol\":1950:1966  address[] memory */\n      0x60\n        /* \"contracts/Dividend_NotSecure.sol\":1986:1996  recipients */\n      0x01\n        /* \"contracts/Dividend_NotSecure.sol\":1979:1996  return recipients */\n      dup1\n      sload\n      dup1\n      0x20\n      mul\n      0x20\n      add\n      mload(0x40)\n      swap1\n      dup2\n      add\n      0x40\n      mstore\n      dup1\n      swap3\n      swap2\n      swap1\n      dup2\n      dup2\n      mstore\n      0x20\n      add\n      dup3\n      dup1\n      sload\n      dup1\n      iszero\n      tag_74\n      jumpi\n      0x20\n      mul\n      dup3\n      add\n      swap2\n      swap1\n      0x00\n      mstore\n      keccak256(0x00, 0x20)\n      swap1\n    tag_75:\n      dup2\n      0x00\n      swap1\n      sload\n      swap1\n      0x0100\n      exp\n      swap1\n      div\n      0xffffffffffffffffffffffffffffffffffffffff\n      and\n      0xffffffffffffffffffffffffffffffffffffffff\n      and\n      dup2\n      mstore\n      0x20\n      add\n      swap1\n      0x01\n      add\n      swap1\n      dup1\n      dup4\n      gt\n      tag_75\n      jumpi\n    tag_74:\n      pop\n      pop\n      pop\n      pop\n      pop\n      swap1\n      pop\n        /* \"contracts/Dividend_NotSecure.sol\":1904:2004  function GetRecipients() public view returns (address[] memory) {... */\n      swap1\n      jump\t// out\n        /* \"contracts/Dividend_NotSecure.sol\":650:677  address[] public recipients */\n    tag_36:\n      0x01\n      dup2\n      dup2\n      sload\n      dup2\n      lt\n      tag_76\n      jumpi\n      0x00\n      dup1\n      revert\n    tag_76:\n      swap1\n      0x00\n      mstore\n      keccak256(0x00, 0x20)\n      add\n      0x00\n      swap2\n      pop\n      sload\n      swap1\n      0x0100\n      exp\n      swap1\n      div\n      0xffffffffffffffffffffffffffffffffffffffff\n      and\n      dup2\n      jump\t// out\n        /* \"contracts/Dividend_NotSecure.sol\":623:643  address public admin */\n    tag_41:\n      0x00\n      dup1\n      sload\n      swap1\n      0x0100\n      exp\n      swap1\n      div\n      0xffffffffffffffffffffffffffffffffffffffff\n      and\n      dup2\n      jump\t// out\n        /* \"#utility.yul\":88:205   */\n    tag_79:\n        /* \"#utility.yul\":197:198   */\n      0x00\n        /* \"#utility.yul\":194:195   */\n      dup1\n        /* \"#utility.yul\":187:199   */\n      revert\n        /* \"#utility.yul\":334:460   */\n    tag_81:\n        /* \"#utility.yul\":371:378   */\n      0x00\n        /* \"#utility.yul\":411:453   */\n      0xffffffffffffffffffffffffffffffffffffffff\n        /* \"#utility.yul\":404:409   */\n      dup3\n        /* \"#utility.yul\":400:454   */\n      and\n        /* \"#utility.yul\":389:454   */\n      swap1\n      pop\n        /* \"#utility.yul\":334:460   */\n      swap2\n      swap1\n      pop\n      jump\t// out\n        /* \"#utility.yul\":466:562   */\n    tag_82:\n        /* \"#utility.yul\":503:510   */\n      0x00\n        /* \"#utility.yul\":532:556   */\n      tag_110\n        /* \"#utility.yul\":550:555   */\n      dup3\n        /* \"#utility.yul\":532:556   */\n      tag_81\n      jump\t// in\n    tag_110:\n        /* \"#utility.yul\":521:556   */\n      swap1\n      pop\n        /* \"#utility.yul\":466:562   */\n      swap2\n      swap1\n      pop\n      jump\t// out\n        /* \"#utility.yul\":568:690   */\n    tag_83:\n        /* \"#utility.yul\":641:665   */\n      tag_112\n        /* \"#utility.yul\":659:664   */\n      dup2\n        /* \"#utility.yul\":641:665   */\n      tag_82\n      jump\t// in\n    tag_112:\n        /* \"#utility.yul\":634:639   */\n      dup2\n        /* \"#utility.yul\":631:666   */\n      eq\n        /* \"#utility.yul\":621:684   */\n      tag_113\n      jumpi\n        /* \"#utility.yul\":680:681   */\n      0x00\n        /* \"#utility.yul\":677:678   */\n      dup1\n        /* \"#utility.yul\":670:682   */\n      revert\n        /* \"#utility.yul\":621:684   */\n    tag_113:\n        /* \"#utility.yul\":568:690   */\n      pop\n      jump\t// out\n        /* \"#utility.yul\":696:835   */\n    tag_84:\n        /* \"#utility.yul\":742:747   */\n      0x00\n        /* \"#utility.yul\":780:786   */\n      dup2\n        /* \"#utility.yul\":767:787   */\n      calldataload\n        /* \"#utility.yul\":758:787   */\n      swap1\n      pop\n        /* \"#utility.yul\":796:829   */\n      tag_115\n        /* \"#utility.yul\":823:828   */\n      dup2\n        /* \"#utility.yul\":796:829   */\n      tag_83\n      jump\t// in\n    tag_115:\n        /* \"#utility.yul\":696:835   */\n      swap3\n      swap2\n      pop\n      pop\n      jump\t// out\n        /* \"#utility.yul\":841:918   */\n    tag_85:\n        /* \"#utility.yul\":878:885   */\n      0x00\n        /* \"#utility.yul\":907:912   */\n      dup2\n        /* \"#utility.yul\":896:912   */\n      swap1\n      pop\n        /* \"#utility.yul\":841:918   */\n      swap2\n      swap1\n      pop\n      jump\t// out\n        /* \"#utility.yul\":924:1046   */\n    tag_86:\n        /* \"#utility.yul\":997:1021   */\n      tag_118\n        /* \"#utility.yul\":1015:1020   */\n      dup2\n        /* \"#utility.yul\":997:1021   */\n      tag_85\n      jump\t// in\n    tag_118:\n        /* \"#utility.yul\":990:995   */\n      dup2\n        /* \"#utility.yul\":987:1022   */\n      eq\n        /* \"#utility.yul\":977:1040   */\n      tag_119\n      jumpi\n        /* \"#utility.yul\":1036:1037   */\n      0x00\n        /* \"#utility.yul\":1033:1034   */\n      dup1\n        /* \"#utility.yul\":1026:1038   */\n      revert\n        /* \"#utility.yul\":977:1040   */\n    tag_119:\n        /* \"#utility.yul\":924:1046   */\n      pop\n      jump\t// out\n        /* \"#utility.yul\":1052:1191   */\n    tag_87:\n        /* \"#utility.yul\":1098:1103   */\n      0x00\n        /* \"#utility.yul\":1136:1142   */\n      dup2\n        /* \"#utility.yul\":1123:1143   */\n      calldataload\n        /* \"#utility.yul\":1114:1143   */\n      swap1\n      pop\n        /* \"#utility.yul\":1152:1185   */\n      tag_121\n        /* \"#utility.yul\":1179:1184   */\n      dup2\n        /* \"#utility.yul\":1152:1185   */\n      tag_86\n      jump\t// in\n    tag_121:\n        /* \"#utility.yul\":1052:1191   */\n      swap3\n      swap2\n      pop\n      pop\n      jump\t// out\n        /* \"#utility.yul\":1197:1671   */\n    tag_13:\n        /* \"#utility.yul\":1265:1271   */\n      0x00\n        /* \"#utility.yul\":1273:1279   */\n      dup1\n        /* \"#utility.yul\":1322:1324   */\n      0x40\n        /* \"#utility.yul\":1310:1319   */\n      dup4\n        /* \"#utility.yul\":1301:1308   */\n      dup6\n        /* \"#utility.yul\":1297:1320   */\n      sub\n        /* \"#utility.yul\":1293:1325   */\n      slt\n        /* \"#utility.yul\":1290:1409   */\n      iszero\n      tag_123\n      jumpi\n        /* \"#utility.yul\":1328:1407   */\n      tag_124\n      tag_79\n      jump\t// in\n    tag_124:\n        /* \"#utility.yul\":1290:1409   */\n    tag_123:\n        /* \"#utility.yul\":1448:1449   */\n      0x00\n        /* \"#utility.yul\":1473:1526   */\n      tag_125\n        /* \"#utility.yul\":1518:1525   */\n      dup6\n        /* \"#utility.yul\":1509:1515   */\n      dup3\n        /* \"#utility.yul\":1498:1507   */\n      dup7\n        /* \"#utility.yul\":1494:1516   */\n      add\n        /* \"#utility.yul\":1473:1526   */\n      tag_84\n      jump\t// in\n    tag_125:\n        /* \"#utility.yul\":1463:1526   */\n      swap3\n      pop\n        /* \"#utility.yul\":1419:1536   */\n      pop\n        /* \"#utility.yul\":1575:1577   */\n      0x20\n        /* \"#utility.yul\":1601:1654   */\n      tag_126\n        /* \"#utility.yul\":1646:1653   */\n      dup6\n        /* \"#utility.yul\":1637:1643   */\n      dup3\n        /* \"#utility.yul\":1626:1635   */\n      dup7\n        /* \"#utility.yul\":1622:1644   */\n      add\n        /* \"#utility.yul\":1601:1654   */\n      tag_87\n      jump\t// in\n    tag_126:\n        /* \"#utility.yul\":1591:1654   */\n      swap2\n      pop\n        /* \"#utility.yul\":1546:1664   */\n      pop\n        /* \"#utility.yul\":1197:1671   */\n      swap3\n      pop\n      swap3\n      swap1\n      pop\n      jump\t// out\n        /* \"#utility.yul\":1677:2006   */\n    tag_23:\n        /* \"#utility.yul\":1736:1742   */\n      0x00\n        /* \"#utility.yul\":1785:1787   */\n      0x20\n        /* \"#utility.yul\":1773:1782   */\n      dup3\n        /* \"#utility.yul\":1764:1771   */\n      dup5\n        /* \"#utility.yul\":1760:1783   */\n      sub\n        /* \"#utility.yul\":1756:1788   */\n      slt\n        /* \"#utility.yul\":1753:1872   */\n      iszero\n      tag_128\n      jumpi\n        /* \"#utility.yul\":1791:1870   */\n      tag_129\n      tag_79\n      jump\t// in\n    tag_129:\n        /* \"#utility.yul\":1753:1872   */\n    tag_128:\n        /* \"#utility.yul\":1911:1912   */\n      0x00\n        /* \"#utility.yul\":1936:1989   */\n      tag_130\n        /* \"#utility.yul\":1981:1988   */\n      dup5\n        /* \"#utility.yul\":1972:1978   */\n      dup3\n        /* \"#utility.yul\":1961:1970   */\n      dup6\n        /* \"#utility.yul\":1957:1979   */\n      add\n        /* \"#utility.yul\":1936:1989   */\n      tag_84\n      jump\t// in\n    tag_130:\n        /* \"#utility.yul\":1926:1989   */\n      swap2\n      pop\n        /* \"#utility.yul\":1882:1999   */\n      pop\n        /* \"#utility.yul\":1677:2006   */\n      swap3\n      swap2\n      pop\n      pop\n      jump\t// out\n        /* \"#utility.yul\":2012:2130   */\n    tag_88:\n        /* \"#utility.yul\":2099:2123   */\n      tag_132\n        /* \"#utility.yul\":2117:2122   */\n      dup2\n        /* \"#utility.yul\":2099:2123   */\n      tag_85\n      jump\t// in\n    tag_132:\n        /* \"#utility.yul\":2094:2097   */\n      dup3\n        /* \"#utility.yul\":2087:2124   */\n      mstore\n        /* \"#utility.yul\":2012:2130   */\n      pop\n      pop\n      jump\t// out\n        /* \"#utility.yul\":2136:2358   */\n    tag_26:\n        /* \"#utility.yul\":2229:2233   */\n      0x00\n        /* \"#utility.yul\":2267:2269   */\n      0x20\n        /* \"#utility.yul\":2256:2265   */\n      dup3\n        /* \"#utility.yul\":2252:2270   */\n      add\n        /* \"#utility.yul\":2244:2270   */\n      swap1\n      pop\n        /* \"#utility.yul\":2280:2351   */\n      tag_134\n        /* \"#utility.yul\":2348:2349   */\n      0x00\n        /* \"#utility.yul\":2337:2346   */\n      dup4\n        /* \"#utility.yul\":2333:2350   */\n      add\n        /* \"#utility.yul\":2324:2330   */\n      dup5\n        /* \"#utility.yul\":2280:2351   */\n      tag_88\n      jump\t// in\n    tag_134:\n        /* \"#utility.yul\":2136:2358   */\n      swap3\n      swap2\n      pop\n      pop\n      jump\t// out\n        /* \"#utility.yul\":2364:2478   */\n    tag_89:\n        /* \"#utility.yul\":2431:2437   */\n      0x00\n        /* \"#utility.yul\":2465:2470   */\n      dup2\n        /* \"#utility.yul\":2459:2471   */\n      mload\n        /* \"#utility.yul\":2449:2471   */\n      swap1\n      pop\n        /* \"#utility.yul\":2364:2478   */\n      swap2\n      swap1\n      pop\n      jump\t// out\n        /* \"#utility.yul\":2484:2668   */\n    tag_90:\n        /* \"#utility.yul\":2583:2594   */\n      0x00\n        /* \"#utility.yul\":2617:2623   */\n      dup3\n        /* \"#utility.yul\":2612:2615   */\n      dup3\n        /* \"#utility.yul\":2605:2624   */\n      mstore\n        /* \"#utility.yul\":2657:2661   */\n      0x20\n        /* \"#utility.yul\":2652:2655   */\n      dup3\n        /* \"#utility.yul\":2648:2662   */\n      add\n        /* \"#utility.yul\":2633:2662   */\n      swap1\n      pop\n        /* \"#utility.yul\":2484:2668   */\n      swap3\n      swap2\n      pop\n      pop\n      jump\t// out\n        /* \"#utility.yul\":2674:2806   */\n    tag_91:\n        /* \"#utility.yul\":2741:2745   */\n      0x00\n        /* \"#utility.yul\":2764:2767   */\n      dup2\n        /* \"#utility.yul\":2756:2767   */\n      swap1\n      pop\n        /* \"#utility.yul\":2794:2798   */\n      0x20\n        /* \"#utility.yul\":2789:2792   */\n      dup3\n        /* \"#utility.yul\":2785:2799   */\n      add\n        /* \"#utility.yul\":2777:2799   */\n      swap1\n      pop\n        /* \"#utility.yul\":2674:2806   */\n      swap2\n      swap1\n      pop\n      jump\t// out\n        /* \"#utility.yul\":2812:2920   */\n    tag_92:\n        /* \"#utility.yul\":2889:2913   */\n      tag_139\n        /* \"#utility.yul\":2907:2912   */\n      dup2\n        /* \"#utility.yul\":2889:2913   */\n      tag_82\n      jump\t// in\n    tag_139:\n        /* \"#utility.yul\":2884:2887   */\n      dup3\n        /* \"#utility.yul\":2877:2914   */\n      mstore\n        /* \"#utility.yul\":2812:2920   */\n      pop\n      pop\n      jump\t// out\n        /* \"#utility.yul\":2926:3105   */\n    tag_93:\n        /* \"#utility.yul\":2995:3005   */\n      0x00\n        /* \"#utility.yul\":3016:3062   */\n      tag_141\n        /* \"#utility.yul\":3058:3061   */\n      dup4\n        /* \"#utility.yul\":3050:3056   */\n      dup4\n        /* \"#utility.yul\":3016:3062   */\n      tag_92\n      jump\t// in\n    tag_141:\n        /* \"#utility.yul\":3094:3098   */\n      0x20\n        /* \"#utility.yul\":3089:3092   */\n      dup4\n        /* \"#utility.yul\":3085:3099   */\n      add\n        /* \"#utility.yul\":3071:3099   */\n      swap1\n      pop\n        /* \"#utility.yul\":2926:3105   */\n      swap3\n      swap2\n      pop\n      pop\n      jump\t// out\n        /* \"#utility.yul\":3111:3224   */\n    tag_94:\n        /* \"#utility.yul\":3181:3185   */\n      0x00\n        /* \"#utility.yul\":3213:3217   */\n      0x20\n        /* \"#utility.yul\":3208:3211   */\n      dup3\n        /* \"#utility.yul\":3204:3218   */\n      add\n        /* \"#utility.yul\":3196:3218   */\n      swap1\n      pop\n        /* \"#utility.yul\":3111:3224   */\n      swap2\n      swap1\n      pop\n      jump\t// out\n        /* \"#utility.yul\":3260:3992   */\n    tag_95:\n        /* \"#utility.yul\":3379:3382   */\n      0x00\n        /* \"#utility.yul\":3408:3462   */\n      tag_144\n        /* \"#utility.yul\":3456:3461   */\n      dup3\n        /* \"#utility.yul\":3408:3462   */\n      tag_89\n      jump\t// in\n    tag_144:\n        /* \"#utility.yul\":3478:3564   */\n      tag_145\n        /* \"#utility.yul\":3557:3563   */\n      dup2\n        /* \"#utility.yul\":3552:3555   */\n      dup6\n        /* \"#utility.yul\":3478:3564   */\n      tag_90\n      jump\t// in\n    tag_145:\n        /* \"#utility.yul\":3471:3564   */\n      swap4\n      pop\n        /* \"#utility.yul\":3588:3644   */\n      tag_146\n        /* \"#utility.yul\":3638:3643   */\n      dup4\n        /* \"#utility.yul\":3588:3644   */\n      tag_91\n      jump\t// in\n    tag_146:\n        /* \"#utility.yul\":3667:3674   */\n      dup1\n        /* \"#utility.yul\":3698:3699   */\n      0x00\n        /* \"#utility.yul\":3683:3967   */\n    tag_147:\n        /* \"#utility.yul\":3708:3714   */\n      dup4\n        /* \"#utility.yul\":3705:3706   */\n      dup2\n        /* \"#utility.yul\":3702:3715   */\n      lt\n        /* \"#utility.yul\":3683:3967   */\n      iszero\n      tag_149\n      jumpi\n        /* \"#utility.yul\":3784:3790   */\n      dup2\n        /* \"#utility.yul\":3778:3791   */\n      mload\n        /* \"#utility.yul\":3811:3874   */\n      tag_150\n        /* \"#utility.yul\":3870:3873   */\n      dup9\n        /* \"#utility.yul\":3855:3868   */\n      dup3\n        /* \"#utility.yul\":3811:3874   */\n      tag_93\n      jump\t// in\n    tag_150:\n        /* \"#utility.yul\":3804:3874   */\n      swap8\n      pop\n        /* \"#utility.yul\":3897:3957   */\n      tag_151\n        /* \"#utility.yul\":3950:3956   */\n      dup4\n        /* \"#utility.yul\":3897:3957   */\n      tag_94\n      jump\t// in\n    tag_151:\n        /* \"#utility.yul\":3887:3957   */\n      swap3\n      pop\n        /* \"#utility.yul\":3743:3967   */\n      pop\n        /* \"#utility.yul\":3730:3731   */\n      0x01\n        /* \"#utility.yul\":3727:3728   */\n      dup2\n        /* \"#utility.yul\":3723:3732   */\n      add\n        /* \"#utility.yul\":3718:3732   */\n      swap1\n      pop\n        /* \"#utility.yul\":3683:3967   */\n      jump(tag_147)\n    tag_149:\n        /* \"#utility.yul\":3687:3701   */\n      pop\n        /* \"#utility.yul\":3983:3986   */\n      dup6\n        /* \"#utility.yul\":3976:3986   */\n      swap4\n      pop\n        /* \"#utility.yul\":3384:3992   */\n      pop\n      pop\n      pop\n        /* \"#utility.yul\":3260:3992   */\n      swap3\n      swap2\n      pop\n      pop\n      jump\t// out\n        /* \"#utility.yul\":3998:4371   */\n    tag_31:\n        /* \"#utility.yul\":4141:4145   */\n      0x00\n        /* \"#utility.yul\":4179:4181   */\n      0x20\n        /* \"#utility.yul\":4168:4177   */\n      dup3\n        /* \"#utility.yul\":4164:4182   */\n      add\n        /* \"#utility.yul\":4156:4182   */\n      swap1\n      pop\n        /* \"#utility.yul\":4228:4237   */\n      dup2\n        /* \"#utility.yul\":4222:4226   */\n      dup2\n        /* \"#utility.yul\":4218:4238   */\n      sub\n        /* \"#utility.yul\":4214:4215   */\n      0x00\n        /* \"#utility.yul\":4203:4212   */\n      dup4\n        /* \"#utility.yul\":4199:4216   */\n      add\n        /* \"#utility.yul\":4192:4239   */\n      mstore\n        /* \"#utility.yul\":4256:4364   */\n      tag_153\n        /* \"#utility.yul\":4359:4363   */\n      dup2\n        /* \"#utility.yul\":4350:4356   */\n      dup5\n        /* \"#utility.yul\":4256:4364   */\n      tag_95\n      jump\t// in\n    tag_153:\n        /* \"#utility.yul\":4248:4364   */\n      swap1\n      pop\n        /* \"#utility.yul\":3998:4371   */\n      swap3\n      swap2\n      pop\n      pop\n      jump\t// out\n        /* \"#utility.yul\":4377:4706   */\n    tag_35:\n        /* \"#utility.yul\":4436:4442   */\n      0x00\n        /* \"#utility.yul\":4485:4487   */\n      0x20\n        /* \"#utility.yul\":4473:4482   */\n      dup3\n        /* \"#utility.yul\":4464:4471   */\n      dup5\n        /* \"#utility.yul\":4460:4483   */\n      sub\n        /* \"#utility.yul\":4456:4488   */\n      slt\n        /* \"#utility.yul\":4453:4572   */\n      iszero\n      tag_155\n      jumpi\n        /* \"#utility.yul\":4491:4570   */\n      tag_156\n      tag_79\n      jump\t// in\n    tag_156:\n        /* \"#utility.yul\":4453:4572   */\n    tag_155:\n        /* \"#utility.yul\":4611:4612   */\n      0x00\n        /* \"#utility.yul\":4636:4689   */\n      tag_157\n        /* \"#utility.yul\":4681:4688   */\n      dup5\n        /* \"#utility.yul\":4672:4678   */\n      dup3\n        /* \"#utility.yul\":4661:4670   */\n      dup6\n        /* \"#utility.yul\":4657:4679   */\n      add\n        /* \"#utility.yul\":4636:4689   */\n      tag_87\n      jump\t// in\n    tag_157:\n        /* \"#utility.yul\":4626:4689   */\n      swap2\n      pop\n        /* \"#utility.yul\":4582:4699   */\n      pop\n        /* \"#utility.yul\":4377:4706   */\n      swap3\n      swap2\n      pop\n      pop\n      jump\t// out\n        /* \"#utility.yul\":4712:4830   */\n    tag_96:\n        /* \"#utility.yul\":4799:4823   */\n      tag_159\n        /* \"#utility.yul\":4817:4822   */\n      dup2\n        /* \"#utility.yul\":4799:4823   */\n      tag_82\n      jump\t// in\n    tag_159:\n        /* \"#utility.yul\":4794:4797   */\n      dup3\n        /* \"#utility.yul\":4787:4824   */\n      mstore\n        /* \"#utility.yul\":4712:4830   */\n      pop\n      pop\n      jump\t// out\n        /* \"#utility.yul\":4836:5058   */\n    tag_38:\n        /* \"#utility.yul\":4929:4933   */\n      0x00\n        /* \"#utility.yul\":4967:4969   */\n      0x20\n        /* \"#utility.yul\":4956:4965   */\n      dup3\n        /* \"#utility.yul\":4952:4970   */\n      add\n        /* \"#utility.yul\":4944:4970   */\n      swap1\n      pop\n        /* \"#utility.yul\":4980:5051   */\n      tag_161\n        /* \"#utility.yul\":5048:5049   */\n      0x00\n        /* \"#utility.yul\":5037:5046   */\n      dup4\n        /* \"#utility.yul\":5033:5050   */\n      add\n        /* \"#utility.yul\":5024:5030   */\n      dup5\n        /* \"#utility.yul\":4980:5051   */\n      tag_96\n      jump\t// in\n    tag_161:\n        /* \"#utility.yul\":4836:5058   */\n      swap3\n      swap2\n      pop\n      pop\n      jump\t// out\n        /* \"#utility.yul\":5064:5233   */\n    tag_97:\n        /* \"#utility.yul\":5148:5159   */\n      0x00\n        /* \"#utility.yul\":5182:5188   */\n      dup3\n        /* \"#utility.yul\":5177:5180   */\n      dup3\n        /* \"#utility.yul\":5170:5189   */\n      mstore\n        /* \"#utility.yul\":5222:5226   */\n      0x20\n        /* \"#utility.yul\":5217:5220   */\n      dup3\n        /* \"#utility.yul\":5213:5227   */\n      add\n        /* \"#utility.yul\":5198:5227   */\n      swap1\n      pop\n        /* \"#utility.yul\":5064:5233   */\n      swap3\n      swap2\n      pop\n      pop\n      jump\t// out\n        /* \"#utility.yul\":5239:5461   */\n    tag_98:\n        /* \"#utility.yul\":5379:5413   */\n      0x4f6e6c792061646d696e2063616e20706572666f726d20746869732061637469\n        /* \"#utility.yul\":5375:5376   */\n      0x00\n        /* \"#utility.yul\":5367:5373   */\n      dup3\n        /* \"#utility.yul\":5363:5377   */\n      add\n        /* \"#utility.yul\":5356:5414   */\n      mstore\n        /* \"#utility.yul\":5448:5453   */\n      0x6f6e2e0000000000000000000000000000000000000000000000000000000000\n        /* \"#utility.yul\":5443:5445   */\n      0x20\n        /* \"#utility.yul\":5435:5441   */\n      dup3\n        /* \"#utility.yul\":5431:5446   */\n      add\n        /* \"#utility.yul\":5424:5454   */\n      mstore\n        /* \"#utility.yul\":5239:5461   */\n      pop\n      jump\t// out\n        /* \"#utility.yul\":5467:5833   */\n    tag_99:\n        /* \"#utility.yul\":5609:5612   */\n      0x00\n        /* \"#utility.yul\":5630:5697   */\n      tag_165\n        /* \"#utility.yul\":5694:5696   */\n      0x23\n        /* \"#utility.yul\":5689:5692   */\n      dup4\n        /* \"#utility.yul\":5630:5697   */\n      tag_97\n      jump\t// in\n    tag_165:\n        /* \"#utility.yul\":5623:5697   */\n      swap2\n      pop\n        /* \"#utility.yul\":5706:5799   */\n      tag_166\n        /* \"#utility.yul\":5795:5798   */\n      dup3\n        /* \"#utility.yul\":5706:5799   */\n      tag_98\n      jump\t// in\n    tag_166:\n        /* \"#utility.yul\":5824:5826   */\n      0x40\n        /* \"#utility.yul\":5819:5822   */\n      dup3\n        /* \"#utility.yul\":5815:5827   */\n      add\n        /* \"#utility.yul\":5808:5827   */\n      swap1\n      pop\n        /* \"#utility.yul\":5467:5833   */\n      swap2\n      swap1\n      pop\n      jump\t// out\n        /* \"#utility.yul\":5839:6258   */\n    tag_46:\n        /* \"#utility.yul\":6005:6009   */\n      0x00\n        /* \"#utility.yul\":6043:6045   */\n      0x20\n        /* \"#utility.yul\":6032:6041   */\n      dup3\n        /* \"#utility.yul\":6028:6046   */\n      add\n        /* \"#utility.yul\":6020:6046   */\n      swap1\n      pop\n        /* \"#utility.yul\":6092:6101   */\n      dup2\n        /* \"#utility.yul\":6086:6090   */\n      dup2\n        /* \"#utility.yul\":6082:6102   */\n      sub\n        /* \"#utility.yul\":6078:6079   */\n      0x00\n        /* \"#utility.yul\":6067:6076   */\n      dup4\n        /* \"#utility.yul\":6063:6080   */\n      add\n        /* \"#utility.yul\":6056:6103   */\n      mstore\n        /* \"#utility.yul\":6120:6251   */\n      tag_168\n        /* \"#utility.yul\":6246:6250   */\n      dup2\n        /* \"#utility.yul\":6120:6251   */\n      tag_99\n      jump\t// in\n    tag_168:\n        /* \"#utility.yul\":6112:6251   */\n      swap1\n      pop\n        /* \"#utility.yul\":5839:6258   */\n      swap2\n      swap1\n      pop\n      jump\t// out\n        /* \"#utility.yul\":6264:6440   */\n    tag_100:\n        /* \"#utility.yul\":6404:6432   */\n      0x496e76616c696420726563697069656e7420616464726573732e000000000000\n        /* \"#utility.yul\":6400:6401   */\n      0x00\n        /* \"#utility.yul\":6392:6398   */\n      dup3\n        /* \"#utility.yul\":6388:6402   */\n      add\n        /* \"#utility.yul\":6381:6433   */\n      mstore\n        /* \"#utility.yul\":6264:6440   */\n      pop\n      jump\t// out\n        /* \"#utility.yul\":6446:6812   */\n    tag_101:\n        /* \"#utility.yul\":6588:6591   */\n      0x00\n        /* \"#utility.yul\":6609:6676   */\n      tag_171\n        /* \"#utility.yul\":6673:6675   */\n      0x1a\n        /* \"#utility.yul\":6668:6671   */\n      dup4\n        /* \"#utility.yul\":6609:6676   */\n      tag_97\n      jump\t// in\n    tag_171:\n        /* \"#utility.yul\":6602:6676   */\n      swap2\n      pop\n        /* \"#utility.yul\":6685:6778   */\n      tag_172\n        /* \"#utility.yul\":6774:6777   */\n      dup3\n        /* \"#utility.yul\":6685:6778   */\n      tag_100\n      jump\t// in\n    tag_172:\n        /* \"#utility.yul\":6803:6805   */\n      0x20\n        /* \"#utility.yul\":6798:6801   */\n      dup3\n        /* \"#utility.yul\":6794:6806   */\n      add\n        /* \"#utility.yul\":6787:6806   */\n      swap1\n      pop\n        /* \"#utility.yul\":6446:6812   */\n      swap2\n      swap1\n      pop\n      jump\t// out\n        /* \"#utility.yul\":6818:7237   */\n    tag_50:\n        /* \"#utility.yul\":6984:6988   */\n      0x00\n        /* \"#utility.yul\":7022:7024   */\n      0x20\n        /* \"#utility.yul\":7011:7020   */\n      dup3\n        /* \"#utility.yul\":7007:7025   */\n      add\n        /* \"#utility.yul\":6999:7025   */\n      swap1\n      pop\n        /* \"#utility.yul\":7071:7080   */\n      dup2\n        /* \"#utility.yul\":7065:7069   */\n      dup2\n        /* \"#utility.yul\":7061:7081   */\n      sub\n        /* \"#utility.yul\":7057:7058   */\n      0x00\n        /* \"#utility.yul\":7046:7055   */\n      dup4\n        /* \"#utility.yul\":7042:7059   */\n      add\n        /* \"#utility.yul\":7035:7082   */\n      mstore\n        /* \"#utility.yul\":7099:7230   */\n      tag_174\n        /* \"#utility.yul\":7225:7229   */\n      dup2\n        /* \"#utility.yul\":7099:7230   */\n      tag_101\n      jump\t// in\n    tag_174:\n        /* \"#utility.yul\":7091:7230   */\n      swap1\n      pop\n        /* \"#utility.yul\":6818:7237   */\n      swap2\n      swap1\n      pop\n      jump\t// out\n        /* \"#utility.yul\":7243:7416   */\n    tag_102:\n        /* \"#utility.yul\":7383:7408   */\n      0x4e6f2066756e647320746f20646973747269627574652e000000000000000000\n        /* \"#utility.yul\":7379:7380   */\n      0x00\n        /* \"#utility.yul\":7371:7377   */\n      dup3\n        /* \"#utility.yul\":7367:7381   */\n      add\n        /* \"#utility.yul\":7360:7409   */\n      mstore\n        /* \"#utility.yul\":7243:7416   */\n      pop\n      jump\t// out\n        /* \"#utility.yul\":7422:7788   */\n    tag_103:\n        /* \"#utility.yul\":7564:7567   */\n      0x00\n        /* \"#utility.yul\":7585:7652   */\n      tag_177\n        /* \"#utility.yul\":7649:7651   */\n      0x17\n        /* \"#utility.yul\":7644:7647   */\n      dup4\n        /* \"#utility.yul\":7585:7652   */\n      tag_97\n      jump\t// in\n    tag_177:\n        /* \"#utility.yul\":7578:7652   */\n      swap2\n      pop\n        /* \"#utility.yul\":7661:7754   */\n      tag_178\n        /* \"#utility.yul\":7750:7753   */\n      dup3\n        /* \"#utility.yul\":7661:7754   */\n      tag_102\n      jump\t// in\n    tag_178:\n        /* \"#utility.yul\":7779:7781   */\n      0x20\n        /* \"#utility.yul\":7774:7777   */\n      dup3\n        /* \"#utility.yul\":7770:7782   */\n      add\n        /* \"#utility.yul\":7763:7782   */\n      swap1\n      pop\n        /* \"#utility.yul\":7422:7788   */\n      swap2\n      swap1\n      pop\n      jump\t// out\n        /* \"#utility.yul\":7794:8213   */\n    tag_62:\n        /* \"#utility.yul\":7960:7964   */\n      0x00\n        /* \"#utility.yul\":7998:8000   */\n      0x20\n        /* \"#utility.yul\":7987:7996   */\n      dup3\n        /* \"#utility.yul\":7983:8001   */\n      add\n        /* \"#utility.yul\":7975:8001   */\n      swap1\n      pop\n        /* \"#utility.yul\":8047:8056   */\n      dup2\n        /* \"#utility.yul\":8041:8045   */\n      dup2\n        /* \"#utility.yul\":8037:8057   */\n      sub\n        /* \"#utility.yul\":8033:8034   */\n      0x00\n        /* \"#utility.yul\":8022:8031   */\n      dup4\n        /* \"#utility.yul\":8018:8035   */\n      add\n        /* \"#utility.yul\":8011:8058   */\n      mstore\n        /* \"#utility.yul\":8075:8206   */\n      tag_180\n        /* \"#utility.yul\":8201:8205   */\n      dup2\n        /* \"#utility.yul\":8075:8206   */\n      tag_103\n      jump\t// in\n    tag_180:\n        /* \"#utility.yul\":8067:8206   */\n      swap1\n      pop\n        /* \"#utility.yul\":7794:8213   */\n      swap2\n      swap1\n      pop\n      jump\t// out\n        /* \"#utility.yul\":8219:8399   */\n    tag_68:\n        /* \"#utility.yul\":8267:8344   */\n      0x4e487b7100000000000000000000000000000000000000000000000000000000\n        /* \"#utility.yul\":8264:8265   */\n      0x00\n        /* \"#utility.yul\":8257:8345   */\n      mstore\n        /* \"#utility.yul\":8364:8368   */\n      0x32\n        /* \"#utility.yul\":8361:8362   */\n      0x04\n        /* \"#utility.yul\":8354:8369   */\n      mstore\n        /* \"#utility.yul\":8388:8392   */\n      0x24\n        /* \"#utility.yul\":8385:8386   */\n      0x00\n        /* \"#utility.yul\":8378:8393   */\n      revert\n\n    auxdata: 0xa2646970667358221220afb6d327cecf54358fc19df4a11fd8bc60939e3cab4fc7e0bc87da08070264ab64736f6c634300081a0033\n}\n",
				"bytecode": {
					"linkReferences": {},
					"object": "6080604052348015600e575f80fd5b50335f806101000a81548173ffffffffffffffffffffffffffffffffffffffff021916908373ffffffffffffffffffffffffffffffffffffffff160217905550610ad18061005b5f395ff3fe60806040526004361061006f575f3560e01c806368306e431161004d57806368306e43146100bb57806375b4306b146100f7578063d1bc76a114610121578063f851a4401461015d5761006f565b80631e1f1072146100735780634fbcd6d51461009b57806351a16967146100a5575b5f80fd5b34801561007e575f80fd5b5061009960048036038101906100949190610745565b610187565b005b6100a3610328565b005b3480156100b0575f80fd5b506100b96103b7565b005b3480156100c6575f80fd5b506100e160048036038101906100dc9190610783565b6105b6565b6040516100ee91906107bd565b60405180910390f35b348015610102575f80fd5b5061010b6105cb565b604051610118919061088d565b60405180910390f35b34801561012c575f80fd5b50610147600480360381019061014291906108ad565b610656565b60405161015491906108e7565b60405180910390f35b348015610168575f80fd5b50610171610691565b60405161017e91906108e7565b60405180910390f35b5f8054906101000a900473ffffffffffffffffffffffffffffffffffffffff1673ffffffffffffffffffffffffffffffffffffffff163373ffffffffffffffffffffffffffffffffffffffff1614610214576040517f08c379a000000000000000000000000000000000000000000000000000000000815260040161020b90610980565b60405180910390fd5b5f73ffffffffffffffffffffffffffffffffffffffff168273ffffffffffffffffffffffffffffffffffffffff1603610282576040517f08c379a0000000000000000000000000000000000000000000000000000000008152600401610279906109e8565b60405180910390fd5b600182908060018154018082558091505060019003905f5260205f20015f9091909190916101000a81548173ffffffffffffffffffffffffffffffffffffffff021916908373ffffffffffffffffffffffffffffffffffffffff1602179055508060025f8473ffffffffffffffffffffffffffffffffffffffff1673ffffffffffffffffffffffffffffffffffffffff1681526020019081526020015f20819055505050565b5f8054906101000a900473ffffffffffffffffffffffffffffffffffffffff1673ffffffffffffffffffffffffffffffffffffffff163373ffffffffffffffffffffffffffffffffffffffff16146103b5576040517f08c379a00000000000000000000000000000000000000000000000000000000081526004016103ac90610980565b60405180910390fd5b565b5f8054906101000a900473ffffffffffffffffffffffffffffffffffffffff1673ffffffffffffffffffffffffffffffffffffffff163373ffffffffffffffffffffffffffffffffffffffff1614610444576040517f08c379a000000000000000000000000000000000000000000000000000000000815260040161043b90610980565b60405180910390fd5b5f4711610486576040517f08c379a000000000000000000000000000000000000000000000000000000000815260040161047d90610a50565b60405180910390fd5b5f5b6001805490508110156105b3575f600182815481106104aa576104a9610a6e565b5b905f5260205f20015f9054906101000a900473ffffffffffffffffffffffffffffffffffffffff1690505f60025f8373ffffffffffffffffffffffffffffffffffffffff1673ffffffffffffffffffffffffffffffffffffffff1681526020019081526020015f205490505f8111156105a4578173ffffffffffffffffffffffffffffffffffffffff166108fc8290811502906040515f60405180830381858888f19350505050158015610560573d5f803e3d5ffd5b505f60025f8473ffffffffffffffffffffffffffffffffffffffff1673ffffffffffffffffffffffffffffffffffffffff1681526020019081526020015f20819055505b50508080600101915050610488565b50565b6002602052805f5260405f205f915090505481565b6060600180548060200260200160405190810160405280929190818152602001828054801561064c57602002820191905f5260205f20905b815f9054906101000a900473ffffffffffffffffffffffffffffffffffffffff1673ffffffffffffffffffffffffffffffffffffffff1681526020019060010190808311610603575b5050505050905090565b60018181548110610665575f80fd5b905f5260205f20015f915054906101000a900473ffffffffffffffffffffffffffffffffffffffff1681565b5f8054906101000a900473ffffffffffffffffffffffffffffffffffffffff1681565b5f80fd5b5f73ffffffffffffffffffffffffffffffffffffffff82169050919050565b5f6106e1826106b8565b9050919050565b6106f1816106d7565b81146106fb575f80fd5b50565b5f8135905061070c816106e8565b92915050565b5f819050919050565b61072481610712565b811461072e575f80fd5b50565b5f8135905061073f8161071b565b92915050565b5f806040838503121561075b5761075a6106b4565b5b5f610768858286016106fe565b925050602061077985828601610731565b9150509250929050565b5f60208284031215610798576107976106b4565b5b5f6107a5848285016106fe565b91505092915050565b6107b781610712565b82525050565b5f6020820190506107d05f8301846107ae565b92915050565b5f81519050919050565b5f82825260208201905092915050565b5f819050602082019050919050565b610808816106d7565b82525050565b5f61081983836107ff565b60208301905092915050565b5f602082019050919050565b5f61083b826107d6565b61084581856107e0565b9350610850836107f0565b805f5b83811015610880578151610867888261080e565b975061087283610825565b925050600181019050610853565b5085935050505092915050565b5f6020820190508181035f8301526108a58184610831565b905092915050565b5f602082840312156108c2576108c16106b4565b5b5f6108cf84828501610731565b91505092915050565b6108e1816106d7565b82525050565b5f6020820190506108fa5f8301846108d8565b92915050565b5f82825260208201905092915050565b7f4f6e6c792061646d696e2063616e20706572666f726d207468697320616374695f8201527f6f6e2e0000000000000000000000000000000000000000000000000000000000602082015250565b5f61096a602383610900565b915061097582610910565b604082019050919050565b5f6020820190508181035f8301526109978161095e565b9050919050565b7f496e76616c696420726563697069656e7420616464726573732e0000000000005f82015250565b5f6109d2601a83610900565b91506109dd8261099e565b602082019050919050565b5f6020820190508181035f8301526109ff816109c6565b9050919050565b7f4e6f2066756e647320746f20646973747269627574652e0000000000000000005f82015250565b5f610a3a601783610900565b9150610a4582610a06565b602082019050919050565b5f6020820190508181035f830152610a6781610a2e565b9050919050565b7f4e487b71000000000000000000000000000000000000000000000000000000005f52603260045260245ffdfea2646970667358221220afb6d327cecf54358fc19df4a11fd8bc60939e3cab4fc7e0bc87da08070264ab64736f6c634300081a0033",
					"opcodes": "PUSH1 0x80 PUSH1 0x40 MSTORE CALLVALUE DUP1 ISZERO PUSH1 0xE JUMPI PUSH0 DUP1 REVERT JUMPDEST POP CALLER PUSH0 DUP1 PUSH2 0x100 EXP DUP2 SLOAD DUP2 PUSH20 0xFFFFFFFFFFFFFFFFFFFFFFFFFFFFFFFFFFFFFFFF MUL NOT AND SWAP1 DUP4 PUSH20 0xFFFFFFFFFFFFFFFFFFFFFFFFFFFFFFFFFFFFFFFF AND MUL OR SWAP1 SSTORE POP PUSH2 0xAD1 DUP1 PUSH2 0x5B PUSH0 CODECOPY PUSH0 RETURN INVALID PUSH1 0x80 PUSH1 0x40 MSTORE PUSH1 0x4 CALLDATASIZE LT PUSH2 0x6F JUMPI PUSH0 CALLDATALOAD PUSH1 0xE0 SHR DUP1 PUSH4 0x68306E43 GT PUSH2 0x4D JUMPI DUP1 PUSH4 0x68306E43 EQ PUSH2 0xBB JUMPI DUP1 PUSH4 0x75B4306B EQ PUSH2 0xF7 JUMPI DUP1 PUSH4 0xD1BC76A1 EQ PUSH2 0x121 JUMPI DUP1 PUSH4 0xF851A440 EQ PUSH2 0x15D JUMPI PUSH2 0x6F JUMP JUMPDEST DUP1 PUSH4 0x1E1F1072 EQ PUSH2 0x73 JUMPI DUP1 PUSH4 0x4FBCD6D5 EQ PUSH2 0x9B JUMPI DUP1 PUSH4 0x51A16967 EQ PUSH2 0xA5 JUMPI JUMPDEST PUSH0 DUP1 REVERT JUMPDEST CALLVALUE DUP1 ISZERO PUSH2 0x7E JUMPI PUSH0 DUP1 REVERT JUMPDEST POP PUSH2 0x99 PUSH1 0x4 DUP1 CALLDATASIZE SUB DUP2 ADD SWAP1 PUSH2 0x94 SWAP2 SWAP1 PUSH2 0x745 JUMP JUMPDEST PUSH2 0x187 JUMP JUMPDEST STOP JUMPDEST PUSH2 0xA3 PUSH2 0x328 JUMP JUMPDEST STOP JUMPDEST CALLVALUE DUP1 ISZERO PUSH2 0xB0 JUMPI PUSH0 DUP1 REVERT JUMPDEST POP PUSH2 0xB9 PUSH2 0x3B7 JUMP JUMPDEST STOP JUMPDEST CALLVALUE DUP1 ISZERO PUSH2 0xC6 JUMPI PUSH0 DUP1 REVERT JUMPDEST POP PUSH2 0xE1 PUSH1 0x4 DUP1 CALLDATASIZE SUB DUP2 ADD SWAP1 PUSH2 0xDC SWAP2 SWAP1 PUSH2 0x783 JUMP JUMPDEST PUSH2 0x5B6 JUMP JUMPDEST PUSH1 0x40 MLOAD PUSH2 0xEE SWAP2 SWAP1 PUSH2 0x7BD JUMP JUMPDEST PUSH1 0x40 MLOAD DUP1 SWAP2 SUB SWAP1 RETURN JUMPDEST CALLVALUE DUP1 ISZERO PUSH2 0x102 JUMPI PUSH0 DUP1 REVERT JUMPDEST POP PUSH2 0x10B PUSH2 0x5CB JUMP JUMPDEST PUSH1 0x40 MLOAD PUSH2 0x118 SWAP2 SWAP1 PUSH2 0x88D JUMP JUMPDEST PUSH1 0x40 MLOAD DUP1 SWAP2 SUB SWAP1 RETURN JUMPDEST CALLVALUE DUP1 ISZERO PUSH2 0x12C JUMPI PUSH0 DUP1 REVERT JUMPDEST POP PUSH2 0x147 PUSH1 0x4 DUP1 CALLDATASIZE SUB DUP2 ADD SWAP1 PUSH2 0x142 SWAP2 SWAP1 PUSH2 0x8AD JUMP JUMPDEST PUSH2 0x656 JUMP JUMPDEST PUSH1 0x40 MLOAD PUSH2 0x154 SWAP2 SWAP1 PUSH2 0x8E7 JUMP JUMPDEST PUSH1 0x40 MLOAD DUP1 SWAP2 SUB SWAP1 RETURN JUMPDEST CALLVALUE DUP1 ISZERO PUSH2 0x168 JUMPI PUSH0 DUP1 REVERT JUMPDEST POP PUSH2 0x171 PUSH2 0x691 JUMP JUMPDEST PUSH1 0x40 MLOAD PUSH2 0x17E SWAP2 SWAP1 PUSH2 0x8E7 JUMP JUMPDEST PUSH1 0x40 MLOAD DUP1 SWAP2 SUB SWAP1 RETURN JUMPDEST PUSH0 DUP1 SLOAD SWAP1 PUSH2 0x100 EXP SWAP1 DIV PUSH20 0xFFFFFFFFFFFFFFFFFFFFFFFFFFFFFFFFFFFFFFFF AND PUSH20 0xFFFFFFFFFFFFFFFFFFFFFFFFFFFFFFFFFFFFFFFF AND CALLER PUSH20 0xFFFFFFFFFFFFFFFFFFFFFFFFFFFFFFFFFFFFFFFF AND EQ PUSH2 0x214 JUMPI PUSH1 0x40 MLOAD PUSH32 0x8C379A000000000000000000000000000000000000000000000000000000000 DUP2 MSTORE PUSH1 0x4 ADD PUSH2 0x20B SWAP1 PUSH2 0x980 JUMP JUMPDEST PUSH1 0x40 MLOAD DUP1 SWAP2 SUB SWAP1 REVERT JUMPDEST PUSH0 PUSH20 0xFFFFFFFFFFFFFFFFFFFFFFFFFFFFFFFFFFFFFFFF AND DUP3 PUSH20 0xFFFFFFFFFFFFFFFFFFFFFFFFFFFFFFFFFFFFFFFF AND SUB PUSH2 0x282 JUMPI PUSH1 0x40 MLOAD PUSH32 0x8C379A000000000000000000000000000000000000000000000000000000000 DUP2 MSTORE PUSH1 0x4 ADD PUSH2 0x279 SWAP1 PUSH2 0x9E8 JUMP JUMPDEST PUSH1 0x40 MLOAD DUP1 SWAP2 SUB SWAP1 REVERT JUMPDEST PUSH1 0x1 DUP3 SWAP1 DUP1 PUSH1 0x1 DUP2 SLOAD ADD DUP1 DUP3 SSTORE DUP1 SWAP2 POP POP PUSH1 0x1 SWAP1 SUB SWAP1 PUSH0 MSTORE PUSH1 0x20 PUSH0 KECCAK256 ADD PUSH0 SWAP1 SWAP2 SWAP1 SWAP2 SWAP1 SWAP2 PUSH2 0x100 EXP DUP2 SLOAD DUP2 PUSH20 0xFFFFFFFFFFFFFFFFFFFFFFFFFFFFFFFFFFFFFFFF MUL NOT AND SWAP1 DUP4 PUSH20 0xFFFFFFFFFFFFFFFFFFFFFFFFFFFFFFFFFFFFFFFF AND MUL OR SWAP1 SSTORE POP DUP1 PUSH1 0x2 PUSH0 DUP5 PUSH20 0xFFFFFFFFFFFFFFFFFFFFFFFFFFFFFFFFFFFFFFFF AND PUSH20 0xFFFFFFFFFFFFFFFFFFFFFFFFFFFFFFFFFFFFFFFF AND DUP2 MSTORE PUSH1 0x20 ADD SWAP1 DUP2 MSTORE PUSH1 0x20 ADD PUSH0 KECCAK256 DUP2 SWAP1 SSTORE POP POP POP JUMP JUMPDEST PUSH0 DUP1 SLOAD SWAP1 PUSH2 0x100 EXP SWAP1 DIV PUSH20 0xFFFFFFFFFFFFFFFFFFFFFFFFFFFFFFFFFFFFFFFF AND PUSH20 0xFFFFFFFFFFFFFFFFFFFFFFFFFFFFFFFFFFFFFFFF AND CALLER PUSH20 0xFFFFFFFFFFFFFFFFFFFFFFFFFFFFFFFFFFFFFFFF AND EQ PUSH2 0x3B5 JUMPI PUSH1 0x40 MLOAD PUSH32 0x8C379A000000000000000000000000000000000000000000000000000000000 DUP2 MSTORE PUSH1 0x4 ADD PUSH2 0x3AC SWAP1 PUSH2 0x980 JUMP JUMPDEST PUSH1 0x40 MLOAD DUP1 SWAP2 SUB SWAP1 REVERT JUMPDEST JUMP JUMPDEST PUSH0 DUP1 SLOAD SWAP1 PUSH2 0x100 EXP SWAP1 DIV PUSH20 0xFFFFFFFFFFFFFFFFFFFFFFFFFFFFFFFFFFFFFFFF AND PUSH20 0xFFFFFFFFFFFFFFFFFFFFFFFFFFFFFFFFFFFFFFFF AND CALLER PUSH20 0xFFFFFFFFFFFFFFFFFFFFFFFFFFFFFFFFFFFFFFFF AND EQ PUSH2 0x444 JUMPI PUSH1 0x40 MLOAD PUSH32 0x8C379A000000000000000000000000000000000000000000000000000000000 DUP2 MSTORE PUSH1 0x4 ADD PUSH2 0x43B SWAP1 PUSH2 0x980 JUMP JUMPDEST PUSH1 0x40 MLOAD DUP1 SWAP2 SUB SWAP1 REVERT JUMPDEST PUSH0 SELFBALANCE GT PUSH2 0x486 JUMPI PUSH1 0x40 MLOAD PUSH32 0x8C379A000000000000000000000000000000000000000000000000000000000 DUP2 MSTORE PUSH1 0x4 ADD PUSH2 0x47D SWAP1 PUSH2 0xA50 JUMP JUMPDEST PUSH1 0x40 MLOAD DUP1 SWAP2 SUB SWAP1 REVERT JUMPDEST PUSH0 JUMPDEST PUSH1 0x1 DUP1 SLOAD SWAP1 POP DUP2 LT ISZERO PUSH2 0x5B3 JUMPI PUSH0 PUSH1 0x1 DUP3 DUP2 SLOAD DUP2 LT PUSH2 0x4AA JUMPI PUSH2 0x4A9 PUSH2 0xA6E JUMP JUMPDEST JUMPDEST SWAP1 PUSH0 MSTORE PUSH1 0x20 PUSH0 KECCAK256 ADD PUSH0 SWAP1 SLOAD SWAP1 PUSH2 0x100 EXP SWAP1 DIV PUSH20 0xFFFFFFFFFFFFFFFFFFFFFFFFFFFFFFFFFFFFFFFF AND SWAP1 POP PUSH0 PUSH1 0x2 PUSH0 DUP4 PUSH20 0xFFFFFFFFFFFFFFFFFFFFFFFFFFFFFFFFFFFFFFFF AND PUSH20 0xFFFFFFFFFFFFFFFFFFFFFFFFFFFFFFFFFFFFFFFF AND DUP2 MSTORE PUSH1 0x20 ADD SWAP1 DUP2 MSTORE PUSH1 0x20 ADD PUSH0 KECCAK256 SLOAD SWAP1 POP PUSH0 DUP2 GT ISZERO PUSH2 0x5A4 JUMPI DUP2 PUSH20 0xFFFFFFFFFFFFFFFFFFFFFFFFFFFFFFFFFFFFFFFF AND PUSH2 0x8FC DUP3 SWAP1 DUP2 ISZERO MUL SWAP1 PUSH1 0x40 MLOAD PUSH0 PUSH1 0x40 MLOAD DUP1 DUP4 SUB DUP2 DUP6 DUP9 DUP9 CALL SWAP4 POP POP POP POP ISZERO DUP1 ISZERO PUSH2 0x560 JUMPI RETURNDATASIZE PUSH0 DUP1 RETURNDATACOPY RETURNDATASIZE PUSH0 REVERT JUMPDEST POP PUSH0 PUSH1 0x2 PUSH0 DUP5 PUSH20 0xFFFFFFFFFFFFFFFFFFFFFFFFFFFFFFFFFFFFFFFF AND PUSH20 0xFFFFFFFFFFFFFFFFFFFFFFFFFFFFFFFFFFFFFFFF AND DUP2 MSTORE PUSH1 0x20 ADD SWAP1 DUP2 MSTORE PUSH1 0x20 ADD PUSH0 KECCAK256 DUP2 SWAP1 SSTORE POP JUMPDEST POP POP DUP1 DUP1 PUSH1 0x1 ADD SWAP2 POP POP PUSH2 0x488 JUMP JUMPDEST POP JUMP JUMPDEST PUSH1 0x2 PUSH1 0x20 MSTORE DUP1 PUSH0 MSTORE PUSH1 0x40 PUSH0 KECCAK256 PUSH0 SWAP2 POP SWAP1 POP SLOAD DUP2 JUMP JUMPDEST PUSH1 0x60 PUSH1 0x1 DUP1 SLOAD DUP1 PUSH1 0x20 MUL PUSH1 0x20 ADD PUSH1 0x40 MLOAD SWAP1 DUP2 ADD PUSH1 0x40 MSTORE DUP1 SWAP3 SWAP2 SWAP1 DUP2 DUP2 MSTORE PUSH1 0x20 ADD DUP3 DUP1 SLOAD DUP1 ISZERO PUSH2 0x64C JUMPI PUSH1 0x20 MUL DUP3 ADD SWAP2 SWAP1 PUSH0 MSTORE PUSH1 0x20 PUSH0 KECCAK256 SWAP1 JUMPDEST DUP2 PUSH0 SWAP1 SLOAD SWAP1 PUSH2 0x100 EXP SWAP1 DIV PUSH20 0xFFFFFFFFFFFFFFFFFFFFFFFFFFFFFFFFFFFFFFFF AND PUSH20 0xFFFFFFFFFFFFFFFFFFFFFFFFFFFFFFFFFFFFFFFF AND DUP2 MSTORE PUSH1 0x20 ADD SWAP1 PUSH1 0x1 ADD SWAP1 DUP1 DUP4 GT PUSH2 0x603 JUMPI JUMPDEST POP POP POP POP POP SWAP1 POP SWAP1 JUMP JUMPDEST PUSH1 0x1 DUP2 DUP2 SLOAD DUP2 LT PUSH2 0x665 JUMPI PUSH0 DUP1 REVERT JUMPDEST SWAP1 PUSH0 MSTORE PUSH1 0x20 PUSH0 KECCAK256 ADD PUSH0 SWAP2 POP SLOAD SWAP1 PUSH2 0x100 EXP SWAP1 DIV PUSH20 0xFFFFFFFFFFFFFFFFFFFFFFFFFFFFFFFFFFFFFFFF AND DUP2 JUMP JUMPDEST PUSH0 DUP1 SLOAD SWAP1 PUSH2 0x100 EXP SWAP1 DIV PUSH20 0xFFFFFFFFFFFFFFFFFFFFFFFFFFFFFFFFFFFFFFFF AND DUP2 JUMP JUMPDEST PUSH0 DUP1 REVERT JUMPDEST PUSH0 PUSH20 0xFFFFFFFFFFFFFFFFFFFFFFFFFFFFFFFFFFFFFFFF DUP3 AND SWAP1 POP SWAP2 SWAP1 POP JUMP JUMPDEST PUSH0 PUSH2 0x6E1 DUP3 PUSH2 0x6B8 JUMP JUMPDEST SWAP1 POP SWAP2 SWAP1 POP JUMP JUMPDEST PUSH2 0x6F1 DUP2 PUSH2 0x6D7 JUMP JUMPDEST DUP2 EQ PUSH2 0x6FB JUMPI PUSH0 DUP1 REVERT JUMPDEST POP JUMP JUMPDEST PUSH0 DUP2 CALLDATALOAD SWAP1 POP PUSH2 0x70C DUP2 PUSH2 0x6E8 JUMP JUMPDEST SWAP3 SWAP2 POP POP JUMP JUMPDEST PUSH0 DUP2 SWAP1 POP SWAP2 SWAP1 POP JUMP JUMPDEST PUSH2 0x724 DUP2 PUSH2 0x712 JUMP JUMPDEST DUP2 EQ PUSH2 0x72E JUMPI PUSH0 DUP1 REVERT JUMPDEST POP JUMP JUMPDEST PUSH0 DUP2 CALLDATALOAD SWAP1 POP PUSH2 0x73F DUP2 PUSH2 0x71B JUMP JUMPDEST SWAP3 SWAP2 POP POP JUMP JUMPDEST PUSH0 DUP1 PUSH1 0x40 DUP4 DUP6 SUB SLT ISZERO PUSH2 0x75B JUMPI PUSH2 0x75A PUSH2 0x6B4 JUMP JUMPDEST JUMPDEST PUSH0 PUSH2 0x768 DUP6 DUP3 DUP7 ADD PUSH2 0x6FE JUMP JUMPDEST SWAP3 POP POP PUSH1 0x20 PUSH2 0x779 DUP6 DUP3 DUP7 ADD PUSH2 0x731 JUMP JUMPDEST SWAP2 POP POP SWAP3 POP SWAP3 SWAP1 POP JUMP JUMPDEST PUSH0 PUSH1 0x20 DUP3 DUP5 SUB SLT ISZERO PUSH2 0x798 JUMPI PUSH2 0x797 PUSH2 0x6B4 JUMP JUMPDEST JUMPDEST PUSH0 PUSH2 0x7A5 DUP5 DUP3 DUP6 ADD PUSH2 0x6FE JUMP JUMPDEST SWAP2 POP POP SWAP3 SWAP2 POP POP JUMP JUMPDEST PUSH2 0x7B7 DUP2 PUSH2 0x712 JUMP JUMPDEST DUP3 MSTORE POP POP JUMP JUMPDEST PUSH0 PUSH1 0x20 DUP3 ADD SWAP1 POP PUSH2 0x7D0 PUSH0 DUP4 ADD DUP5 PUSH2 0x7AE JUMP JUMPDEST SWAP3 SWAP2 POP POP JUMP JUMPDEST PUSH0 DUP2 MLOAD SWAP1 POP SWAP2 SWAP1 POP JUMP JUMPDEST PUSH0 DUP3 DUP3 MSTORE PUSH1 0x20 DUP3 ADD SWAP1 POP SWAP3 SWAP2 POP POP JUMP JUMPDEST PUSH0 DUP2 SWAP1 POP PUSH1 0x20 DUP3 ADD SWAP1 POP SWAP2 SWAP1 POP JUMP JUMPDEST PUSH2 0x808 DUP2 PUSH2 0x6D7 JUMP JUMPDEST DUP3 MSTORE POP POP JUMP JUMPDEST PUSH0 PUSH2 0x819 DUP4 DUP4 PUSH2 0x7FF JUMP JUMPDEST PUSH1 0x20 DUP4 ADD SWAP1 POP SWAP3 SWAP2 POP POP JUMP JUMPDEST PUSH0 PUSH1 0x20 DUP3 ADD SWAP1 POP SWAP2 SWAP1 POP JUMP JUMPDEST PUSH0 PUSH2 0x83B DUP3 PUSH2 0x7D6 JUMP JUMPDEST PUSH2 0x845 DUP2 DUP6 PUSH2 0x7E0 JUMP JUMPDEST SWAP4 POP PUSH2 0x850 DUP4 PUSH2 0x7F0 JUMP JUMPDEST DUP1 PUSH0 JUMPDEST DUP4 DUP2 LT ISZERO PUSH2 0x880 JUMPI DUP2 MLOAD PUSH2 0x867 DUP9 DUP3 PUSH2 0x80E JUMP JUMPDEST SWAP8 POP PUSH2 0x872 DUP4 PUSH2 0x825 JUMP JUMPDEST SWAP3 POP POP PUSH1 0x1 DUP2 ADD SWAP1 POP PUSH2 0x853 JUMP JUMPDEST POP DUP6 SWAP4 POP POP POP POP SWAP3 SWAP2 POP POP JUMP JUMPDEST PUSH0 PUSH1 0x20 DUP3 ADD SWAP1 POP DUP2 DUP2 SUB PUSH0 DUP4 ADD MSTORE PUSH2 0x8A5 DUP2 DUP5 PUSH2 0x831 JUMP JUMPDEST SWAP1 POP SWAP3 SWAP2 POP POP JUMP JUMPDEST PUSH0 PUSH1 0x20 DUP3 DUP5 SUB SLT ISZERO PUSH2 0x8C2 JUMPI PUSH2 0x8C1 PUSH2 0x6B4 JUMP JUMPDEST JUMPDEST PUSH0 PUSH2 0x8CF DUP5 DUP3 DUP6 ADD PUSH2 0x731 JUMP JUMPDEST SWAP2 POP POP SWAP3 SWAP2 POP POP JUMP JUMPDEST PUSH2 0x8E1 DUP2 PUSH2 0x6D7 JUMP JUMPDEST DUP3 MSTORE POP POP JUMP JUMPDEST PUSH0 PUSH1 0x20 DUP3 ADD SWAP1 POP PUSH2 0x8FA PUSH0 DUP4 ADD DUP5 PUSH2 0x8D8 JUMP JUMPDEST SWAP3 SWAP2 POP POP JUMP JUMPDEST PUSH0 DUP3 DUP3 MSTORE PUSH1 0x20 DUP3 ADD SWAP1 POP SWAP3 SWAP2 POP POP JUMP JUMPDEST PUSH32 0x4F6E6C792061646D696E2063616E20706572666F726D20746869732061637469 PUSH0 DUP3 ADD MSTORE PUSH32 0x6F6E2E0000000000000000000000000000000000000000000000000000000000 PUSH1 0x20 DUP3 ADD MSTORE POP JUMP JUMPDEST PUSH0 PUSH2 0x96A PUSH1 0x23 DUP4 PUSH2 0x900 JUMP JUMPDEST SWAP2 POP PUSH2 0x975 DUP3 PUSH2 0x910 JUMP JUMPDEST PUSH1 0x40 DUP3 ADD SWAP1 POP SWAP2 SWAP1 POP JUMP JUMPDEST PUSH0 PUSH1 0x20 DUP3 ADD SWAP1 POP DUP2 DUP2 SUB PUSH0 DUP4 ADD MSTORE PUSH2 0x997 DUP2 PUSH2 0x95E JUMP JUMPDEST SWAP1 POP SWAP2 SWAP1 POP JUMP JUMPDEST PUSH32 0x496E76616C696420726563697069656E7420616464726573732E000000000000 PUSH0 DUP3 ADD MSTORE POP JUMP JUMPDEST PUSH0 PUSH2 0x9D2 PUSH1 0x1A DUP4 PUSH2 0x900 JUMP JUMPDEST SWAP2 POP PUSH2 0x9DD DUP3 PUSH2 0x99E JUMP JUMPDEST PUSH1 0x20 DUP3 ADD SWAP1 POP SWAP2 SWAP1 POP JUMP JUMPDEST PUSH0 PUSH1 0x20 DUP3 ADD SWAP1 POP DUP2 DUP2 SUB PUSH0 DUP4 ADD MSTORE PUSH2 0x9FF DUP2 PUSH2 0x9C6 JUMP JUMPDEST SWAP1 POP SWAP2 SWAP1 POP JUMP JUMPDEST PUSH32 0x4E6F2066756E647320746F20646973747269627574652E000000000000000000 PUSH0 DUP3 ADD MSTORE POP JUMP JUMPDEST PUSH0 PUSH2 0xA3A PUSH1 0x17 DUP4 PUSH2 0x900 JUMP JUMPDEST SWAP2 POP PUSH2 0xA45 DUP3 PUSH2 0xA06 JUMP JUMPDEST PUSH1 0x20 DUP3 ADD SWAP1 POP SWAP2 SWAP1 POP JUMP JUMPDEST PUSH0 PUSH1 0x20 DUP3 ADD SWAP1 POP DUP2 DUP2 SUB PUSH0 DUP4 ADD MSTORE PUSH2 0xA67 DUP2 PUSH2 0xA2E JUMP JUMPDEST SWAP1 POP SWAP2 SWAP1 POP JUMP JUMPDEST PUSH32 0x4E487B7100000000000000000000000000000000000000000000000000000000 PUSH0 MSTORE PUSH1 0x32 PUSH1 0x4 MSTORE PUSH1 0x24 PUSH0 REVERT INVALID LOG2 PUSH5 0x6970667358 0x22 SLT KECCAK256 0xAF 0xB6 0xD3 0x27 0xCE 0xCF SLOAD CALLDATALOAD DUP16 0xC1 SWAP14 DELEGATECALL LOG1 0x1F 0xD8 0xBC PUSH1 0x93 SWAP15 EXTCODECOPY 0xAB 0x4F 0xC7 0xE0 0xBC DUP8 0xDA ADDMOD SMOD MUL PUSH5 0xAB64736F6C PUSH4 0x4300081A STOP CALLER "
				},
				"gasEstimates": {
					"creation": {
						"codeDepositCost": "553800",
						"executionCost": "24850",
						"totalCost": "578650"
					},
					"external": {
						"AddRecipient(address,uint256)": "73599",
						"DepositFunds()": "2610",
						"DistributeDividends()": "infinite",
						"GetRecipients()": "infinite",
						"admin()": "2571",
						"dividends(address)": "2802",
						"recipients(uint256)": "4988"
					}
				},
				"methodIdentifiers": {
					"AddRecipient(address,uint256)": "1e1f1072",
					"DepositFunds()": "4fbcd6d5",
					"DistributeDividends()": "51a16967",
					"GetRecipients()": "75b4306b",
					"admin()": "f851a440",
					"dividends(address)": "68306e43",
					"recipients(uint256)": "d1bc76a1"
				}
			},
			"storageLayout": {
				"storage": [
					{
						"astId": 3,
						"contract": "contracts/Dividend_NotSecure.sol:DividendDistributor",
						"label": "admin",
						"offset": 0,
						"slot": "0",
						"type": "t_address"
					},
					{
						"astId": 6,
						"contract": "contracts/Dividend_NotSecure.sol:DividendDistributor",
						"label": "recipients",
						"offset": 0,
						"slot": "1",
						"type": "t_array(t_address)dyn_storage"
					},
					{
						"astId": 10,
						"contract": "contracts/Dividend_NotSecure.sol:DividendDistributor",
						"label": "dividends",
						"offset": 0,
						"slot": "2",
						"type": "t_mapping(t_address,t_uint256)"
					}
				],
				"types": {
					"t_address": {
						"encoding": "inplace",
						"label": "address",
						"numberOfBytes": "20"
					},
					"t_array(t_address)dyn_storage": {
						"base": "t_address",
						"encoding": "dynamic_array",
						"label": "address[]",
						"numberOfBytes": "32"
					},
					"t_mapping(t_address,t_uint256)": {
						"encoding": "mapping",
						"key": "t_address",
						"label": "mapping(address => uint256)",
						"numberOfBytes": "32",
						"value": "t_uint256"
					},
					"t_uint256": {
						"encoding": "inplace",
						"label": "uint256",
						"numberOfBytes": "32"
					}
				}
			},
			"userdoc": {
				"kind": "user",
				"methods": {},
				"version": 1
			}
		}
	}
}