{
	"data": {
		"bytecode": {
			"linkReferences": {},
			"object": "6080604052348015600e575f80fd5b50335f806101000a81548173ffffffffffffffffffffffffffffffffffffffff021916908373ffffffffffffffffffffffffffffffffffffffff1602179055506111408061005b5f395ff3fe60806040526004361061009b575f3560e01c806368306e431161006357806368306e431461013757806375b4306b14610173578063a32df10c1461019d578063d1bc76a1146101d9578063f851a44014610215578063fdda918e1461023f5761009b565b8063065d8d3d1461009f5780631af8b015146100c75780631e1f1072146100dd5780634ecd73e2146101055780634fbcd6d51461012d575b5f80fd5b3480156100aa575f80fd5b506100c560048036038101906100c09190610c3f565b610269565b005b3480156100d2575f80fd5b506100db610518565b005b3480156100e8575f80fd5b5061010360048036038101906100fe9190610cc4565b6105ae565b005b348015610110575f80fd5b5061012b60048036038101906101269190610c3f565b61074f565b005b610135610a58565b005b348015610142575f80fd5b5061015d60048036038101906101589190610d02565b610ae7565b60405161016a9190610d3c565b60405180910390f35b34801561017e575f80fd5b50610187610afc565b6040516101949190610e0c565b60405180910390f35b3480156101a8575f80fd5b506101c360048036038101906101be9190610d02565b610b87565b6040516101d09190610e46565b60405180910390f35b3480156101e4575f80fd5b506101ff60048036038101906101fa9190610c3f565b610ba4565b60405161020c9190610e6e565b60405180910390f35b348015610220575f80fd5b50610229610bdf565b6040516102369190610e6e565b60405180910390f35b34801561024a575f80fd5b50610253610c02565b6040516102609190610d3c565b60405180910390f35b5f8054906101000a900473ffffffffffffffffffffffffffffffffffffffff1673ffffffffffffffffffffffffffffffffffffffff163373ffffffffffffffffffffffffffffffffffffffff16146102f6576040517f08c379a00000000000000000000000000000000000000000000000000000000081526004016102ed90610f07565b60405180910390fd5b5f805b6001805490508110801561030c57508282105b15610513575f6001828154811061032657610325610f25565b5b905f5260205f20015f9054906101000a900473ffffffffffffffffffffffffffffffffffffffff16905060045f8273ffffffffffffffffffffffffffffffffffffffff1673ffffffffffffffffffffffffffffffffffffffff1681526020019081526020015f205f9054906101000a900460ff16156104ff575f60025f8373ffffffffffffffffffffffffffffffffffffffff1673ffffffffffffffffffffffffffffffffffffffff1681526020019081526020015f205490505f8111156104ef575f8273ffffffffffffffffffffffffffffffffffffffff168260405161040d90610f7f565b5f6040518083038185875af1925050503d805f8114610447576040519150601f19603f3d011682016040523d82523d5f602084013e61044c565b606091505b5050905080156104ed575f60025f8573ffffffffffffffffffffffffffffffffffffffff1673ffffffffffffffffffffffffffffffffffffffff1681526020019081526020015f20819055505f60045f8573ffffffffffffffffffffffffffffffffffffffff1673ffffffffffffffffffffffffffffffffffffffff1681526020019081526020015f205f6101000a81548160ff0219169083151502179055505b505b83806104fa90610fc0565b945050505b50808061050b90610fc0565b9150506102f9565b505050565b5f8054906101000a900473ffffffffffffffffffffffffffffffffffffffff1673ffffffffffffffffffffffffffffffffffffffff163373ffffffffffffffffffffffffffffffffffffffff16146105a5576040517f08c379a000000000000000000000000000000000000000000000000000000000815260040161059c90610f07565b60405180910390fd5b5f600381905550565b5f8054906101000a900473ffffffffffffffffffffffffffffffffffffffff1673ffffffffffffffffffffffffffffffffffffffff163373ffffffffffffffffffffffffffffffffffffffff161461063b576040517f08c379a000000000000000000000000000000000000000000000000000000000815260040161063290610f07565b60405180910390fd5b5f73ffffffffffffffffffffffffffffffffffffffff168273ffffffffffffffffffffffffffffffffffffffff16036106a9576040517f08c379a00000000000000000000000000000000000000000000000000000000081526004016106a090611051565b60405180910390fd5b600182908060018154018082558091505060019003905f5260205f20015f9091909190916101000a81548173ffffffffffffffffffffffffffffffffffffffff021916908373ffffffffffffffffffffffffffffffffffffffff1602179055508060025f8473ffffffffffffffffffffffffffffffffffffffff1673ffffffffffffffffffffffffffffffffffffffff1681526020019081526020015f20819055505050565b5f8054906101000a900473ffffffffffffffffffffffffffffffffffffffff1673ffffffffffffffffffffffffffffffffffffffff163373ffffffffffffffffffffffffffffffffffffffff16146107dc576040517f08c379a00000000000000000000000000000000000000000000000000000000081526004016107d390610f07565b60405180910390fd5b5f471161081e576040517f08c379a0000000000000000000000000000000000000000000000000000000008152600401610815906110b9565b60405180910390fd5b5f8160035461082d91906110d7565b90506001805490508111156108455760018054905090505b5f60035490505b81811015610a4c575f6001828154811061086957610868610f25565b5b905f5260205f20015f9054906101000a900473ffffffffffffffffffffffffffffffffffffffff1690505f60025f8373ffffffffffffffffffffffffffffffffffffffff1673ffffffffffffffffffffffffffffffffffffffff1681526020019081526020015f205490505f811115610a3d575f8273ffffffffffffffffffffffffffffffffffffffff168260405161090190610f7f565b5f6040518083038185875af1925050503d805f811461093b576040519150601f19603f3d011682016040523d82523d5f602084013e610940565b606091505b5050905080156109e5575f60025f8573ffffffffffffffffffffffffffffffffffffffff1673ffffffffffffffffffffffffffffffffffffffff1681526020019081526020015f20819055505f60045f8573ffffffffffffffffffffffffffffffffffffffff1673ffffffffffffffffffffffffffffffffffffffff1681526020019081526020015f205f6101000a81548160ff021916908315150217905550610a3b565b600160045f8573ffffffffffffffffffffffffffffffffffffffff1673ffffffffffffffffffffffffffffffffffffffff1681526020019081526020015f205f6101000a81548160ff0219169083151502179055505b505b5050808060010191505061084c565b50806003819055505050565b5f8054906101000a900473ffffffffffffffffffffffffffffffffffffffff1673ffffffffffffffffffffffffffffffffffffffff163373ffffffffffffffffffffffffffffffffffffffff1614610ae5576040517f08c379a0000000000000000000000000000000000000000000000000000000008152600401610adc90610f07565b60405180910390fd5b565b6002602052805f5260405f205f915090505481565b60606001805480602002602001604051908101604052809291908181526020018280548015610b7d57602002820191905f5260205f20905b815f9054906101000a900473ffffffffffffffffffffffffffffffffffffffff1673ffffffffffffffffffffffffffffffffffffffff1681526020019060010190808311610b34575b5050505050905090565b6004602052805f5260405f205f915054906101000a900460ff1681565b60018181548110610bb3575f80fd5b905f5260205f20015f915054906101000a900473ffffffffffffffffffffffffffffffffffffffff1681565b5f8054906101000a900473ffffffffffffffffffffffffffffffffffffffff1681565b60035481565b5f80fd5b5f819050919050565b610c1e81610c0c565b8114610c28575f80fd5b50565b5f81359050610c3981610c15565b92915050565b5f60208284031215610c5457610c53610c08565b5b5f610c6184828501610c2b565b91505092915050565b5f73ffffffffffffffffffffffffffffffffffffffff82169050919050565b5f610c9382610c6a565b9050919050565b610ca381610c89565b8114610cad575f80fd5b50565b5f81359050610cbe81610c9a565b92915050565b5f8060408385031215610cda57610cd9610c08565b5b5f610ce785828601610cb0565b9250506020610cf885828601610c2b565b9150509250929050565b5f60208284031215610d1757610d16610c08565b5b5f610d2484828501610cb0565b91505092915050565b610d3681610c0c565b82525050565b5f602082019050610d4f5f830184610d2d565b92915050565b5f81519050919050565b5f82825260208201905092915050565b5f819050602082019050919050565b610d8781610c89565b82525050565b5f610d988383610d7e565b60208301905092915050565b5f602082019050919050565b5f610dba82610d55565b610dc48185610d5f565b9350610dcf83610d6f565b805f5b83811015610dff578151610de68882610d8d565b9750610df183610da4565b925050600181019050610dd2565b5085935050505092915050565b5f6020820190508181035f830152610e248184610db0565b905092915050565b5f8115159050919050565b610e4081610e2c565b82525050565b5f602082019050610e595f830184610e37565b92915050565b610e6881610c89565b82525050565b5f602082019050610e815f830184610e5f565b92915050565b5f82825260208201905092915050565b7f4f6e6c792061646d696e2063616e20706572666f726d207468697320616374695f8201527f6f6e2e0000000000000000000000000000000000000000000000000000000000602082015250565b5f610ef1602383610e87565b9150610efc82610e97565b604082019050919050565b5f6020820190508181035f830152610f1e81610ee5565b9050919050565b7f4e487b71000000000000000000000000000000000000000000000000000000005f52603260045260245ffd5b5f81905092915050565b50565b5f610f6a5f83610f52565b9150610f7582610f5c565b5f82019050919050565b5f610f8982610f5f565b9150819050919050565b7f4e487b71000000000000000000000000000000000000000000000000000000005f52601160045260245ffd5b5f610fca82610c0c565b91507fffffffffffffffffffffffffffffffffffffffffffffffffffffffffffffffff8203610ffc57610ffb610f93565b5b600182019050919050565b7f496e76616c696420726563697069656e7420616464726573732e0000000000005f82015250565b5f61103b601a83610e87565b915061104682611007565b602082019050919050565b5f6020820190508181035f8301526110688161102f565b9050919050565b7f4e6f2066756e647320746f20646973747269627574652e0000000000000000005f82015250565b5f6110a3601783610e87565b91506110ae8261106f565b602082019050919050565b5f6020820190508181035f8301526110d081611097565b9050919050565b5f6110e182610c0c565b91506110ec83610c0c565b925082820190508082111561110457611103610f93565b5b9291505056fea2646970667358221220461debfa6869d30047706dc0d2585450b2586b8e12d27ac13201c871bf2d228464736f6c634300081a0033",
			"opcodes": "PUSH1 0x80 PUSH1 0x40 MSTORE CALLVALUE DUP1 ISZERO PUSH1 0xE JUMPI PUSH0 DUP1 REVERT JUMPDEST POP CALLER PUSH0 DUP1 PUSH2 0x100 EXP DUP2 SLOAD DUP2 PUSH20 0xFFFFFFFFFFFFFFFFFFFFFFFFFFFFFFFFFFFFFFFF MUL NOT AND SWAP1 DUP4 PUSH20 0xFFFFFFFFFFFFFFFFFFFFFFFFFFFFFFFFFFFFFFFF AND MUL OR SWAP1 SSTORE POP PUSH2 0x1140 DUP1 PUSH2 0x5B PUSH0 CODECOPY PUSH0 RETURN INVALID PUSH1 0x80 PUSH1 0x40 MSTORE PUSH1 0x4 CALLDATASIZE LT PUSH2 0x9B JUMPI PUSH0 CALLDATALOAD PUSH1 0xE0 SHR DUP1 PUSH4 0x68306E43 GT PUSH2 0x63 JUMPI DUP1 PUSH4 0x68306E43 EQ PUSH2 0x137 JUMPI DUP1 PUSH4 0x75B4306B EQ PUSH2 0x173 JUMPI DUP1 PUSH4 0xA32DF10C EQ PUSH2 0x19D JUMPI DUP1 PUSH4 0xD1BC76A1 EQ PUSH2 0x1D9 JUMPI DUP1 PUSH4 0xF851A440 EQ PUSH2 0x215 JUMPI DUP1 PUSH4 0xFDDA918E EQ PUSH2 0x23F JUMPI PUSH2 0x9B JUMP JUMPDEST DUP1 PUSH4 0x65D8D3D EQ PUSH2 0x9F JUMPI DUP1 PUSH4 0x1AF8B015 EQ PUSH2 0xC7 JUMPI DUP1 PUSH4 0x1E1F1072 EQ PUSH2 0xDD JUMPI DUP1 PUSH4 0x4ECD73E2 EQ PUSH2 0x105 JUMPI DUP1 PUSH4 0x4FBCD6D5 EQ PUSH2 0x12D JUMPI JUMPDEST PUSH0 DUP1 REVERT JUMPDEST CALLVALUE DUP1 ISZERO PUSH2 0xAA JUMPI PUSH0 DUP1 REVERT JUMPDEST POP PUSH2 0xC5 PUSH1 0x4 DUP1 CALLDATASIZE SUB DUP2 ADD SWAP1 PUSH2 0xC0 SWAP2 SWAP1 PUSH2 0xC3F JUMP JUMPDEST PUSH2 0x269 JUMP JUMPDEST STOP JUMPDEST CALLVALUE DUP1 ISZERO PUSH2 0xD2 JUMPI PUSH0 DUP1 REVERT JUMPDEST POP PUSH2 0xDB PUSH2 0x518 JUMP JUMPDEST STOP JUMPDEST CALLVALUE DUP1 ISZERO PUSH2 0xE8 JUMPI PUSH0 DUP1 REVERT JUMPDEST POP PUSH2 0x103 PUSH1 0x4 DUP1 CALLDATASIZE SUB DUP2 ADD SWAP1 PUSH2 0xFE SWAP2 SWAP1 PUSH2 0xCC4 JUMP JUMPDEST PUSH2 0x5AE JUMP JUMPDEST STOP JUMPDEST CALLVALUE DUP1 ISZERO PUSH2 0x110 JUMPI PUSH0 DUP1 REVERT JUMPDEST POP PUSH2 0x12B PUSH1 0x4 DUP1 CALLDATASIZE SUB DUP2 ADD SWAP1 PUSH2 0x126 SWAP2 SWAP1 PUSH2 0xC3F JUMP JUMPDEST PUSH2 0x74F JUMP JUMPDEST STOP JUMPDEST PUSH2 0x135 PUSH2 0xA58 JUMP JUMPDEST STOP JUMPDEST CALLVALUE DUP1 ISZERO PUSH2 0x142 JUMPI PUSH0 DUP1 REVERT JUMPDEST POP PUSH2 0x15D PUSH1 0x4 DUP1 CALLDATASIZE SUB DUP2 ADD SWAP1 PUSH2 0x158 SWAP2 SWAP1 PUSH2 0xD02 JUMP JUMPDEST PUSH2 0xAE7 JUMP JUMPDEST PUSH1 0x40 MLOAD PUSH2 0x16A SWAP2 SWAP1 PUSH2 0xD3C JUMP JUMPDEST PUSH1 0x40 MLOAD DUP1 SWAP2 SUB SWAP1 RETURN JUMPDEST CALLVALUE DUP1 ISZERO PUSH2 0x17E JUMPI PUSH0 DUP1 REVERT JUMPDEST POP PUSH2 0x187 PUSH2 0xAFC JUMP JUMPDEST PUSH1 0x40 MLOAD PUSH2 0x194 SWAP2 SWAP1 PUSH2 0xE0C JUMP JUMPDEST PUSH1 0x40 MLOAD DUP1 SWAP2 SUB SWAP1 RETURN JUMPDEST CALLVALUE DUP1 ISZERO PUSH2 0x1A8 JUMPI PUSH0 DUP1 REVERT JUMPDEST POP PUSH2 0x1C3 PUSH1 0x4 DUP1 CALLDATASIZE SUB DUP2 ADD SWAP1 PUSH2 0x1BE SWAP2 SWAP1 PUSH2 0xD02 JUMP JUMPDEST PUSH2 0xB87 JUMP JUMPDEST PUSH1 0x40 MLOAD PUSH2 0x1D0 SWAP2 SWAP1 PUSH2 0xE46 JUMP JUMPDEST PUSH1 0x40 MLOAD DUP1 SWAP2 SUB SWAP1 RETURN JUMPDEST CALLVALUE DUP1 ISZERO PUSH2 0x1E4 JUMPI PUSH0 DUP1 REVERT JUMPDEST POP PUSH2 0x1FF PUSH1 0x4 DUP1 CALLDATASIZE SUB DUP2 ADD SWAP1 PUSH2 0x1FA SWAP2 SWAP1 PUSH2 0xC3F JUMP JUMPDEST PUSH2 0xBA4 JUMP JUMPDEST PUSH1 0x40 MLOAD PUSH2 0x20C SWAP2 SWAP1 PUSH2 0xE6E JUMP JUMPDEST PUSH1 0x40 MLOAD DUP1 SWAP2 SUB SWAP1 RETURN JUMPDEST CALLVALUE DUP1 ISZERO PUSH2 0x220 JUMPI PUSH0 DUP1 REVERT JUMPDEST POP PUSH2 0x229 PUSH2 0xBDF JUMP JUMPDEST PUSH1 0x40 MLOAD PUSH2 0x236 SWAP2 SWAP1 PUSH2 0xE6E JUMP JUMPDEST PUSH1 0x40 MLOAD DUP1 SWAP2 SUB SWAP1 RETURN JUMPDEST CALLVALUE DUP1 ISZERO PUSH2 0x24A JUMPI PUSH0 DUP1 REVERT JUMPDEST POP PUSH2 0x253 PUSH2 0xC02 JUMP JUMPDEST PUSH1 0x40 MLOAD PUSH2 0x260 SWAP2 SWAP1 PUSH2 0xD3C JUMP JUMPDEST PUSH1 0x40 MLOAD DUP1 SWAP2 SUB SWAP1 RETURN JUMPDEST PUSH0 DUP1 SLOAD SWAP1 PUSH2 0x100 EXP SWAP1 DIV PUSH20 0xFFFFFFFFFFFFFFFFFFFFFFFFFFFFFFFFFFFFFFFF AND PUSH20 0xFFFFFFFFFFFFFFFFFFFFFFFFFFFFFFFFFFFFFFFF AND CALLER PUSH20 0xFFFFFFFFFFFFFFFFFFFFFFFFFFFFFFFFFFFFFFFF AND EQ PUSH2 0x2F6 JUMPI PUSH1 0x40 MLOAD PUSH32 0x8C379A000000000000000000000000000000000000000000000000000000000 DUP2 MSTORE PUSH1 0x4 ADD PUSH2 0x2ED SWAP1 PUSH2 0xF07 JUMP JUMPDEST PUSH1 0x40 MLOAD DUP1 SWAP2 SUB SWAP1 REVERT JUMPDEST PUSH0 DUP1 JUMPDEST PUSH1 0x1 DUP1 SLOAD SWAP1 POP DUP2 LT DUP1 ISZERO PUSH2 0x30C JUMPI POP DUP3 DUP3 LT JUMPDEST ISZERO PUSH2 0x513 JUMPI PUSH0 PUSH1 0x1 DUP3 DUP2 SLOAD DUP2 LT PUSH2 0x326 JUMPI PUSH2 0x325 PUSH2 0xF25 JUMP JUMPDEST JUMPDEST SWAP1 PUSH0 MSTORE PUSH1 0x20 PUSH0 KECCAK256 ADD PUSH0 SWAP1 SLOAD SWAP1 PUSH2 0x100 EXP SWAP1 DIV PUSH20 0xFFFFFFFFFFFFFFFFFFFFFFFFFFFFFFFFFFFFFFFF AND SWAP1 POP PUSH1 0x4 PUSH0 DUP3 PUSH20 0xFFFFFFFFFFFFFFFFFFFFFFFFFFFFFFFFFFFFFFFF AND PUSH20 0xFFFFFFFFFFFFFFFFFFFFFFFFFFFFFFFFFFFFFFFF AND DUP2 MSTORE PUSH1 0x20 ADD SWAP1 DUP2 MSTORE PUSH1 0x20 ADD PUSH0 KECCAK256 PUSH0 SWAP1 SLOAD SWAP1 PUSH2 0x100 EXP SWAP1 DIV PUSH1 0xFF AND ISZERO PUSH2 0x4FF JUMPI PUSH0 PUSH1 0x2 PUSH0 DUP4 PUSH20 0xFFFFFFFFFFFFFFFFFFFFFFFFFFFFFFFFFFFFFFFF AND PUSH20 0xFFFFFFFFFFFFFFFFFFFFFFFFFFFFFFFFFFFFFFFF AND DUP2 MSTORE PUSH1 0x20 ADD SWAP1 DUP2 MSTORE PUSH1 0x20 ADD PUSH0 KECCAK256 SLOAD SWAP1 POP PUSH0 DUP2 GT ISZERO PUSH2 0x4EF JUMPI PUSH0 DUP3 PUSH20 0xFFFFFFFFFFFFFFFFFFFFFFFFFFFFFFFFFFFFFFFF AND DUP3 PUSH1 0x40 MLOAD PUSH2 0x40D SWAP1 PUSH2 0xF7F JUMP JUMPDEST PUSH0 PUSH1 0x40 MLOAD DUP1 DUP4 SUB DUP2 DUP6 DUP8 GAS CALL SWAP3 POP POP POP RETURNDATASIZE DUP1 PUSH0 DUP2 EQ PUSH2 0x447 JUMPI PUSH1 0x40 MLOAD SWAP2 POP PUSH1 0x1F NOT PUSH1 0x3F RETURNDATASIZE ADD AND DUP3 ADD PUSH1 0x40 MSTORE RETURNDATASIZE DUP3 MSTORE RETURNDATASIZE PUSH0 PUSH1 0x20 DUP5 ADD RETURNDATACOPY PUSH2 0x44C JUMP JUMPDEST PUSH1 0x60 SWAP2 POP JUMPDEST POP POP SWAP1 POP DUP1 ISZERO PUSH2 0x4ED JUMPI PUSH0 PUSH1 0x2 PUSH0 DUP6 PUSH20 0xFFFFFFFFFFFFFFFFFFFFFFFFFFFFFFFFFFFFFFFF AND PUSH20 0xFFFFFFFFFFFFFFFFFFFFFFFFFFFFFFFFFFFFFFFF AND DUP2 MSTORE PUSH1 0x20 ADD SWAP1 DUP2 MSTORE PUSH1 0x20 ADD PUSH0 KECCAK256 DUP2 SWAP1 SSTORE POP PUSH0 PUSH1 0x4 PUSH0 DUP6 PUSH20 0xFFFFFFFFFFFFFFFFFFFFFFFFFFFFFFFFFFFFFFFF AND PUSH20 0xFFFFFFFFFFFFFFFFFFFFFFFFFFFFFFFFFFFFFFFF AND DUP2 MSTORE PUSH1 0x20 ADD SWAP1 DUP2 MSTORE PUSH1 0x20 ADD PUSH0 KECCAK256 PUSH0 PUSH2 0x100 EXP DUP2 SLOAD DUP2 PUSH1 0xFF MUL NOT AND SWAP1 DUP4 ISZERO ISZERO MUL OR SWAP1 SSTORE POP JUMPDEST POP JUMPDEST DUP4 DUP1 PUSH2 0x4FA SWAP1 PUSH2 0xFC0 JUMP JUMPDEST SWAP5 POP POP POP JUMPDEST POP DUP1 DUP1 PUSH2 0x50B SWAP1 PUSH2 0xFC0 JUMP JUMPDEST SWAP2 POP POP PUSH2 0x2F9 JUMP JUMPDEST POP POP POP JUMP JUMPDEST PUSH0 DUP1 SLOAD SWAP1 PUSH2 0x100 EXP SWAP1 DIV PUSH20 0xFFFFFFFFFFFFFFFFFFFFFFFFFFFFFFFFFFFFFFFF AND PUSH20 0xFFFFFFFFFFFFFFFFFFFFFFFFFFFFFFFFFFFFFFFF AND CALLER PUSH20 0xFFFFFFFFFFFFFFFFFFFFFFFFFFFFFFFFFFFFFFFF AND EQ PUSH2 0x5A5 JUMPI PUSH1 0x40 MLOAD PUSH32 0x8C379A000000000000000000000000000000000000000000000000000000000 DUP2 MSTORE PUSH1 0x4 ADD PUSH2 0x59C SWAP1 PUSH2 0xF07 JUMP JUMPDEST PUSH1 0x40 MLOAD DUP1 SWAP2 SUB SWAP1 REVERT JUMPDEST PUSH0 PUSH1 0x3 DUP2 SWAP1 SSTORE POP JUMP JUMPDEST PUSH0 DUP1 SLOAD SWAP1 PUSH2 0x100 EXP SWAP1 DIV PUSH20 0xFFFFFFFFFFFFFFFFFFFFFFFFFFFFFFFFFFFFFFFF AND PUSH20 0xFFFFFFFFFFFFFFFFFFFFFFFFFFFFFFFFFFFFFFFF AND CALLER PUSH20 0xFFFFFFFFFFFFFFFFFFFFFFFFFFFFFFFFFFFFFFFF AND EQ PUSH2 0x63B JUMPI PUSH1 0x40 MLOAD PUSH32 0x8C379A000000000000000000000000000000000000000000000000000000000 DUP2 MSTORE PUSH1 0x4 ADD PUSH2 0x632 SWAP1 PUSH2 0xF07 JUMP JUMPDEST PUSH1 0x40 MLOAD DUP1 SWAP2 SUB SWAP1 REVERT JUMPDEST PUSH0 PUSH20 0xFFFFFFFFFFFFFFFFFFFFFFFFFFFFFFFFFFFFFFFF AND DUP3 PUSH20 0xFFFFFFFFFFFFFFFFFFFFFFFFFFFFFFFFFFFFFFFF AND SUB PUSH2 0x6A9 JUMPI PUSH1 0x40 MLOAD PUSH32 0x8C379A000000000000000000000000000000000000000000000000000000000 DUP2 MSTORE PUSH1 0x4 ADD PUSH2 0x6A0 SWAP1 PUSH2 0x1051 JUMP JUMPDEST PUSH1 0x40 MLOAD DUP1 SWAP2 SUB SWAP1 REVERT JUMPDEST PUSH1 0x1 DUP3 SWAP1 DUP1 PUSH1 0x1 DUP2 SLOAD ADD DUP1 DUP3 SSTORE DUP1 SWAP2 POP POP PUSH1 0x1 SWAP1 SUB SWAP1 PUSH0 MSTORE PUSH1 0x20 PUSH0 KECCAK256 ADD PUSH0 SWAP1 SWAP2 SWAP1 SWAP2 SWAP1 SWAP2 PUSH2 0x100 EXP DUP2 SLOAD DUP2 PUSH20 0xFFFFFFFFFFFFFFFFFFFFFFFFFFFFFFFFFFFFFFFF MUL NOT AND SWAP1 DUP4 PUSH20 0xFFFFFFFFFFFFFFFFFFFFFFFFFFFFFFFFFFFFFFFF AND MUL OR SWAP1 SSTORE POP DUP1 PUSH1 0x2 PUSH0 DUP5 PUSH20 0xFFFFFFFFFFFFFFFFFFFFFFFFFFFFFFFFFFFFFFFF AND PUSH20 0xFFFFFFFFFFFFFFFFFFFFFFFFFFFFFFFFFFFFFFFF AND DUP2 MSTORE PUSH1 0x20 ADD SWAP1 DUP2 MSTORE PUSH1 0x20 ADD PUSH0 KECCAK256 DUP2 SWAP1 SSTORE POP POP POP JUMP JUMPDEST PUSH0 DUP1 SLOAD SWAP1 PUSH2 0x100 EXP SWAP1 DIV PUSH20 0xFFFFFFFFFFFFFFFFFFFFFFFFFFFFFFFFFFFFFFFF AND PUSH20 0xFFFFFFFFFFFFFFFFFFFFFFFFFFFFFFFFFFFFFFFF AND CALLER PUSH20 0xFFFFFFFFFFFFFFFFFFFFFFFFFFFFFFFFFFFFFFFF AND EQ PUSH2 0x7DC JUMPI PUSH1 0x40 MLOAD PUSH32 0x8C379A000000000000000000000000000000000000000000000000000000000 DUP2 MSTORE PUSH1 0x4 ADD PUSH2 0x7D3 SWAP1 PUSH2 0xF07 JUMP JUMPDEST PUSH1 0x40 MLOAD DUP1 SWAP2 SUB SWAP1 REVERT JUMPDEST PUSH0 SELFBALANCE GT PUSH2 0x81E JUMPI PUSH1 0x40 MLOAD PUSH32 0x8C379A000000000000000000000000000000000000000000000000000000000 DUP2 MSTORE PUSH1 0x4 ADD PUSH2 0x815 SWAP1 PUSH2 0x10B9 JUMP JUMPDEST PUSH1 0x40 MLOAD DUP1 SWAP2 SUB SWAP1 REVERT JUMPDEST PUSH0 DUP2 PUSH1 0x3 SLOAD PUSH2 0x82D SWAP2 SWAP1 PUSH2 0x10D7 JUMP JUMPDEST SWAP1 POP PUSH1 0x1 DUP1 SLOAD SWAP1 POP DUP2 GT ISZERO PUSH2 0x845 JUMPI PUSH1 0x1 DUP1 SLOAD SWAP1 POP SWAP1 POP JUMPDEST PUSH0 PUSH1 0x3 SLOAD SWAP1 POP JUMPDEST DUP2 DUP2 LT ISZERO PUSH2 0xA4C JUMPI PUSH0 PUSH1 0x1 DUP3 DUP2 SLOAD DUP2 LT PUSH2 0x869 JUMPI PUSH2 0x868 PUSH2 0xF25 JUMP JUMPDEST JUMPDEST SWAP1 PUSH0 MSTORE PUSH1 0x20 PUSH0 KECCAK256 ADD PUSH0 SWAP1 SLOAD SWAP1 PUSH2 0x100 EXP SWAP1 DIV PUSH20 0xFFFFFFFFFFFFFFFFFFFFFFFFFFFFFFFFFFFFFFFF AND SWAP1 POP PUSH0 PUSH1 0x2 PUSH0 DUP4 PUSH20 0xFFFFFFFFFFFFFFFFFFFFFFFFFFFFFFFFFFFFFFFF AND PUSH20 0xFFFFFFFFFFFFFFFFFFFFFFFFFFFFFFFFFFFFFFFF AND DUP2 MSTORE PUSH1 0x20 ADD SWAP1 DUP2 MSTORE PUSH1 0x20 ADD PUSH0 KECCAK256 SLOAD SWAP1 POP PUSH0 DUP2 GT ISZERO PUSH2 0xA3D JUMPI PUSH0 DUP3 PUSH20 0xFFFFFFFFFFFFFFFFFFFFFFFFFFFFFFFFFFFFFFFF AND DUP3 PUSH1 0x40 MLOAD PUSH2 0x901 SWAP1 PUSH2 0xF7F JUMP JUMPDEST PUSH0 PUSH1 0x40 MLOAD DUP1 DUP4 SUB DUP2 DUP6 DUP8 GAS CALL SWAP3 POP POP POP RETURNDATASIZE DUP1 PUSH0 DUP2 EQ PUSH2 0x93B JUMPI PUSH1 0x40 MLOAD SWAP2 POP PUSH1 0x1F NOT PUSH1 0x3F RETURNDATASIZE ADD AND DUP3 ADD PUSH1 0x40 MSTORE RETURNDATASIZE DUP3 MSTORE RETURNDATASIZE PUSH0 PUSH1 0x20 DUP5 ADD RETURNDATACOPY PUSH2 0x940 JUMP JUMPDEST PUSH1 0x60 SWAP2 POP JUMPDEST POP POP SWAP1 POP DUP1 ISZERO PUSH2 0x9E5 JUMPI PUSH0 PUSH1 0x2 PUSH0 DUP6 PUSH20 0xFFFFFFFFFFFFFFFFFFFFFFFFFFFFFFFFFFFFFFFF AND PUSH20 0xFFFFFFFFFFFFFFFFFFFFFFFFFFFFFFFFFFFFFFFF AND DUP2 MSTORE PUSH1 0x20 ADD SWAP1 DUP2 MSTORE PUSH1 0x20 ADD PUSH0 KECCAK256 DUP2 SWAP1 SSTORE POP PUSH0 PUSH1 0x4 PUSH0 DUP6 PUSH20 0xFFFFFFFFFFFFFFFFFFFFFFFFFFFFFFFFFFFFFFFF AND PUSH20 0xFFFFFFFFFFFFFFFFFFFFFFFFFFFFFFFFFFFFFFFF AND DUP2 MSTORE PUSH1 0x20 ADD SWAP1 DUP2 MSTORE PUSH1 0x20 ADD PUSH0 KECCAK256 PUSH0 PUSH2 0x100 EXP DUP2 SLOAD DUP2 PUSH1 0xFF MUL NOT AND SWAP1 DUP4 ISZERO ISZERO MUL OR SWAP1 SSTORE POP PUSH2 0xA3B JUMP JUMPDEST PUSH1 0x1 PUSH1 0x4 PUSH0 DUP6 PUSH20 0xFFFFFFFFFFFFFFFFFFFFFFFFFFFFFFFFFFFFFFFF AND PUSH20 0xFFFFFFFFFFFFFFFFFFFFFFFFFFFFFFFFFFFFFFFF AND DUP2 MSTORE PUSH1 0x20 ADD SWAP1 DUP2 MSTORE PUSH1 0x20 ADD PUSH0 KECCAK256 PUSH0 PUSH2 0x100 EXP DUP2 SLOAD DUP2 PUSH1 0xFF MUL NOT AND SWAP1 DUP4 ISZERO ISZERO MUL OR SWAP1 SSTORE POP JUMPDEST POP JUMPDEST POP POP DUP1 DUP1 PUSH1 0x1 ADD SWAP2 POP POP PUSH2 0x84C JUMP JUMPDEST POP DUP1 PUSH1 0x3 DUP2 SWAP1 SSTORE POP POP POP JUMP JUMPDEST PUSH0 DUP1 SLOAD SWAP1 PUSH2 0x100 EXP SWAP1 DIV PUSH20 0xFFFFFFFFFFFFFFFFFFFFFFFFFFFFFFFFFFFFFFFF AND PUSH20 0xFFFFFFFFFFFFFFFFFFFFFFFFFFFFFFFFFFFFFFFF AND CALLER PUSH20 0xFFFFFFFFFFFFFFFFFFFFFFFFFFFFFFFFFFFFFFFF AND EQ PUSH2 0xAE5 JUMPI PUSH1 0x40 MLOAD PUSH32 0x8C379A000000000000000000000000000000000000000000000000000000000 DUP2 MSTORE PUSH1 0x4 ADD PUSH2 0xADC SWAP1 PUSH2 0xF07 JUMP JUMPDEST PUSH1 0x40 MLOAD DUP1 SWAP2 SUB SWAP1 REVERT JUMPDEST JUMP JUMPDEST PUSH1 0x2 PUSH1 0x20 MSTORE DUP1 PUSH0 MSTORE PUSH1 0x40 PUSH0 KECCAK256 PUSH0 SWAP2 POP SWAP1 POP SLOAD DUP2 JUMP JUMPDEST PUSH1 0x60 PUSH1 0x1 DUP1 SLOAD DUP1 PUSH1 0x20 MUL PUSH1 0x20 ADD PUSH1 0x40 MLOAD SWAP1 DUP2 ADD PUSH1 0x40 MSTORE DUP1 SWAP3 SWAP2 SWAP1 DUP2 DUP2 MSTORE PUSH1 0x20 ADD DUP3 DUP1 SLOAD DUP1 ISZERO PUSH2 0xB7D JUMPI PUSH1 0x20 MUL DUP3 ADD SWAP2 SWAP1 PUSH0 MSTORE PUSH1 0x20 PUSH0 KECCAK256 SWAP1 JUMPDEST DUP2 PUSH0 SWAP1 SLOAD SWAP1 PUSH2 0x100 EXP SWAP1 DIV PUSH20 0xFFFFFFFFFFFFFFFFFFFFFFFFFFFFFFFFFFFFFFFF AND PUSH20 0xFFFFFFFFFFFFFFFFFFFFFFFFFFFFFFFFFFFFFFFF AND DUP2 MSTORE PUSH1 0x20 ADD SWAP1 PUSH1 0x1 ADD SWAP1 DUP1 DUP4 GT PUSH2 0xB34 JUMPI JUMPDEST POP POP POP POP POP SWAP1 POP SWAP1 JUMP JUMPDEST PUSH1 0x4 PUSH1 0x20 MSTORE DUP1 PUSH0 MSTORE PUSH1 0x40 PUSH0 KECCAK256 PUSH0 SWAP2 POP SLOAD SWAP1 PUSH2 0x100 EXP SWAP1 DIV PUSH1 0xFF AND DUP2 JUMP JUMPDEST PUSH1 0x1 DUP2 DUP2 SLOAD DUP2 LT PUSH2 0xBB3 JUMPI PUSH0 DUP1 REVERT JUMPDEST SWAP1 PUSH0 MSTORE PUSH1 0x20 PUSH0 KECCAK256 ADD PUSH0 SWAP2 POP SLOAD SWAP1 PUSH2 0x100 EXP SWAP1 DIV PUSH20 0xFFFFFFFFFFFFFFFFFFFFFFFFFFFFFFFFFFFFFFFF AND DUP2 JUMP JUMPDEST PUSH0 DUP1 SLOAD SWAP1 PUSH2 0x100 EXP SWAP1 DIV PUSH20 0xFFFFFFFFFFFFFFFFFFFFFFFFFFFFFFFFFFFFFFFF AND DUP2 JUMP JUMPDEST PUSH1 0x3 SLOAD DUP2 JUMP JUMPDEST PUSH0 DUP1 REVERT JUMPDEST PUSH0 DUP2 SWAP1 POP SWAP2 SWAP1 POP JUMP JUMPDEST PUSH2 0xC1E DUP2 PUSH2 0xC0C JUMP JUMPDEST DUP2 EQ PUSH2 0xC28 JUMPI PUSH0 DUP1 REVERT JUMPDEST POP JUMP JUMPDEST PUSH0 DUP2 CALLDATALOAD SWAP1 POP PUSH2 0xC39 DUP2 PUSH2 0xC15 JUMP JUMPDEST SWAP3 SWAP2 POP POP JUMP JUMPDEST PUSH0 PUSH1 0x20 DUP3 DUP5 SUB SLT ISZERO PUSH2 0xC54 JUMPI PUSH2 0xC53 PUSH2 0xC08 JUMP JUMPDEST JUMPDEST PUSH0 PUSH2 0xC61 DUP5 DUP3 DUP6 ADD PUSH2 0xC2B JUMP JUMPDEST SWAP2 POP POP SWAP3 SWAP2 POP POP JUMP JUMPDEST PUSH0 PUSH20 0xFFFFFFFFFFFFFFFFFFFFFFFFFFFFFFFFFFFFFFFF DUP3 AND SWAP1 POP SWAP2 SWAP1 POP JUMP JUMPDEST PUSH0 PUSH2 0xC93 DUP3 PUSH2 0xC6A JUMP JUMPDEST SWAP1 POP SWAP2 SWAP1 POP JUMP JUMPDEST PUSH2 0xCA3 DUP2 PUSH2 0xC89 JUMP JUMPDEST DUP2 EQ PUSH2 0xCAD JUMPI PUSH0 DUP1 REVERT JUMPDEST POP JUMP JUMPDEST PUSH0 DUP2 CALLDATALOAD SWAP1 POP PUSH2 0xCBE DUP2 PUSH2 0xC9A JUMP JUMPDEST SWAP3 SWAP2 POP POP JUMP JUMPDEST PUSH0 DUP1 PUSH1 0x40 DUP4 DUP6 SUB SLT ISZERO PUSH2 0xCDA JUMPI PUSH2 0xCD9 PUSH2 0xC08 JUMP JUMPDEST JUMPDEST PUSH0 PUSH2 0xCE7 DUP6 DUP3 DUP7 ADD PUSH2 0xCB0 JUMP JUMPDEST SWAP3 POP POP PUSH1 0x20 PUSH2 0xCF8 DUP6 DUP3 DUP7 ADD PUSH2 0xC2B JUMP JUMPDEST SWAP2 POP POP SWAP3 POP SWAP3 SWAP1 POP JUMP JUMPDEST PUSH0 PUSH1 0x20 DUP3 DUP5 SUB SLT ISZERO PUSH2 0xD17 JUMPI PUSH2 0xD16 PUSH2 0xC08 JUMP JUMPDEST JUMPDEST PUSH0 PUSH2 0xD24 DUP5 DUP3 DUP6 ADD PUSH2 0xCB0 JUMP JUMPDEST SWAP2 POP POP SWAP3 SWAP2 POP POP JUMP JUMPDEST PUSH2 0xD36 DUP2 PUSH2 0xC0C JUMP JUMPDEST DUP3 MSTORE POP POP JUMP JUMPDEST PUSH0 PUSH1 0x20 DUP3 ADD SWAP1 POP PUSH2 0xD4F PUSH0 DUP4 ADD DUP5 PUSH2 0xD2D JUMP JUMPDEST SWAP3 SWAP2 POP POP JUMP JUMPDEST PUSH0 DUP2 MLOAD SWAP1 POP SWAP2 SWAP1 POP JUMP JUMPDEST PUSH0 DUP3 DUP3 MSTORE PUSH1 0x20 DUP3 ADD SWAP1 POP SWAP3 SWAP2 POP POP JUMP JUMPDEST PUSH0 DUP2 SWAP1 POP PUSH1 0x20 DUP3 ADD SWAP1 POP SWAP2 SWAP1 POP JUMP JUMPDEST PUSH2 0xD87 DUP2 PUSH2 0xC89 JUMP JUMPDEST DUP3 MSTORE POP POP JUMP JUMPDEST PUSH0 PUSH2 0xD98 DUP4 DUP4 PUSH2 0xD7E JUMP JUMPDEST PUSH1 0x20 DUP4 ADD SWAP1 POP SWAP3 SWAP2 POP POP JUMP JUMPDEST PUSH0 PUSH1 0x20 DUP3 ADD SWAP1 POP SWAP2 SWAP1 POP JUMP JUMPDEST PUSH0 PUSH2 0xDBA DUP3 PUSH2 0xD55 JUMP JUMPDEST PUSH2 0xDC4 DUP2 DUP6 PUSH2 0xD5F JUMP JUMPDEST SWAP4 POP PUSH2 0xDCF DUP4 PUSH2 0xD6F JUMP JUMPDEST DUP1 PUSH0 JUMPDEST DUP4 DUP2 LT ISZERO PUSH2 0xDFF JUMPI DUP2 MLOAD PUSH2 0xDE6 DUP9 DUP3 PUSH2 0xD8D JUMP JUMPDEST SWAP8 POP PUSH2 0xDF1 DUP4 PUSH2 0xDA4 JUMP JUMPDEST SWAP3 POP POP PUSH1 0x1 DUP2 ADD SWAP1 POP PUSH2 0xDD2 JUMP JUMPDEST POP DUP6 SWAP4 POP POP POP POP SWAP3 SWAP2 POP POP JUMP JUMPDEST PUSH0 PUSH1 0x20 DUP3 ADD SWAP1 POP DUP2 DUP2 SUB PUSH0 DUP4 ADD MSTORE PUSH2 0xE24 DUP2 DUP5 PUSH2 0xDB0 JUMP JUMPDEST SWAP1 POP SWAP3 SWAP2 POP POP JUMP JUMPDEST PUSH0 DUP2 ISZERO ISZERO SWAP1 POP SWAP2 SWAP1 POP JUMP JUMPDEST PUSH2 0xE40 DUP2 PUSH2 0xE2C JUMP JUMPDEST DUP3 MSTORE POP POP JUMP JUMPDEST PUSH0 PUSH1 0x20 DUP3 ADD SWAP1 POP PUSH2 0xE59 PUSH0 DUP4 ADD DUP5 PUSH2 0xE37 JUMP JUMPDEST SWAP3 SWAP2 POP POP JUMP JUMPDEST PUSH2 0xE68 DUP2 PUSH2 0xC89 JUMP JUMPDEST DUP3 MSTORE POP POP JUMP JUMPDEST PUSH0 PUSH1 0x20 DUP3 ADD SWAP1 POP PUSH2 0xE81 PUSH0 DUP4 ADD DUP5 PUSH2 0xE5F JUMP JUMPDEST SWAP3 SWAP2 POP POP JUMP JUMPDEST PUSH0 DUP3 DUP3 MSTORE PUSH1 0x20 DUP3 ADD SWAP1 POP SWAP3 SWAP2 POP POP JUMP JUMPDEST PUSH32 0x4F6E6C792061646D696E2063616E20706572666F726D20746869732061637469 PUSH0 DUP3 ADD MSTORE PUSH32 0x6F6E2E0000000000000000000000000000000000000000000000000000000000 PUSH1 0x20 DUP3 ADD MSTORE POP JUMP JUMPDEST PUSH0 PUSH2 0xEF1 PUSH1 0x23 DUP4 PUSH2 0xE87 JUMP JUMPDEST SWAP2 POP PUSH2 0xEFC DUP3 PUSH2 0xE97 JUMP JUMPDEST PUSH1 0x40 DUP3 ADD SWAP1 POP SWAP2 SWAP1 POP JUMP JUMPDEST PUSH0 PUSH1 0x20 DUP3 ADD SWAP1 POP DUP2 DUP2 SUB PUSH0 DUP4 ADD MSTORE PUSH2 0xF1E DUP2 PUSH2 0xEE5 JUMP JUMPDEST SWAP1 POP SWAP2 SWAP1 POP JUMP JUMPDEST PUSH32 0x4E487B7100000000000000000000000000000000000000000000000000000000 PUSH0 MSTORE PUSH1 0x32 PUSH1 0x4 MSTORE PUSH1 0x24 PUSH0 REVERT JUMPDEST PUSH0 DUP2 SWAP1 POP SWAP3 SWAP2 POP POP JUMP JUMPDEST POP JUMP JUMPDEST PUSH0 PUSH2 0xF6A PUSH0 DUP4 PUSH2 0xF52 JUMP JUMPDEST SWAP2 POP PUSH2 0xF75 DUP3 PUSH2 0xF5C JUMP JUMPDEST PUSH0 DUP3 ADD SWAP1 POP SWAP2 SWAP1 POP JUMP JUMPDEST PUSH0 PUSH2 0xF89 DUP3 PUSH2 0xF5F JUMP JUMPDEST SWAP2 POP DUP2 SWAP1 POP SWAP2 SWAP1 POP JUMP JUMPDEST PUSH32 0x4E487B7100000000000000000000000000000000000000000000000000000000 PUSH0 MSTORE PUSH1 0x11 PUSH1 0x4 MSTORE PUSH1 0x24 PUSH0 REVERT JUMPDEST PUSH0 PUSH2 0xFCA DUP3 PUSH2 0xC0C JUMP JUMPDEST SWAP2 POP PUSH32 0xFFFFFFFFFFFFFFFFFFFFFFFFFFFFFFFFFFFFFFFFFFFFFFFFFFFFFFFFFFFFFFFF DUP3 SUB PUSH2 0xFFC JUMPI PUSH2 0xFFB PUSH2 0xF93 JUMP JUMPDEST JUMPDEST PUSH1 0x1 DUP3 ADD SWAP1 POP SWAP2 SWAP1 POP JUMP JUMPDEST PUSH32 0x496E76616C696420726563697069656E7420616464726573732E000000000000 PUSH0 DUP3 ADD MSTORE POP JUMP JUMPDEST PUSH0 PUSH2 0x103B PUSH1 0x1A DUP4 PUSH2 0xE87 JUMP JUMPDEST SWAP2 POP PUSH2 0x1046 DUP3 PUSH2 0x1007 JUMP JUMPDEST PUSH1 0x20 DUP3 ADD SWAP1 POP SWAP2 SWAP1 POP JUMP JUMPDEST PUSH0 PUSH1 0x20 DUP3 ADD SWAP1 POP DUP2 DUP2 SUB PUSH0 DUP4 ADD MSTORE PUSH2 0x1068 DUP2 PUSH2 0x102F JUMP JUMPDEST SWAP1 POP SWAP2 SWAP1 POP JUMP JUMPDEST PUSH32 0x4E6F2066756E647320746F20646973747269627574652E000000000000000000 PUSH0 DUP3 ADD MSTORE POP JUMP JUMPDEST PUSH0 PUSH2 0x10A3 PUSH1 0x17 DUP4 PUSH2 0xE87 JUMP JUMPDEST SWAP2 POP PUSH2 0x10AE DUP3 PUSH2 0x106F JUMP JUMPDEST PUSH1 0x20 DUP3 ADD SWAP1 POP SWAP2 SWAP1 POP JUMP JUMPDEST PUSH0 PUSH1 0x20 DUP3 ADD SWAP1 POP DUP2 DUP2 SUB PUSH0 DUP4 ADD MSTORE PUSH2 0x10D0 DUP2 PUSH2 0x1097 JUMP JUMPDEST SWAP1 POP SWAP2 SWAP1 POP JUMP JUMPDEST PUSH0 PUSH2 0x10E1 DUP3 PUSH2 0xC0C JUMP JUMPDEST SWAP2 POP PUSH2 0x10EC DUP4 PUSH2 0xC0C JUMP JUMPDEST SWAP3 POP DUP3 DUP3 ADD SWAP1 POP DUP1 DUP3 GT ISZERO PUSH2 0x1104 JUMPI PUSH2 0x1103 PUSH2 0xF93 JUMP JUMPDEST JUMPDEST SWAP3 SWAP2 POP POP JUMP INVALID LOG2 PUSH5 0x6970667358 0x22 SLT KECCAK256 CHAINID SAR 0xEB STATICCALL PUSH9 0x69D30047706DC0D258 SLOAD POP 0xB2 PC PUSH12 0x8E12D27AC13201C871BF2D22 DUP5 PUSH5 0x736F6C6343 STOP ADDMOD BYTE STOP CALLER "
		},
		"gasEstimates": {
			"creation": {
				"codeDepositCost": "883200",
				"executionCost": "25179",
				"totalCost": "908379"
			},
			"external": {
				"AddRecipient(address,uint256)": "73643",
				"DepositFunds()": "2676",
				"DistributeDividends(uint256)": "infinite",
				"GetRecipients()": "infinite",
				"ResetProcessedIndex()": "7345",
				"RetryFailedPayments(uint256)": "infinite",
				"admin()": "2593",
				"dividends(address)": "2802",
				"failedRecipients(address)": "2877",
				"processedIndex()": "2535",
				"recipients(uint256)": "5010"
			}
		},
		"methodIdentifiers": {
			"AddRecipient(address,uint256)": "1e1f1072",
			"DepositFunds()": "4fbcd6d5",
			"DistributeDividends(uint256)": "4ecd73e2",
			"GetRecipients()": "75b4306b",
			"ResetProcessedIndex()": "1af8b015",
			"RetryFailedPayments(uint256)": "065d8d3d",
			"admin()": "f851a440",
			"dividends(address)": "68306e43",
			"failedRecipients(address)": "a32df10c",
			"processedIndex()": "fdda918e",
			"recipients(uint256)": "d1bc76a1"
		}
	},
	"abi": [
		{
			"inputs": [],
			"stateMutability": "nonpayable",
			"type": "constructor"
		},
		{
			"inputs": [
				{
					"internalType": "address",
					"name": "recipient",
					"type": "address"
				},
				{
					"internalType": "uint256",
					"name": "amount",
					"type": "uint256"
				}
			],
			"name": "AddRecipient",
			"outputs": [],
			"stateMutability": "nonpayable",
			"type": "function"
		},
		{
			"inputs": [],
			"name": "DepositFunds",
			"outputs": [],
			"stateMutability": "payable",
			"type": "function"
		},
		{
			"inputs": [
				{
					"internalType": "uint256",
					"name": "batchSize",
					"type": "uint256"
				}
			],
			"name": "DistributeDividends",
			"outputs": [],
			"stateMutability": "nonpayable",
			"type": "function"
		},
		{
			"inputs": [],
			"name": "GetRecipients",
			"outputs": [
				{
					"internalType": "address[]",
					"name": "",
					"type": "address[]"
				}
			],
			"stateMutability": "view",
			"type": "function"
		},
		{
			"inputs": [],
			"name": "ResetProcessedIndex",
			"outputs": [],
			"stateMutability": "nonpayable",
			"type": "function"
		},
		{
			"inputs": [
				{
					"internalType": "uint256",
					"name": "batchSize",
					"type": "uint256"
				}
			],
			"name": "RetryFailedPayments",
			"outputs": [],
			"stateMutability": "nonpayable",
			"type": "function"
		},
		{
			"inputs": [],
			"name": "admin",
			"outputs": [
				{
					"internalType": "address",
					"name": "",
					"type": "address"
				}
			],
			"stateMutability": "view",
			"type": "function"
		},
		{
			"inputs": [
				{
					"internalType": "address",
					"name": "",
					"type": "address"
				}
			],
			"name": "dividends",
			"outputs": [
				{
					"internalType": "uint256",
					"name": "",
					"type": "uint256"
				}
			],
			"stateMutability": "view",
			"type": "function"
		},
		{
			"inputs": [
				{
					"internalType": "address",
					"name": "",
					"type": "address"
				}
			],
			"name": "failedRecipients",
			"outputs": [
				{
					"internalType": "bool",
					"name": "",
					"type": "bool"
				}
			],
			"stateMutability": "view",
			"type": "function"
		},
		{
			"inputs": [],
			"name": "processedIndex",
			"outputs": [
				{
					"internalType": "uint256",
					"name": "",
					"type": "uint256"
				}
			],
			"stateMutability": "view",
			"type": "function"
		},
		{
			"inputs": [
				{
					"internalType": "uint256",
					"name": "",
					"type": "uint256"
				}
			],
			"name": "recipients",
			"outputs": [
				{
					"internalType": "address",
					"name": "",
					"type": "address"
				}
			],
			"stateMutability": "view",
			"type": "function"
		}
	]
}