{
	"data": {
		"bytecode": {
			"linkReferences": {},
			"object": "6080604052348015600e575f80fd5b503360015f6101000a81548173ffffffffffffffffffffffffffffffffffffffff021916908373ffffffffffffffffffffffffffffffffffffffff160217905550610c0c8061005c5f395ff3fe608060405260043610610085575f3560e01c806344e73b781161005857806344e73b781461014157806354b697ff1461016b578063b2df7d2614610195578063ed21248c146101bd578063f851a440146101c757610085565b806326987b601461008957806327e235e3146100b3578063365b98b2146100ef5780633eedc1c51461012b575b5f80fd5b348015610094575f80fd5b5061009d6101f1565b6040516100aa9190610726565b60405180910390f35b3480156100be575f80fd5b506100d960048036038101906100d4919061079d565b6101f7565b6040516100e69190610726565b60405180910390f35b3480156100fa575f80fd5b50610115600480360381019061011091906107f2565b61020b565b604051610122919061082c565b60405180910390f35b348015610136575f80fd5b5061013f610246565b005b34801561014c575f80fd5b50610155610332565b6040516101629190610726565b60405180910390f35b348015610176575f80fd5b5061017f610339565b60405161018c919061085f565b60405180910390f35b3480156101a0575f80fd5b506101bb60048036038101906101b691906107f2565b61034a565b005b6101c5610576565b005b3480156101d2575f80fd5b506101db6106b0565b6040516101e8919061082c565b60405180910390f35b60035481565b5f602052805f5260405f205f915090505481565b6002818154811061021a575f80fd5b905f5260205f20015f915054906101000a900473ffffffffffffffffffffffffffffffffffffffff1681565b60015f9054906101000a900473ffffffffffffffffffffffffffffffffffffffff1673ffffffffffffffffffffffffffffffffffffffff163373ffffffffffffffffffffffffffffffffffffffff16146102d5576040517f08c379a00000000000000000000000000000000000000000000000000000000081526004016102cc906108f8565b60405180910390fd5b6102dd610339565b61031c576040517f08c379a000000000000000000000000000000000000000000000000000000000815260040161031390610960565b60405180910390fd5b60025f61032991906106d5565b5f600381905550565b5f47905090565b5f6002805490506003541015905090565b60015f9054906101000a900473ffffffffffffffffffffffffffffffffffffffff1673ffffffffffffffffffffffffffffffffffffffff163373ffffffffffffffffffffffffffffffffffffffff16146103d9576040517f08c379a00000000000000000000000000000000000000000000000000000000081526004016103d0906109c8565b60405180910390fd5b5f811161041b576040517f08c379a000000000000000000000000000000000000000000000000000000000815260040161041290610a56565b60405180910390fd5b5f5b60028054905060035410801561043257508181105b15610572575f60026003548154811061044e5761044d610a74565b5b905f5260205f20015f9054906101000a900473ffffffffffffffffffffffffffffffffffffffff1690505f805f8373ffffffffffffffffffffffffffffffffffffffff1673ffffffffffffffffffffffffffffffffffffffff1681526020019081526020015f205490505f811115610546575f805f8473ffffffffffffffffffffffffffffffffffffffff1673ffffffffffffffffffffffffffffffffffffffff1681526020019081526020015f20819055508173ffffffffffffffffffffffffffffffffffffffff166108fc8290811502906040515f60405180830381858888f19350505050158015610544573d5f803e3d5ffd5b505b60035f81548092919061055890610ace565b9190505550828061056890610ace565b935050505061041d565b5050565b5f34116105b8576040517f08c379a00000000000000000000000000000000000000000000000000000000081526004016105af90610b85565b60405180910390fd5b5f805f3373ffffffffffffffffffffffffffffffffffffffff1673ffffffffffffffffffffffffffffffffffffffff1681526020019081526020015f20540361065c57600233908060018154018082558091505060019003905f5260205f20015f9091909190916101000a81548173ffffffffffffffffffffffffffffffffffffffff021916908373ffffffffffffffffffffffffffffffffffffffff1602179055505b345f803373ffffffffffffffffffffffffffffffffffffffff1673ffffffffffffffffffffffffffffffffffffffff1681526020019081526020015f205f8282546106a79190610ba3565b92505081905550565b60015f9054906101000a900473ffffffffffffffffffffffffffffffffffffffff1681565b5080545f8255905f5260205f20908101906106f091906106f3565b50565b5b8082111561070a575f815f9055506001016106f4565b5090565b5f819050919050565b6107208161070e565b82525050565b5f6020820190506107395f830184610717565b92915050565b5f80fd5b5f73ffffffffffffffffffffffffffffffffffffffff82169050919050565b5f61076c82610743565b9050919050565b61077c81610762565b8114610786575f80fd5b50565b5f8135905061079781610773565b92915050565b5f602082840312156107b2576107b161073f565b5b5f6107bf84828501610789565b91505092915050565b6107d18161070e565b81146107db575f80fd5b50565b5f813590506107ec816107c8565b92915050565b5f602082840312156108075761080661073f565b5b5f610814848285016107de565b91505092915050565b61082681610762565b82525050565b5f60208201905061083f5f83018461081d565b92915050565b5f8115159050919050565b61085981610845565b82525050565b5f6020820190506108725f830184610850565b92915050565b5f82825260208201905092915050565b7f4f6e6c792061646d696e2063616e2072657365742074686520636f6e747261635f8201527f742e000000000000000000000000000000000000000000000000000000000000602082015250565b5f6108e2602283610878565b91506108ed82610888565b604082019050919050565b5f6020820190508181035f83015261090f816108d6565b9050919050565b7f526566756e642070726f63657373206e6f7420636f6d706c6574652e000000005f82015250565b5f61094a601c83610878565b915061095582610916565b602082019050919050565b5f6020820190508181035f8301526109778161093e565b9050919050565b7f4f6e6c792061646d696e2063616e20726566756e642e000000000000000000005f82015250565b5f6109b2601683610878565b91506109bd8261097e565b602082019050919050565b5f6020820190508181035f8301526109df816109a6565b9050919050565b7f42617463682073697a65206d7573742062652067726561746572207468616e205f8201527f7a65726f2e000000000000000000000000000000000000000000000000000000602082015250565b5f610a40602583610878565b9150610a4b826109e6565b604082019050919050565b5f6020820190508181035f830152610a6d81610a34565b9050919050565b7f4e487b71000000000000000000000000000000000000000000000000000000005f52603260045260245ffd5b7f4e487b71000000000000000000000000000000000000000000000000000000005f52601160045260245ffd5b5f610ad88261070e565b91507fffffffffffffffffffffffffffffffffffffffffffffffffffffffffffffffff8203610b0a57610b09610aa1565b5b600182019050919050565b7f4465706f736974206d7573742062652067726561746572207468616e207a65725f8201527f6f2e000000000000000000000000000000000000000000000000000000000000602082015250565b5f610b6f602283610878565b9150610b7a82610b15565b604082019050919050565b5f6020820190508181035f830152610b9c81610b63565b9050919050565b5f610bad8261070e565b9150610bb88361070e565b9250828201905080821115610bd057610bcf610aa1565b5b9291505056fea2646970667358221220913be37cdccc03628031e8029e310a0a4889637b3b973385887842de871119f264736f6c634300081a0033",
			"opcodes": "PUSH1 0x80 PUSH1 0x40 MSTORE CALLVALUE DUP1 ISZERO PUSH1 0xE JUMPI PUSH0 DUP1 REVERT JUMPDEST POP CALLER PUSH1 0x1 PUSH0 PUSH2 0x100 EXP DUP2 SLOAD DUP2 PUSH20 0xFFFFFFFFFFFFFFFFFFFFFFFFFFFFFFFFFFFFFFFF MUL NOT AND SWAP1 DUP4 PUSH20 0xFFFFFFFFFFFFFFFFFFFFFFFFFFFFFFFFFFFFFFFF AND MUL OR SWAP1 SSTORE POP PUSH2 0xC0C DUP1 PUSH2 0x5C PUSH0 CODECOPY PUSH0 RETURN INVALID PUSH1 0x80 PUSH1 0x40 MSTORE PUSH1 0x4 CALLDATASIZE LT PUSH2 0x85 JUMPI PUSH0 CALLDATALOAD PUSH1 0xE0 SHR DUP1 PUSH4 0x44E73B78 GT PUSH2 0x58 JUMPI DUP1 PUSH4 0x44E73B78 EQ PUSH2 0x141 JUMPI DUP1 PUSH4 0x54B697FF EQ PUSH2 0x16B JUMPI DUP1 PUSH4 0xB2DF7D26 EQ PUSH2 0x195 JUMPI DUP1 PUSH4 0xED21248C EQ PUSH2 0x1BD JUMPI DUP1 PUSH4 0xF851A440 EQ PUSH2 0x1C7 JUMPI PUSH2 0x85 JUMP JUMPDEST DUP1 PUSH4 0x26987B60 EQ PUSH2 0x89 JUMPI DUP1 PUSH4 0x27E235E3 EQ PUSH2 0xB3 JUMPI DUP1 PUSH4 0x365B98B2 EQ PUSH2 0xEF JUMPI DUP1 PUSH4 0x3EEDC1C5 EQ PUSH2 0x12B JUMPI JUMPDEST PUSH0 DUP1 REVERT JUMPDEST CALLVALUE DUP1 ISZERO PUSH2 0x94 JUMPI PUSH0 DUP1 REVERT JUMPDEST POP PUSH2 0x9D PUSH2 0x1F1 JUMP JUMPDEST PUSH1 0x40 MLOAD PUSH2 0xAA SWAP2 SWAP1 PUSH2 0x726 JUMP JUMPDEST PUSH1 0x40 MLOAD DUP1 SWAP2 SUB SWAP1 RETURN JUMPDEST CALLVALUE DUP1 ISZERO PUSH2 0xBE JUMPI PUSH0 DUP1 REVERT JUMPDEST POP PUSH2 0xD9 PUSH1 0x4 DUP1 CALLDATASIZE SUB DUP2 ADD SWAP1 PUSH2 0xD4 SWAP2 SWAP1 PUSH2 0x79D JUMP JUMPDEST PUSH2 0x1F7 JUMP JUMPDEST PUSH1 0x40 MLOAD PUSH2 0xE6 SWAP2 SWAP1 PUSH2 0x726 JUMP JUMPDEST PUSH1 0x40 MLOAD DUP1 SWAP2 SUB SWAP1 RETURN JUMPDEST CALLVALUE DUP1 ISZERO PUSH2 0xFA JUMPI PUSH0 DUP1 REVERT JUMPDEST POP PUSH2 0x115 PUSH1 0x4 DUP1 CALLDATASIZE SUB DUP2 ADD SWAP1 PUSH2 0x110 SWAP2 SWAP1 PUSH2 0x7F2 JUMP JUMPDEST PUSH2 0x20B JUMP JUMPDEST PUSH1 0x40 MLOAD PUSH2 0x122 SWAP2 SWAP1 PUSH2 0x82C JUMP JUMPDEST PUSH1 0x40 MLOAD DUP1 SWAP2 SUB SWAP1 RETURN JUMPDEST CALLVALUE DUP1 ISZERO PUSH2 0x136 JUMPI PUSH0 DUP1 REVERT JUMPDEST POP PUSH2 0x13F PUSH2 0x246 JUMP JUMPDEST STOP JUMPDEST CALLVALUE DUP1 ISZERO PUSH2 0x14C JUMPI PUSH0 DUP1 REVERT JUMPDEST POP PUSH2 0x155 PUSH2 0x332 JUMP JUMPDEST PUSH1 0x40 MLOAD PUSH2 0x162 SWAP2 SWAP1 PUSH2 0x726 JUMP JUMPDEST PUSH1 0x40 MLOAD DUP1 SWAP2 SUB SWAP1 RETURN JUMPDEST CALLVALUE DUP1 ISZERO PUSH2 0x176 JUMPI PUSH0 DUP1 REVERT JUMPDEST POP PUSH2 0x17F PUSH2 0x339 JUMP JUMPDEST PUSH1 0x40 MLOAD PUSH2 0x18C SWAP2 SWAP1 PUSH2 0x85F JUMP JUMPDEST PUSH1 0x40 MLOAD DUP1 SWAP2 SUB SWAP1 RETURN JUMPDEST CALLVALUE DUP1 ISZERO PUSH2 0x1A0 JUMPI PUSH0 DUP1 REVERT JUMPDEST POP PUSH2 0x1BB PUSH1 0x4 DUP1 CALLDATASIZE SUB DUP2 ADD SWAP1 PUSH2 0x1B6 SWAP2 SWAP1 PUSH2 0x7F2 JUMP JUMPDEST PUSH2 0x34A JUMP JUMPDEST STOP JUMPDEST PUSH2 0x1C5 PUSH2 0x576 JUMP JUMPDEST STOP JUMPDEST CALLVALUE DUP1 ISZERO PUSH2 0x1D2 JUMPI PUSH0 DUP1 REVERT JUMPDEST POP PUSH2 0x1DB PUSH2 0x6B0 JUMP JUMPDEST PUSH1 0x40 MLOAD PUSH2 0x1E8 SWAP2 SWAP1 PUSH2 0x82C JUMP JUMPDEST PUSH1 0x40 MLOAD DUP1 SWAP2 SUB SWAP1 RETURN JUMPDEST PUSH1 0x3 SLOAD DUP2 JUMP JUMPDEST PUSH0 PUSH1 0x20 MSTORE DUP1 PUSH0 MSTORE PUSH1 0x40 PUSH0 KECCAK256 PUSH0 SWAP2 POP SWAP1 POP SLOAD DUP2 JUMP JUMPDEST PUSH1 0x2 DUP2 DUP2 SLOAD DUP2 LT PUSH2 0x21A JUMPI PUSH0 DUP1 REVERT JUMPDEST SWAP1 PUSH0 MSTORE PUSH1 0x20 PUSH0 KECCAK256 ADD PUSH0 SWAP2 POP SLOAD SWAP1 PUSH2 0x100 EXP SWAP1 DIV PUSH20 0xFFFFFFFFFFFFFFFFFFFFFFFFFFFFFFFFFFFFFFFF AND DUP2 JUMP JUMPDEST PUSH1 0x1 PUSH0 SWAP1 SLOAD SWAP1 PUSH2 0x100 EXP SWAP1 DIV PUSH20 0xFFFFFFFFFFFFFFFFFFFFFFFFFFFFFFFFFFFFFFFF AND PUSH20 0xFFFFFFFFFFFFFFFFFFFFFFFFFFFFFFFFFFFFFFFF AND CALLER PUSH20 0xFFFFFFFFFFFFFFFFFFFFFFFFFFFFFFFFFFFFFFFF AND EQ PUSH2 0x2D5 JUMPI PUSH1 0x40 MLOAD PUSH32 0x8C379A000000000000000000000000000000000000000000000000000000000 DUP2 MSTORE PUSH1 0x4 ADD PUSH2 0x2CC SWAP1 PUSH2 0x8F8 JUMP JUMPDEST PUSH1 0x40 MLOAD DUP1 SWAP2 SUB SWAP1 REVERT JUMPDEST PUSH2 0x2DD PUSH2 0x339 JUMP JUMPDEST PUSH2 0x31C JUMPI PUSH1 0x40 MLOAD PUSH32 0x8C379A000000000000000000000000000000000000000000000000000000000 DUP2 MSTORE PUSH1 0x4 ADD PUSH2 0x313 SWAP1 PUSH2 0x960 JUMP JUMPDEST PUSH1 0x40 MLOAD DUP1 SWAP2 SUB SWAP1 REVERT JUMPDEST PUSH1 0x2 PUSH0 PUSH2 0x329 SWAP2 SWAP1 PUSH2 0x6D5 JUMP JUMPDEST PUSH0 PUSH1 0x3 DUP2 SWAP1 SSTORE POP JUMP JUMPDEST PUSH0 SELFBALANCE SWAP1 POP SWAP1 JUMP JUMPDEST PUSH0 PUSH1 0x2 DUP1 SLOAD SWAP1 POP PUSH1 0x3 SLOAD LT ISZERO SWAP1 POP SWAP1 JUMP JUMPDEST PUSH1 0x1 PUSH0 SWAP1 SLOAD SWAP1 PUSH2 0x100 EXP SWAP1 DIV PUSH20 0xFFFFFFFFFFFFFFFFFFFFFFFFFFFFFFFFFFFFFFFF AND PUSH20 0xFFFFFFFFFFFFFFFFFFFFFFFFFFFFFFFFFFFFFFFF AND CALLER PUSH20 0xFFFFFFFFFFFFFFFFFFFFFFFFFFFFFFFFFFFFFFFF AND EQ PUSH2 0x3D9 JUMPI PUSH1 0x40 MLOAD PUSH32 0x8C379A000000000000000000000000000000000000000000000000000000000 DUP2 MSTORE PUSH1 0x4 ADD PUSH2 0x3D0 SWAP1 PUSH2 0x9C8 JUMP JUMPDEST PUSH1 0x40 MLOAD DUP1 SWAP2 SUB SWAP1 REVERT JUMPDEST PUSH0 DUP2 GT PUSH2 0x41B JUMPI PUSH1 0x40 MLOAD PUSH32 0x8C379A000000000000000000000000000000000000000000000000000000000 DUP2 MSTORE PUSH1 0x4 ADD PUSH2 0x412 SWAP1 PUSH2 0xA56 JUMP JUMPDEST PUSH1 0x40 MLOAD DUP1 SWAP2 SUB SWAP1 REVERT JUMPDEST PUSH0 JUMPDEST PUSH1 0x2 DUP1 SLOAD SWAP1 POP PUSH1 0x3 SLOAD LT DUP1 ISZERO PUSH2 0x432 JUMPI POP DUP2 DUP2 LT JUMPDEST ISZERO PUSH2 0x572 JUMPI PUSH0 PUSH1 0x2 PUSH1 0x3 SLOAD DUP2 SLOAD DUP2 LT PUSH2 0x44E JUMPI PUSH2 0x44D PUSH2 0xA74 JUMP JUMPDEST JUMPDEST SWAP1 PUSH0 MSTORE PUSH1 0x20 PUSH0 KECCAK256 ADD PUSH0 SWAP1 SLOAD SWAP1 PUSH2 0x100 EXP SWAP1 DIV PUSH20 0xFFFFFFFFFFFFFFFFFFFFFFFFFFFFFFFFFFFFFFFF AND SWAP1 POP PUSH0 DUP1 PUSH0 DUP4 PUSH20 0xFFFFFFFFFFFFFFFFFFFFFFFFFFFFFFFFFFFFFFFF AND PUSH20 0xFFFFFFFFFFFFFFFFFFFFFFFFFFFFFFFFFFFFFFFF AND DUP2 MSTORE PUSH1 0x20 ADD SWAP1 DUP2 MSTORE PUSH1 0x20 ADD PUSH0 KECCAK256 SLOAD SWAP1 POP PUSH0 DUP2 GT ISZERO PUSH2 0x546 JUMPI PUSH0 DUP1 PUSH0 DUP5 PUSH20 0xFFFFFFFFFFFFFFFFFFFFFFFFFFFFFFFFFFFFFFFF AND PUSH20 0xFFFFFFFFFFFFFFFFFFFFFFFFFFFFFFFFFFFFFFFF AND DUP2 MSTORE PUSH1 0x20 ADD SWAP1 DUP2 MSTORE PUSH1 0x20 ADD PUSH0 KECCAK256 DUP2 SWAP1 SSTORE POP DUP2 PUSH20 0xFFFFFFFFFFFFFFFFFFFFFFFFFFFFFFFFFFFFFFFF AND PUSH2 0x8FC DUP3 SWAP1 DUP2 ISZERO MUL SWAP1 PUSH1 0x40 MLOAD PUSH0 PUSH1 0x40 MLOAD DUP1 DUP4 SUB DUP2 DUP6 DUP9 DUP9 CALL SWAP4 POP POP POP POP ISZERO DUP1 ISZERO PUSH2 0x544 JUMPI RETURNDATASIZE PUSH0 DUP1 RETURNDATACOPY RETURNDATASIZE PUSH0 REVERT JUMPDEST POP JUMPDEST PUSH1 0x3 PUSH0 DUP2 SLOAD DUP1 SWAP3 SWAP2 SWAP1 PUSH2 0x558 SWAP1 PUSH2 0xACE JUMP JUMPDEST SWAP2 SWAP1 POP SSTORE POP DUP3 DUP1 PUSH2 0x568 SWAP1 PUSH2 0xACE JUMP JUMPDEST SWAP4 POP POP POP POP PUSH2 0x41D JUMP JUMPDEST POP POP JUMP JUMPDEST PUSH0 CALLVALUE GT PUSH2 0x5B8 JUMPI PUSH1 0x40 MLOAD PUSH32 0x8C379A000000000000000000000000000000000000000000000000000000000 DUP2 MSTORE PUSH1 0x4 ADD PUSH2 0x5AF SWAP1 PUSH2 0xB85 JUMP JUMPDEST PUSH1 0x40 MLOAD DUP1 SWAP2 SUB SWAP1 REVERT JUMPDEST PUSH0 DUP1 PUSH0 CALLER PUSH20 0xFFFFFFFFFFFFFFFFFFFFFFFFFFFFFFFFFFFFFFFF AND PUSH20 0xFFFFFFFFFFFFFFFFFFFFFFFFFFFFFFFFFFFFFFFF AND DUP2 MSTORE PUSH1 0x20 ADD SWAP1 DUP2 MSTORE PUSH1 0x20 ADD PUSH0 KECCAK256 SLOAD SUB PUSH2 0x65C JUMPI PUSH1 0x2 CALLER SWAP1 DUP1 PUSH1 0x1 DUP2 SLOAD ADD DUP1 DUP3 SSTORE DUP1 SWAP2 POP POP PUSH1 0x1 SWAP1 SUB SWAP1 PUSH0 MSTORE PUSH1 0x20 PUSH0 KECCAK256 ADD PUSH0 SWAP1 SWAP2 SWAP1 SWAP2 SWAP1 SWAP2 PUSH2 0x100 EXP DUP2 SLOAD DUP2 PUSH20 0xFFFFFFFFFFFFFFFFFFFFFFFFFFFFFFFFFFFFFFFF MUL NOT AND SWAP1 DUP4 PUSH20 0xFFFFFFFFFFFFFFFFFFFFFFFFFFFFFFFFFFFFFFFF AND MUL OR SWAP1 SSTORE POP JUMPDEST CALLVALUE PUSH0 DUP1 CALLER PUSH20 0xFFFFFFFFFFFFFFFFFFFFFFFFFFFFFFFFFFFFFFFF AND PUSH20 0xFFFFFFFFFFFFFFFFFFFFFFFFFFFFFFFFFFFFFFFF AND DUP2 MSTORE PUSH1 0x20 ADD SWAP1 DUP2 MSTORE PUSH1 0x20 ADD PUSH0 KECCAK256 PUSH0 DUP3 DUP3 SLOAD PUSH2 0x6A7 SWAP2 SWAP1 PUSH2 0xBA3 JUMP JUMPDEST SWAP3 POP POP DUP2 SWAP1 SSTORE POP JUMP JUMPDEST PUSH1 0x1 PUSH0 SWAP1 SLOAD SWAP1 PUSH2 0x100 EXP SWAP1 DIV PUSH20 0xFFFFFFFFFFFFFFFFFFFFFFFFFFFFFFFFFFFFFFFF AND DUP2 JUMP JUMPDEST POP DUP1 SLOAD PUSH0 DUP3 SSTORE SWAP1 PUSH0 MSTORE PUSH1 0x20 PUSH0 KECCAK256 SWAP1 DUP2 ADD SWAP1 PUSH2 0x6F0 SWAP2 SWAP1 PUSH2 0x6F3 JUMP JUMPDEST POP JUMP JUMPDEST JUMPDEST DUP1 DUP3 GT ISZERO PUSH2 0x70A JUMPI PUSH0 DUP2 PUSH0 SWAP1 SSTORE POP PUSH1 0x1 ADD PUSH2 0x6F4 JUMP JUMPDEST POP SWAP1 JUMP JUMPDEST PUSH0 DUP2 SWAP1 POP SWAP2 SWAP1 POP JUMP JUMPDEST PUSH2 0x720 DUP2 PUSH2 0x70E JUMP JUMPDEST DUP3 MSTORE POP POP JUMP JUMPDEST PUSH0 PUSH1 0x20 DUP3 ADD SWAP1 POP PUSH2 0x739 PUSH0 DUP4 ADD DUP5 PUSH2 0x717 JUMP JUMPDEST SWAP3 SWAP2 POP POP JUMP JUMPDEST PUSH0 DUP1 REVERT JUMPDEST PUSH0 PUSH20 0xFFFFFFFFFFFFFFFFFFFFFFFFFFFFFFFFFFFFFFFF DUP3 AND SWAP1 POP SWAP2 SWAP1 POP JUMP JUMPDEST PUSH0 PUSH2 0x76C DUP3 PUSH2 0x743 JUMP JUMPDEST SWAP1 POP SWAP2 SWAP1 POP JUMP JUMPDEST PUSH2 0x77C DUP2 PUSH2 0x762 JUMP JUMPDEST DUP2 EQ PUSH2 0x786 JUMPI PUSH0 DUP1 REVERT JUMPDEST POP JUMP JUMPDEST PUSH0 DUP2 CALLDATALOAD SWAP1 POP PUSH2 0x797 DUP2 PUSH2 0x773 JUMP JUMPDEST SWAP3 SWAP2 POP POP JUMP JUMPDEST PUSH0 PUSH1 0x20 DUP3 DUP5 SUB SLT ISZERO PUSH2 0x7B2 JUMPI PUSH2 0x7B1 PUSH2 0x73F JUMP JUMPDEST JUMPDEST PUSH0 PUSH2 0x7BF DUP5 DUP3 DUP6 ADD PUSH2 0x789 JUMP JUMPDEST SWAP2 POP POP SWAP3 SWAP2 POP POP JUMP JUMPDEST PUSH2 0x7D1 DUP2 PUSH2 0x70E JUMP JUMPDEST DUP2 EQ PUSH2 0x7DB JUMPI PUSH0 DUP1 REVERT JUMPDEST POP JUMP JUMPDEST PUSH0 DUP2 CALLDATALOAD SWAP1 POP PUSH2 0x7EC DUP2 PUSH2 0x7C8 JUMP JUMPDEST SWAP3 SWAP2 POP POP JUMP JUMPDEST PUSH0 PUSH1 0x20 DUP3 DUP5 SUB SLT ISZERO PUSH2 0x807 JUMPI PUSH2 0x806 PUSH2 0x73F JUMP JUMPDEST JUMPDEST PUSH0 PUSH2 0x814 DUP5 DUP3 DUP6 ADD PUSH2 0x7DE JUMP JUMPDEST SWAP2 POP POP SWAP3 SWAP2 POP POP JUMP JUMPDEST PUSH2 0x826 DUP2 PUSH2 0x762 JUMP JUMPDEST DUP3 MSTORE POP POP JUMP JUMPDEST PUSH0 PUSH1 0x20 DUP3 ADD SWAP1 POP PUSH2 0x83F PUSH0 DUP4 ADD DUP5 PUSH2 0x81D JUMP JUMPDEST SWAP3 SWAP2 POP POP JUMP JUMPDEST PUSH0 DUP2 ISZERO ISZERO SWAP1 POP SWAP2 SWAP1 POP JUMP JUMPDEST PUSH2 0x859 DUP2 PUSH2 0x845 JUMP JUMPDEST DUP3 MSTORE POP POP JUMP JUMPDEST PUSH0 PUSH1 0x20 DUP3 ADD SWAP1 POP PUSH2 0x872 PUSH0 DUP4 ADD DUP5 PUSH2 0x850 JUMP JUMPDEST SWAP3 SWAP2 POP POP JUMP JUMPDEST PUSH0 DUP3 DUP3 MSTORE PUSH1 0x20 DUP3 ADD SWAP1 POP SWAP3 SWAP2 POP POP JUMP JUMPDEST PUSH32 0x4F6E6C792061646D696E2063616E2072657365742074686520636F6E74726163 PUSH0 DUP3 ADD MSTORE PUSH32 0x742E000000000000000000000000000000000000000000000000000000000000 PUSH1 0x20 DUP3 ADD MSTORE POP JUMP JUMPDEST PUSH0 PUSH2 0x8E2 PUSH1 0x22 DUP4 PUSH2 0x878 JUMP JUMPDEST SWAP2 POP PUSH2 0x8ED DUP3 PUSH2 0x888 JUMP JUMPDEST PUSH1 0x40 DUP3 ADD SWAP1 POP SWAP2 SWAP1 POP JUMP JUMPDEST PUSH0 PUSH1 0x20 DUP3 ADD SWAP1 POP DUP2 DUP2 SUB PUSH0 DUP4 ADD MSTORE PUSH2 0x90F DUP2 PUSH2 0x8D6 JUMP JUMPDEST SWAP1 POP SWAP2 SWAP1 POP JUMP JUMPDEST PUSH32 0x526566756E642070726F63657373206E6F7420636F6D706C6574652E00000000 PUSH0 DUP3 ADD MSTORE POP JUMP JUMPDEST PUSH0 PUSH2 0x94A PUSH1 0x1C DUP4 PUSH2 0x878 JUMP JUMPDEST SWAP2 POP PUSH2 0x955 DUP3 PUSH2 0x916 JUMP JUMPDEST PUSH1 0x20 DUP3 ADD SWAP1 POP SWAP2 SWAP1 POP JUMP JUMPDEST PUSH0 PUSH1 0x20 DUP3 ADD SWAP1 POP DUP2 DUP2 SUB PUSH0 DUP4 ADD MSTORE PUSH2 0x977 DUP2 PUSH2 0x93E JUMP JUMPDEST SWAP1 POP SWAP2 SWAP1 POP JUMP JUMPDEST PUSH32 0x4F6E6C792061646D696E2063616E20726566756E642E00000000000000000000 PUSH0 DUP3 ADD MSTORE POP JUMP JUMPDEST PUSH0 PUSH2 0x9B2 PUSH1 0x16 DUP4 PUSH2 0x878 JUMP JUMPDEST SWAP2 POP PUSH2 0x9BD DUP3 PUSH2 0x97E JUMP JUMPDEST PUSH1 0x20 DUP3 ADD SWAP1 POP SWAP2 SWAP1 POP JUMP JUMPDEST PUSH0 PUSH1 0x20 DUP3 ADD SWAP1 POP DUP2 DUP2 SUB PUSH0 DUP4 ADD MSTORE PUSH2 0x9DF DUP2 PUSH2 0x9A6 JUMP JUMPDEST SWAP1 POP SWAP2 SWAP1 POP JUMP JUMPDEST PUSH32 0x42617463682073697A65206D7573742062652067726561746572207468616E20 PUSH0 DUP3 ADD MSTORE PUSH32 0x7A65726F2E000000000000000000000000000000000000000000000000000000 PUSH1 0x20 DUP3 ADD MSTORE POP JUMP JUMPDEST PUSH0 PUSH2 0xA40 PUSH1 0x25 DUP4 PUSH2 0x878 JUMP JUMPDEST SWAP2 POP PUSH2 0xA4B DUP3 PUSH2 0x9E6 JUMP JUMPDEST PUSH1 0x40 DUP3 ADD SWAP1 POP SWAP2 SWAP1 POP JUMP JUMPDEST PUSH0 PUSH1 0x20 DUP3 ADD SWAP1 POP DUP2 DUP2 SUB PUSH0 DUP4 ADD MSTORE PUSH2 0xA6D DUP2 PUSH2 0xA34 JUMP JUMPDEST SWAP1 POP SWAP2 SWAP1 POP JUMP JUMPDEST PUSH32 0x4E487B7100000000000000000000000000000000000000000000000000000000 PUSH0 MSTORE PUSH1 0x32 PUSH1 0x4 MSTORE PUSH1 0x24 PUSH0 REVERT JUMPDEST PUSH32 0x4E487B7100000000000000000000000000000000000000000000000000000000 PUSH0 MSTORE PUSH1 0x11 PUSH1 0x4 MSTORE PUSH1 0x24 PUSH0 REVERT JUMPDEST PUSH0 PUSH2 0xAD8 DUP3 PUSH2 0x70E JUMP JUMPDEST SWAP2 POP PUSH32 0xFFFFFFFFFFFFFFFFFFFFFFFFFFFFFFFFFFFFFFFFFFFFFFFFFFFFFFFFFFFFFFFF DUP3 SUB PUSH2 0xB0A JUMPI PUSH2 0xB09 PUSH2 0xAA1 JUMP JUMPDEST JUMPDEST PUSH1 0x1 DUP3 ADD SWAP1 POP SWAP2 SWAP1 POP JUMP JUMPDEST PUSH32 0x4465706F736974206D7573742062652067726561746572207468616E207A6572 PUSH0 DUP3 ADD MSTORE PUSH32 0x6F2E000000000000000000000000000000000000000000000000000000000000 PUSH1 0x20 DUP3 ADD MSTORE POP JUMP JUMPDEST PUSH0 PUSH2 0xB6F PUSH1 0x22 DUP4 PUSH2 0x878 JUMP JUMPDEST SWAP2 POP PUSH2 0xB7A DUP3 PUSH2 0xB15 JUMP JUMPDEST PUSH1 0x40 DUP3 ADD SWAP1 POP SWAP2 SWAP1 POP JUMP JUMPDEST PUSH0 PUSH1 0x20 DUP3 ADD SWAP1 POP DUP2 DUP2 SUB PUSH0 DUP4 ADD MSTORE PUSH2 0xB9C DUP2 PUSH2 0xB63 JUMP JUMPDEST SWAP1 POP SWAP2 SWAP1 POP JUMP JUMPDEST PUSH0 PUSH2 0xBAD DUP3 PUSH2 0x70E JUMP JUMPDEST SWAP2 POP PUSH2 0xBB8 DUP4 PUSH2 0x70E JUMP JUMPDEST SWAP3 POP DUP3 DUP3 ADD SWAP1 POP DUP1 DUP3 GT ISZERO PUSH2 0xBD0 JUMPI PUSH2 0xBCF PUSH2 0xAA1 JUMP JUMPDEST JUMPDEST SWAP3 SWAP2 POP POP JUMP INVALID LOG2 PUSH5 0x6970667358 0x22 SLT KECCAK256 SWAP2 EXTCODESIZE 0xE3 PUSH29 0xDCCC03628031E8029E310A0A4889637B3B973385887842DE871119F264 PUSH20 0x6F6C634300081A00330000000000000000000000 "
		},
		"gasEstimates": {
			"creation": {
				"codeDepositCost": "616800",
				"executionCost": "24914",
				"totalCost": "641714"
			},
			"external": {
				"CheckBalance()": "334",
				"Deposit()": "infinite",
				"IsRefundComplete()": "4577",
				"RefundBatch(uint256)": "infinite",
				"ResetContract()": "infinite",
				"admin()": "2596",
				"balances(address)": "2824",
				"currentIndex()": "2426",
				"users(uint256)": "4989"
			}
		},
		"methodIdentifiers": {
			"CheckBalance()": "44e73b78",
			"Deposit()": "ed21248c",
			"IsRefundComplete()": "54b697ff",
			"RefundBatch(uint256)": "b2df7d26",
			"ResetContract()": "3eedc1c5",
			"admin()": "f851a440",
			"balances(address)": "27e235e3",
			"currentIndex()": "26987b60",
			"users(uint256)": "365b98b2"
		}
	},
	"abi": [
		{
			"inputs": [],
			"stateMutability": "nonpayable",
			"type": "constructor"
		},
		{
			"inputs": [],
			"name": "CheckBalance",
			"outputs": [
				{
					"internalType": "uint256",
					"name": "",
					"type": "uint256"
				}
			],
			"stateMutability": "view",
			"type": "function"
		},
		{
			"inputs": [],
			"name": "Deposit",
			"outputs": [],
			"stateMutability": "payable",
			"type": "function"
		},
		{
			"inputs": [],
			"name": "IsRefundComplete",
			"outputs": [
				{
					"internalType": "bool",
					"name": "",
					"type": "bool"
				}
			],
			"stateMutability": "view",
			"type": "function"
		},
		{
			"inputs": [
				{
					"internalType": "uint256",
					"name": "batchSize",
					"type": "uint256"
				}
			],
			"name": "RefundBatch",
			"outputs": [],
			"stateMutability": "nonpayable",
			"type": "function"
		},
		{
			"inputs": [],
			"name": "ResetContract",
			"outputs": [],
			"stateMutability": "nonpayable",
			"type": "function"
		},
		{
			"inputs": [],
			"name": "admin",
			"outputs": [
				{
					"internalType": "address",
					"name": "",
					"type": "address"
				}
			],
			"stateMutability": "view",
			"type": "function"
		},
		{
			"inputs": [
				{
					"internalType": "address",
					"name": "",
					"type": "address"
				}
			],
			"name": "balances",
			"outputs": [
				{
					"internalType": "uint256",
					"name": "",
					"type": "uint256"
				}
			],
			"stateMutability": "view",
			"type": "function"
		},
		{
			"inputs": [],
			"name": "currentIndex",
			"outputs": [
				{
					"internalType": "uint256",
					"name": "",
					"type": "uint256"
				}
			],
			"stateMutability": "view",
			"type": "function"
		},
		{
			"inputs": [
				{
					"internalType": "uint256",
					"name": "",
					"type": "uint256"
				}
			],
			"name": "users",
			"outputs": [
				{
					"internalType": "address",
					"name": "",
					"type": "address"
				}
			],
			"stateMutability": "view",
			"type": "function"
		}
	]
}